:1000000017EF00F0EA6A050EE96EEF500EE00C0EF5
:10001000016E006A002EFED7012EFBD7F70E006E90
:10002000002EFED700D0EF2EF2D742EF00F0F86A94
:10003000D09EEA6AE96A949E8B8EC150C00B0F096C
:10004000C16EC150C00B0F09C16EC050C00BC06E55
:10005000C09EC280C69A949A94889496010EC66EE9
:10006000000EC76ED190800ED56ECD6A000ECA6E9E
:10007000000ECB6E9484BD6AB56A92908970640E4E
:08008000056EC0D7FAD7FFD7C7
:020000040030CA
:0E00000000C6190E008610000FC00FE00F4062
:00000001FF
;PIC18F2580
;CRC=82D1  CREATED="04-Jul-11 15:02"
