:1000000010308A0000280000FF00030E8301A100C9
:100010000A08A0008A010408A2007708A300780853
:10002000A4007908A5007A08A6007B08A70083131E
:1000300083128C308400801E1F288C1A32282208DC
:1000400084002308F7002408F8002508F900260892
:10005000FA002708FB0020088A00210E8300FF0E0B
:100060007F0E09008A110A12A52C0A108A100A11A3
:1000700082074434453442345534473420344D34B7
:100080004F344434453420344F344E3420340A3411
:100090000D3400340A108A100A1182076434653462
:1000A00062347534673400340A108A100A118207EA
:1000B0004534523452344F34523420344334413472
:1000C0004E345F3442345534463446344534523429
:1000D0002034463455344C344C3420346E345C3443
:1000E000723400340A108A100A11820745345234DF
:1000F00052344F345234203454345834203443343E
:1001000041344E3420344234553446344634453438
:1001100052342034463455344C344C3420340A3470
:100120000D3400340A108A100A1182072A34203450
:10013000203420342034203431342D344434653498
:1001400062347534673420344F34463446342034B6
:1001500020342034203420342034203420342034FF
:100160002034203420342A340A340D3400340A1068
:100170008A100A1182072A34203420342034203493
:10018000203432342D344D344334503420346434EC
:1001900075346D34703420342034203420342034CD
:1001A00020342034203420342034203420342034AF
:1001B0002A340A340D3400340A108A100A11E33E3E
:1001C00003188A0A82002A34203420342034203450
:1001D000203433342D344D3443345034203463349C
:1001E0006F346E34663469346734203420342034FC
:1001F000203420342034203420342034203420345F
:100200002A340A340D3400340A148A100A11820781
:100210002A342034203420342034203434342D3413
:100220004D34433450342034533465346E346434A4
:10023000203420342034203420342034203420341E
:10024000203420342034203420342A340A340D342D
:1002500000340A148A100A1182072A342034203408
:1002600020342034203435342D3463346F346E34EC
:10027000663469346734753472346134633461349C
:100280006F34203464346534203465346E3464341F
:10029000203420342A340A340D3400340A148A10ED
:1002A0000A1182072A3420342034203420342034A8
:1002B00036342D344D344334503420347234653464
:1002C00073346534743420342034203420342034A2
:1002D00020342034203420342034203420342A3474
:1002E0000A340D3400340A148A100A1182072A34A1
:1002F0002034203420342034203437342D344D340D
:100300004334503420347234653463346534693492
:1003100076346534203420342034203420342034A2
:1003200020342034203420342A340A340D3400346C
:100330000A148A100A1182072A3420342034203407
:100340002034203438342D3463346C3465346134D3
:1003500072342034723465346334653469347634ED
:1003600065342034623475346634663465347234EE
:1003700020342A340A340D3400340A148A100A1145
:1003800082072A3420342034203420342034673447
:100390002D3453344134563445342034413464349C
:1003A0007234653473347334203420342034203470
:1003B0002034203420342034203420342A340A34A9
:1003C0000D3400340A148A100A11E93E03188A0A0F
:1003D00082002A34203420342034203420346C34F9
:1003E0002D3452344534413444342034413464345F
:1003F0007234653473347334203420342034203420
:100400002034203420342034203420342A340A3458
:100410000D3400340A108A140A1182070A340D348C
:1004200020344434453442345534473420344D3438
:100430004F344434453420344F3446344634203429
:100440000A340D3400340A108A140A1182070A345F
:100450000D34203449346E34743472346F3464345F
:1004600075347A346134203465346E3464346534E0
:100470007234653463346F3420346434653420342A
:10048000643465347334743469346E346F342034B6
:100490000A340D3400340A108A140A1182070A340F
:1004A0000D34203449346E34743472346F3464340F
:1004B00075347A34613420347334753462342034C2
:1004C00065346E34643465347234653463346F3447
:1004D00020346434653420346434653473347434C3
:1004E00069346E346F3420340A340D3400340A1009
:1004F0008A140A1182070A340D34203449346E34C8
:10050000743472346F34643475347A346134203422
:1005100065346E34643465347234653463346F34F6
:1005200020346434653420346F3472346934673471
:1005300065346D3420340A340D3400340A108A14C2
:100540000A1182070A340D34203449346E3474346D
:1005500072346F34643475347A34613420347334D3
:1005600075346234203465346E34643465347234E6
:10057000653463346F3420346434653420346F342C
:1005800072346934673465346D3420340A340D3480
:1005900000340A108A140A1182070A340D342034F8
:1005A00049346E34743472346F34643475347A344C
:1005B000613420347434693470346F3420340A3434
:1005C0000D3400340A108A140A11E93E03188A0A0D
:1005D00082000A340D34203449346E347434723459
:1005E0006F34643475347A34613420347434613453
:1005F0006D3461346E3468346F3420346434613463
:1006000064346F3420340A340D3400340A148A14EC
:100610000A1182070A340D34203449346E3474349C
:1006200072346F34643475347A3461342034643411
:10063000613464346F342034253464340A340D3426
:1006400000340A148A140A1182070A340D34203443
:1006500072346534733475346C3474346134643496
:100660006F3420343D3420342534303432347834FF
:1006700020340A340D3400340A148A140A11820713
:100680000A340D34203449346E34743472346F3487
:10069000643475347A346134203465346E346434AF
:1006A00065347234653463346F3420340A340D3465
:1006B00000340A148A140A1182070A340D342034D3
:1006C00045346E34643465347234653463346F3465
:1006D0003D34253475340A340D3400340A148A1438
:1006E0000A1182070A3420345234453453345534C5
:1006F0004C345434413444344F343D34253475340F
:100700000A3400340A148A140A1182070A340D3498
:10071000203465346E3464345F3464346534733447
:1007200074343D342534753420340A340D340034A7
:100730000A148A140A1182070A340D3420347334DF
:10074000753462345F3465346E3464345F346434D9
:100750006534733474343D342534753420340A34AC
:100760000D3400340A148A140A1182070A340D3435
:10077000203465346E3464345F346F3472346934D9
:1007800067343D342534753420340A340D34003454
:100790000A148A140A1182070A340D34203473347F
:1007A000753462345F3465346E3464345F346F346E
:1007B0007234693467343D342534753420340A3456
:1007C0000D3400340A148A140A1182070A340D34D5
:1007D00020347434693470346F343D3425347534C6
:1007E00020340A340D3400340A148A140A11FB3EF2
:1007F00003188A0A82000A340D34203463346F34BB
:100800006D3470345F346434613464346F34733401
:100810003D342534753420340A340D3400340A1044
:100820008A100A1582070A340D3420346434613486
:1008300064346F342034253475343D3425347534B4
:1008400020340A340D3400340A108A100A15820745
:1008500020342034203420342034303420342034E8
:1008600020343134203420342034323420342034C5
:1008700020343334203420342034343420342034B1
:10088000203435342034203420343634203420349D
:10089000203437340A340D3400348316E801E9017A
:1008A0006908013C031CA12C6708FA006608840053
:1008B00083137A1883170008403C0318792C6708C3
:1008C000FA006608840083137A1883170008463CF0
:1008D000031C792C680EEA00F030EA0566088400F3
:1008E00083136718831700086A07BF3E0A3EE800B3
:1008F0009C2C6708FA006608840083137A18831713
:1009000000082F3C03189C2C6708FA006608840036
:1009100083137A1883170008393C031C9C2C680E3B
:10092000EA00F030EA05660884008313671883172D
:1009300000086A07D03EE800E60A0319E70AE90A58
:10094000502C6808F800831200343B308400831375
:100950008403840A8C1EAA2C1A0880000D30000221
:10096000031DA92C80012F0BB62CD92D8316E10174
:100970003B30E000E3015430E2006108FA00600817
:10098000840083137A1883170008E4006308FA00D0
:100990006208840083137A1883170008640203191D
:1009A0002D2D6108FA006008840083137A188317DC
:1009B0000008E5006508403C0318E22C65085A3C35
:1009C0000318EA2C6508603C0318442D65087A3C3E
:1009D000031C442D6308FA006208840083137A180C
:1009E00083170008E6006608403C0318FB2C6608E5
:1009F0005A3C0318032D6608603C0318442D660812
:100A00007A3C031C442D6108FA00600884008313BB
:100A10007A1883170008E7006308FA006208840068
:100A200083137A18831720300007670203192D2DCE
:100A30006308FA006208840083137A188317000899
:100A4000E9006108FA006008840083137A188317AC
:100A5000203000076902031D442D6108FA00600878
:100A6000840083137A1883178008031D3A2D003001
:100A7000F8005C2D6108FA006008E00A0319E10A39
:100A8000E20A0319E30ABD2C6108FA006008840039
:100A90008313611883170008E4006308FA006208F2
:100AA00084008313631883170008640203185A2D07
:100AB000FF305B2D0130F800F808031D762D8312FE
:100AC0002E148316E0016008831235208316E00A95
:100AD000F70083120C1E6A2D9900103083166002F5
:100AE000031D632D8C128312D92D831683123B08AC
:100AF0003A3C031DD92D0130AF008316E7013C308D
:100B0000E60083124D247808B0008316E7013E30DA
:100B1000E60083124D247808B1008316E7014030C7
:100B2000E60083124D247808B2008316E7014230B4
:100B3000E60083124D247808B3008316E7014430A1
:100B4000E60083124D247808B4008316E70146308E
:100B5000E60083124D247808B500DA0135085A0200
:100B60000318D92D07305A072F3EF800FA01031851
:100B7000FA0A78088316E1007A08E200031083126B
:100B80005A0D0D3E3B3E8316E400E5010318E50ACD
:100B90006508E7006408E60083124D2483166108A7
:100BA0008400831362188317780880008312DA0A9E
:100BB000AE2D8C128A110A121F28831685108312FB
:100BC00085101308C03093008316141CE52D851082
:100BD000831285140034CE30840083130008031977
:100BE000FE2D0630F800F701F70BF42DF80BF32D6E
:100BF0007B30F700F70BFA2D800BF12D00348316B4
:100C00008510831285101308023093008316141C7C
:100C1000072E831213088316550883129300831638
:100C2000141C102E83121308831656088312930087
:100C30008316141C192E85108312851400340F306E
:100C40008316D5008030D6008312FF252A30831604
:100C5000D500D6018312FF2529308316D500113027
:100C6000D6008312FF2528308316D5000330D60026
:100C70008312FF250F308316D500D6018312FF257E
:100C8000003483168510831285100130F700831617
:100C90005408F8000319502E0310F70DF80B4C2ED2
:100CA0007708D50483121308053093008316141CAB
:100CB000572E83121308831653088312930083164A
:100CC000141C602E83121308831655088312930098
:100CD0008316141C692E83121308FF3093008316A9
:100CE000141C702E85108312851400340F30831667
:100CF000D5008030D6008312FF250C308316D30038
:100D0000D401831241268316CE0803198E2E0C308F
:100D1000D3000130D400831241268316D5014D083B
:100D2000D6008312FF2504308316D5004D08D60067
:100D30008312FF2508308316D500FF30D6008312BA
:100D4000FF2510308316D500FF30D6008312FF2513
:100D500014308316D500FF30D6008312FF251830DB
:100D60008316D500FF30D6008312FF25013083168D
:100D7000D500D6018312FF2505308316D500D60194
:100D80008312FF2509308316D500F030D600831278
:100D9000FF2511308316D500F030D6008312FF25D1
:100DA00015308316D500F030D6008312FF25193098
:100DB0008316D500F030D6008312FF25203083162D
:100DC000D500FF30D6008312FF2521308316D500D1
:100DD000FF30D6008312FF2524308316D500FF3064
:100DE000D6008312FF2525308316D500FF30D600AC
:100DF0008312FF250F308316D500D6018312FF25FD
:100E00000034831685108312851013080330930075
:100E10008316141C092F8312130883165408831297
:100E200093008316141C122F831213089301831648
:100E3000141C182F831213088316D50085108312F3
:100E4000851483165508F800831200348316851024
:100E5000831285100130F70083165108F80003193A
:100E6000352F0310F70DF80B312F7708D2048312BA
:100E70001308053093008316141C3C2F83121308AB
:100E800083165008831293008316141C452F831277
:100E9000130883165208831293008316141C4E2FD6
:100EA0008312130893018316141C542F8510831288
:100EB000851400348316D81B702F0F30F700570E9F
:100EC000F7050A3077020318682F3030F7076A2FCA
:100ED0005808F707770883120C1E6C2F99008316A9
:100EE0000F30D7050A3057020318782F30307A2F89
:100EF000D8135808D707570883120C1E7D2F990066
:100F0000003483165E08F8015D0203188A2F5D081D
:100F1000F700962FF7010830DF00DD0DF70D5E08B2
:100F200077020318F700F80DDF0B8D2F83120034C2
:100F3000780883165108DD006430DE0083128127B3
:100F400077088316D10078083030031DAE2FD21CED
:100F5000B82FD219B82F521A2030B12FD2115212F5
:100F60005214F807780883120C1EB42F99008316C8
:100F70005108DD000A30DE008312812777088316CE
:100F8000D10078083030031DCB2FD219D22F521C3C
:100F9000D22F521A2030F807780883120C1ECE2F59
:100FA000990083163030D107510883120C1ED62FBA
:040FB0009900003470
:101000002C308316D4008A11831201278A157808A0
:101010008316D00050180F280230F800D1284D0850
:10102000840083134E1883178008031DCF280130D6
:101030004D07D0004E08D1000318D10A6130D4000A
:101040008A11831201278A1583165008840083139E
:10105000511883177808800006304D07D0004E08DD
:10106000D1000318D10A6530D4008A1183120127F8
:101070008A15043078028316D30050088400831345
:10108000511883175308800002304D07D0004E08D6
:10109000D1000318D10A6630D4008A1183120127C7
:1010A0008A15831650088400831351188317780813
:1010B000800003304D07D0004E08D1000318D10A3C
:1010C0006730D4008A11831201278A1583165008CD
:1010D00084008313511883177808800004304D076B
:1010E000D0004E08D1000318D10A6830D4008A110C
:1010F000831201278A158316500884008313511820
:1011000083177808800005304D07D0004E08D100C5
:101110000318D10A6930D4008A11831201278A1575
:1011200083165008840083135118831778088000B1
:10113000CF0106304D07840083134E188317000833
:101140004F020318BD2807304F074D07D1004E0846
:10115000D2000318D20A6A304F07D300D4008A1194
:10116000831201278A1583165108840083135218AD
:10117000831778088000CF0A99282C30D000D1013D
:101180008A11831226278A1583164D08840083133B
:101190004E188317013080000030F800D12801304C
:1011A000F8008312003430308316D4008A11831281
:1011B00001278A1578088316D300D319E228303026
:1011C000CF0001294030D4008A11831201278A15EB
:1011D00078088316D300D319F0284030CF000129B6
:1011E0005030D4008A11831201278A15780883169B
:1011F000D300D319FE285030CF0001290030F80069
:10120000B4294F08D0000130D0074D078400831364
:101210004E1883170008D3005008D5005308D60095
:101220008A118312FF258A1501308316D0075008D2
:10123000D500D6018A118312FF258A150330831643
:10124000D00706304D07840083134E1883170430EF
:101250000007D4005008D5005408D6008A11831224
:10126000FF258A1501308316D00702304D07840010
:1012700083134E1883170008D3005008D500530875
:10128000D6008A118312FF258A1501308316D007F4
:1012900003304D07840083134E1883170008D300D2
:1012A0005008D5005308D6008A118312FF258A15ED
:1012B00001308316D00704304D07840083134E1885
:1012C00083170008D3005008D5005308D6008A11B0
:1012D0008312FF258A1501308316D00705304D078C
:1012E000840083134E1883170008D3005008D500DC
:1012F0005308D6008A118312FF258A1506308316FB
:101300004D07840083134E1883170008D10007305F
:10131000D2000730510752020318A3290130D00729
:1013200052084D07840083134E1883170008D3001A
:101330005008D5005308D6008A118312FF258A155C
:101340008316D20A89294D08840083134E18831707
:1013500080014F08D3000330D4008A118312412644
:101360008A150130F800831683120034203083166A
:10137000581E3030D9005708F700D71FC629F70983
:10138000F70A7708D7002D30D900D8175708DD00A5
:101390006430DE008A11831281278A15770883164C
:1013A000D70030307807DA005708DD000A30DE0059
:1013B0008A11831281278A15303077078316DC0063
:1013C00030307807DB005908F700D81DE929D81F0D
:1013D0005811581AF629D81F112A5819112A7708B6
:1013E000DA00D818112A7708DB00112A30305A02A7
:1013F000031D112A7708DA002030D900D81D042AED
:101400005811D814D81FD81030305B02031D112A90
:101410007708DB002030DA00D81D042AD810D81F46
:101420005810581D192A590883120C1E152A9900A4
:101430008316D81C212A5A0883120C1E1D2A9900D3
:101440008316581C292A5B0883120C1E252A990032
:1014500083165C0883120C1E2B2A990000340A3074
:101460000C1E302A99000D300C1E342A9900831668
:10147000D70157088A11831224248A158316D70AA4
:10148000F70083120C1E422A99002430831657025B
:10149000031D392AD50155080F3C031C672B851005
:1014A000831285101308033093008316141C562AE8
:1014B0008312130883165508831293008316141C95
:1014C0005F2AD6015608073C031CCE2ACD305607AA
:1014D000840083138312130893018316141C6E2A4D
:1014E000831213088000130893018316141C762AB4
:1014F0008312130893018316141C7C2A8312130889
:1015000093018316141C822A8312130893018316F5
:10151000141C882A8312130893018316141C8E2A24
:101520008312130893018316141C942A8312130840
:1015300093018316141C9A2A8312130893018316AD
:10154000141CA02A8312130893018316141CA62AC4
:101550008312130893018316141CAC2A83121308F8
:1015600093018316141CB22A831213089301831665
:10157000141CB82A8312130893018316141CBE2A64
:101580008312130893018316141CC42A83121308B0
:1015900093018316141CCA2AD60A622A8510831264
:1015A000851483165508D7000130D8008312B62160
:1015B0002D300C1ED92A990083164D08D7005730BC
:1015C000D8008A1183125A278A1520300C1EE62A69
:1015D000990020300C1EEA2A990083164E08D70085
:1015E0005730D8008A1183125A278A1520300C1ED2
:1015F000F72A990020300C1EFB2A990083164F0809
:10160000D7005730D8008A1183125A278A15203004
:101610000C1E082B990020300C1E0C2B99008316F1
:101620005008D7005730D8008A1183125A278A15DC
:1016300020300C1E192B990020300C1E1D2B9900F8
:1016400083165108D7005730D8008A1183125A27C1
:101650008A1520300C1E2A2B990020300C1E2E2BB0
:10166000990083165208D7005730D8008A11831288
:101670005A278A1520300C1E3B2B990020300C1E57
:101680003F2B990083165308D7005730D8008A1192
:1016900083125A278A1520300C1E4C2B99002030BB
:1016A0000C1E502B990083165408D7005730D800D1
:1016B0008A1183125A278A150A300C1E5D2B990055
:1016C0000D300C1E612B99008316D50A4B2A83120C
:1016D0008C1E682B1A088A110A16AA2D8316D601A9
:1016E000D4010A30D500D30151085204031D7B2BCD
:1016F0000030F8006E2C5608D60A51078400831378
:10170000521883170008D70057082D3C031D942B4F
:101710000130D4005608D60A5107840083135218AA
:1017200083170008D700A12B57082B3C031DA12BC2
:101730005608D60A510784008313521883170008ED
:10174000D70057082F3C0318642C5708393C031C5A
:10175000642C5708303C031DCD2B560851078400DC
:101760008313521883170008783C0319C12B5608BD
:10177000510784008313521883170008583C031D37
:10178000CD2B1030D500D60A5608D60A5107840052
:101790008313521883170008D70055080A3C031D0D
:1017A000122C57082F3C0318112C5708393C031CE6
:1017B000112C0A30D8005308D900F701F801580855
:1017C00003105918F707F70CF80CD918F707F70C9E
:1017D000F80C5919F707F70CF80CD919F707F70C9B
:1017E000F80C591AF707F70CF80CD91AF707F70C89
:1017F000F80C591BF707F70CF80CD91BF707F70C77
:10180000F80C7808D800303057025807D300560833
:10181000D60A510784008313521883170008D70093
:10182000D12B642C5508103C031D642C5708603CD8
:101830000318212C57087A3C031C212C5708DF3948
:10184000222C5708D70057082F3C03182B2C570879
:10185000393C0318332C5708403C0318642C5708B4
:10186000463C031C642C57082F3C0318442C570893
:10187000393C031C442C530ED800F030D8053030CE
:1018800057025807D3004D2C530ED800F030D8051E
:10189000413057020A3E5807D3005608D60A51076E
:1018A00084008313521883170008D7005708603C40
:1018B0000318612C57087A3C031C612C5708DF3948
:1018C000622C5708D700232C540B6C2C55080A3C6B
:1018D000031D6C2CD309D30A5308F800831200347B
:10200000840183131F308305813083169900A63025
:10201000980090308312980083161F149F141F1588
:102020009F1107309C008312A801A901FF30DB003B
:1020300083161F149F141F159F111F1383121F1344
:102040009F1383169F1383121F149412DB125B08D5
:102050008316870083125B165B0883168700831242
:10206000DB115B0883168700313083129400C03087
:10207000831694000108C03981008312900100305A
:10208000F800920000308316920083125B155B0803
:102090008316870083129701DB145B088316870081
:1020A00083129D0183168C1683120B138B138B1BCB
:1020B00056282E10EB01EC015430840083136B087A
:1020C00084076C080A124A200A1680000038031997
:1020D0006C28EC0AEB0A5C280A12DD250A1604308B
:1020E000EB00FA308316CE000A128312EB250A1693
:1020F000EB0B71280A121F260A160430EB00FA3087
:102100008316CE000A128312EB250A16EB0B7F28EA
:10211000013003178D0083168C130C1483120C08E6
:102120000313DD005D088316CD00CE010A12831271
:1021300076260A16AF01E001C0308B042E1837292D
:102140008316CE016030CD000A128A15831200205A
:102150000A168A117808DF005F0BBE28EB016B08B6
:102160000A1254200A16EB0AF70077080C1EB6284C
:10217000990019306B02031DAF281629DF08031DD3
:1021800016293A300C1EC228990061088316D70020
:102190003730D8000A1283125A270A1662088316AB
:1021A000D7003730D8000A1283125A270A1663085C
:1021B0008316D7003730D8000A1283125A270A161E
:1021C00064088316D7003730D8000A1283125A27C2
:1021D0000A1665088316D7003730D8000A12831212
:1021E0005A270A1666088316D7003730D8000A1215
:1021F00083125A270A16DF0166085F0203181129A5
:1022000007305F07603E840083130008EC008316EC
:10221000D7003730D8000A1283125A270A16DF0A6D
:10222000FC280D300C1E12299900E0012F0B3629D5
:102230008316CE012F30CD000A128A158312D320C7
:102240000A168A117808DF00DF08031D3629EB0122
:102250006B080A1272200A16EB0AF70077080C1EA8
:102260002F2999001B306B02031D28299E282E1C44
:10227000AB2D1E30EB002A300C1E3C299900EB0BD5
:102280003B290A300C1E422999000D300C1E4629AC
:102290009900EB016B080A1292200A16EB0AF7006C
:1022A00077080C1E5129990020306B02031D4A2922
:1022B000EB016B080A12B7200A16EB0AF700770841
:1022C0000C1E6029990020306B02031D5929EB0177
:1022D0006B080A12DC200A16EB0AF70077080C1EBE
:1022E0006F29990020306B02031D6829EB016B08F0
:1022F0000A1204210A16EB0AF70077080C1E7E2941
:10230000990020306B02031D7729EB016B080A123C
:1023100029210A16EB0AF70077080C1E8D2999006F
:1023200020306B02031D8629EB016B080A124E2137
:102330000A16EB0AF70077080C1E9C29990020303A
:102340006B02031D9529EB016B080A1273210A1613
:10235000EB0AF70077080C1EAB29990020306B02BE
:10236000031DA429EB016B080A1298210A16EB0A37
:10237000F70077080C1EBA29990020306B02031D64
:10238000B329EB016B080A12BD210A16EB0AF7000C
:1023900077080C1EC929990020306B02031DC22941
:1023A000EB016B080A12E2210A16EB0AF700770824
:1023B0000C1ED829990020306B02031DD1291E3034
:1023C000EB002A300C1EE2299900EB0BE1290A30C0
:1023D0000C1EE82999000D300C1EEC2999008C1E6A
:1023E000EF291A08DC005C080C1EF42999000D3056
:1023F0000C1EF82999005C08313A03191B2A033A8C
:102400000319332A013A0319382A073A03193C2AD7
:10241000013A0319B52B523A0319E72B0B3A03196A
:102420002E2C5A3A0319592C013A03195D2C0F3AF4
:102430000319A02DAA2DEB016B080A120A220A1615
:10244000EB0AF70077080C1E232A990014306B0260
:10245000031D1C2A2E10E001AF0183168C16C0301C
:1024600083128B04AA2D0A128A152F2A0A168A11A2
:102470000A121F260A16AA2DEB016B080A12232244
:102480000A16EB0AF70077080C1E442A990023303D
:102490006B02031D3D2AA030840083138403840A49
:1024A0008C1E502A1A0880000D300002031D4F2A8E
:1024B00080018316D201A030D1000A128A1583123E
:1024C0006E230A168A117808B000EB016B080A1215
:1024D0004B220A16EB0AF70077080C1E6D2A9900AA
:1024E00027306B02031D662AA03084008313840307
:1024F000840A8C1E792A1A0880000D300002031D00
:10250000782A80018316D201A030D1000A128A15E0
:1025100083126E230A168A117808B100EB016B084A
:102520000A1277220A16EB0AF70077080C1E962A81
:10253000990022306B02031D8F2AA0308400831380
:102540008403840A8C1EA22A1A0880000D3000021F
:10255000031DA12A80018316D201A030D1000A12E6
:102560008A1583126E230A168A117808B200EB01CD
:102570006B080A129E220A16EB0AF70077080C1E57
:10258000BF2A990026306B02031DB82AA0308400B0
:1025900083138403840A8C1ECB2A1A0880000D3012
:1025A0000002031DCA2A80018316D201A030D10087
:1025B0000A128A1583126E230A168A117808B3004C
:1025C000EB016B080A12C9220A16EB0AF70077081A
:1025D0000C1EE82A990014306B02031DE12AA0307A
:1025E000840083138403840A8C1EF42A1A08800052
:1025F0000D300002031DF32A80018316D201A030A2
:10260000D1000A128A1583126E230A168A117808DD
:10261000B400EB016B080A12E2220A16EB0AF7007B
:1026200077080C1E112B99001C306B02031D0A2B1E
:10263000A030840083138403840A8C1E1D2B1A0887
:1026400080000D300002031D1C2B80018316D20177
:10265000A030D1000A128A1583126E230A168A113D
:102660007808B5000130DD00013035075D02031840
:10267000842BEB016B080A1206230A16EB0AF700FB
:1026800077080C1E412B990012306B02031D3A2B68
:102690005D088316D7001F30D8000A128A158312EE
:1026A000B6210A168A110A300C1E542B99000D30DF
:1026B0000C1E582B9900A030840083138403840AD5
:1026C0008C1E602B1A0880000D300002031D5F2B4A
:1026D000800107305D07FF3E2F3EED00EE0103183D
:1026E000EE0A8316D201A030D1000A128A15831295
:1026F0006E230A168A116D08840083136E188317DF
:1027000078088000DD0A342B8316CE012F30CD00EF
:102710000A128A158312D3200A168A117808DE005D
:10272000EB016B080A1221230A16EB0AF70077085F
:102730000C1E982B99000F306B02031D912B5E0825
:102740008316D7005730D8000A1283125A270A1668
:1027500020300C1EA92B99000A300C1EAD2B9900BD
:102760000D300C1EB12B9900AA2DEB016B080A123B
:102770003C230A16EB0AF70077080C1EBD2B9900C4
:1027800018306B02031DB62BA03084008313840322
:10279000840A8C1EC92B1A0880000D300002031D0C
:1027A000C82B80018316D201A030D1000A128A15ED
:1027B00083126E230A168A117808DD005D088316DD
:1027C000CD00CE010A12831276260A16AA2DEB013D
:1027D0006B080A123C230A16EB0AF70077080C1E56
:1027E000EF2B990018306B02031DE82BA0308400FA
:1027F00083138403840A8C1EFB2B1A0880000D307F
:102800000002031DFA2B80018316D201A030D100F3
:102810000A128A1583126E230A168A117808DD00BF
:10282000013003178D0003135D0803178C00831616
:102830008C130C15831203130B08F7008B138316EC
:10284000031755308D00AA308D008C148C18262C5F
:102850000C117708831203138B04AA2D0130031780
:102860008D0083168C130C1483120C080313DD00E7
:10287000EB016B080A1259230A16EB0AF7007708D6
:102880000C1E402C99000C306B02031D392C5D0886
:102890008316D1001B30D2000A12831298270A1621
:1028A0000A300C1E512C99000D300C1E552C99002D
:1028B000AA2D0A12DD250A16AA2D8316CE01603034
:1028C000CD000A128A15831200200A168A11780890
:1028D000EB00EC016C080A126E230A16EC0AF700F2
:1028E00077080C1E712C99000C306C02031D6A2CA9
:1028F0006B088316D1001B30D2000A12831298276E
:102900000A160A300C1E822C9900EB016B080A1281
:1029100082230A16EB0AF70077080C1E8D2C99000B
:102920000C306B02031D862C61088316D1001B300E
:10293000D2000A12831298270A1620300C1E9E2CF1
:1029400099000A300C1EA22C99000D300C1EA62CEA
:102950009900EB016B080A1298230A16EB0AF7009C
:1029600077080C1EB12C990010306B02031DAA2CA5
:1029700062088316D1001B30D2000A1283129827F6
:102980000A1620300C1EC22C99000A300C1EC62CD0
:1029900099000D300C1ECA2C9900EB016B080A122D
:1029A000B2230A16EB0AF70077080C1ED52C990003
:1029B0000C306B02031DCE2C63088316D1001B3034
:1029C000D2000A12831298270A1620300C1EE62C19
:1029D00099000A300C1EEA2C99000D300C1EEE2CCA
:1029E0009900EB016B080A12C8230A16EB0AF700DC
:1029F00077080C1EF92C990010306B02031DF22C85
:102A000064088316D1001B30D2000A128312982763
:102A10000A1620300C1E0A2D99000A300C1E0E2DAD
:102A200099000D300C1E122D9900EB016B080A1253
:102A3000E2230A16EB0AF70077080C1E1D2D9900F9
:102A400008306B02031D162D65088316D1001B305C
:102A5000D2000A12831298270A1620300C1E2E2D3F
:102A600099000A300C1E322D99000D300C1E362DA7
:102A70009900EB016B080A12F4230A16EB0AF7001F
:102A800077080C1E412D99000E306B02031D3A2D64
:102A900066088316D1001B30D2000A1283129827D1
:102AA0000A1620300C1E522D99000A300C1E562D8D
:102AB00099000D300C1E5A2D9900DD0166085D024B
:102AC00003189F2D01305D07EB0007305D07603E66
:102AD000840083130008ED00EE016E080A120F2433
:102AE0000A16EE0AF70077080C1E742D99000830BC
:102AF0006E02031D6D2D6B088316D1001B30D200B2
:102B00000A12831298270A163D300C1E852D990053
:102B10006D088316D1001B30D2000A128312982749
:102B20000A1620300C1E922D99000A300C1E962D8C
:102B300099000D300C1E9A2D9900DD0A5E2DAA2DEC
:102B40002C308316D000D1010A12831226270A16D0
:0A2B5000E001AA2D37299E2863003A
:02400E00323F3F
:00000001FF
;PIC16F876A
