:1000000000308A0018280000223084008313000882
:10001000031917280630F800F701F70B0D28F80B25
:100020000C287B30F700F70B1328800B0A280034CC
:10003000840183131F308305813083169900A63015
:10004000980090308312980083161F149F141F1578
:100050009F1107309C00FF308312A00083161F14ED
:100060009F141F159F1183121F109412A0122008B5
:1000700083168700831220162008831687008312B8
:10008000A011200883168700003083129400831685
:1000900094000108C73908388100831290010030AC
:1000A000F800920000308316920007309C0005088B
:1000B0001030F700F70B5A2800001C0883120D13AC
:1000C00083169D010512831205160430A100FA3033
:1000D000A2000420A10B67288316051283120512C3
:1000E0000430A100FA30A2000420A10B722883166C
:0400F000622863001F
:02400E007A3FF7
:00000001FF
;PIC16F876A
