:1000000008308A009C2C0000FF00030E8301A10031
:100010000A08A0008A010408A2007708A300780853
:10002000A4007908A5007A08A6007B08A70083131E
:1000300083120B1E1D288B1836288C308400001D5F
:1000400023280C193928220884002308F7002408E3
:10005000F8002508F9002608FA002708FB00200808
:100060008A00210E8300FF0E7F0E09008A110A12FA
:100070004F298A110A1299290A108A100A11433E3F
:1000800003188A0A8200003496344B3497345C3467
:1000900096346D3495347E3494348F349334A03454
:1000A0009234B1349134C2349034D3348F34E43444
:1000B0008E34F5348D3406348D3417348C34283432
:1000C0008B3439348A344A3489345B3488346C3420
:1000D00087347D3486348E3485349F348434B03410
:1000E0008334C1348234D2348134E3348034F43400
:1000F0007F3405347F3416347E3427347D343834ED
:100100007C3449347B345A347A346B3479347C34DB
:1001100078348D3477349E347634AF347534C034CB
:100120007434D1347334E2347234F33471340434BB
:1001300071341534703426346F3437346E344834A7
:100140006D3459346C346A346B347B346A348C3497
:1001500069349D346834AE346734BF346634D03487
:100160006534E1346434F234633403346334143476
:100170006234253461343634603447345F34583463
:100180005E3469345D347A345C348B345B349C3453
:100190005A34AD345934BE345834CF345734E03443
:1001A0005634F13455340234553413345434243431
:1001B000533435345234463451345734503468341F
:1001C0004F3479344E348A344D349B344C34AC340F
:1001D0004B34BD344A34CE344934DF344834F034FF
:1001E00047340134473412344634233445343434EC
:1001F00044344534433456344234673441347834DB
:10020000403489343F349A343E34AB343D34BC34CA
:100210003C34CD343B34DE343A34EF3439340034BA
:1002200039341134383422343734333436344434A6
:100230003534553434346634333477343234883496
:10024000313499343034AA342F34BB342E34CC3486
:100250002D34DD342C34EE342B34FF342A34103476
:100260002A34213429343234283443342734543462
:100270002634653425347634243487342334983452
:100280002234693402340A148A100A118207FE34B7
:10029000FD34FB34F734EF34DF34BF347F34FD0AF0
:1002A000FF308500033087044F1C60294F10CF1C9E
:1002B0005D29CF105930F3006029CF14A030F3002E
:1002C000F40103179B019C0103101B0D73071C070E
:1002D000FA01840083137A1883170008F8000310CA
:1002E000780DF900FA01FA0D79089C001C0A031335
:1002F0003C20FA0003171C0803133C2095007A08E1
:100300009600083003179B009C0103101B0D730718
:100310001C07FA01840083137A1883170008F80079
:1003200078080313D0008F018E018B108A110A12F6
:100330002328D0080319E129740803179B00013012
:100340009C0003101B0D73071C07FA018400831324
:100350007A1883170008F8007808F5007508031369
:1003600085057508C039C03C0319BE29FF30F60069
:10037000F50DF60DF50DF60D76088705F40AD00398
:10038000740803179B009C0103101B0D73071C07C7
:10039000FA01840083137A1883170008F800031009
:1003A000780DF900FA01FA0D79089C001C0A031374
:1003B0003C20FA0003171C0803133C2095007A0820
:1003C00096000C118A110A12232807111308033012
:1003D00093008316141CEA298312130803171708C5
:1003E000031393008316141CF3298312130893013B
:1003F0008316141CF929831213080317980003139A
:10040000071503171808F800031300340711130821
:10041000023093008316141C0B2A8312130803174F
:100420001908031393008316141C142A831213084B
:1004300003171A08031393008316141C1D2A831232
:100440000715003407110130F70003171808F800EA
:1004500003192E2A0310F70DF80B2A2A770899049E
:1004600003131308053093008316141C352A8312D6
:10047000130803171708031393008316141C3E2A4E
:100480008312130803171908031393008316141C0F
:10049000472A83121308FF3093008316141C4E2A38
:1004A0008312071500343030031797000313E5213A
:1004B0007808031797009719602A303093007B2A39
:1004C000403097000313E521780803179700971928
:1004D0006C2A403093007B2A503097000313E521AB
:1004E0007808031797009719782A503093007B2AD1
:1004F0000030F8001C2B13089400013094071107FA
:1005000084008313121883170008970014089900B9
:1005100017089A00031306220130031794071408E2
:1005200099009A010313062203300317940706303B
:1005300011078400831312188317043000079800F2
:100540001408990018089A000313062201300317B3
:1005500094070230110784008313121883170008D0
:1005600097001408990017089A0003130622013017
:10057000031794070330110784008313121883179D
:10058000000897001408990017089A000313062220
:1005900001300317940704301107840083131218E5
:1005A0008317000897001408990017089A0003138E
:1005B00006220130031794070530110784008313C6
:1005C00012188317000897001408990017089A005A
:1005D0000313062206300317110784008313121831
:1005E000831700089500073096000730150716029C
:1005F00003180D2B0130940716081107840083138C
:1006000012188317000897001408990017089A0019
:10061000031306220317960AF52A11088400831390
:1006200012188317800113089700033098000313F2
:1006300022220130F80003170313003483166D14CF
:100640007D08DB00EE016E08073C031CA92B363049
:100650006E078400831300088312031791002E3065
:10066000831603136E078400831300088312031795
:1006700011020319792B83160313CD08031D5C2B7C
:100680000130CD00CE01CF0183123E088316D00089
:100690000130D3006E08D1000D30D2002E306E072D
:1006A000840083130008D400831203179201CD3015
:1006B000910003135322831636306E07F800FA01B7
:1006C0000318FA0A78088312031791007A08920037
:1006D0002E30831603136E078400831300088312E1
:1006E000031793001108840083131218831713084B
:1006F00080000310831603136E0DDC3EF800FA0130
:100700000318FA0A78088312031792007A089300F4
:100710002E30831603136E078400831300088312A0
:100720000317940012088400831313188317140806
:1007300080000310831603136E0D013EDC3E84001F
:1007400083136E0883124321F80080008316EE0A9B
:10075000232B6D1C472C6D10EE016E08063C031C0C
:10076000462C03106E0DDC3E8400831300088312B8
:10077000031792000130831603136E07F70003106E
:10078000F70D7708DC3E84008313000883120317FB
:1007900012020318422C831603136D1403106E0DFE
:1007A000DC3E840083130008EF0003106E0DDC3E76
:1007B000F800FA010318FA0A780883120317920066
:1007C0007A0893000130831603136E07F7000310B5
:1007D000F70D7708DC3E84008313000883120317AB
:1007E00096001208840083131318831716088000DC
:1007F0000130831603136E07F7000310F70D770817
:10080000DC3E840083136F08800003106E0D013EF0
:10081000DC3E840083130008EF0003106E0D013EE0
:10082000DC3EF800FA010318FA0A7808831203176D
:1008300092007A0893000130831603136E07F700C5
:100840000310F70D7708013EDC3E84008313000897
:10085000831203179600120884008313131883175A
:10086000160880000130831603136E07F70003108B
:10087000F70D7708013EDC3E840083136F0880008B
:100880008312031783160313EE0AAD2BA92BDC0882
:10089000031D4C2CEC01932D0130EC008312031747
:1008A00090010313CF1C5D2C83165C088312D900C2
:1008B00083165D088312DA00632C83165C08A0009F
:1008C0005D08A100831201308316EE006E08073C1C
:1008D000031C932D03106E0DDC3E8400831300086F
:1008E0008312031792000130831603136E02F70080
:1008F0000310F70D7708DC3E840083130008831291
:10090000031712020319862C0030872C0130950042
:100910000310831603136E0DDC3E840083138008DE
:100920000319942C0030952C0130003A03199A2CAD
:1009300000309B2C01308312031715050319F82C86
:100940000313CF1CCE2C03100317100D013E593E8C
:10095000F800FA010318FA0A780892007A0893005E
:100960000310100D013E593E8400831300089500CA
:100970000310831603136E0D013EDC3E84008313C7
:1009800000088312031715059700120884008313CB
:100990001318831717088000F72C0313031003178D
:1009A000100D013EA03EF800FA010318FA0A78087B
:1009B00092007A0893000310100D013EA03E8400BF
:1009C0008313000895000310831603136E0D013E78
:1009D000DC3E84008313000883120317150597007B
:1009E00012088400831313188317170880008F2DB3
:1009F0000310831603136E0DDC3E840083138008FE
:100A00000319042D0030052D0130003A031D8D2DF2
:100A100083120317900A0313CF1C4D2D03100317E5
:100A2000100D593EF800FA010318FA0A78089200EE
:100A30007A0893000310831603136E0DDC3E8400C6
:100A40008313000883120317950012088400831390
:100A500013188317150880000310100D013E593E2E
:100A6000F800FA010318FA0A780892007A0893004D
:100A70000310831603136E0D013EDC3E84008313C6
:100A800000088312031795001208840083131318BB
:100A90008317150880008A2D031303100317100D08
:100AA000A03EF800FA010318FA0A780892007A08C2
:100AB00093000310831603136E0DDC3E8400831332
:100AC000000883120317950012088400831313187B
:100AD0008317150880000310100D013EA03EF8009A
:100AE000FA010318FA0A780892007A0893000310B2
:100AF000831603136E0D013EDC3E84008313000851
:100B000083120317950012088400831313188317A8
:100B10001508800083160313EC0A8312031783164B
:100B20000313EE0A662C8312CF1C9B2D83166C08D0
:100B30008312E9009F2D83166C08B00083124F14B6
:100B400083165B08FD0083120034023003178D000A
:100B500083168C130C1483120C0883160313DB000A
:100B60000430831203178D0083168C130C14831228
:100B70000C0883160313DC000530831203178D0065
:100B800083168C130C1483120C0883160313DD00D8
:100B9000DA015A08073C031C122E5D08F7005A08B8
:100BA000F8000319D72D0310F70CF80BD32D771885
:100BB000DF2D47305A07840083138001E52D47302D
:100BC0005A0784008313013080005B08F7005A083D
:100BD000F8000319EF2D0310F70CF80BEB2D771825
:100BE000F72D3F305A07840083138001102E5C08D4
:100BF000F7005A08F8000319012E0310F70CF80B40
:100C0000FD2D77180A2E3F305A07840083130230D7
:100C10008000102E3F305A0784008313013080007B
:100C2000DA0AC92D83128A150A126B2DDC30840072
:100C3000831300080319292E0630F800F701F70B7B
:100C40001F2EF80B1E2E7B30F700F70B252E800B86
:100C50001C2E003407111308C03093008316141C97
:100C60002F2E831207158A150A12862D0F300317AF
:100C7000990080309A00031306222A300317990046
:100C80009A010313062229300317990011309A00A4
:100C90000313062228300317990003309A00031328
:100CA00006220F30031799009A01031306228A15B2
:100CB0000A12962D0F300317990080309A00031303
:100CC00006220C3003179700980103132222831683
:100CD000DB080319742E0C308312031797000130C0
:100CE0009800031322228316831203179901831697
:100CF00003135A08831203179A00031306220430C1
:100D00000317990069309A0003130622083003176D
:100D10009900FF309A000313062210300317990040
:100D2000FF309A0003130622143003179900FF3096
:100D30009A0003130622183003179900FF309A0017
:100D4000031306220130031799009A0103130622A8
:100D50000530031799009A0103130622093003177F
:100D60009900F0309A0003130622113003179900FE
:100D7000F0309A0003130622153003179900F03063
:100D80009A0003130622193003179900F0309A00D5
:100D900003130622203003179900FF309A00031333
:100DA0000622213003179900FF309A000313062210
:100DB000243003179900FF309A00031306222530D0
:100DC00003179900FF309A00031306220F30031710
:100DD00099009A01031306228A150A12B52D83166B
:100DE0004508CE004608CF004308D0004408D10093
:100DF000831200347D088316DB003F305A078400DD
:100E000083130008023C031D8C2F5A08F83E031878
:100E10005D2F083E8312902F83165C108312871B70
:100E2000142F83165C14831283165D2F83165C10B7
:100E3000831286181E2F83165C14831283165D2F6F
:100E400083165C1083120619282F83165C148312F4
:100E500083165D2F83165C1083128619322F83163A
:100E60005C14831283165D2F83165C108312061A9E
:100E70003C2F83165C14831283165D2F83165C103F
:100E80008312861A462F83165C14831283165D2FF5
:100E900083165C108312061B502F83165C1483127A
:100EA00083165D2F83165C108312861B5A2F8316C0
:100EB0005C14831283165D2F8316BA305A078400A0
:100EC00083130008DD0000305C1801305D02031957
:100ED0008A2F0130CD00CE01CF0183123E08831648
:100EE000D0000130D3005A08D1000D30D200D40117
:100EF0005C18D40A831203179201CD3091000313BA
:100F00005322BA3083165A078400831300305C18CA
:100F1000013080005B08FD0083128A150A12E92D5A
:100F20000A148A140A1582070C2F162F202F2A2F35
:080F3000342F3E2F482F522FF1
:101000008316DC01C230DB002C30831203179700FB
:101010008A110313E5218A1578088316DE005E180D
:1010200014280230F8002C295B08840083135C1814
:1010300083178008031D2A2901305B07F8005C082C
:10104000FA000318FA0A7808DE007A08DF00613037
:101050008312031797008A110313E5218A1583165B
:101060005E08840083135F188317780880000630B9
:101070005B07F8005C08FA000318FA0A7808DE003B
:101080007A08DF0065308312031797008A11031373
:10109000E5218A15043078028316E1005E08840099
:1010A00083135F1883176108800002305B07F80024
:1010B0005C08FA000318FA0A7808DE007A08DF00F4
:1010C00066308312031797008A110313E5218A15EE
:1010D00083165E08840083135F18831778088000E6
:1010E00003305B07F8005C08FA000318FA0A780876
:1010F000DE007A08DF0067308312031797008A1139
:101100000313E5218A1583165E08840083135F1894
:1011100083177808800004305B07F8005C08FA0049
:101120000318FA0A7808DE007A08DF0068308312B4
:10113000031797008A110313E5218A1583165E08A9
:10114000840083135F1883177808800005305B07DD
:10115000F8005C08FA000318FA0A7808DE007A083A
:10116000DF0069308312031797008A110313E5210A
:101170008A1583165E08840083135F188317780826
:101180008000DD0106305B07840083135C18831741
:1011900000085D020318EC2807305D075B07F800C4
:1011A0005C08FA000318FA0A7808DF007A08E00001
:1011B0006A305D07E1008312031797008A11031359
:1011C000E5218A1583165F0884008313601883174E
:1011D00078088000DD0AC2282C30DE00DF0183128F
:1011E00007110130F70083165F08F8000319FC2887
:1011F0000310F70DF80BF8287708E00483121308A2
:10120000053093008316141C0329831213088316D8
:101210005E08831293008316141C0C298312130892
:1012200083166008831293008316141C15298312F9
:10123000130893018316141C1B29831207158316A8
:101240005B08840083135C18831701308000003032
:10125000F8002C290130F800F808031D5A2B013042
:101260004702ED3E03185A2B133E83125E2B831662
:101270004408073C031C49292E304407840083138B
:1012800049088000363044078400831349088000F1
:1012900077294408693C031D7729DA015A08073C7D
:1012A000031C772947305A0784008313000B7529E4
:1012B0004908D9003F305A07840083138008031D72
:1012C000692959083F3C031C6729D90169297F30E6
:1012D000D9002E305A078400831359088000363015
:1012E0005A078400831359088000DA0A4E298A11AC
:1012F00083121E238A158316C2015A2B8316CD082A
:10130000031D9E290130CD008A118312EF268A1514
:1013100003308316D2000130D3002E3044078400FE
:1013200083130008D400831203179201CD3091007B
:101330008A11031353228A158316C2015A2B83166E
:10134000CD08031DBA290130CD008A118312EF2682
:101350008A1505308316D200D30183120317920138
:10136000CD3091008A11031353228A157808831611
:10137000D800C2015A2B83164908FE00C2015A2B1D
:10138000FE018316C2015A2BFE08031DCB298316CA
:10139000C2015A2B83128316DA015A08073C031C38
:1013A000E5297E08F7005A08F8000319DB29031025
:1013B000F70CF80BD729771CE3292E305A07840045
:1013C000831349088000DA0ACD298A1183121E236B
:1013D0008A158316C2015A2B8316C2018A01831211
:1013E000002883165A2B013003178D008316031330
:1013F0004908831203178C0083168C130C15831273
:1014000003130B08F7008B138316031755308D0059
:10141000AA308D008C148C180B2A0C1177088312BB
:1014200003138B048316C2010430DB00FA30DC00A6
:101430008A11831216268A158316DB0B162A8A0157
:101440008312002883165A2B023003178D0083164F
:1014500003134908831203178C0083168C130C1591
:10146000831203130B08F7008B13831603175530F1
:101470008D00AA308D008C148C183C2A0C11770832
:10148000831203138B0404308316DB00FA30DC0074
:101490008A11831216268A158316DB0B462AC2018F
:1014A0008A018312002883165A2B8316CD08031D48
:1014B0008A2A0130CD008A118312EF268A1508305E
:1014C0008316D2000130D3000230831203178D003F
:1014D00083168C130C1483120C0883160313D90083
:1014E0000430DB00FA30DC008A11831216268A15DC
:1014F0008316DB0B722A5908D4008312031792015A
:10150000CD3091008A11031353228A15780883166F
:10151000D800C2015A2B043003178D008316031321
:101520004908831203178C0083168C130C15831241
:1015300003130B08F7008B138316031755308D0028
:10154000AA308D008C148C18A32A0C1177088312F2
:1015500003138B0404308316DB00FA30DC008A119D
:10156000831216268A158316DB0BAD2AC2018A0167
:101570008312002883165A2B8316CD08031DF12AE7
:101580000130CD008A118312EF268A15113083169F
:10159000D2000130D3000430831203178D0083166C
:1015A0008C130C1483120C0883160313D900043017
:1015B000DB00FA30DC008A11831216268A158316A6
:1015C000DB0BD92A5908D400831203179201CD30BE
:1015D00091008A11031353228A1578088316D800C4
:1015E000C2015A2B053003178D00831603134908D7
:1015F000831203178C0083168C130C1583120313AC
:101600000B08F7008B138316031755308D00AA3093
:101610008D008C148C180A2B0C117708831203137D
:101620008B0404308316DB00FA30DC008A1183124D
:1016300016268A158316DB0B142BC2018A0183122E
:10164000002883165A2B8316CD08031D582B013012
:10165000CD008A118312EF268A1514308316D2002A
:101660000130D3000430831203178D0083168C13CE
:101670000C1483120C0883160313D9000430DB000A
:10168000FA30DC008A11831216268A158316DB0BCA
:10169000402B5908D400831203179201CD309100DA
:1016A0008A11031353228A1578088316D800C201C1
:1016B0005A2B831683128A150A12C72D0A148A140C
:1016C0000A11820737297E29592B9F29592B242A51
:1016D000552A592BEC29C029BB29C429592BF32998
:1016E0008B2ABC2A592BF22A232B83165B103F30FE
:1016F0005A07840083130008023C031D822B00302C
:10170000F8008C2C5A08F83E0318DA2B083E831296
:10171000902C8316DB108312871B912B8316DB140E
:1017200083128316DA2B8316DB10831286189B2B09
:101730008316DB1483128316DA2B8316DB108312D5
:101740000619A52B8316DB1483128316DA2B831656
:10175000DB1083128619AF2B8316DB1483128316DA
:10176000DA2B8316DB108312061AB92B8316DB14CF
:1017700083128316DA2B8316DB108312861AC32B8F
:101780008316DB1483128316DA2B8316DB10831285
:10179000061BCD2B8316DB1483128316DA2B8316DC
:1017A000DB108312861BD72B8316DB148312831660
:1017B000DA2B8316DB1C412C51305A07840083132B
:1017C00000146B305A078400831300087D02C83C64
:1017D000031CF22B51305A07840083130008DD00EC
:1017E0005D1D3A2C3F305A0784008313000B3A2CBE
:1017F00051305A07840083130015B2305A07840011
:10180000831300087D020A3C0318392C5B14513005
:101810005A07840083130008DC00DC1C222C2E30C5
:101820005A0784008313800A2E305A0784008313DA
:1018300000087F3C031D212C51305A07840083137C
:101840008010332C2E305A078400831380032E30EF
:101850005A07840083138008031D332C51305A0724
:10186000840083138014B2305A07840083137D08E8
:101870008000402CB2305A07840083137D0880001A
:10188000882C51305A07840083130008DC005C1C4C
:10189000822C51305A0784008313001051305A07AC
:1018A000840083130008DC005C1D632C51305A0750
:1018B00084008313001151305A07840083130008F9
:1018C000023A8000822C2E305A078400831380084D
:1018D000031D772C2E305A07840083137F3080003D
:1018E00051305A078400831380105B14822C2E30F1
:1018F0005A0784008313800151305A0784008313F0
:1019000080145B146B305A07840083137D088000B9
:1019100000305B180130F80083128A150A12D32DAB
:101920000A108A100A158207892B932B9D2BA72B4F
:10193000B12BBB2BC52BCF2B840183131F30830509
:10194000813083169900A630980090308312980059
:1019500083161F149F141F159F1107309C008312BC
:10196000A801A901AE01AF01B001B101B201B301FB
:10197000B401B501B601B701B801B901BA01BB01A3
:10198000BC01BD01BF01C001C101C201C301C4014D
:10199000C501C601C701C801C901CA01CB01CC01FB
:1019A000CD01CE010230D100D200D300D400D50049
:1019B000D600D700D800D901DA01DB010130DC0004
:1019C000DD010230DE00DF010330E000E101043020
:1019D000E200E3010530E400E5010630E600E7013E
:1019E0000730E800E901EA018316A001A101A20184
:1019F0000130A300A4010230A500A6010330A70016
:101A0000A8010430A900AA010530AB00AC010630E2
:101A1000AD00AE010730AF00B001B1018312EB01A0
:101A2000EC01ED01EE01EF01F001F101F201CF1047
:101A30008316B201B301B401B501B601B701B80113
:101A4000B901BA01BB01BC01BD01BE01BF01C001AA
:101A5000C101FE011F149F141F159F1183121F1037
:101A60009412203094000030831694000830F70060
:101A7000F71D452D073083128101813084008313C7
:101A80000008C0390F38800083166400813084005C
:101A90000008C03977048000853083129000003040
:101AA000F80092000030831692000A3083129700EB
:101AB0000B1683160C150117831294123130940003
:101AC000C030831694008312CF108A111E238A150A
:101AD000CF148A11A52D8A154F1C6C2DC0308B0494
:101AE0008316C201CD018501FF308600903087004A
:101AF0000430DA00FA30DC008A11831216268A15C7
:101B00008316DA0B7A2D8A1183122A2E8A15043055
:101B10008316DA00FA30DC008A11831216268A1541
:101B20008316DA0B8A2D8A118312362E8A15043019
:101B30008316DA00FA30DC008A11831216268A1521
:101B40008316DA0B9A2D0130831203178D0083164A
:101B50008C130C1483120C080313BE003E0883166A
:101B6000DA00DB018A1183125A2E8A15043083169B
:101B7000DA00FA30DC008A11831216268A158316E1
:101B8000DA0BB92D83124F114F18C42D00284F18AE
:101B9000C72DFC017C08073C031CD92D7C0883164B
:101BA000DA008312752BF8080319D72D4F15FC0A9C
:101BB000CA2D4F1DDE2D8A111E238A15FC017C08BB
:101BC000073C031CEC2D7C088316DA008A11831273
:0C1BD000FA2E8A15FC0ADF2DC32D6300DD
:02400E00323F3F
:00000001FF
;PIC16F876A
