:040000002EEF12F0DD
:08000800046ED8CF05F0E0CF33
:1000100006F00001E9CF0CF0EACF07F0E1CF08F0DD
:10002000E2CF09F0D9CF0AF0DACF0BF0F3CF12F01C
:10003000F4CF13F0FACF14F0F5CF15F0F6CF16F099
:10004000F7CF17F0F8CF18F0FBCF19F000C00EF083
:1000500001C00FF002C010F003C011F0F2AA34EF9B
:1000600000F0F2B4CEEF04F09DA03AEF00F09EB0A5
:10007000E0EF04F0F2A840EF00F0F2B2E4EF04F099
:100080009DAA46EF00F09EBA88EF05F09DA84CEFC0
:1000900000F09EB88BEF05F09DA452EF00F09EB4E7
:1000A000ADEF0AF0A0A658EF00F0A1B68EEF05F074
:1000B000A3AE5EEF00F0A4BEA7EF0AF0A3AA64EF20
:1000C00000F0A4BAAAEF0AF0A3A86AEF00F0A4B85F
:1000D000A3EF0AF0A3A670EF00F0A4B69FEF0AF01A
:1000E000A3A476EF00F0A4B49BEF0AF0A3A27CEFE8
:1000F00000F0A4B283EF08F0A3A082EF00F0A4B058
:100100007FEF08F0A0AE88EF00F0A1BE91EF05F000
:100110000EC000F00FC001F010C002F011C003F0DB
:100120000CC0E9FF07C0EAFF078E08C0E1FF09C065
:10013000E2FF0AC0D9FF0BC0DAFF12C0F3FF13C001
:10014000F4FF14C0FAFF15C0F5FF16C0F6FF17C084
:10015000F7FF18C0F8FF19C0FBFF045006C0E0FF0E
:1001600005C0D8FF1000F76A7A0FF66E010EF7226D
:10017000000EF86E0900F5501200FFFEFFFDFFFBB8
:10018000FFF7FFEFFFDFFFBFFF7FFEFFFDFFFBFF7E
:10019000F7FFEFFFDFFFBFFF7FFFF76AAE0FF66EDF
:1001A000010EF722000EF86E0900F55012000096BD
:1001B0004B975C966D957E948F93A092B191C2906F
:1001C000D38FE48EF58D068D178C288B398A4A895A
:1001D0005B886C877D868E859F84B083C182D28147
:1001E000E380F47F057F167E277D387C497B5A7A31
:1001F0006B797C788D779E76AF75C074D173E2721F
:10020000F37104711570266F376E486D596C6A6B07
:100210007B6A8C699D68AE67BF66D065E164F263F6
:100220000363146225613660475F585E695D7A5CDE
:100230008B5B9C5AAD59BE58CF57E056F1550255CD
:1002400013542453355246515750684F794E8A4DB6
:100250009B4CAC4BBD4ACE49DF48F04701471246A4
:10026000234534444543564267417840893F9A3E8E
:10027000AB3DBC3CCD3BDE3AEF390039113822377B
:100280003336443555346633773288319930AA2F66
:10029000BB2ECC2DDD2CEE2BFF2A102A2129322853
:1002A0004327542665257624872398226902256CE6
:1002B00075203C2D3E20256C750A0D006E756D6C09
:1002C000757A65733D256420256C7520256C750A4B
:1002D0000D004D41584544000401F851FA03F3CF95
:1002E00001F0F4CF00F0FB03F3500026F951FA03BC
:1002F000F3500020026E0001000C0401F951070BBD
:10030000006EF931016E013201321F0E01160150EB
:10031000FB25E96E000EFC21EA6E016A012A002A23
:1003200001D00136002EFDD7FA5303E00150EF1241
:1003300003D0011E0150EF16000153EF04F0040139
:10034000F951070B006EF931016E013201321F0EB7
:1003500001160150FA25E96E000EFB21EA6EEFCF7F
:1003600001F0002A01D00132002EFDD700015CEF20
:1003700004F0939A8A9A080E016E00D00000018E54
:1003800010D0019E050103330001D8B08A8AD8A09D
:100390008A9A018C06D0019C012EF4D700D000006F
:1003A0008A8A010E006EE96AE92EFED7002EFBD77D
:1003B000530EE96EE92EFED700D0040001BEE1D74E
:1003C00001BCE9D7000C0900F55210E0F6CF00F5AA
:1003D000F7CF01F5F8CF02F5F5CF03F5CADF00C579
:1003E000F6FF01C5F7FF02C5F8FFEDD783EF02F076
:1003F0000A0E0401FA25E96E000EFB21EA6EEFCF2A
:10040000FCF4020EFA25E96E000EFB21EA6EEFCF36
:10041000FDF40F0EFA25E96E000EFB21EA6E000EC8
:10042000EFB0010E010BD8A41BD10F0EFA25E96E17
:10043000000EFB21EA6EEF920B0EFA25E96E000E1C
:10044000FB21EA6EEFCF00F0ECCF01F0ECCF02F031
:10045000ECCF03F000500301F55D0401FE6F015085
:100460000301F6590401FF6F02500301F75905011A
:10047000006F03500301F8590501016F0301FD519D
:100480000501015D1AE324E10301FC510501005D52
:1004900014E31EE10301FB510401FF5DD8B002D05B
:1004A00005010BD0D8B402D0050112D0FE510301D2
:1004B000FA5DD8B002D005010BD0100E0401FA2568
:1004C000E96E000EFB21EA6EEF500208D8A4C7D0F7
:1004D000100E0401FA25E96E000EFB21EA6EEF50C2
:1004E0000408D8B4BCD0100EFA25E96E000EFB212A
:1004F000EA6EEF2C29D0D20EF66E020EF76E000EC9
:10050000F86E000160D7100E0401FA25E96E000EA6
:10051000FB21EA6E040EEF6E050EFA25E96E000E61
:10052000FB21EA6E010EEF6E0A0EFA25E96E000E4F
:10053000FB21EA6E7F0EEF6E060EFA25E96E000EC5
:10054000FB21EA6EEF808AD0100EFA25E96E000ECC
:10055000FB21EA6E020EEF6E0B0EFA25E96E000E1D
:10056000FB21EA6EEFCF00F0ECCF01F0ECCF02F010
:10057000ECCF03F000500301F55D0401FE6F015064
:100580000301F6590401FF6F02500301F7590501F9
:10059000006F03500301F8590501016F01530DE18C
:1005A00000530BE10401FF53D8B402D0050105D07C
:1005B000FE510301F95D43E205010F0E0401FA2526
:1005C000E96E000EFB21EA6E000EEFB4010E010B86
:1005D00018E10A0EFA25E96E000EFB21EA6EEF2AF9
:1005E0000A0EFA25E96E000EFB21EA6EEF507F0835
:1005F00007E10F0EFA25E96E000EFB21EA6EEF848B
:100600001ED00A0EFA25E96E000EFB21EA6EEF06F7
:100610000A0EFA25E96E000EFB21EA6EEF520FE199
:100620000F0EFA25E96E000EFB21EA6EEF94080E1C
:10063000FA25E96E000EFB21EA6E010EEF6E0B0E3D
:100640000401FA25E96E000EFB21EA6EF5C3EFFF07
:10065000F6C3ECFFF7C3ECFFF8C3ECFF00D0B0D05B
:100660000F0EFA25E96E000EFB21EA6E000EEFB2C6
:10067000010E010BD8A496D00F0EFA25E96E000EDC
:10068000FB21EA6EEF82100EFA25E96E000EFB21C7
:10069000EA6EEF50020822E1100EFA25E96E000E14
:1006A000FB21EA6EEF6A0F0EFA25E96E000EFB21C0
:1006B000EA6E000EEFB4010E010B08E10F0EFA25F1
:1006C000E96E000EFB21EA6EEF8407D00F0EFA25CB
:1006D000E96E000EFB21EA6EEF9464D0100EFA254D
:1006E000E96E000EFB21EA6EEF2C1ED0100EFA25EB
:1006F000E96E000EFB21EA6EEF6A050EFA25E96E3F
:10070000000EFB21EA6E010EEF6E0F0EFA25E96E68
:10071000000EFB21EA6EEF84060EFA25E96E000E4C
:10072000FB21EA6EEF803ED0100EFA25E96E000E36
:10073000FB21EA6EEF521FE1100EFA25E96E000E62
:10074000FB21EA6E010EEF6E080EFA25E96E000E2F
:10075000FB21EA6E010EEF6E0F0EFA25E96E000E18
:10076000FB21EA6EEF94090EFA25E96E000EFB21DB
:10077000EA6EEF8017D0100EFA25E96E000EFB210D
:10078000EA6EEF5004080EE1100EFA25E96E000E35
:10079000FB21EA6EEF6A0F0EFA25E96E000EFB21CF
:1007A000EA6EEF840B0EFA25E96E000EFB21EA6E6D
:1007B000F5C3EFFFF6C3ECFFF7C3ECFFF8C3ECFFA4
:1007C0000A0EFA25E96E000EFB21EA6EEF50FC5D81
:1007D0001DE0020EFA25016E000EFB21036E0A0ECB
:1007E000FA25E96E000EFB21EA6EEFCF00F5050158
:1007F00003C0EAFF01C0E9FF00C5EFFF030E0401DB
:10080000FA25E96E000EFB21EA6EEF800001C8EFC9
:1008100004F00401F76B0101D7510401F75DD8B072
:10082000BAD0F96BF7C4F8F4FB6B130EFA6F000142
:1008300053DD02C003F00150D90FE96E010E022012
:10084000EA6EEF5004E0010AD8B4A0D0A0D00401B1
:10085000F96BF7C4F8F4FB6B130EFA6F00013CDD83
:100860000150020F0401F86F000E0220F96F010E13
:10087000F827000EF923110EF825016E000EF9215C
:10088000036E0150D70FE96E010E0320EA6EEFCF21
:10089000F8F4F8C4F9F4010EFA6F0F0EFC6F920E23
:1008A000FB6F00012AD5F8C4F9F40F0E0401FB6FA9
:1008B000800EFA6F000143D501A022D00401F96B2C
:1008C000F7C4F8F4FB6B130EFA6F000105DD01505D
:1008D000020F0401F86F000E0220F96F010EF827D5
:1008E000000EF9230F0EF825016E000EF921036E9C
:1008F0000150D70FE96E010E0320EA6EEF8021D080
:100900000401F96BF7C4F8F4FB6B130EFA6F0001E6
:10091000E3DC0150020F0401F86F000E0220F96FB2
:10092000010EF827000EF9230F0EF825016E000EB8
:10093000F921036E0150D70FE96E010E0320EA6E14
:10094000EF90F96BF7C4F8F4FB6B130EFA6F00012C
:10095000C3DC0150020F0401F86F000E0220F96F92
:10096000010EF825016E000EF921036E0150D70F1C
:10097000016E010E032201C0F8F403C0F9F403C0B4
:10098000FBF401C0FAF4000133D502D001D000D04D
:100990000401F72B40D70001DBEF04F0010E030147
:1009A000F527D8B0F62BD8B4F72BD8B4F82BF5A38D
:1009B00003D000012ED70301F294000188EF00F06C
:1009C000B1899E9088EF00F0FF0E826E836EB1A514
:1009D00011D0B195B1A708D0B197010E01013C6FBC
:1009E0004F0E3B6F07D00001B187010E01013C6F34
:1009F000930E3B6F01013D6B0401F96BFA6BD890CC
:100A0000F935006ED8900036005001013B250401F5
:100A1000FD6F000E01013C210401FE6FD890FA35F4
:100A2000FD25FB6F000EFE21FC6FD890F935006E9E
:100A3000D8900036005001013B250401FD6F000EE7
:100A400001013C210401FE6FD890FA35FD25016EAD
:100A5000000EFE21036E01C0E9FFEA6EEFCF01F048
:100A6000E92AEF50E906026E02C0F8F401C0F7F47B
:100A7000D8900134026EF835036E02500001CDECBF
:100A800000F00900F5CF03F0BE6E03C0BFFF100EEB
:100A90000401F96FFA6BD890F935006ED8900036E2
:100AA000005001013B250401FD6F000E01013C21B6
:100AB0000401FE6FD890FA35FD25FB6F000EFE2174
:100AC000FC6FD890F935006ED890003600500101C7
:100AD0003B250401FD6F000E01013C210401FE6F66
:100AE000D890FA35FD25016E000EFE21036E01C07F
:100AF000E9FFEA6EEFCF01F0E92AEF50E906026E56
:100B000001C03EF1CF6ACE6AF292000188EF00F098
:100B10009E9A88EF00F09E9888EF00F0A19688EFEB
:100B200000F0A19E88EF00F00501196B186B176BA0
:100B3000166B14C51BF513C51AF51553D8B493D00D
:100B40001BC503F01AC5E9FF1BC5EAFFEFCF00F094
:100B5000016A026A036A03C019F502C018F501C0F0
:100B600017F500C016F51A51D8B41B071A071AC595
:100B7000E9FF1BC5EAFFEF501E6B1D6B1C6F006A7F
:100B8000005016131C5117131D5118131E51191321
:100B90001A51D8B41B071A071AC5E9FF1BC5EAFF8B
:100BA000EF501F6B1E6B1D6B1C6F030E1C171D6B14
:100BB0001E6B1F6B006A016A005016130150171359
:100BC0001C5118131D5119131AC5E9FF1BC5EAFF63
:100BD000EF501F6B1E6B1D6B1C6FE00E1C171D6B07
:100BE0001E6B1F6B006A1C35016E1D35026E1E35B3
:100BF000036E0136023603360136023603360136FD
:100C000002360336013602360336E00E0116005076
:100C100016130150171302501813035019131A51C9
:100C2000D8B41B071A071AC5E9FF1BC5EAFFEF5026
:100C30001D6B1C6F006A016A1C35026E1D35036E48
:100C400002360336023603360236033602360336E0
:100C5000E00E02160050161301501713025018131D
:100C60000350191353D0020E1A5F000E1B5B1AC5F6
:100C7000E9FF1BC5EAFFEF501F6B1E6B1D6B1C6F5E
:100C8000E00E1C171D6B1E6B1F6B1F31196F1E3181
:100C9000186F1D31176F1C31166F19331833173346
:100CA00016331933183317331633193318331733F0
:100CB00016331933183317331633070E19171A5111
:100CC000D8B41B071A071AC5E9FF1BC5EAFFEF5086
:100CD0001F6B1E6B1D6B1C6F1C35006E1D35016E6E
:100CE0001E35026E1F35036E00360136023603369E
:100CF0000036013602360336F80E00160050161381
:100D000001501713025018130350191316C500F0A1
:100D100017C501F018C502F019C503F00001000C59
:100D20002450FF0801E1242A24500908D8A055D1F5
:100D3000040E0501086FFD0E076F60AE18D0F10EAE
:100D40006F146F6E0401FC99A490FC9174BEFC8139
:100D5000749E60A40BD0000E60B0010E070B006EF5
:100D6000D8900036F10EFC150010FC6F20D00F015A
:100D700050AF19D0F10E6F140A096F6E0401FC898F
:100D8000A492FC9174BCFC81749C0F015051070B20
:100D9000070B006ED8900036F10E0401FC15001010
:100DA000FC6F05D00F01000E016E50D0040165509C
:100DB0000F0BFB6FFC9B65BCFC8BFC9D62B6FC8D36
:100DC000000EFCBD010E05010C6F0F0E146F640EBA
:100DD000136F0CC515F50001A7DE03C0FAF402C0BD
:100DE000F9F401C0F8F400C0F7F40F0E05010B6F21
:100DF000660E0A6F096B0401FB510501095D14E2DF
:100E00000AC5E9FF0BC5EAFFEFCF0EF508C5EAFFFB
:100E100007C5E9FF0EC5EFFF072BD8B4082B0A2B37
:100E2000D8B40B2B092BE7D7F10E6F146F6E0401AA
:100E3000FC9FA4BEFC8FA49EFCA904D00F01509F70
:100E400003D00401609E0F01010E016E0501066BC7
:100E5000065322E10651040DF350036A350FE96E83
:100E6000010E0320EA6EEFCF00F0ECCF01F0ECCFE3
:100E700002F0ECCF03F000500401F75D0AE10150ED
:100E8000F85D07E10250F95D04E10350FA5D01E10C
:100E900034D10501062BDCD724500E0DF350086B1E
:100EA000076F250E0725E96E000E0821EA6E040182
:100EB000FAC4EFFF24500E0DF3500501086B076FC5
:100EC000010E0725016E000E0821036E0150250F4B
:100ED000E96E000E0320EA6E0401F9C4EFFF24500E
:100EE0000E0DF3500501086B076F020E0725016E0A
:100EF000000E0821036E0150250FE96E000E03203D
:100F0000EA6E0401F8C4EFFF24500E0DF350050102
:100F1000086B076F030E0725016E000E0821036E94
:100F20000150250FE96E000E0320EA6E0401F7C49C
:100F3000EFFF24500E0DF3500501086B076F040EF0
:100F40000725016E000E0821036E0150250FE96E82
:100F5000000E0320EA6EFBC4EFFF24500E0DF35089
:100F6000086B076F050E0725016E000E0821036E42
:100F70000150250FE96E000E0320EA6EFCC4EFFF5E
:100F8000056B0401FB510501055D24E224500E0DA3
:100F9000F350086B076F060E0525036A0725016EDF
:100FA000085103220150250F016E000E032203C0D9
:100FB00008F5036A0551FD0FE96E040E0320EA6E81
:100FC000EFCF09F508C5EAFF01C0E9FF09C5EFFF4A
:100FD000052BD7D7242A90D00001040E0501086FF5
:100FE000FD0E076F60AE18D0F10E6F146F6E040126
:100FF000FC99A490FC9174BEFC81749E60A40BD0FB
:10100000000E60B0010E070B006ED8900036F10E96
:10101000FC150010FC6F20D00F0150AF19D0F10E5D
:101020006F140A096F6E0401FC89A492FC9174BCD0
:10103000FC81749C0F015051070B070B006ED89078
:101040000036F10E0401FC150010FC6F05D00F01F5
:10105000000E016E50D0040165500F0BFB6FFC9B1E
:1010600065BCFC8BFC9D62B6FC8D000EFCBD010EC8
:1010700005010C6F0F0E146F640E136F0CC515F580
:10108000000152DD03C0FAF402C0F9F401C0F8F423
:1010900000C0F7F40F0E05010B6F660E0A6F096BA7
:1010A0000401FB510501095D14E20AC5E9FF0BC506
:1010B000EAFFEFCF0EF508C5EAFF07C5E9FF0EC549
:1010C000EFFF072BD8B4082B0A2BD8B40B2B092B16
:1010D000E7D7F10E6F146F6E0401FC9FA4BEFC8F66
:1010E000A49EFCA904D00F01509F03D00401609E70
:1010F0000F01010E016E050104010001000C10DE5C
:10110000A49088EF00F00CDEA49288EF00F018C5E0
:101110001FF517C51EF505011D5352E01EC5E9FF59
:101120001FC5EAFF19C5EFFF1E51D8B41F071E07E0
:101130001EC5E9FF1FC5EAFF1AC5EFFF1E51D8B44F
:101140001F071E071EC5E9FF1FC5EAFF1B51030B42
:10115000EF6E1EC5E9FF1FC5EAFF1BC500F0003694
:1011600000360036F80E00160050E00BEF10EF6E60
:101170001EC5E9FF1FC5EAFFEF500809EF6E1E51BB
:10118000D8B41F071E071EC5E9FF1FC5EAFF1BC510
:1011900000F0003A0032070E00160050070BEF6E09
:1011A0001EC5E9FF1FC5EAFF1CC500F0003600366A
:1011B0000036F80E00160050F80BEF10EF6E3FD01F
:1011C0001EC5E9FF1FC5EAFFEF6A1E51D8B41F070D
:1011D0001E071EC5E9FF1FC5EAFFEF6A1E51D8B4FE
:1011E0001F071E071EC5E9FF1FC5EAFF19C500F04E
:1011F000003A0036E00E00160050E00BEF6E1E5174
:10120000D8B41F071E071EC5E9FF1FC5EAFF19C591
:1012100000F00032003200321F0E001600501F0B8B
:10122000EF6E1EC5E9FF1FC5EAFF1AC500F0003AC0
:101230000036E00E00160050E00BEF10EF6E0001DC
:10124000000C0F0E0501156F660E146F0F0140B7ED
:1012500008D0F10E6F1408096F6E0501166B1BD0D4
:101260000F0130B709D0F10E6F1406096F6E010E31
:101270000501166F10D00F0120B709D0F10E6F14C1
:1012800004096F6E020E0501166F05D00F01000EE6
:10129000016E3DD005011051030B006EFC0E601471
:1012A0000010606E0F0E186F640E176F0CC51CF5E2
:1012B0000BC51BF50AC51AF509C519F511C51DF5AC
:1012C000000125DF0FC565FF659C050112B1658C26
:1012D000136B0F51135D14E20DC5E9FF0EC5EAFF54
:1012E000EFCF19F515C5EAFF14C5E9FF19C5EFFFE2
:1012F000142BD8B4152B0D2BD8B40E2B132BE9D7E8
:101300006086F10E6F146F6E010E016E0F01000109
:1013100097EF0AF0B2510A0801E1B207B251FF0893
:10132000D8B407D1B2510D0DF3500501086B076F0A
:10133000B30E0725E96E000E0821EA6EEFCF07F520
:101340000001B2510D0DF3500501096B086F010E3C
:101350000825016E000E0921036E0150B30FE96EDE
:10136000000E0320EA6EEFCF08F50001B2510D0D1B
:10137000F35005010A6B096F020E0925016E000E7C
:101380000A21036E0150B30FE96E000E0320EA6ECE
:10139000EFCF09F50001B2510D0DF35005010B6BB4
:1013A0000A6F030E0A25016E000E0B21036E015019
:1013B000B30FE96E000E0320EA6EEFCF0AF507C502
:1013C000FAF408C5F9F409C5F8F40AC5F7F4000100
:1013D000B2510D0DF3500501086B076F0C0E072578
:1013E000016E000E0821036E0150B30FE96E000E6E
:1013F0000320EA6EEF380401FB6F0F0EFB170001AC
:10140000B2510D0DF3500501086B076F0C0E072547
:10141000016E000E0821036E0150B30FE96E000E3D
:101420000320EA6EEF500C0B006E00300401FC6FDD
:10143000FC333F0EFC170001B2510D0DF3500501B6
:10144000086B076F0C0E0725016E000E0821036E56
:101450000150B30FE96E000E0320EA6EEFCF07F5DF
:10146000059107B305810001B2510D0DF35005013F
:10147000086B076F0C0E0725016E000E0821036E26
:101480000150B30FE96E000E0320EA6EEFCF07F5AF
:10149000059307B10583066B0401FB510501065D49
:1014A00028E2036A0651FD0F016E040E032201C0FB
:1014B00007F503C008F50001B2510D0DF350050109
:1014C0000A6B096F040E0625036A0925016E0A518D
:1014D00003220150B30FE96E000E0320EA6EEFCF36
:1014E00009F508C5EAFF07C5E9FF09C5EFFF062BA7
:1014F000D3D7000E05B1010E076F000E05B3010E24
:10150000086FFAC40CF5F9C40BF5F8C40AF5F7C472
:1015100009F5040E0E6FFD0E0D6FFBC40FF5FCC434
:1015200010F507C511F508C512F500018AD6B207F6
:1015300001D000D0000CEEDEA49488EF00F0EADECB
:10154000A49688EF00F0E6DEA49888EF00F0A49E51
:1015500088EF00F0A49A88EF00F001013E53D8B460
:1015600094D096948D943DC1F9F4010E0401FA6F64
:10157000D890F935006ED8900036005001013B2517
:101580000401FD6F000E01013C210401FE6FD890A3
:10159000FA35FD25FB6F000EFE21FC6FD890F93562
:1015A000006ED8900036005001013B250401FD6F0C
:1015B000000E01013C210401FE6FD890FA35FD2593
:1015C000016E000EFE21036E01C0E9FFEA6EEFCF4F
:1015D00001F0E92AEF50E906026E02C0F8F401C0FA
:1015E000F7F4F8518216F751831601013D2B3E079F
:1015F0003DC1F9F40401FA6BD890F935006ED8902A
:101600000036005001013B250401FD6F000E010171
:101610003C210401FE6FD890FA35FD25FB6F000ECA
:10162000FE21FC6FD890F935006ED890003600503E
:1016300001013B250401FD6F000E01013C21040165
:10164000FE6FD890FA35FD25016E000EFE21036E67
:1016500001C0E9FFEA6EEFCF01F0E92AEF50E90699
:10166000026E02C0FAF401C0F9F4D8900134026E9F
:10167000FA35036E02500001CDEC00F00900F5CF01
:1016800003F0BE6E03C0BFFF01019E94000188EF0E
:1016900000F064696D5F6C6576656C2025750A0DD8
:1016A00000006F66662025750A0D0000256C752008
:1016B0003C2D3E20256C750A0D00256C75203C2DB7
:1016C0003E202575203C2D3E2025750A0D00040185
:1016D000A239700B006ED89000361F0E6F140010E8
:1016E0006F6E6ECF00F0003A0030070BA25DF9E19B
:1016F0000001000CC00E70140409706E3F0E7014CF
:10170000706EF80E71140209716EC70E71142809FB
:10171000716E719C718EF80E72140509726E729C56
:1017200098EF0BF0040E0401A26F0001D0DFE2D7A6
:10173000606A9F0E6014606E608460CF50FF739A81
:101740007398739E739C1B6AF2BE1B8EF29E0F0EE3
:101750000501186F1B0E176F1C6B1B6B1A6B196B37
:101760001D6B0001D4DC1BBEF28E1B6AF2BE1B8E09
:10177000F29E0F0E0501186F030E176F1C6B1B6B8B
:101780001A6B196B1D6B0001C2DC1BBEF28E1B6A4B
:10179000F2BE1B8EF29E0F0E0501186F070E176F1B
:1017A0001C6B1B6B1A6B196B1D6B0001B0DC1BBE35
:1017B000F28E1B6AF2BE1B8EF29E0F0E0501186F91
:1017C0001F0E176F1C6B1B6B1A6B196B1D6B0001C7
:1017D0009EDC1BBEF28E1B6AF2BE1B8EF29E0F0EAB
:1017E0000501186F0B0E176F1C6B1B6B1A6B196BB7
:1017F0001D6B00018CDC1BBEF28E1B6AF2BE1B8EC1
:10180000F29E0F0E0501186F176F1C6B1B6B1A6B86
:10181000196B1D6B00017BDC1BBEF28E1B6AF2BED6
:101820001B8EF29E0F0E0501186F130E176F1C6BA7
:101830001B6B1A6B196B1D6B000169DC1BBEF28EF2
:101840001B6AF2BE1B8EF29E0F0E0501186F170E5B
:10185000176F1C6B1B6B1A6B196B1D6B000157DC30
:101860001BBEF28E9350FB0B08090401936EA26B12
:1018700000012DDF1FEF13F0EACFF5F4E9CFF4F408
:101880000401EE39F009F06FF027E20FF16F320F2B
:10189000F36FEE510F0BF127F127F327E90FF26FEA
:1018A000F227F227ED390F0BF227F327F237F33740
:1018B000F31FF337ED510F0BF327F037070EEF6FE0
:1018C0000A0EF207F327FDE3F107F227FDE3F00725
:1018D000F127FDE3EF07F027FDE3040EEA6EEF0EBC
:1018E000E96E070EF415F49DE926F30EE95CD8B411
:1018F000F48DEF50006E08E1F4BD06D0F4B91CD0B1
:10190000F4B702D0200E03D0F487F499300E0026ED
:10191000EACFEEF4E9CFEDF41B6AF2BE1B8EF29E25
:1019200000C003F50001B9EC01F01BBEF28EEEC45D
:10193000EAFFEDC4E9FF0401EE50F4ADD6D7000193
:10194000000C0900F6CFEEF4F7CFEFF4F8CFF0F487
:101950001B6AF2BE1B8EF29EF5CF03F5B9EC01F0C7
:101960001BBEF28EEEC4F6FFEFC4F7FFF0C4F8FF23
:101970000401ED2F01D002D00001E3D70001000CDB
:101980000401F051016AEF5D03E2EFC400F00CD0F6
:10199000006A080EF16FEF370036F051005CD8B0E6
:1019A000006E0136F12FF7D70001000C200E040164
:1019B000EAA9300EEB6FE9C400F0E9AF07D0001ED2
:1019C000002A00C0E9F42D0EEB6FEA8F0150E9C444
:1019D000EFF4640EF06F0001D3DF00C0E9F4300EC5
:1019E00001240401EC6FE9C4EFF40A0EF06F00016A
:1019F000C7DF300E00240401EE6F300E0124ED6FBE
:101A0000EBC400F0EAA702D0EAAFEA95EAB90BD03E
:101A1000EAAF22D0EAB520D000C0ECF4EAB31CD083
:101A200000C0EDF419D0300EEC5D16E100C0ECF40E
:101A3000200EEB6FEAA704D0EA95EA83EAAFEA93B7
:101A4000300EED5D09E100C0EDF4200EEC6FEAA769
:101A5000F7D7EA93EAAFEA91EAA50CD01B6AF2BE87
:101A60001B8EF29EEBC403F50001B9EC01F01BBE26
:101A7000F28E0401EAA30CD01B6AF2BE1B8EF29E0A
:101A8000ECC403F50001B9EC01F01BBEF28E0401B9
:101A9000EAA10CD01B6AF2BE1B8EF29EEDC403F5C8
:101AA0000001B9EC01F01BBEF28E04011B6AF2BE0C
:101AB0001B8EF29EEEC403F50001B9EC01F01BBED3
:101AC000F28EE7EF10F00401E481E56B01013A5179
:101AD0000401E55D3DE2E551040DF350EA6BE96F69
:101AE000A30EE925016E040EEA21036EEA6F036A74
:101AF000E5513F0FE96E010E0320EA6EEF50036AD5
:101B0000EAC4EAFF01C0E9FF03C0ECFFED52EF6E4B
:101B1000E551040DF350EA6BE96F020EE925016E01
:101B2000000EEA21036E0150A30FE96E040E03209C
:101B3000EA6ED890E535036A0001B3EC00F00900C5
:101B4000F5CF03F0EF6E03C0ECFF0401E52BBED729
:101B5000E4A1E3D0E491E56B010E01013A5D0401DB
:101B6000E55DD8B0D9D0E551040DF350EA6BE96FCB
:101B7000A30EE925E96E040EEA21EA6EECCFEAF441
:101B8000ED52EFCFE9F4010EE525040DF350EC6BB7
:101B9000EB6FA30EEB25E96E040EEC21EA6EECCFA1
:101BA00003F0ED52EFCF01F0EA51035CD8A0B2D0C0
:101BB00004E10150E95DD8B0ADD0E481E551040DF8
:101BC000F350EA6BE96FA30EE925E96E040EEA21F2
:101BD000EA6EECCF03F0ED52EFCFE6F403C0E7F48A
:101BE000E551040DF350EA6BE96FA30EE925016E90
:101BF000040EEA21036EEA6F010EE525040DF35091
:101C0000EC6BEB6FA30EEB25E96E040EEC21EA6E94
:101C1000ECCF03F0ED52EFCFEBF4EAC4EAFF01C0E2
:101C2000E9FF03C0ECFFED52EBC4EFFF010EE52529
:101C3000040DF350EA6BE96FA30EE925E96E040E7B
:101C4000EA21EA6EE7C4ECFFED52E6C4EFFFE5518E
:101C5000040DF350EA6BE96F020EE925016E000EE8
:101C6000EA21036E0150A30FE96E040E0320EA6E11
:101C7000ECCF03F0ED52EFCFE6F403C0E7F4E5510B
:101C8000040DF350EA6BE96F020EE925016E000EB8
:101C9000EA21036E0150A30F016E040E032201C05E
:101CA000E9F403C0EAF4010EE525040DF350EC6BF2
:101CB000EB6F020EEB25016E000EEC21036E01505E
:101CC000A30FE96E040E0320EA6EECCF03F0ED5291
:101CD000EFCFEBF4EAC4EAFFE9C4E9FF03C0ECFF8D
:101CE000ED52EBC4EFFF010EE525040DF350EA6B56
:101CF000E96F020EE925016E000EEA21036E015024
:101D0000A30FE96E040E0320EA6EE7C4ECFFED5268
:101D1000E6C4EFFFE52B20D71BD70101396B395102
:101D200010085EE33951040DF3500401EA6BE96FCA
:101D3000A30EE925E96E040EEA21EA6EECCFEAF47F
:101D4000ED52EFCFE9F401013951040DF3500401D4
:101D5000EC6BEB6F020EEB25016E000EEC21036EB7
:101D60000150A30FE96E040E0320EA6EECCFECF4F1
:101D7000ED52EFCFEBF4100EE96EEAC4EEF4E9C4D5
:101D8000EDF4000179DDB10EF66E020EF76E000E75
:101D9000F86E050E0401ED6F0001D3DD100EE96E43
:101DA000ECC4EEF4EBC4EDF467DD1B6AF2BE1B8EEF
:101DB000F29E0A0E0501036F0001B9EC01F01BBE93
:101DC000F28E1B6AF2BE1B8EF29E0D0E0501036F92
:101DD0000001B9EC01F01BBEF28E0101392B9FD737
:101DE0000401A35304E1A45302E1E36BD0D1010E3B
:101DF000E36FE86B0001B1A709D0A4C450F1A3C4FC
:101E00004FF1A6C452F1A5C451F108D0A4C494F175
:101E1000A3C493F1A6C496F1A5C495F1010E0401E3
:101E2000E56F01013A510401E55DD8B0B0D1E5514B
:101E3000040DF350EA6BE96FA30EE925E96E040E79
:101E4000EA21EA6EECCFEAF4ED52EFCFE9F4010EAD
:101E5000E55D040DF350EC6BEB6FA30EEB25E96E23
:101E6000040EEC21EA6EECCF03F0ED52EF50E95D89
:101E700003E10350EA5D02E0000E01D0010EE96FBC
:101E8000E551040DF350EB6BEA6FA30EEA25E96E02
:101E9000040EEB21EA6EEF5202E1EC5202E0000E7A
:101EA00001D0010E000A02E0000E01D0010EE9157A
:101EB000D8B49DD00001B1A74DD00401E851040D64
:101EC000F350EA6BE96F020EE925016E000EEA217C
:101ED000036E01504F0F016E010E032201C0E9F4A1
:101EE00003C0EAF4E851040DF350EC6BEB6F020E03
:101EF000EB25016E000EEC21036E01504F0FE96ED1
:101F0000010E0320EA6EECCFECF4ED52EFCFEBF4D0
:101F1000E551040DF350EE6BED6F020EED25016EF1
:101F2000000EEE21036E0150A30FE96E040E032094
:101F3000EA6EECCF03F0ED52EF50EB15006E03505C
:101F4000EC15EAC4EAFFE9C4E9FFEC6EED5200C00B
:101F5000EFFF4CD00401E851040DF350EA6BE96F38
:101F6000020EE925016E000EEA21036E0150930F67
:101F7000016E010E032201C0E9F403C0EAF4E85146
:101F8000040DF350EC6BEB6F020EEB25016E000EAF
:101F9000EC21036E0150930FE96E010E0320EA6EEF
:101FA000ECCFECF4ED52EFCFEBF4E551040DF35030
:101FB000EE6BED6F020EED25016E000EEE21036E4D
:101FC0000150A30FE96E040E0320EA6EECCF03F07C
:101FD000ED52EF50EB15006E0350EC15EAC4EAFF2A
:101FE000E9C4E9FFEC6EED5200C0EFFFCED0E55141
:101FF000040DF350EA6BE96FA30EE925E96E040EB8
:10200000EA21EA6EEF5202E1EC5202E0000E01D04A
:10201000010E000AD8A4B9D0E82B0001B1A75BD00B
:102020000401E851040DF350EA6BE96F4F0EE92506
:10203000016E010EEA21036EEA6FE551040DF350C3
:10204000EC6BEB6FA30EEB25E96E040EEC21EA6E50
:10205000ECCF03F0ED52EFCFEBF4EAC4EAFF01C09E
:10206000E9FF03C0ECFFED52EBC4EFFFE851040DB4
:10207000F350EA6BE96F020EE925016E000EEA21CA
:10208000036E01504F0F016E010E032201C0E9F4EF
:1020900003C0EAF4E551040DF350EC6BEB6F020E54
:1020A000EB25016E000EEC21036E0150A30FE96ECB
:1020B000040E0320EA6EECCF03F0ED52EFCFEBF409
:1020C000EAC4EAFFE9C4E9FF03C0ECFFED52EBC448
:1020D000EFFF5AD000010401E851040DF350EA6B00
:1020E000E96F930EE925016E010EEA21036EEA6F96
:1020F000E551040DF350EC6BEB6FA30EEB25E96E8D
:10210000040EEC21EA6EECCF03F0ED52EFCFEBF4CE
:10211000EAC4EAFF01C0E9FF03C0ECFFED52EBC4E3
:10212000EFFFE851040DF350EA6BE96F020EE92569
:10213000016E000EEA21036E0150930F016E010E35
:10214000032201C0E9F403C0EAF4E551040DF350A1
:10215000EC6BEB6F020EEB25016E000EEC21036EB3
:102160000150A30FE96E040E0320EA6EECCF03F0DA
:10217000ED52EFCFEBF4EAC4EAFFE9C4E9FF03C094
:10218000ECFFED52EBC4EFFFE32BE52B4AD6000149
:10219000B1A705D00101906BE3C48FF104D0010118
:1021A000D46BE3C4D3F1BC0EF66E020EF76E000ED4
:1021B000F86E090E0401ED6F0001A1EC0CF0E3C410
:1021C000E9F41F0E0401EA6F0001D6EF0CF01B6A60
:1021D000F2BE1B8EF29E200E0501036F0001B9ECCA
:1021E00001F01BBEF28E100EE96E50C1EEF44FC12D
:1021F000EDF43CEC0CF01B6AF2BE1B8EF29E200E3E
:102200000501036F0001B9EC01F01BBEF28E100E48
:10221000E96E52C1EEF451C1EDF43CEC0CF01B6AD6
:10222000F2BE1B8EF29E0A0E0501036F0001B9EC8F
:1022300001F01BBEF28E1B6AF2BE1B8EF29E0D0ECB
:102240000501036F0001B9EC01F01BBEF28EB185F0
:10225000000C0401A5C4E9FFA6C4EAFFEF6A020E60
:10226000A525E96E000EA621EA6EA2C4EFFF050EB9
:10227000A525E96E000EA621EA6EA3C4EFFF080EA5
:10228000A525E96E000EA621EA6EA4C4EFFF100E8C
:10229000A525E96E000EA621EA6EEF82110EA52596
:1022A000E96E000EA621EA6E010EEF6E0B0EA5255B
:1022B000E96E000EA621EA6EEF6A100EA525E96E02
:1022C000000EA621EA6EEF94040EA525E96E000E1D
:1022D000A621EA6EEF90070EA525E96E000EA62155
:1022E000EA6EEF900A0EA525E96E000EA621EA6EB1
:1022F000EF90030EA525E96E000EA621EA6EEF6AA7
:10230000060EA525E96E000EA621EA6EEF6A090EFB
:10231000A525E96E000EA621EA6EEF6A010EA5253D
:10232000E96E000EA621EA6E010EEF6E120EA525D3
:10233000016E000EA621036EA96F036AA7511C0F40
:10234000E96E000E0320EA6EEFCFAAF4A9C4EAFFFB
:1023500001C0E9FFAAC4EFFF0001BFEF11F0010EB9
:102360000101D76F0401A26F020EA36F030EA46FC9
:10237000010EA66FD90EA56FA76B00016AD791EF6A
:1023800013F0040EEA6EA30EE96EEF5011E00C0E8E
:10239000016EBF0E006E0400002EFDD7012EF9D78E
:1023A000F70E006E002EFED700000400EF2EEFD7D0
:1023B000000C0150A4C4EFF4640E0401F06F00019E
:1023C000C0EC0CF000C0A4F40150300E08E1040190
:1023D000A5A316D0A5B714D0A5B9200E04D004012A
:1023E000A597A599A58101261B6AF2BE1B8EF29EB8
:1023F00001C003F50001B9EC01F01BBEF28E04012F
:10240000A4C4EFF40A0EF06F0001C0EC0CF000C0A1
:10241000A4F40150300E08E10401A5B711D0A5A124
:102420000FD0A5B9200E000101261B6AF2BE1B8E3B
:10243000F29E01C003F5B9EC01F01BBEF28E04015F
:10244000300EA4271B6AF2BE1B8EF29EA4C403F5B5
:102450000001B9EC01F01BBEF28E000CF86AD09EB0
:10246000078EEA6AE96A939A8A8A246AB191B26B02
:10247000B183100E01013A6F0301F96BFD6BFC6B28
:10248000FB6B270EFA6F0001B199C150C00B0F0909
:10249000C16E070EB46E1C6A010E1D6E020E1E6E1A
:1024A000030E1F6E040E206E050E216E200E226E8E
:1024B000210E236E0B0E0101356F366B376B386BB7
:1024C0000A0E3F6F406F416F426F436F446F456F1D
:1024D000466F476F486F496F4A6F4B6F4C6F4D6F38
:1024E0004E6F4F6B506B516B526B536B546B010EB5
:1024F000556F566B576B586B020E596F5A6B5B6B6F
:102500005C6B030E5D6F5E6B5F6B606B040E616FE7
:10251000626B636B646B050E656F666B676B686BF4
:10252000060E696F6A6B6B6B6C6B070E6D6F6E6B73
:102530006F6B706B080E716F726B736B746B090E3F
:10254000756F766B776B786B0A0E796F7A6B7B6B36
:102550007C6B0B0E7D6F7E6B7F6B806B0C0E816FC7
:10256000826B836B846B0D0E856F866B876B886BBC
:102570000E0E896F8A6B8B6B8C6B0F0E8D6F8E6B53
:102580008F6B906B916B926B936B946B956B966B5F
:10259000976B986B010E996F9A6B9B6B9C6B020EFD
:1025A0009D6F9E6B9F6BA06B030EA16FA26BA36BC5
:1025B000A46B040EA56FA66BA76BA86B050EA96F85
:1025C000AA6BAB6BAC6B060EAD6FAE6BAF6BB06B4B
:1025D000070EB16FB26BB36BB46B080EB56FB66B11
:1025E000B76BB86B090EB96FBA6BBB6BBC6B0A0EDD
:1025F000BD6FBE6BBF6BC06B0B0EC16FC26BC36B8D
:10260000C46B0C0EC56FC66BC76BC86B0D0EC96F64
:10261000CA6BCB6BCC6B0E0ECD6FCE6BCF6BD06B12
:102620000F0ED16FD26BD36BD46BD56BD66B03010E
:10263000F86BF76BF66BF56B000192EF0BF0040E85
:102640000401A26F000167EC0BF0C00E70140409C6
:10265000706E3F0E7014706EF80E71140209716E78
:10266000C70E71142809716E719C719EF80E721458
:102670000509726E728C0401A26B000167EC0BF00D
:10268000A380A382A384A386A388A38EA38AC15018
:10269000C00B0F09C16EC050C00BC06EC09EC2807F
:1026A0009698C69A010EC66E000EC76E810ED56E44
:1026B000950ECD6E000ECA6E000ECB6E0A0EBD6E6C
:1026C0009D84F18C000ECA6E000ECB6EB16A070EAF
:1026D000B46E9550956E9650966E0400200E006E66
:1026E000002EFED700D0B450A19CB56AF28AF288C1
:1026F00004010D83010E0E6F946A956A0001B19773
:1027000001013C6F4F0E3B6F000163EC0DF0010EB9
:1027100001013C6F930E3B6F0001B18763EC0DF03C
:102720001ED6C00EF212C80E0401A36F000129DEEE
:102730000101DDA12DD0920EF66E160EF76E000E81
:10274000F86E0A0E0401ED6F0001A1EC0CF0DCC183
:10275000A4F41B0E0401A56F00012BDE1B6AF2BE60
:102760001B8EF29E0A0E0501036F0001B9EC01F009
:102770001BBEF28E1B6AF2BE1B8EF29E0D0E050171
:10278000036F0001B9EC01F01BBEF28E0101DD9177
:10279000E0A145D01B6AF2BE1B8EF29E6F0E0501B2
:1027A000036F0001B9EC01F01BBEF28E1B6AF2BE92
:1027B0001B8EF29E6E0E0501036F0001B9EC01F055
:1027C0001BBEF28E1B6AF2BE1B8EF29E200E05010E
:1027D000036F0001B9EC01F01BBEF28EDFC1A4F45F
:1027E0001B0E0401A56F0001E4DD1B6AF2BE1B8E07
:1027F000F29E0A0E0501036F0001B9EC01F01BBE49
:10280000F28E1B6AF2BE1B8EF29E0D0E0501036F47
:102810000001B9EC01F01BBEF28E0101E091E3A1D1
:102820002DD0A20EF66E160EF76E000EF86E040E88
:102830000401ED6F0001A1EC0CF0E2C1A4F41B0E49
:102840000401A56F0001B5DD1B6AF2BE1B8EF29E6E
:102850000A0E0501036F0001B9EC01F01BBEF28EF8
:102860001B6AF2BE1B8EF29E0D0E0501036F000166
:10287000B9EC01F01BBEF28E0101E391000153D7C8
:10288000B1B501D0FDD70101396B39511008D8A07D
:10289000B2D039C1F9F40401FA6BD890F935006E61
:1028A000D8900036005001013B250401FD6F000E59
:1028B00001013C210401FE6FD890FA35FD25FB6F24
:1028C000000EFE21FC6FD890F935006ED8900036CE
:1028D000005001013B250401FD6F000E01013C2168
:1028E0000401FE6FD890FA35FD25016E000EFE2121
:1028F000036E01C0E9FFEA6EEFCF01F0E92AEF5065
:10290000E906026E02C0A3F401C0A2F439C1F9F4D1
:10291000010EFA6FD890F935006ED890003600504D
:1029200001013B250401FD6F000E01013C21040162
:10293000FE6FD890FA35FD25FB6F000EFE21FC6F6F
:10294000D890F935006ED8900036005001013B2533
:102950000401FD6F000E01013C210401FE6FD890BF
:10296000FA35FD25016E000EFE21036E01C0E9FF60
:10297000EA6EEFCF01F0E92AEF50E906026E02C0DD
:10298000A5F401C0A4F4100EE96EA3C4EEF4A2C431
:10299000EDF400013CEC0CF0AF0EF66E160EF76E87
:1029A000000EF86E050E0401ED6F0001A1EC0CF0B5
:1029B000100EE96EA5C4EEF4A4C4EDF43CEC0CF0EA
:1029C0001B6AF2BE1B8EF29E0A0E0501036F000108
:1029D000B9EC01F01BBEF28E1B6AF2BE1B8EF29E9A
:1029E0000D0E0501036F0001B9EC01F01BBEF28E64
:1029F0000101392B4AD70401F96B010EFA6FD89007
:102A0000F935006ED8900036005001013B250401D5
:102A1000FD6F000E01013C210401FE6FD890FA35D4
:102A2000FD25FB6F000EFE21FC6FD890F935006E7E
:102A3000D8900036005001013B250401FD6F000EC7
:102A400001013C210401FE6FD890FA35FD25016E8D
:102A5000000EFE21036E01C0E9FFEA6EEFCF01F028
:102A6000E92AEF50E906026E02C0A1F401C0A0F409
:102A7000A1C4A2F4A0C4A3F4100EE96EA1C4EEF4A4
:102A8000A0C4EDF400013CEC0CF0BD0EF66E160E89
:102A9000F76E000EF86E050E0401ED6F0001A1EC5B
:102AA0000CF0A2C4A4F41B0E0401A56F000181DC8C
:102AB000C40EF66E160EF76E000EF86E050E0401CB
:102AC000ED6F0001A1EC0CF0A3C4A4F41B0E0401F3
:102AD000A56F00016EDC1B6AF2BE1B8EF29E0A0E11
:102AE0000501036F0001B9EC01F01BBEF28E1B6AF9
:102AF000F2BE1B8EF29E0D0E0501036F0001B9ECB4
:102B000001F01BBEF28E96948D84040E0401A26F18
:102B1000FA0EA36F000135DC0401A22FF9D7C80E0D
:0A2B2000A36F00012EDCEFD7FFD7F2
:020000040030CA
:0E00000000C6190E008630003FC03FE03F40B2
:00000001FF
;PIC18F4685
;CRC=74C7  CREATED="02-Jun-11 11:54"
