:0400000085EF1DF07B
:08000800046ED8CF05F0E0CF33
:1000100006F00001E9CF0CF0EACF07F0E1CF08F0DD
:10002000E2CF09F0D9CF0AF0DACF0BF0F3CF12F01C
:10003000F4CF13F0FACF14F0F5CF15F0F6CF16F099
:10004000F7CF17F0F8CF18F0FBCF19F000C00EF083
:1000500001C00FF002C010F003C011F0F2AA34EF9B
:1000600000F0F2B492EF06F09DA03AEF00F09EB0DF
:10007000A4EF06F09DA240EF00F09EB2A8EF06F0BC
:10008000F2A846EF00F0F2B2BCEF06F09DAA4CEFEA
:1000900000F09EBA60EF07F09DA852EF00F09EB806
:1000A00063EF07F09DA458EF00F09EB46AEF0CF0E8
:1000B000A0A65EEF00F0A1B666EF07F0A3AE64EF76
:1000C00000F0A4BE64EF0CF0A3AA6AEF00F0A4BA9B
:1000D00067EF0CF0A3A870EF00F0A4B860EF0CF08D
:1000E000A3A676EF00F0A4B65CEF0CF0A3A47CEF1F
:1000F00000F0A4B458EF0CF0A3A282EF00F0A4B279
:1001000044EF0AF0A3A088EF00F0A4B040EF0AF09B
:10011000A0AE8EEF00F0A1BE69EF07F00EC000F0B8
:100120000FC001F010C002F011C003F00CC0E9FFD5
:1001300007C0EAFF078E08C0E1FF09C0E2FF0AC05E
:10014000D9FF0BC0DAFF12C0F3FF13C0F4FF14C0D5
:10015000FAFF15C0F5FF16C0F6FF17C0F7FF18C06D
:10016000F8FF19C0FBFF045006C0E0FF05C0D8FF30
:100170001000F76A860FF66E010EF722000EF86E79
:100180000900F5501200EFFFDFFFBFFF7FFFF7FF11
:10019000FBFFFEFFFDFFFF7FFFBFFFDFFFEFFFF76E
:1001A000FFFBFFFDFFFEF76ABA0FF66E010EF722A6
:1001B000000EF86E0900F550120000964B975C9601
:1001C0006D957E948F93A092B191C290D38FE48E5F
:1001D000F58D068D178C288B398A4A895B886C8748
:1001E0007D868E859F84B083C182D281E380F47F37
:1001F000057F167E277D387C497B5A7A6B797C781F
:100200008D779E76AF75C074D173E272F37104710D
:100210001570266F376E486D596C6A6B7B6A8C69F6
:100220009D68AE67BF66D065E164F26303631462E4
:1002300025613660475F585E695D7A5C8B5B9C5ACE
:10024000AD59BE58CF57E056F155025513542453BB
:10025000355246515750684F794E8A4D9B4CAC4BA6
:10026000BD4ACE49DF48F047014712462345344492
:100270004543564267417840893F9A3EAB3DBC3C7E
:10028000CD3BDE3AEF390039113822373336443569
:1002900055346633773288319930AA2FBB2ECC2D56
:1002A000DD2CEE2BFF2A102A212932284327542641
:1002B0006525762487239822690225753A25753CA1
:1002C0002D2D2D2D2D3E25750A0D000061647265C2
:1002D000737320746573743A25752025750A0D00B3
:1002E00064696D5F6C6576656C2025750A0D00008C
:1002F0006F66662025750A0D00006F6666202575FD
:100300000A0D00006F66662025750A0D00000401C5
:100310006C516E03F3CF01F0F4CF00F06F03F35094
:1003200000266D516E03F3500020026E0001000C98
:1003300004016F51070B006E6F31016E0132013203
:100340001F0E011601507125E96E000E7221EA6E32
:10035000016A012A002A01D00136002EFDD7705310
:1003600003E00150EF1203D0011E0150EF1600010F
:10037000000C04016F51070B006E6F31016E0132EA
:1003800001321F0E011601507025E96E000E712119
:10039000EA6EEFCF01F0002A01D00132002EFDD726
:1003A0000001000C090E04016E25E96E000E6F219C
:1003B000EA6EEFCF70F40E0E6E25E96E000E6F211F
:1003C000EA6E000EEFB0010E010BD8A4E7D00E0EBE
:1003D0006E25E96E000E6F21EA6EEF920A0E6E2511
:1003E000E96E000E6F21EA6EEFCF00F0ECCF01F066
:1003F000ECCF02F0ECCF03F000500D5D716F0150B7
:100400000E59726F02500F59736F03501059746F69
:100410001551745D0CE315E11451735D08E311E1AE
:100420001351725D04E30DE17151125D0AE30F0E89
:100430006E25E96E000E6F21EA6EEF500208D8A417
:10044000ACD00F0E6E25E96E000E6F21EA6EEF50F4
:100450000408D8B4A2D00F0E6E25E96E000E6F21ED
:10046000EA6EEF2C1FD00F0E6E25E96E000E6F2185
:10047000EA6E040EEF6E6E25E96E000E6F21EA6ED5
:10048000010EEF6E090E6E25E96E000E6F21EA6E09
:100490007F0EEF6E050E6E25E96E000E6F21EA6E7F
:1004A000EF807AD00F0E6E25E96E000E6F21EA6E96
:1004B000020EEF6E0A0E6E25E96E000E6F21EA6ED7
:1004C000EFCF00F0ECCF01F0ECCF02F0ECCF03F077
:1004D00000500D5D716F01500E59726F02500F592F
:1004E000736F03501059746F745307E1735305E130
:1004F000725303E17151115D41E20E0E6E25E96EFA
:10050000000E6F21EA6E000EEFB4010E010B18E130
:10051000090E6E25E96E000E6F21EA6EEF2A090EB4
:100520006E25E96E000E6F21EA6EEF507F0807E13D
:100530000E0E6E25E96E000E6F21EA6EEF841ED05E
:10054000090E6E25E96E000E6F21EA6EEF06090EA8
:100550006E25E96E000E6F21EA6EEF520FE10E0E6E
:100560006E25E96E000E6F21EA6EEF94070E6E2580
:10057000E96E000E6F21EA6E010EEF6E0A0E6E2517
:10058000E96E000E6F21EA6E0DC4EFFF0EC4ECFFA2
:100590000FC4ECFF10C4ECFF00D0B0D00E0E6E25DF
:1005A000E96E000E6F21EA6E000EEFB2010E010B34
:1005B000D8A496D00E0E6E25E96E000E6F21EA6E5D
:1005C000EF820F0E6E25E96E000E6F21EA6EEF507E
:1005D000020822E10F0E6E25E96E000E6F21EA6E11
:1005E000EF6A0E0E6E25E96E000E6F21EA6E000EA8
:1005F000EFB4010E010B08E10E0E6E25E96E000E40
:100600006F21EA6EEF8407D00E0E6E25E96E000EA4
:100610006F21EA6EEF9464D00F0E6E25E96E000E26
:100620006F21EA6EEF2C1ED00F0E6E25E96E000EC4
:100630006F21EA6EEF6A040E6E25E96E000E6F21DF
:10064000EA6E010EEF6E0E0E6E25E96E000E6F2142
:10065000EA6EEF84050E6E25E96E000E6F21EA6EDC
:10066000EF803ED00F0E6E25E96E000E6F21EA6E10
:10067000EF521FE10F0E6E25E96E000E6F21EA6E3C
:10068000010EEF6E070E6E25E96E000E6F21EA6E09
:10069000010EEF6E0E0E6E25E96E000E6F21EA6EF2
:1006A000EF94080E6E25E96E000E6F21EA6EEF8062
:1006B00017D00F0E6E25E96E000E6F21EA6EEF5017
:1006C00004080EE10F0E6E25E96E000E6F21EA6E32
:1006D000EF6A0E0E6E25E96E000E6F21EA6EEF8452
:1006E0000A0E6E25E96E000E6F21EA6E0DC4EFFF53
:1006F0000EC4ECFF0FC4ECFF10C4ECFF090E6E2516
:10070000E96E000E6F21EA6EEF50705D1BE0010E86
:100710006E25016E000E6F21036E090E6E25E96EC7
:10072000000E6F21EA6EEFCF73F403C0EAFF01C041
:10073000E9FF73C4EFFF020E6E25E96E000E6F2114
:10074000EA6EEF8000018CEF06F0060E04016E25C4
:10075000E96E000E6F21EA6E000EEFB0010E010B84
:1007600052E1060E6E25E96E000E6F21EA6E000E54
:10077000EFB2010E010B010846E1060E6E25E96E8F
:10078000000E6F21EA6EEF920B0E6E25E96E000EE1
:100790006F21EA6EEF2C17D00B0E6E25E96E000E5E
:1007A0006F21EA6EEF6A010E6E25E96E000E6F2171
:1007B000EA6E010EEF6E020E6E25E96E000E6F21DD
:1007C000EA6EEF801FD00B0E6E25E96E000E6F21D2
:1007D000EA6EEF5217E10B0E6E25E96E000E6F21E7
:1007E000EA6E010EEF6E040E6E25E96E000E6F21AB
:1007F000EA6E010EEF6E050E6E25E96E000E6F219A
:10080000EA6EEF8013D0060E6E25E96E000E6F21A2
:10081000EA6E000EEFB0010E010B010807E1060EB3
:100820006E25E96E000E6F21EA6EEF8200018CEFFB
:1008300006F0060E04016E25E96E000E6F21EA6EC9
:10084000000EEFB0010E010B1FE10B0E6E25E96EDD
:10085000000E6F21EA6EEF2C17D00B0E6E25E96E9D
:10086000000E6F21EA6EEF6A010E6E25E96E000E32
:100870006F21EA6E010EEF6E020E6E25E96E000E1C
:100880006F21EA6EEF802BD0060E6E25E96E000E0A
:100890006F21EA6E000EEFB0010E010B01081FE19F
:1008A0000B0E6E25E96E000E6F21EA6EEF5217E116
:1008B0000B0E6E25E96E000E6F21EA6E010EEF6ED3
:1008C000040E6E25E96E000E6F21EA6E010EEF6ECA
:1008D000050E6E25E96E000E6F21EA6EEF800001B5
:1008E0008CEF06F004016B6B01013A5104016B5D62
:1008F000D8B015D26D6B6BC46CF46F6B120E6E6F4B
:10090000000105DD02C003F001503C0F016E010E35
:10091000032201C0E9FF03C0EAFFEF500AE0030A27
:10092000D8B4AAD0020AD8B4A8D0030AD8B44AD1FD
:10093000F2D104016D6B6BC46CF46F6B120E6E6FB1
:100940000001E5DC0150020F04016C6F000E022073
:100950006D6F010E6C25016E000E6D21036E01504E
:100960003A0F016E010E03220150100FE96E000EC6
:100970000320EA6EEFCF6EF46EC46FF4010E706F59
:100980000F0E726F920E716F0001D2DC6EC46FF4A5
:100990000F0E0401716F800E706F0001EADC01A080
:1009A00024D004016D6B6BC46CF46F6B120E6E6F10
:1009B0000001ADDC0150020F04016C6F000E02203B
:1009C0006D6F010E6C25016E000E6D21036E0150DE
:1009D0003A0F016E010E032201500E0FE96E000E58
:1009E0000320EA6EEF8023D0000104016D6B6BC41D
:1009F0006CF46F6B120E6E6F000189DC0150020FF8
:100A000004016C6F000E02206D6F010E6C25016EEB
:100A1000000E6D21036E01503A0F016E010E03228C
:100A200001500E0FE96E000E0320EA6EEF906D6B21
:100A30006BC46CF46F6B120E6E6F000168DC0150BA
:100A4000020F04016C6F000E02206D6F010E6C2509
:100A5000016E000E6D21036E01503A0F016E010E02
:100A6000032201C06CF403C06DF403C06FF401C035
:100A70006EF4000197D450D14FD104016D6B6BC45B
:100A80006CF46F6B120E6E6F000141DC0150020FAF
:100A900004016C6F000E02206D6F010E6C25016E5B
:100AA000000E6D21036E01503A0F016E010E0322FC
:100AB00001500C0FE96E000E0320EA6EEFCF6EF4CA
:100AC0006EC46FF4010E706F0F0E726F920E716F25
:100AD00000012EDC6EC46FF40F0E0401716F800EE6
:100AE000706F000146DC01A024D004016D6B6BC463
:100AF0006CF46F6B120E6E6F000109DC0150020F77
:100B000004016C6F000E02206D6F010E6C25016EEA
:100B1000000E6D21036E01503A0F016E010E03228B
:100B20000150060FE96E000E0320EA6EEF8024D01C
:100B3000000104016D6B6BC46CF46F6B120E6E6F71
:100B4000000187EC01F00150020F04016C6F000EF0
:100B500002206D6F010E6C25016E000E6D21036E7B
:100B600001503A0F016E010E03220150060FE96E8B
:100B7000000E0320EA6EEF906D6B6BC46CF46F6B2C
:100B8000120E6E6F000187EC01F00150020F04019C
:100B90006C6F000E02206D6F010E6C25016E000E51
:100BA0006D21036E01503A0F016E010E032201C048
:100BB0006CF403C06DF403C06FF401C06EF4000167
:100BC000C4D5AAD004016D6B6BC46CF46F6B120EAC
:100BD0006E6F000187EC01F00150020F04016C6F91
:100BE000000E02206D6F010E6C25016E000E6D214E
:100BF000036E01503A0F016E010E032201500C0FDB
:100C0000E96E000E0320EA6EEFCF6EF46EC46FF44F
:100C1000010E706F0F0E726F920E716F000198ECE3
:100C200001F06EC46FF40F0E0401716F800E706FCF
:100C30000001B9EC01F001A025D004016D6B6BC47B
:100C40006CF46F6B120E6E6F000187EC01F00150B7
:100C5000020F04016C6F000E02206D6F010E6C25F7
:100C6000016E000E6D21036E01503A0F016E010EF0
:100C700003220150060FE96E000E0320EA6EEF809A
:100C800024D0000104016D6B6BC46CF46F6B120E09
:100C90006E6F000187EC01F00150020F04016C6FD0
:100CA000000E02206D6F010E6C25016E000E6D218D
:100CB000036E01503A0F016E010E03220150060F20
:100CC000E96E000E0320EA6EEF906D6B6BC46CF45E
:100CD0006F6B120E6E6F000187EC01F00150020F76
:100CE00004016C6F000E02206D6F010E6C25016E09
:100CF000000E6D21036E01503A0F016E010E0322AA
:100D000001C06CF403C06DF403C06FF401C06EF455
:100D100000018FD501D000D004016B2BE5D5000177
:100D20009FEF06F0010E04010D27D8B00E2BD8B4AA
:100D30000F2BD8B4102B0DA303D00001D3D5040181
:100D4000F29400018EEF00F0B1899E908EEF00F0DA
:100D500004011A2B1A51C8080BE196948D741A6B72
:100D6000010E1627D8B0172BD8B4182BD8B4192BCE
:100D70009E9200018EEF00F0FF0E826E836EB1A591
:100D800011D0B195B1A708D0B197030E0301506FF0
:100D9000650E4F6F07D00001B187030E0301506F3E
:100DA000A90E4F6F0301516B04016D6B6E6BD890F0
:100DB0006D35006ED8900036005003014F250401B8
:100DC000716F000E030150210401726FD8906E35CF
:100DD00071256F6F000E7221706FD8906D35006EA7
:100DE000D8900036005003014F250401716F000EAA
:100DF000030150210401726FD8906E357125016E88
:100E0000000E7221036E01C0E9FFEA6EEFCF01F020
:100E1000E92AEF50E906026E02C06CF401C06BF4DF
:100E2000D8900134026E6C35036E02500001D3EC91
:100E300000F00900F5CF03F0BE6E03C0BFFF100E37
:100E400004016D6F6E6BD8906D35006ED8900036D2
:100E5000005003014F250401716F000E0301502162
:100E60000401726FD8906E3571256F6F000E72217C
:100E7000706FD8906D35006ED89000360050030129
:100E80004F250401716F000E030150210401726FA0
:100E9000D8906E357125016E000E7221036E01C06F
:100EA000E9FFEA6EEFCF01F0E92AEF50E906026EA2
:100EB00001C052F3CF6ACE6AF29200018EEF00F0C9
:100EC0009E9A8EEF00F09E988EEF00F0A1968EEF26
:100ED00000F0A19E8EEF00F004018D6B8C6B8B6B8C
:100EE0008A6B88C48FF487C48EF48953D8B493D0A6
:100EF0008FC403F08EC4E9FF8FC4EAFFEFCF00F088
:100F0000016A026A036A03C08DF402C08CF401C056
:100F10008BF400C08AF48E51D8B48F078E078EC42C
:100F2000E9FF8FC4EAFFEF50926B916B906F006AFC
:100F300000508A1390518B1391518C1392518D1341
:100F40008E51D8B48F078E078EC4E9FF8FC4EAFF95
:100F5000EF50936B926B916B906F030E9017916BA8
:100F6000926B936B006A016A00508A1301508B13D5
:100F700090518C1391518D138EC4E9FF8FC4EAFFF9
:100F8000EF50936B926B916B906FE00E9017916B9B
:100F9000926B936B006A9035016E9135026E9235BB
:100FA000036E013602360336013602360336013649
:100FB00002360336013602360336E00E01160050C3
:100FC0008A1301508B1302508C1303508D138E51D2
:100FD000D8B48F078E078EC4E9FF8FC4EAFFEF50A5
:100FE000916B906F006A016A9035026E9135036EC5
:100FF000023603360236033602360336023603362D
:10100000E00E021600508A1301508B1302508C130D
:1010100003508D1353D0020E8E5F000E8F5B8EC473
:10102000E9FF8FC4EAFFEF50936B926B916B906F67
:10103000E00E9017916B926B936B93318D6F9231A1
:101040008C6F91318B6F90318A6F8D338C338B33F2
:101050008A338D338C338B338A338D338C338B339C
:101060008A338D338C338B338A33070E8D178E5131
:10107000D8B48F078E078EC4E9FF8FC4EAFFEF5004
:10108000936B926B916B906F9035006E9135016E02
:101090009235026E9335036E003601360236033602
:1010A0000036013602360336F80E001600508A1359
:1010B00001508B1302508C1303508D138AC400F01F
:1010C0008BC401F08CC402F08DC403F00001000C4D
:1010D0002450FF0801E1242A24500908D8A044D153
:1010E000040E04017C6F710E7B6F60AE17D0F10EA1
:1010F0006F146F6E7099A490709174BE7081749E1D
:1011000060A40BD0000E60B0010E070B006ED890EB
:101110000036F10E70150010706F20D00F0150AF27
:1011200019D0F10E6F140A096F6E04017089A49230
:10113000709174BC7081749C0F015051070B070BA8
:10114000006ED8900036F10E040170150010706F1B
:1011500005D00F01000E016E4CD0040165500F0B3D
:101160006F6F709B65BC708B709D62B6708D000E4A
:1011700070BD010E806F0F0E886F640E876F80C484
:1011800089F40001A9DE03C06EF402C06DF401C051
:101190006CF400C06BF40F0E04017F6F660E7E6F5F
:1011A0007D6B6F517D5D14E27EC4E9FF7FC4EAFF71
:1011B000EFCF82F47CC4EAFF7BC4E9FF82C4EFFF77
:1011C0007B2BD8B47C2B7E2BD8B47F2B7D2BE9D7FF
:1011D000F10E6F146F6E709FA4BE708FA49E70A9E5
:1011E00004D00F01509F03D00401609E0F01010E37
:1011F000016E04017A6B7A5320E17A51040DF350A9
:10120000036A350FE96E010E0320EA6EEFCF00F09E
:10121000ECCF01F0ECCF02F0ECCF03F000506B5DAF
:101220000AE101506C5D07E102506D5D04E103507D
:101230006E5D01E123D17A2BDED724500E0DF350E1
:101240007C6B7B6F250E7B25E96E000E7C21EA6EA0
:101250006EC4EFFF24500E0DF3507C6B7B6F010EBC
:101260007B25016E000E7C21036E0150250FE96E77
:10127000000E0320EA6E6DC4EFFF24500E0DF350F4
:101280007C6B7B6F020E7B25016E000E7C21036E52
:101290000150250FE96E000E0320EA6E6CC4EFFFCB
:1012A00024500E0DF3507C6B7B6F030E7B25016E7B
:1012B000000E7C21036E0150250FE96E000E032005
:1012C000EA6E6BC4EFFF24500E0DF3507C6B7B6F06
:1012D000040E7B25016E000E7C21036E0150250F4C
:1012E000E96E000E0320EA6E6FC4EFFF24500E0D6E
:1012F000F3507C6B7B6F050E7B25016E000E7C210D
:10130000036E0150250FE96E000E0320EA6E70C4D3
:10131000EFFF796B6F51795D24E224500E0DF3508D
:101320007C6B7B6F060E7925036A7B25016E7C51F1
:1013300003220150250F016E000E032203C07CF42E
:10134000036A7951710FE96E040E0320EA6EEFCF44
:101350007DF47CC4EAFF01C0E9FF7DC4EFFF792B77
:10136000D9D7242A8BD00001040E04017C6F710EA2
:101370007B6F60AE17D0F10E6F146F6E7099A490F2
:10138000709174BE7081749E60A40BD0000E60B02A
:10139000010E070B006ED8900036F10E701500108C
:1013A000706F20D00F0150AF19D0F10E6F140A09E1
:1013B0006F6E04017089A492709174BC7081749CEA
:1013C0000F015051070B070B006ED8900036F10E3D
:1013D000040170150010706F05D00F01000E016E32
:1013E0004CD0040165500F0B6F6F709B65BC708B08
:1013F000709D62B6708D000E70BD010E806F0F0E75
:10140000886F640E876F80C489F4000165DD03C0B6
:101410006EF402C06DF401C06CF400C06BF40F0EEA
:1014200004017F6F660E7E6F7D6B6F517D5D14E2F0
:101430007EC4E9FF7FC4EAFFEFCF82F47CC4EAFFF9
:101440007BC4E9FF82C4EFFF7B2BD8B47C2B7E2BBF
:10145000D8B47F2B7D2BE9D7F10E6F146F6E709F80
:10146000A4BE708FA49E70A904D00F01509F03D01A
:101470000401609E0F01010E016E04010001000CC9
:1014800027DEA4908EEF00F023DEA4928EEF00F012
:101490008CC493F48BC492F40401915352E092C42F
:1014A000E9FF93C4EAFF8DC4EFFF9251D8B49307CC
:1014B000920792C4E9FF93C4EAFF8EC4EFFF9251F2
:1014C000D8B49307920792C4E9FF93C4EAFF8F51FF
:1014D000030BEF6E92C4E9FF93C4EAFF8FC400F0E0
:1014E000003600360036F80E00160050E00BEF1004
:1014F000EF6E92C4E9FF93C4EAFFEF500809EF6E64
:101500009251D8B49307920792C4E9FF93C4EAFFBB
:101510008FC400F0003A0032070E00160050070B8F
:10152000EF6E92C4E9FF93C4EAFF90C400F0003666
:1015300000360036F80E00160050F80BEF10EF6E74
:101540003FD092C4E9FF93C4EAFFEF6A9251D8B446
:101550009307920792C4E9FF93C4EAFFEF6A92519E
:10156000D8B49307920792C4E9FF93C4EAFF8DC4ED
:1015700000F0003A0036E00E00160050E00BEF6E6F
:101580009251D8B49307920792C4E9FF93C4EAFF3B
:101590008DC400F00032003200321F0E00160050E1
:1015A0001F0BEF6E92C4E9FF93C4EAFF8EC400F0F4
:1015B000003A0036E00E00160050E00BEF10EF6E20
:1015C0000001000C0F0E0401896F660E886F0F0179
:1015D00040B708D0F10E6F1408096F6E04018A6BD2
:1015E0001BD00F0130B709D0F10E6F1406096F6ED2
:1015F000010E04018A6F10D00F0120B709D0F10E3F
:101600006F1404096F6E020E04018A6F05D00F017A
:10161000000E016E3DD004018451030B006EFC0EE0
:1016200060140010606E0F0E8C6F640E8B6F80C4A0
:1016300090F47FC48FF47EC48EF47DC48DF485C491
:1016400091F4000125DF83C465FF659C040186B128
:10165000658C876B8351875D14E281C4E9FF82C486
:10166000EAFFEFCF8DF489C4EAFF88C4E9FF8DC497
:10167000EFFF882BD8B4892B812BD8B4822B872BF2
:10168000E9D76086F10E6F146F6E010E016E0F01C7
:10169000000154EF0CF0B2510A0801E1B207B25157
:1016A000FF08D8B403D1B2510D0DF35004017C6B87
:1016B0007B6FB30E7B25E96E000E7C21EA6EEFCFC7
:1016C0007BF40001B2510D0DF35004017D6B7C6F72
:1016D000010E7C25016E000E7D21036E0150B30FBB
:1016E000E96E000E0320EA6EEFCF7CF40001B251E8
:1016F0000D0DF35004017E6B7D6F020E7D25016E92
:10170000000E7E21036E0150B30FE96E000E032020
:10171000EA6EEFCF7DF40001B2510D0DF3500401DC
:101720007F6B7E6F030E7E25016E000E7F21036EA0
:101730000150B30FE96E000E0320EA6EEFCF7EF486
:101740007BC46EF47CC46DF47DC46CF47EC46BF415
:101750000001B2510D0DF35004017C6B7B6F0C0E38
:101760007B25016E000E7C21036E0150B30FE96EE4
:10177000000E0320EA6EEF386F6F0F0E6F17000137
:10178000B2510D0DF35004017C6B7B6F0C0E7B2569
:10179000016E000E7C21036E0150B30FE96E000E46
:1017A0000320EA6EEF500C0B006E0030706F703348
:1017B0003F0E70170001B2510D0DF35004017C6B08
:1017C0007B6F0C0E7B25016E000E7C21036E015099
:1017D000B30FE96E000E0320EA6EEFCF7BF4799130
:1017E0007BB379810001B2510D0DF35004017C6B84
:1017F0007B6F0C0E7B25016E000E7C21036E015069
:10180000B30FE96E000E0320EA6EEFCF7BF47993FD
:101810007BB179837A6B6F517A5D28E2036A7A51E2
:10182000710F016E040E032201C07BF403C07CF42F
:101830000001B2510D0DF35004017E6B7D6F040E5B
:101840007A25036A7D25016E7E5103220150B30F74
:10185000E96E000E0320EA6EEFCF7DF47CC4EAFF50
:101860007BC4E9FF7DC4EFFF7A2BD5D7000E79B199
:10187000010E7B6F000E79B3010E7C6F6EC480F495
:101880006DC47FF46CC47EF46BC47DF4040E826F6F
:10189000710E816F6FC483F470C484F47BC485F4CB
:1018A0007CC486F400018ED6B20701D000D0000CB3
:1018B000F2DEA4948EEF00F0EEDEA4968EEF00F040
:1018C000EADEA4988EEF00F0A49E8EEF00F0A49ABA
:1018D0008EEF00F003015253D8B492D051C36DF48F
:1018E000010E04016E6FD8906D35006ED8900036F1
:1018F000005003014F250401716F000E03015021B8
:101900000401726FD8906E3571256F6F000E7221D1
:10191000706FD8906D35006ED8900036005003017E
:101920004F250401716F000E030150210401726FF5
:10193000D8906E357125016E000E7221036E01C0C4
:10194000E9FFEA6EEFCF01F0E92AEF50E906026EF7
:1019500002C06CF401C06BF46C5182166B5183169B
:101960000301512B520751C36DF404016E6BD890E3
:101970006D35006ED8900036005003014F250401EC
:10198000716F000E030150210401726FD8906E3503
:1019900071256F6F000E7221706FD8906D35006EDB
:1019A000D8900036005003014F250401716F000EDE
:1019B000030150210401726FD8906E357125016EBC
:1019C000000E7221036E01C0E9FFEA6EEFCF01F055
:1019D000E92AEF50E906026E02C06EF401C06DF410
:1019E000D8900134026E6E35036E02500001D3ECC4
:1019F00000F00900F5CF03F0BE6E03C0BFFF030186
:101A00009E9400018EEF00F0256C75203C2D3E2049
:101A1000256C750A0D00256C75203C2D3E20257522
:101A2000203C2D3E2025750A0D0004011D39700B48
:101A3000006ED89000361F0E6F1400106F6E6ECFC0
:101A400000F0003A0030070B1D5DF9E10001000CC9
:101A5000C00E70140409706E3F0E7014706EF80E94
:101A600071140209716EC70E71142809716E719C90
:101A7000718EF80E72140509726E729C46EF0DF0AD
:101A8000040E04011D6F0001D0DFE2D7606A9F0ED3
:101A90006014606E608460CF50FF739A7398739E79
:101AA000739C1B6AF2BE1B8EF29E0F0E04018C6F9C
:101AB0001B0E8B6F906B8F6B8E6B8D6B916B000120
:101AC000E7DC1BBEF28E1B6AF2BE1B8EF29E0F0E6F
:101AD00004018C6F030E8B6F906B8F6B8E6B8D6B15
:101AE000916B0001D5DC1BBEF28E1B6AF2BE1B8E11
:101AF000F29E0F0E04018C6F070E8B6F906B8F6B35
:101B00008E6B8D6B916B0001C3DC1BBEF28E1B6A6A
:101B1000F2BE1B8EF29E0F0E04018C6F1F0E8B6F98
:101B2000906B8F6B8E6B8D6B916B0001B1DC1BBE6C
:101B3000F28E1B6AF2BE1B8EF29E0F0E04018C6F9A
:101B40000B0E8B6F906B8F6B8E6B8D6B916B00019F
:101B50009FDC1BBEF28E1B6AF2BE1B8EF29E0F0E26
:101B600004018C6F8B6F906B8F6B8E6B8D6B916B99
:101B700000018EDC1BBEF28E1B6AF2BE1B8EF29E33
:101B80000F0E04018C6F130E8B6F906B8F6B8E6B2F
:101B90008D6B916B00017CDC1BBEF28E1B6AF2BE6A
:101BA0001B8EF29E0F0E04018C6F170E8B6F906BC5
:101BB0008F6B8E6B8D6B916B00016ADC1BBEF28E9E
:101BC0009350FB0B08090401936E1D6B00012DDF80
:101BD000EBEF0DF055D7040E04011D6F000125DF5A
:101BE000C00E70140409706E3F0E7014706EF80E03
:101BF00071140209716EC70E71142809716E719CFF
:101C0000719EF80E72140509726E728C04011D6BC0
:101C100000010BDF810ED56E950ECD6E600E0609AC
:101C2000CA6EF10ECB6E0A0EBD6EF18CC150C00BA8
:101C30000F09C16EC050C00BC06EC09EC280969886
:101C4000C69A010EC66E000EC76E070EB46E955092
:101C5000956E9650966E0400200E006E002EFED7F4
:101C600000D0B450A19CB56AB16A7DEF1EF00401AA
:101C700020C4E9FF21C4EAFFEF6A010E2025016EAE
:101C8000000E212101C0E9FFEA6E1DC4EFFF010E25
:101C90002025016E000E2121036E0150030FE96E15
:101CA000000E0320EA6E1EC4EFFF010E2025016E18
:101CB000000E2121036E0150060FE96E000E032075
:101CC000EA6E1FC4EFFF010E2025016E000E2121D8
:101CD000036E01500E0FE96E000E0320EA6EEF82D4
:101CE000010E2025016E000E2121036E01500F0F01
:101CF000E96E000E0320EA6E010EEF6E2025016EE4
:101D0000000E2121036E0150090FE96E000E032021
:101D1000EA6EEF6A010E2025016E000E2121036E8E
:101D200001500E0FE96E000E0320EA6EEF94010ED3
:101D30002025016E000E2121036E0150020FE96E75
:101D4000000E0320EA6EEF90010E2025016E000EBA
:101D50002121036E0150050FE96E000E0320EA6E8B
:101D6000EF90010E2025016E000E2121036E01501F
:101D7000080FE96E000E0320EA6EEF90010E202599
:101D8000016E000E2121036E0150010FE96E000E5D
:101D90000320EA6EEF6A010E2025016E000E21215C
:101DA000036E0150040FE96E000E0320EA6EEF6A25
:101DB000010E2025016E000E2121036E0150070F38
:101DC000E96E000E0320EA6EEF6A010E2025016E17
:101DD000000E2121036E0150100F016E000E032230
:101DE00003C026F4036A22511C0FE96E000E032083
:101DF000EA6EEFCF27F426C4EAFF01C0E9FF27C44B
:101E0000EFFF010E2025016E000E2121036E01500F
:101E10000A0FE96E000E0320EA6EEE52EE52EC6AF3
:101E2000ED52EF6AED52EF6AED52EF6A000129EFD1
:101E30000FF0010E01013A6F04011D6F020E1E6FBB
:101E4000030E1F6F010E216F3C0E206F226B0001ED
:101E50000ED77FEF1EF0939A8A9A080E016E00D07B
:101E60000000018E10D0019E04014E330001D8B055
:101E70008A8AD8A08A9A018C06D0019C012EF4D7B8
:101E800000D000008A8A010E006EE96AE92EFED7B2
:101E9000002EFBD7530EE96EE92EFED700D00400CA
:101EA00001BEE1D701BCE9D7000C0900F6CF4BF425
:101EB000F7CF4CF4F8CF4DF4F5CF4EF4CCDF4BC454
:101EC000F6FF4CC4F7FF4DC4F8FF04014A2F01D0C0
:101ED00002D00001EAD70001000C04014D51016A53
:101EE0004C5D03E24CC400F00CD0006A080E4E6F4B
:101EF0004C3700364D51005CD8B0006E01364E2F85
:101F0000F7D70001000C01504AC44CF4640E0401E0
:101F10004D6F0001E2DF00C04AF40150300E08E1CD
:101F200004014BA30FD04BB70DD04BB9200E04D0FA
:101F300004014B974B994B81012601C04EF40001DF
:101F40008ADF04014AC44CF40A0E4D6F0001C5DF5C
:101F500000C04AF40150300E08E104014BB70AD02A
:101F60004BA108D04BB9200E0001012601C04EF450
:101F700072DF0401300E4A274AC44EF400016BDFC1
:101F8000000C0401476B4651475D59E2036A475113
:101F90004425016E4551032203C049F442C4E9FFC0
:101FA00043C4EAFFEFCF4AF449C4EAFF01C0E9FFA6
:101FB0004AC4EFFF036A47514425E96E45510320A7
:101FC000EA6EEFCF48F443C403F042C4E9FF43C4D0
:101FD000EAFFEFCF49F447C44AF41B0E4B6F0001F0
:101FE00092DF3A0E04014E6F000135DF48C44AF417
:101FF0001B0E04014B6F000186DFBF0EF66E020E52
:10200000F76E000EF86E070E04014A6F00014DDFF7
:1020100049C44AF41B0E04014B6F000174DF0A0E21
:1020200004014E6F000117DF0D0E04014E6F000119
:1020300012DF0401422BD8B4432B472BA4D7000155
:10204000000C04013BC4E9FF3CC4EAFF010EEF6E43
:102050003B25016E000E3C21036E01501D0FE96E01
:10206000000E0320EA6EEF90010E3B25016E000E7C
:102070003C21036E0150090FE96E000E0320EA6E49
:10208000EF90010E3B25016E000E3C21036E0150C6
:10209000130FE96E000E0320EA6EEF90010E3B2550
:1020A000016E000E3C21036E01501C0FE96E000E04
:1020B0000320EA6EEF6A010E3B25016E000E3C2103
:1020C000036E0150080FE96E000E0320EA6EEF6AFE
:1020D000010E3B25016E000E3C21036E0150120FD4
:1020E000E96E000E0320EA6EEF6A010E3B25016ED9
:1020F000000E3C21036E01501F0FE96E000E0320FD
:10210000EA6E3DC4EFFF010E3B25016E000E3C213F
:10211000036E0150140FE96E000E0320EA6E010EEB
:10212000EF6E3B25016E000E3C21036E0150150F32
:10213000E96E000E0320EA6E020EEF6E010E3B25E3
:10214000016E000E3C21036E0150140FE96E000E6B
:102150000320EA6EEFCF40F4010E3B25016E000E26
:102160003C21036E0150150FE96E000E0320EA6E4C
:10217000EFCF43F4CC0EF66E020EF76E000EF86E43
:102180000C0E4A6F000191DE40C44AF41B0E04019C
:102190004B6F0001B8DE200E04014E6F00015BDEC4
:1021A00043C44AF41B0E04014B6F0001ACDE0A0E5F
:1021B00004014E6F00014FDE0D0E04014E6F000151
:1021C0004ADE010E04013B25016E000E3C21036E28
:1021D0000150140FE96E000E0320EA6EECCF41F4BB
:1021E000ED52EFCF40F436C443F435C442F441C459
:1021F00045F440C444F4080E466F0001C2DE010EEF
:1022000004013B25016E000E3C21036E01C0E9FF75
:10221000EA6EECCF41F4ED52EFCF40F438C443F412
:1022200037C442F441C445F440C444F4080E466F38
:102230000001A7DE010E04013B25016E000E3C21CA
:10224000036E01500A0FE96E000E0320EA6EECCF18
:1022500041F4ED52EFCF40F43AC443F439C442F4B0
:1022600041C445F440C444F4080E466F000189DEC1
:10227000010E04013B25016E000E3C21036E01504E
:102280001E0FE96E000E0320EA6E010EEF6E0001D4
:1022900084EF11F0010E01013B6F04011D6F150E5B
:1022A0001E6F1F0E1F6FFF0E206F216F226F236F97
:1022B000246F030E256F330E266F3D0E276FFF0E22
:1022C000286F296F2A6F2B6F2C6F020E2D6F510E06
:1022D0002E6F5B0E2F6FFF0E306F316F326F336FCB
:1022E000346F040E366F1D0E356F040E386F2D0ED1
:1022F000376F040E3A6F250E396F010E3C6FF00EEA
:102300003B6F3D6B00019DD681EF1EF004016081A3
:10231000616B03014E510401615D47E26151040D9F
:10232000F350666B656F1F0E6525016E040E662106
:10233000036E666F036A6151550FE96E030E032049
:10234000EA6EEF50036A66C4EAFF01C0E9FF03C00A
:10235000ECFFED52EF6E6151040DF350666B656F4B
:10236000020E6525016E000E6621036E01501F0FDF
:10237000016E040E032203C066F4D8906135036A2F
:10238000ED0FE96E030E0320EA6EECCF03F0ED5281
:10239000EFCF67F466C4EAFF01C0E9FF03C0ECFFBA
:1023A000ED5267C4EFFF612BB4D760A1E3D0609119
:1023B000616B010E03014E5D0401615DD8B0D9D09F
:1023C0006151040DF350666B656F1F0E6525E96E54
:1023D000040E6621EA6EECCF66F4ED52EFCF65F4A1
:1023E000010E6125040DF350686B676F1F0E6725A2
:1023F000E96E040E6821EA6EECCF03F0ED52EFCFE8
:1024000001F06651035CD8A0B2D004E10150655DD3
:10241000D8B0ADD060816151040DF350666B656F2B
:102420001F0E6525E96E040E6621EA6EECCF03F0FF
:10243000ED52EFCF62F403C063F46151040DF35029
:10244000666B656F1F0E6525016E040E6621036EB7
:10245000666F010E6125040DF350686B676F1F0EE8
:102460006725E96E040E6821EA6EECCF03F0ED52A9
:10247000EFCF67F466C4EAFF01C0E9FF03C0ECFFD9
:10248000ED5267C4EFFF010E6125040DF350666B3A
:10249000656F1F0E6525E96E040E6621EA6E63C442
:1024A000ECFFED5262C4EFFF6151040DF350666B17
:1024B000656F020E6525016E000E6621036E0150E8
:1024C0001F0FE96E040E0320EA6EECCF03F0ED520D
:1024D000EFCF62F403C063F46151040DF350666BF7
:1024E000656F020E6525016E000E6621036E0150B8
:1024F0001F0F016E040E032201C065F403C066F4D1
:10250000010E6125040DF350686B676F020E67259D
:10251000016E000E6821036E01501F0FE96E040E5C
:102520000320EA6EECCF03F0ED52EFCF67F466C400
:10253000EAFF65C4E9FF03C0ECFFED5267C4EFFF9B
:10254000010E6125040DF350666B656F020E652563
:10255000016E000E6621036E01501F0FE96E040E1E
:102560000320EA6E63C4ECFFED5262C4EFFF612BFF
:1025700020D71BD71F5304E1205302E15F6BD0D15A
:10258000010E5F6F646B0001B1A709D020C466F330
:102590001FC465F322C468F321C467F308D020C4C4
:1025A000AAF31FC4A9F322C4ACF321C4ABF3010EF8
:1025B0000401616F03014E510401615DD8B0B0D1D7
:1025C0006151040DF350666B656F1F0E6525E96E52
:1025D000040E6621EA6EECCF66F4ED52EFCF65F49F
:1025E000010E615D040DF350686B676F1F0E672568
:1025F000E96E040E6821EA6EECCF03F0ED52EF5065
:10260000655D03E10350665D02E0000E01D0010E3E
:10261000656F6151040DF350676B666F1F0E662581
:10262000E96E040E6721EA6EEF5202E1EC5202E01D
:10263000000E01D0010E000A02E0000E01D0010ED2
:102640006515D8B49DD00001B1A74DD004016451E7
:10265000040DF350666B656F020E6525016E000E6A
:102660006621036E0150650F016E030E032201C047
:1026700065F403C066F46451040DF350686B676F32
:10268000020E6725016E000E6821036E0150650F72
:10269000E96E030E0320EA6EECCF68F4ED52EFCF43
:1026A00067F46151040DF3506A6B696F020E69257E
:1026B000016E000E6A21036E01501F0FE96E040EB9
:1026C0000320EA6EECCF03F0ED52EF506715006E79
:1026D0000350681566C4EAFF65C4E9FFEC6EED526D
:1026E00000C0EFFF4CD004016451040DF350666B41
:1026F000656F020E6525016E000E6621036E0150A6
:10270000A90F016E030E032201C065F403C066F435
:102710006451040DF350686B676F020E6725016EFC
:10272000000E6821036E0150A90FE96E030E03200D
:10273000EA6EECCF68F4ED52EFCF67F46151040D0F
:10274000F3506A6B696F020E6925016E000E6A21F3
:10275000036E01501F0FE96E040E0320EA6EECCFEA
:1027600003F0ED52EF506715006E0350681566C414
:10277000EAFF65C4E9FFEC6EED5200C0EFFFCED07A
:102780006151040DF350666B656F1F0E6525E96E90
:10279000040E6621EA6EEF5202E1EC5202E0000EF6
:1027A00001D0010E000AD8A4B9D0642B0001B1A752
:1027B0005BD004016451040DF350666B656F650EC8
:1027C0006525016E030E6621036E666F6151040D6F
:1027D000F350686B676F1F0E6725E96E040E682162
:1027E000EA6EECCF03F0ED52EFCF67F466C4EAFF78
:1027F00001C0E9FF03C0ECFFED5267C4EFFF645175
:10280000040DF350666B656F020E6525016E000EB8
:102810006621036E0150650F016E030E032201C095
:1028200065F403C066F46151040DF350686B676F83
:10283000020E6725016E000E6821036E01501F0F06
:10284000E96E040E0320EA6EECCF03F0ED52EFCFF9
:1028500067F466C4EAFF65C4E9FF03C0ECFFED520C
:1028600067C4EFFF5AD0000104016451040DF35016
:10287000666B656FA90E6525016E030E6621036EFA
:10288000666F6151040DF350686B676F1F0E67250B
:10289000E96E040E6821EA6EECCF03F0ED52EFCF43
:1028A00067F466C4EAFF01C0E9FF03C0ECFFED5224
:1028B00067C4EFFF6451040DF350666B656F020E41
:1028C0006525016E000E6621036E0150A90F016E91
:1028D000030E032201C065F403C066F46151040DC8
:1028E000F350686B676F020E6725016E000E68215A
:1028F000036E01501F0FE96E040E0320EA6EECCF49
:1029000003F0ED52EFCF67F466C4EAFF65C4E9FF58
:1029100003C0ECFFED5267C4EFFF5F2B612B4AD67B
:102920000001B1A705D00301A66B5FC4A5F304D0D5
:102930000301EA6B5FC4E9F30001B185000C0401F7
:102940001D6B01013B5104011D5DD8B094D01B6A81
:10295000F2BE1B8EF29E6D6B1DC46CF46F6B230E6A
:102960006E6F000187EC01F01BBEF28E02C003F017
:102970000150F00F016E010E032201C0E9FF03C0F8
:10298000EAFFEF50010A01E073D0D89003014E3501
:10299000036AED0F016E030E032201C01EF4040151
:1029A00003C01FF41B6AF2BE1B8EF29E6D6B1DC42A
:1029B0006CF46F6B230E6E6F000187EC01F01BBE91
:1029C000F28E0150B60F0401206F000E0220216F1D
:1029D000010E2025016E000E2121036E01503A0FD9
:1029E000016E010E032201501F0FE96E000E03203D
:1029F000EA6ED890EF34036A0001B9EC00F00900E8
:102A0000F5CF03F004011FC4EAFF1EC4E9FF03C0B1
:102A1000ECFFED52EF6E1B6AF2BE1B8EF29E6D6BE9
:102A20001DC46CF46F6B230E6E6F000187EC01F018
:102A30001BBEF28E0150B60F04011E6F000E022065
:102A40001F6F010E1E25016E000E1F21036E015027
:102A50003A0F016E010E03220150200FE96E000EA5
:102A60000320EA6E4EC3EFFF03014E2B000100D09E
:102A700004011D2B66D7FF0E0301546F536F040131
:102A80001D6B03014E5104011D5D13E2D8901D35ED
:102A9000036AED0FE96E030E0320EA6EECCF03F03C
:102AA000ED52EF50030153170350541704011D2B2F
:102AB000E8D7030153515411000ED8B4010A536FE3
:102AC000000E946A956A0001B197030E0301506FDE
:102AD000650E4F6F00011ADC030E0301506FA90E43
:102AE0004F6F0001B18712DC83EF1EF004011E91CD
:102AF0001D6B01013B5104011D5DD8B0D6D21B6A8C
:102B0000F2BE1B8EF29E6D6B1DC46CF46F6B230EB8
:102B10006E6F000187EC01F01BBEF28E02C003F065
:102B20000150F00F016E010E032201C0E9FF03C046
:102B3000EAFFEF50010A01E0B5D21B6AF2BE1B8E1C
:102B4000F29E04016D6B1DC46CF46F6B230E6E6FEF
:102B5000000187EC01F01BBEF28E0150B60F04019C
:102B60001F6F000E0220206F010E1F25016E000E48
:102B70002021036E01503A0F016E010E0322015015
:102B80001D0FE96E000E0320EA6EEFA0B2D01B6AA3
:102B9000F2BE1B8EF29E6D6B1DC46CF46F6B230E28
:102BA0006E6F000187EC01F01BBEF28E0150B60F74
:102BB00004011F6F000E0220206F010E1F25016E01
:102BC000000E2021036E01503A0F016E010E032208
:102BD00001501E0FE96E000E0320EA6EEF5261E114
:102BE0001B6AF2BE1B8EF29E6D6B1DC46CF46F6B84
:102BF000230E6E6F000187EC01F01BBEF28E0150B8
:102C0000B60F04011F6F000E0220206F010E1F255A
:102C1000016E000E2021036E01503A0F016E010E6D
:102C200003220150200FE96E000E0320EA6E036AB2
:102C3000EF50550F016E030E032201C021F403C0B3
:102C400022F41B6AF2BE1B8EF29E6D6B1DC46CF4E7
:102C50006F6B230E6E6F000187EC01F01BBEF28ECE
:102C60000150B60F0401236F000E0220246F010EE5
:102C70002325016E000E2421036E01503A0F016ED0
:102C8000010E032201501C0FE96E000E0320EA6EB4
:102C9000EFCF25F422C4EAFF21C4E9FF25C4EFFFEA
:102CA0001E811B6AF2BE1B8EF29E6D6B1DC46CF4FE
:102CB0006F6B230E6E6F000187EC01F01BBEF28E6E
:102CC0000150B60F04011F6F000E0220206F010E8D
:102CD0001F25016E000E2021036E01503A0F016E78
:102CE000010E032201501D0FE96E000E0320EA6E53
:102CF000EF901B6AF2BE1B8EF29E6D6B1DC46CF4CE
:102D00006F6B230E6E6F000187EC01F01BBEF28E1D
:102D10000150B60F04011F6F000E0220206F010E3C
:102D20001F25016E000E2021036E01503A0F016E27
:102D3000010E03220150130FE96E000E0320EA6E0C
:102D4000EFA0AAD01B6AF2BE1B8EF29E6D6B1DC453
:102D50006CF46F6B230E6E6F000187EC01F01BBEED
:102D6000F28E0150B60F04011F6F000E0220206F7B
:102D7000010E1F25016E000E2021036E01503A0F37
:102D8000016E010E03220150120FE96E000E0320A6
:102D9000EA6EEF5259E01B6AF2BE1B8EF29E6D6B1B
:102DA0001DC46CF46F6B230E6E6F000187EC01F095
:102DB0001BBEF28E0150B60F04011F6F000E0220E1
:102DC000206F010E1F25016E000E2021036E0150A1
:102DD0003A0F016E010E032201501E0FE96E000E24
:102DE0000320EA6E010EEF6E1B6AF2BE1B8EF29E8E
:102DF0006D6B1DC46CF46F6B230E6E6F000187EC5E
:102E000001F01BBEF28E0150B60F04011F6F000EC1
:102E10000220206F010E1F25016E000E2021036E7F
:102E200001503A0F016E010E03220150200FE96E8E
:102E3000000E0320EA6E036AEF50550FE96E030E91
:102E40000320EA6EEF6A1E811B6AF2BE1B8EF29EA1
:102E50006D6B1DC46CF46F6B230E6E6F000187ECFD
:102E600001F01BBEF28E0150B60F04011F6F000E61
:102E70000220206F010E1F25016E000E2021036E1F
:102E800001503A0F016E010E03220150130FE96E3B
:102E9000000E0320EA6EEF901B6AF2BE1B8EF29EBC
:102EA0006D6B1DC46CF46F6B230E6E6F000187ECAD
:102EB00001F01BBEF28E0150B60F04011F6F000E11
:102EC0000220206F010E1F25016E000E2021036ECF
:102ED00001503A0F016E010E03220150090FE96EF5
:102EE000000E0320EA6EEFA0DBD01B6AF2BE1B8E41
:102EF000F29E6D6B1DC46CF46F6B230E6E6F000140
:102F000087EC01F01BBEF28E0150B60F04011F6F5B
:102F1000000E0220206F010E1F25016E000E2021E1
:102F2000036E01503A0F016E010E03220150080F8B
:102F3000E96E000E0320EA6EEF52D8B489D01B6A06
:102F4000F2BE1B8EF29E6D6B1DC46CF46F6B230E74
:102F50006E6F000187EC01F01BBEF28E0150B60FC0
:102F600004011F6F000E0220206F010E1F25016E4D
:102F7000000E2021036E01503A0F016E010E032254
:102F800001501E0FE96E000E0320EA6EEF6A1B6A05
:102F9000F2BE1B8EF29E6D6B1DC46CF46F6B230E24
:102FA0006E6F000187EC01F01BBEF28E0150B60F70
:102FB00004011F6F000E0220206F010E1F25016EFD
:102FC000000E2021036E01503A0F016E010E032204
:102FD0000150200FE96E000E0320EA6E036AEF50E5
:102FE000550F016E030E032201C021F403C022F429
:102FF0001B6AF2BE1B8EF29E6D6B1DC46CF46F6B70
:10300000230E6E6F000187EC01F01BBEF28E0150A3
:10301000B60F0401236F000E0220246F010E23253A
:10302000016E000E2421036E01503A0F016E010E55
:10303000032201501C0FE96E000E0320EA6EEFCF51
:1030400025F422C4EAFF21C4E9FF25C4EFFF1E8155
:103050001B6AF2BE1B8EF29E6D6B1DC46CF46F6B0F
:10306000230E6E6F000187EC01F01BBEF28E015043
:10307000B60F04011F6F000E0220206F010E1F25E6
:10308000016E000E2021036E01503A0F016E010EF9
:1030900003220150090FE96E000E0320EA6EEF9043
:1030A000000100D004011D2B24D51EA104D0000175
:1030B00086EC11F004010001000CA380A382A3841C
:1030C000A386A388A38EA38A9D84F28A9D82F28818
:1030D000C00EF21290EF1EF00401266B01013B516D
:1030E0000401265DD8B008D21B6AF2BE1B8EF29E88
:1030F0006D6B26C46CF46F6B230E6E6F000187EC52
:1031000001F01BBEF28E02C003F00150F00F016E01
:10311000010E032201C0E9FF03C0EAFFEF50010ADC
:1031200007E0010AD8B4E0D1020AD8B4DFD1E0D177
:103130001B6AF2BE1B8EF29E04016D6B26C46CF4FA
:103140006F6B230E6E6F000187EC01F01BBEF28ED9
:1031500002C003F00150B60F0401276F000E0320D8
:10316000286F010E2725016E000E2821036E0150E5
:103170003A0F016E010E03220150140FE96E000E8A
:103180000320EA6EECCF2AF4ED52EFCF29F42AC4E3
:103190002EF429C42DF42F6B2F51070813E3036A73
:1031A0002F512D25E96E2E510320EA6E2451EF5C3C
:1031B00003E1010E016E08D00A0E2D27D8B02E2B88
:1031C0002F2BEAD7000E016E015252E01B6AF2BEAD
:1031D0001B8EF29E6D6B26C46CF46F6B230E6E6FAC
:1031E000000187EC01F01BBEF28E0150B60F040106
:1031F000276F000E0220286F010E2725016E000E9A
:103200002821036E01503A0F016E010E0322015076
:103210001C0FE96E000E0320EA6E25C4EFFF1B6A47
:10322000F2BE1B8EF29E6D6B26C46CF46F6B230E88
:103230006E6F000187EC01F01BBEF28E0150B60FDD
:103240000401276F000E0220286F010E2725016E52
:10325000000E2821036E01503A0F016E010E032269
:1032600001501D0FE96E000E0320EA6EEF803BD186
:103270001B6AF2BE1B8EF29E6D6B26C46CF46F6BE4
:10328000230E6E6F000187EC01F01BBEF28E02C0B0
:1032900003F00150B60F0401276F000E0320286FC2
:1032A000010E2725016E000E2821036E01503A0FF2
:1032B000016E010E03220150E96E0350EA6EECCF5D
:1032C0002AF4ED52EFCF29F42AC42EF429C42DF4A8
:1032D0002F6B2F51070813E3036A2F512D25E96E39
:1032E0002E510320EA6E2451EF5C03E1010E016EC2
:1032F00008D00A0E2D27D8B02E2B2F2BEAD7000E80
:10330000016E015252E01B6AF2BE1B8EF29E6D6B83
:1033100026C46CF46F6B230E6E6F000187EC01F016
:103320001BBEF28E0150B60F0401276F000E022063
:10333000286F010E2725016E000E2821036E015013
:103340003A0F016E010E03220150080FE96E000EC4
:103350000320EA6E25C4EFFF1B6AF2BE1B8EF29EAD
:103360006D6B26C46CF46F6B230E6E6F000187ECDF
:1033700001F01BBEF28E0150B60F0401276F000E44
:103380000220286F010E2725016E000E2821036EF2
:1033900001503A0F016E010E03220150090FE96E30
:1033A000000E0320EA6EEF809ED01B6AF2BE1B8ED9
:1033B000F29E6D6B26C46CF46F6B230E6E6F000172
:1033C00087EC01F01BBEF28E02C003F00150B60F75
:1033D0000401276F000E0320286F010E2725016EC0
:1033E000000E2821036E01503A0F016E010E0322D8
:1033F00001500A0FE96E000E0320EA6EECCF2AF4AA
:10340000ED52EFCF29F42AC42EF429C42DF42F6BEA
:103410002F51070813E3036A2F512D25E96E2E5112
:103420000320EA6E2451EF5C03E1010E016E08D027
:103430000A0E2D27D8B02E2B2F2BEAD7000E016EA7
:10344000015251E01B6AF2BE1B8EF29E6D6B26C4C8
:103450006CF46F6B230E6E6F000187EC01F01BBEE6
:10346000F28E0150B60F0401276F000E0220286F64
:10347000010E2725016E000E2821036E01503A0F20
:10348000016E010E03220150120FE96E000E03209F
:10349000EA6E25C4EFFF1B6AF2BE1B8EF29E6D6BB7
:1034A00026C46CF46F6B230E6E6F000187EC01F085
:1034B0001BBEF28E0150B60F0401276F000E0220D2
:1034C000286F010E2725016E000E2821036E015082
:1034D0003A0F016E010E03220150130FE96E000E28
:1034E0000320EA6EEF8006D0040104D0040102D06C
:1034F000040100D0262BF2D50001000C04011D6B45
:1035000001013A5104011D5DD8B09DD21B6AF2BE83
:103510001B8EF29E6D6B1DC46CF46F6B120E6E6F82
:10352000000187EC01F01BBEF28E02C003F00150D7
:103530003C0F016E010E032201C0E9FF03C0EAFF48
:10354000EF5004E0030AD8B478D279D21B6AF2BEF5
:103550001B8EF29E04016D6B1DC46CF46F6B120E1A
:103560006E6F000187EC01F01BBEF28E0150020F5E
:1035700004011E6F000E02201F6F010E1E25016E3A
:10358000000E1F21036E01503A0F016E010E03223F
:103590000150020FE96E000E0320EA6EEFA0A7D0E3
:1035A0001B6AF2BE1B8EF29E6D6B1DC46CF46F6BBA
:1035B000120E6E6F000187EC01F01BBEF28E0150FF
:1035C000020F04011E6F000E02201F6F010E1E2548
:1035D000016E000E1F21036E01503A0F016E010EA5
:1035E000032201C0E9FF03C0EAFFEFCF20F41B6A0A
:1035F000F2BE1B8EF29E6D6B1DC46CF46F6B120ECF
:103600006E6F000187EC01F01BBEF28E0150020FBD
:103610000401216F000E0220226F010E2125016E90
:10362000000E2221036E01503A0F016E010E03229B
:103630000150010FE96E000E0320EA6EEFCF23F474
:1036400020C424F423C425F4000146DD1B6AF2BE25
:103650001B8EF29E04016D6B1DC46CF46F6B120E19
:103660006E6F000187EC01F01BBEF28E0150020F5D
:1036700004011E6F000E02201F6F010E1E25016E39
:10368000000E1F21036E01503A0F016E010E03223E
:103690000150020FE96E000E0320EA6EEF901B6AE4
:1036A000F2BE1B8EF29E6D6B1DC46CF46F6B120E1E
:1036B0006E6F000187EC01F01BBEF28E0150020F0D
:1036C00004011E6F000E02201F6F010E1E25016EE9
:1036D000000E1F21036E01503A0F016E010E0322EE
:1036E0000150010FE96E000E0320EA6EEF6A1B6ABB
:1036F000F2BE1B8EF29E6D6B1DC46CF46F6B120ECE
:103700006E6F000187EC01F01BBEF28E0150020FBC
:1037100004011E6F000E02201F6F010E1E25016E98
:10372000000E1F21036E01503A0F016E010E03229D
:103730000150050FE96E000E0320EA6EEFA0A9D03C
:103740001B6AF2BE1B8EF29E6D6B1DC46CF46F6B18
:10375000120E6E6F000187EC01F01BBEF28E01505D
:10376000020F04011E6F000E02201F6F010E1E25A6
:10377000016E000E1F21036E01503A0F016E010E03
:1037800003220150030FE96E000E0320EA6EEFCF13
:1037900020F41B6AF2BE1B8EF29E6D6B1DC46CF48E
:1037A0006F6B120E6E6F000187EC01F01BBEF28E84
:1037B0000150020F0401216F000E0220226F010E42
:1037C0002125016E000E2221036E01503A0F016E79
:1037D000010E03220150040FE96E000E0320EA6E71
:1037E000EFCF23F420C424F423C425F4000174DCB7
:1037F0001B6AF2BE1B8EF29E04016D6B1DC46CF43D
:103800006F6B120E6E6F000187EC01F01BBEF28E23
:103810000150020F04011E6F000E02201F6F010EE7
:103820001E25016E000E1F21036E01503A0F016E1E
:10383000010E03220150050FE96E000E0320EA6E0F
:10384000EF901B6AF2BE1B8EF29E6D6B1DC46CF472
:103850006F6B120E6E6F000187EC01F01BBEF28ED3
:103860000150020F04011E6F000E02201F6F010E97
:103870001E25016E000E1F21036E01503A0F016ECE
:10388000010E03220150040FE96E000E0320EA6EC0
:10389000EF6A1B6AF2BE1B8EF29E6D6B1DC46CF448
:1038A0006F6B120E6E6F000187EC01F01BBEF28E83
:1038B0000150020F04011E6F000E02201F6F010E47
:1038C0001E25016E000E1F21036E01503A0F016E7E
:1038D000010E03220150080FE96E000E0320EA6E6C
:1038E000EFA0AAD01B6AF2BE1B8EF29E6D6B1DC4A8
:1038F0006CF46F6B120E6E6F000187EC01F01BBE53
:10390000F28E0150020F04011E6F000E02201F6F85
:10391000010E1E25016E000E1F21036E01503A0F8D
:10392000016E010E03220150060FE96E000E032006
:10393000EA6EEFCF20F41B6AF2BE1B8EF29E6D6B17
:103940001DC46CF46F6B120E6E6F000187EC01F0FA
:103950001BBEF28E0150020F0401216F000E0220E7
:10396000226F010E2125016E000E2221036E0150EF
:103970003A0F016E010E03220150070FE96E000E8F
:103980000320EA6EEFCF23F420C424F423C425F4EB
:1039900000016CEC18F01B6AF2BE1B8EF29E040153
:1039A0006D6B1DC46CF46F6B120E6E6F000187ECB3
:1039B00001F01BBEF28E0150020F04011E6F000EBB
:1039C00002201F6F010E1E25016E000E1F21036EC7
:1039D00001503A0F016E010E03220150080FE96EEB
:1039E000000E0320EA6EEF901B6AF2BE1B8EF29E61
:1039F0006D6B1DC46CF46F6B120E6E6F000187EC63
:103A000001F01BBEF28E0150020F04011E6F000E6A
:103A100002201F6F010E1E25016E000E1F21036E76
:103A200001503A0F016E010E03220150070FE96E9B
:103A3000000E0320EA6EEF6A04D0040102D00401F4
:103A400000D01D2B5DD5000192EF1EF0EACF29F4C6
:103A5000E9CF28F404012239F009246F2427E20F6A
:103A6000256F320F276F22510F0B25272527272778
:103A7000E90F266F2627262721390F0B2627272710
:103A800026372737271F273721510F0B27272437A2
:103A9000070E236F0A0E26072727FDE32507262793
:103AA000FDE324072527FDE323072427FDE3040E78
:103AB000EA6E230EE96E070E2815289DE926270ECB
:103AC000E95CD8B4288DEF50006E08E128BD06D01F
:103AD00028B916D028B702D0200E03D028872899FD
:103AE000300E0026EACF22F4E9CF21F400C04EF4D4
:103AF00000012BEC0FF022C4EAFF21C4E9FF04010E
:103B0000EE5028ADDCD70001000CF86AD09E078E7D
:103B1000EA6AE96A939A8A8A246AB191B26BB1839C
:103B200003014E6B0001B1970401116B156B146B0F
:103B3000136B270E126F0001B199C150C00B0F0912
:103B4000C16E070EB46E1C6A010E1D6E020E1E6E53
:103B5000030E1F6E040E206E050E216E200E226EC7
:103B6000210E236E0B0E0101356F366B376B386BF0
:103B70000A0E0301556F566F576F586F596F5A6F82
:103B80005B6F5C6F5D6F5E6F5F6F606F616F626FC9
:103B9000636F646F656B666B676B686B696B6A6B91
:103BA000010E6B6F6C6B6D6B6E6B020E6F6F706BDB
:103BB000716B726B030E736F746B756B766B040EA7
:103BC000776F786B796B7A6B050E7B6F7C6B7D6B97
:103BD0007E6B060E7F6F806B816B826B070E836F2F
:103BE000846B856B866B080E876F886B896B8A6B1D
:103BF000090E8B6F8C6B8D6B8E6B0A0E8F6F906BBB
:103C0000916B926B0B0E936F946B956B966B0C0E86
:103C1000976F986B996B9A6B0D0E9B6F9C6B9D6B5E
:103C20009E6B0E0E9F6FA06BA16BA26B0F0EA36F0E
:103C3000A46BA56BA66BA76BA86BA96BAA6BAB6BF0
:103C4000AC6BAD6BAE6B010EAF6FB06BB16BB26BAB
:103C5000020EB36FB46BB56BB66B030EB76FB86B78
:103C6000B96BBA6B040EBB6FBC6BBD6BBE6B050E44
:103C7000BF6FC06BC16BC26B060EC36FC46BC56BED
:103C8000C66B070EC76FC86BC96BCA6B080ECB6FCC
:103C9000CC6BCD6BCE6B090ECF6FD06BD16BD26B73
:103CA0000A0ED36FD46BD56BD66B0B0ED76FD86B58
:103CB000D96BDA6B0C0EDB6FDC6BDD6BDE6B0D0E24
:103CC000DF6FE06BE16BE26B0E0EE36FE46BE56BB5
:103CD000E66B0F0EE76FE86BE96BEA6BEB6BEC6B77
:103CE0000401166B176B186B196B1A6B106B0F6B4B
:103CF0000E6B0D6B0001EAEF0DF019EF0FF04AEFBC
:103D000011F09FEF14F0320E02010D6F0E81010EC3
:103D10000101F96FFA81000176EC15F05DEF18F002
:103D20007EEF1AF076EC15F0FBD7B1B501D0FDD7D8
:103D30000101396B39511008D8A0A4D039C16DF4F4
:103D400004016E6BD8906D35006ED890003600502F
:103D500003014F250401716F000E0301502104017E
:103D6000726FD8906E3571256F6F000E7221706F73
:103D7000D8906D35006ED8900036005003014F2565
:103D80000401716F000E030150210401726FD8907D
:103D90006E357125016E000E7221036E01C0E9FFC0
:103DA000EA6EEFCF01F0E92AEF50E906026E02C099
:103DB0001EF401C01DF439C16DF4010E6E6FD89070
:103DC0006D35006ED8900036005003014F25040178
:103DD000716F000E030150210401726FD8906E358F
:103DE00071256F6F000E7221706FD8906D35006E67
:103DF000D8900036005003014F250401716F000E6A
:103E0000030150210401726FD8906E357125016E47
:103E1000000E7221036E01C0E9FFEA6EEFCF01F0E0
:103E2000E92AEF50E906026E02C020F401C01FF437
:103E3000100EE96E1EC422F41DC421F4000106DE3A
:103E40000B0EF66E1A0EF76E000EF86E050E0401DC
:103E50004A6F000155EC0FF0100EE96E20C422F4F9
:103E60001FC421F4F3DD0A0E04014E6F00012BEC98
:103E70000FF00D0E04014E6F00012BEC0FF001014D
:103E8000392B58D704016D6B010E6E6FD8906D35CC
:103E9000006ED8900036005003014F250401716F69
:103EA000000E030150210401726FD8906E35712508
:103EB0006F6F000E7221706FD8906D35006ED890C4
:103EC0000036005003014F250401716F000E0301FD
:103ED00050210401726FD8906E357125016E000E6D
:103EE0007221036E01C0E9FFEA6EEFCF01F0E92A0B
:103EF000EF50E906026E02C01CF401C01BF41CC4A2
:103F00001DF41BC41EF4100EE96E1CC422F41BC465
:103F100021F400019BDD190EF66E1A0EF76E000EED
:103F2000F86E050E04014A6F000155EC0FF01DC438
:103F30004AF41B0E04014B6F000183EC0FF0200EBE
:103F4000F66E1A0EF76E000EF86E050E04014A6F3B
:103F5000000155EC0FF01EC44AF41B0E04014B6F18
:103F6000000183EC0FF00A0E04014E6F00012BECF0
:103F70000FF00D0E04014E6F00012BEC0FF0FFD778
:020000040030CA
:0E00000000C6190E008630003FC03FE03F40B2
:00000001FF
;PIC18F4685
;CRC=78A9  CREATED="06-Jun-11 16:25"
