:04000000D9EF46F0FE
:08000800D4EF07F00000000036
:100010000000000000000000046ED8CF05F0E0CF23
:1000200006F00001E9CF0CF0EACF07F0E1CF08F0CD
:10003000E2CF09F0D9CF0AF0DACF0BF0F3CF12F00C
:10004000F4CF13F0FACF14F0F5CF15F0F6CF16F089
:10005000F7CF17F0F8CF18F0FBCF19F000C00EF073
:1000600001C00FF002C010F003C011F0F2AA3CEF83
:1000700000F0F2B45BEF07F09DA042EF00F09EB0FD
:10008000ABEF07F09DA248EF00F09EB2BFEF07F084
:100090009DAA4EEF00F09EBA19EF09F09DA854EF0B
:1000A00000F09EB81CEF09F09DA45AEF00F09EB43A
:1000B0007BEF08F0A0A660EF00F0A1B61FEF09F0FB
:1000C000A3AE66EF00F0A4BE45EF0EF0A3AA6CEF5E
:1000D00000F0A4BA48EF0EF0A3A872EF00F0A4B8A5
:1000E00041EF0EF0A3A678EF00F0A4B63DEF0EF0BE
:1000F000A3A47EEF00F0A4B439EF0EF0A3A284EF26
:1001000000F0A4B217EF0CF0A3A08AEF00F0A4B0A7
:1001100013EF0CF0A0AE90EF00F0A1BE22EF09F0BB
:100120000EC000F00FC001F010C002F011C003F0CB
:100130000CC0E9FF07C0EAFF078E08C0E1FF09C055
:10014000E2FF0AC0D9FF0BC0DAFF12C0F3FF13C0F1
:10015000F4FF14C0FAFF15C0F5FF16C0F6FF17C074
:10016000F7FF18C0F8FF19C0FBFF045006C0E0FFFE
:1001700005C0D8FF1000F76A8A0FF66E010EF7224D
:10018000000EF86E0900F5501200EFFFDFFFBFFF11
:100190007FFFF7FFFBFFFEFFFDFFFF7FFFBFFFDFDE
:1001A000FFEFFFF7FFFBFFFDFFFEF76ABE0FF66EE6
:1001B000010EF722000EF86E0900F55012000096AD
:1001C0004B975C966D957E948F93A092B191C2905F
:1001D000D38FE48EF58D068D178C288B398A4A894A
:1001E0005B886C877D868E859F84B083C182D28137
:1001F000E380F47F057F167E277D387C497B5A7A21
:100200006B797C788D779E76AF75C074D173E2720E
:10021000F37104711570266F376E486D596C6A6BF7
:100220007B6A8C699D68AE67BF66D065E164F263E6
:100230000363146225613660475F585E695D7A5CCE
:100240008B5B9C5AAD59BE58CF57E056F1550255BD
:1002500013542453355246515750684F794E8A4DA6
:100260009B4CAC4BBD4ACE49DF48F0470147124694
:10027000234534444543564267417840893F9A3E7E
:10028000AB3DBC3CCD3BDE3AEF390039113822376B
:100290003336443555346633773288319930AA2F56
:1002A000BB2ECC2DDD2CEE2BFF2A102A2129322843
:1002B000432754266525762487239822690275737F
:1002C00065642064696D6D65722121210A0D00004D
:1002D000496E707574730A0D00003120322033208E
:1002E0003420352036203720380A0D0050726573CF
:1002F0007320302D4620746F2061637469766174B9
:1003000065206F75747075740A0D00004465627520
:1003100067206D6F6465206163746976650A0D00FE
:10032000312D5465737420696E707574730A0D00F5
:10033000322D54657374206F7574707574730A0D63
:1003400000006164726573733D254C752076616CA5
:1003500075653D25640A0D006C6F61646564206FEE
:100360006E2F6F6666207377697463680A0D0000EC
:100370006C6F616465642064696D6D65722073776C
:10038000697463680A0D00006C6F616465642062C3
:100390007574746F6E207377697463680A0D00005A
:1003A0006C6F616465642074696D65720A0D00008C
:1003B0006C6F616465642064696D6D6572206F7532
:1003C000740A0D006C6F61646564207368757474E1
:1003D0006572206F75740A0D00006C6F616465644E
:1003E000206F6E2F6F6666206F75740A0D00537450
:1003F000617274206164723D2564000064696D5F00
:100400006C6576656C2025750A0D00006F666620A8
:1004100025750A0D00006F66662025750A0D00001F
:100420000601DA51DC03F3CF01F0F4CF00F0DD0375
:10043000F3500026DB51DC03F3500020026E000174
:10044000000C0601DD51070B006EDD31016E01323B
:1004500001321F0E01160150DF25E96E000EE0216A
:10046000EA6E016A012A002A01D00136002EFDD76A
:10047000DE5303E00150EF1203D0011E0150EF16CE
:100480000001000C0601DD51070B006EDD31016E2D
:10049000013201321F0E01160150DE25E96E000EF9
:1004A000DF21EA6EEFCF01F0002A01D00132002EE9
:1004B000FDD70001000C090E0601DC25E96E000ED7
:1004C000DD21EA6EEFCFDEF60E0EDC25E96E000EC2
:1004D000DD21EA6E000EEFB0010E010BD8A4EDD0C5
:1004E0000A0EDC25E96E000EDD21EA6E0E0EDC251B
:1004F000E96E000EDD21EA6EEF920A0EDC25E96E50
:10050000000EDD21EA6EEFCF00F0ECCF01F0ECCF72
:1005100002F0ECCF03F000503B5DDF6F01503C591F
:10052000E06F02503D59E16F03503E59E26F455173
:10053000E25D0CE315E14451E15D08E311E1435153
:10054000E05D04E30DE1DF51425D0AE30F0EDC25BF
:10055000E96E000EDD21EA6EEF500208D8A4ACD09F
:100560000F0EDC25E96E000EDD21EA6EEF50040867
:10057000D8B4A2D00F0EDC25E96E000EDD21EA6EA4
:10058000EF2C1FD00F0EDC25E96E000EDD21EA6E88
:10059000040EEF6EDC25E96E000EDD21EA6E010E21
:1005A000EF6E090EDC25E96E000EDD21EA6E7F0E8E
:1005B000EF6E050EDC25E96E000EDD21EA6EEF80A0
:1005C0007AD00F0EDC25E96E000EDD21EA6E020EF8
:1005D000EF6E0A0EDC25E96E000EDD21EA6EEFCF2C
:1005E00000F0ECCF01F0ECCF02F0ECCF03F00050C4
:1005F0003B5DDF6F01503C59E06F02503D59E16FA8
:1006000003503E59E26FE25307E1E15305E1E05345
:1006100003E1DF51415D41E20E0EDC25E96E000E83
:10062000DD21EA6E000EEFB4010E010B18E1090E98
:10063000DC25E96E000EDD21EA6EEF2A090EDC25CD
:10064000E96E000EDD21EA6EEF507F0807E10E0E25
:10065000DC25E96E000EDD21EA6EEF841ED0090E66
:10066000DC25E96E000EDD21EA6EEF06090EDC25C1
:10067000E96E000EDD21EA6EEF520FE10E0EDC2571
:10068000E96E000EDD21EA6EEF94070EDC25E96EBF
:10069000000EDD21EA6E010EEF6E0A0EDC25E96E1A
:1006A000000EDD21EA6E3BC6EFFF3CC6ECFF3DC607
:1006B000ECFF3EC6ECFF00D0B0D00E0EDC25E96E9C
:1006C000000EDD21EA6E000EEFB2010E010BD8A480
:1006D00096D00E0EDC25E96E000EDD21EA6EEF826B
:1006E0000F0EDC25E96E000EDD21EA6EEF500208E8
:1006F00022E10F0EDC25E96E000EDD21EA6EEF6AC5
:100700000E0EDC25E96E000EDD21EA6E000EEFB460
:10071000010E010B08E10E0EDC25E96E000EDD2155
:10072000EA6EEF8407D00E0EDC25E96E000EDD21A7
:10073000EA6EEF9464D00F0EDC25E96E000EDD2129
:10074000EA6EEF2C1ED00F0EDC25E96E000EDD21C7
:10075000EA6EEF6A040EDC25E96E000EDD21EA6E1A
:10076000010EEF6E0E0EDC25E96E000EDD21EA6E45
:10077000EF84050EDC25E96E000EDD21EA6EEF80C8
:100780003ED00F0EDC25E96E000EDD21EA6EEF5241
:100790001FE10F0EDC25E96E000EDD21EA6E010E71
:1007A000EF6E070EDC25E96E000EDD21EA6E010E0C
:1007B000EF6E0E0EDC25E96E000EDD21EA6EEF9481
:1007C000080EDC25E96E000EDD21EA6EEF8017D001
:1007D0000F0EDC25E96E000EDD21EA6EEF500408F5
:1007E0000EE10F0EDC25E96E000EDD21EA6EEF6AE8
:1007F0000E0EDC25E96E000EDD21EA6EEF840A0E96
:10080000DC25E96E000EDD21EA6E3BC6EFFF3CC63B
:10081000ECFF3DC6ECFF3EC6ECFF090EDC25E96EA1
:10082000000EDD21EA6EEF50DE5D1BE0010EDC25DF
:10083000016E000EDD21036E090EDC25E96E000E4F
:10084000DD21EA6EEFCFE1F603C0EAFF01C0E9FF68
:10085000E1C6EFFF020EDC25E96E000EDD21EA6E37
:10086000EF80000155EF07F0060E0601DC25E96E6A
:10087000000EDD21EA6E000EEFB0010E010B6EE1FD
:10088000060EDC25E96E000EDD21EA6E000EEFB2E9
:10089000010E010B010862E1060EDC25E96E000E77
:1008A000DD21EA6EEF920B0EDC25E96E000EDD21F4
:1008B000EA6EEF2C25D00B0EDC25E96E000EDD2153
:1008C000EA6EEF6A010EDC25E96E000EDD21EA6EAC
:1008D000010EEF6E020EDC25E96E000EDD21EA6EE0
:1008E000EF80040EDC25E96E000EDD21EA6EEF6A72
:1008F000050EDC25E96E000EDD21EA6EEF802DD0BD
:100900000B0EDC25E96E000EDD21EA6EEF5225E1CB
:100910000B0EDC25E96E000EDD21EA6E010EEF6E96
:10092000040EDC25E96E000EDD21EA6E010EEF6E8D
:10093000050EDC25E96E000EDD21EA6EEF80010E6A
:10094000DC25E96E000EDD21EA6EEF6A020EDC2581
:10095000E96E000EDD21EA6EEF8013D0060EDC2575
:10096000E96E000EDD21EA6E000EEFB0010E010B04
:10097000010807E1060EDC25E96E000EDD21EA6EB6
:10098000EF82000155EF07F0060E0601DC25E96E47
:10099000000EDD21EA6E000EEFB0010E010B2DE11D
:1009A000070EDC25E96E000EDD21EA6EEF2C25D066
:1009B000070EDC25E96E000EDD21EA6EEF6A010EFE
:1009C000DC25E96E000EDD21EA6E010EEF6E020EEF
:1009D000DC25E96E000EDD21EA6EEF80040EDC25D9
:1009E000E96E000EDD21EA6EEF6A050EDC25E96E88
:1009F000000EDD21EA6EEF8039D0060EDC25E96EAF
:100A0000000EDD21EA6E000EEFB0010E010B0108B1
:100A10002DE1070EDC25E96E000EDD21EA6EEF52B6
:100A200025E1070EDC25E96E000EDD21EA6E010EE0
:100A3000EF6E040EDC25E96E000EDD21EA6E010E7C
:100A4000EF6E050EDC25E96E000EDD21EA6EEF800B
:100A5000010EDC25E96E000EDD21EA6EEF6A020E62
:100A6000DC25E96E000EDD21EA6EEF80000155EF16
:100A700007F00601D96B01013E510601D95DD8B0DE
:100A800017D2DB6BD9C6DAF6DD6B210EDC6F000105
:100A9000C7DC02C003F00150400F016E010E0322BB
:100AA00001C0E9FF03C0EAFFEF500AE0030AD8B42F
:100AB000AAD0020AD8B4A8D0030AD8B44CD1F4D131
:100AC0000601DB6BD9C6DAF6DD6B210EDC6F0001A7
:100AD000A7DC0150020F0601DA6F000E0220DB6F67
:100AE000010EDA25016E000EDB21036E01503E0F70
:100AF000016E010E03220150100FE96E000E03205B
:100B0000EA6EEFCFDCF6DCC6DDF6010EDE6F0F0E0F
:100B1000E06F920EDF6F000194DCDCC6DDF60F0E95
:100B20000601DF6F800EDE6F0001ACDC01A024D077
:100B30000601DB6BD9C6DAF6DD6B210EDC6F000136
:100B40006FDC0150020F0601DA6F000E0220DB6F2E
:100B5000010EDA25016E000EDB21036E01503E0FFF
:100B6000016E010E032201500E0FE96E000E0320EC
:100B7000EA6EEF8023D000010601DB6BD9C6DAF6FE
:100B8000DD6B210EDC6F00014BDC0150020F060112
:100B9000DA6F000E0220DB6F010EDA25016E000E07
:100BA000DB21036E01503E0F016E010E0322015046
:100BB0000E0FE96E000E0320EA6EEF90DB6BD9C6D4
:100BC000DAF6DD6B210EDC6F00012ADC0150020F2A
:100BD0000601DA6F000E0220DB6F010EDA25016ECE
:100BE000000EDB21036E01503E0F016E010E032249
:100BF00001C0DAF603C0DBF603C0DDF601C0DCF6A7
:100C0000000159D452D151D10601DB6BD9C6DAF6B5
:100C1000DD6B210EDC6F000103DC0150020F0601C9
:100C2000DA6F000E0220DB6F010EDA25016E000E76
:100C3000DB21036E01503E0F016E010E03220150B5
:100C40000C0FE96E000E0320EA6EEFCFDCF6DCC677
:100C5000DDF6010EDE6F0F0EE06F920EDF6F00010A
:100C600021EC02F0DCC6DDF60F0E0601DF6F800E10
:100C7000DE6F000107DC01A025D00601DB6BD9C6C1
:100C8000DAF6DD6B210EDC6F000110EC02F0015092
:100C9000020F0601DA6F000E0220DB6F010EDA256B
:100CA000016E000EDB21036E01503E0F016E010E3E
:100CB00003220150060FE96E000E0320EA6EEF805A
:100CC00024D000010601DB6BD9C6DAF6DD6B210EFC
:100CD000DC6F000110EC02F00150020F0601DA6F28
:100CE000000E0220DB6F010EDA25016E000EDB2103
:100CF000036E01503E0F016E010E03220150060FDC
:100D0000E96E000E0320EA6EEF90DB6BD9C6DAF6CF
:100D1000DD6B210EDC6F000110EC02F00150020FC0
:100D20000601DA6F000E0220DB6F010EDA25016E7C
:100D3000000EDB21036E01503E0F016E010E0322F7
:100D400001C0DAF603C0DBF603C0DDF601C0DCF655
:100D500000018AD5AAD00601DB6BD9C6DAF6DD6BB5
:100D6000210EDC6F000110EC02F00150020F0601B1
:100D7000DA6F000E0220DB6F010EDA25016E000E25
:100D8000DB21036E01503E0F016E010E0322015064
:100D9000090FE96E000E0320EA6EEFCFDCF6DCC629
:100DA000DDF6010EDE6F0F0EE06F920EDF6F0001B9
:100DB00021EC02F0DCC6DDF60F0E0601DF6F800EBF
:100DC000DE6F000142EC02F001A025D00601DB6BD2
:100DD000D9C6DAF6DD6B210EDC6F000110EC02F0F3
:100DE0000150020F0601DA6F000E0220DB6F010EC8
:100DF000DA25016E000EDB21036E01503E0F016EFD
:100E0000010E03220150060FE96E000E0320EA6E68
:100E1000EF8024D000010601DB6BD9C6DAF6DD6B6A
:100E2000210EDC6F000110EC02F00150020F0601F0
:100E3000DA6F000E0220DB6F010EDA25016E000E64
:100E4000DB21036E01503E0F016E010E03220150A3
:100E5000060FE96E000E0320EA6EEF90DB6BD9C639
:100E6000DAF6DD6B210EDC6F000110EC02F00150B0
:100E7000020F0601DA6F000E0220DB6F010EDA2589
:100E8000016E000EDB21036E01503E0F016E010E5C
:100E9000032201C0DAF603C0DBF603C0DDF601C0B1
:100EA000DCF6000171D501D000D00601D92BE3D5C5
:100EB000000168EF07F0010E06013B27D8B03C2B7C
:100EC000D8B43D2BD8B43E2B3BA303D00001D1D5E1
:100ED0000601F294000190EF00F0939A8A9A080EAE
:100EE000016E00D00000018E10D0019E0601DC339F
:100EF0000001D8B08A8AD8A08A9A018C06D0019CB9
:100F0000012EF4D700D000008A8A010E006EE96A33
:100F1000E92EFED7002EFBD7530EE96EE92EFED741
:100F200000D0040001BEE1D701BCE9D7000C0900E4
:100F3000F55210E0F6CFD9F6F7CFDAF6F8CFDBF6B8
:100F4000F5CFDCF6CADFD9C6F6FFDAC6F7FFDBC697
:100F5000F8FFEDD7000CB58B050180C582FF7FC57A
:100F600083FF780EF66E0F0EF76E000EF86E00011E
:100F7000DEDF9E9090EF00F04D49535300000601D4
:100F8000482B4851C8080CE1486B010E2426D8B004
:100F9000252AD8B4262AD8B4272A0001B589060103
:100FA0009E92000190EF00F0050180C582FF7FC591
:100FB00083FF0001B5A511D0B595B5A708D0B597A9
:100FC000050E05017C6F910E7B6F07D00001B58780
:100FD000050E05017C6FD50E7B6F05017D6B07014A
:100FE000066B076BD8900635006ED890003600501F
:100FF00005017B2507010A6F000E05017C21070111
:101000000B6FD89007350A25086F000E0B21096F6A
:10101000D8900635006ED8900036005005017B252B
:1010200007010A6F000E05017C2107010B6FD890A4
:1010300007350A25016E000E0B21036E01C0E9FF82
:10104000EA6EEFCF01F0E92AEF50E906026E02C026
:1010500007F701C006F7D8900134026E0735036E1A
:1010600002500001D5EC00F00900F5CF03F0BE6E90
:1010700003C0BFFF100E0701066F076BD89006353F
:10108000006ED8900036005005017B2507010A6FDD
:10109000000E05017C2107010B6FD89007350A254A
:1010A000086F000E0B21096FD8900635006ED8909E
:1010B0000036005005017B2507010A6F000E05016F
:1010C0007C2107010B6FD89007350A25016E000EB1
:1010D0000B21036E01C0E9FFEA6EEFCF01F0E92AB0
:1010E000EF50E906026E01C07EF5CF6ACE6A0001BC
:1010F000B59BF292110005017E53D8B496D07DC500
:1011000006F7010E0701076FD8900635006ED890DC
:101110000036005005017B2507010A6F000E05010E
:101120007C2107010B6FD89007350A25086F000E48
:101130000B21096FD8900635006ED890003600500C
:1011400005017B2507010A6F000E05017C210701BF
:101150000B6FD89007350A25016E000E0B21036E28
:1011600001C0E9FFEA6EEFCF01F0E92AEF50E9068E
:10117000026E02C0DAF601C0D9F60601DA51821613
:10118000D951831605017D2B7E077E534EE07DC528
:1011900006F70701076BD8900635006ED890003629
:1011A000005005017B2507010A6F000E05017C2117
:1011B00007010B6FD89007350A25086F000E0B2129
:1011C000096FD8900635006ED890003600500501A2
:1011D0007B2507010A6F000E05017C2107010B6FBB
:1011E000D89007350A25016E000E0B21036E01C051
:1011F000E9FFEA6EEFCF01F0E92AEF50E906026E4F
:1012000002C0DCF601C0DBF6D89006010134026EA4
:10121000DC35036E02500001D5EC00F00900F5CF7B
:1012200003F0BE6E03C0BFFF05019E94000190EF66
:1012300000F09E9A90EF00F09E9890EF00F0A1963B
:1012400090EF00F0B58DA19E90EF00F00601FB6BD2
:10125000FA6BF96BF86BF6C6FDF6F5C6FCF6F753BC
:10126000D8B4A2D0FDC603F0FCC6E9FFFDC6EAFF74
:10127000EFCF00F0016A026A036A03C0FBF602C006
:10128000FAF601C0F9F600C0F8F6FC51D8B4FD0733
:10129000FC07FCC6E9FFFDC6EAFFEF500701006B43
:1012A0000601FF6BFE6F00C703F0006A0050F813E1
:1012B000FE51F913FF51FA130350FB13FC51D8B43C
:1012C000FD07FC07FCC6E9FFFDC6EAFFEF5007017A
:1012D000016B006B0601FF6BFE6F030EFE17FF6BC9
:1012E0000701006B016B006A016A00500601F813E8
:1012F0000150F913FE51FA13FF51FB13FCC6E9FF2D
:10130000FDC6EAFFEF500701016B006B0601FF6BA2
:10131000FE6FE00EFE17FF6B0701006B016B006AAA
:101320000601FE35016EFF35026E07010035036EC2
:1013300001360236033601360236033601360236EE
:101340000336013602360336E00E01160050060160
:10135000F8130150F9130250FA130350FB13FC5118
:10136000D8B4FD07FC07FCC6E9FFFDC6EAFFEF5055
:101370000601FF6BFE6F006A016AFE35026EFF35E3
:10138000036E023603360236033602360336023661
:101390000336E00E02160050F8130150F913025004
:1013A000FA130350FB135DD0020EFC5F000EFD5BD1
:1013B000FCC6E9FFFDC6EAFFEF500701016B006BB9
:1013C0000601FF6BFE6FE00EFE17FF6B0701006B5F
:1013D000016B01310601FB6F070100310601FA6F55
:1013E000FF31F96FFE31F86FFB33FA33F933F8331D
:1013F000FB33FA33F933F833FB33FA33F933F83389
:10140000FB33FA33F933F833070EFB17FC51D8B42A
:10141000FD07FC07FCC6E9FFFDC6EAFFEF50070128
:10142000016B006B0601FF6BFE6FFE35006EFF3532
:10143000016E07010035026E0135036E003601367C
:10144000023603360036013602360336F80E001631
:1014500000500601F8130150F9130250FA1303501B
:10146000FB13F8C600F0F9C601F0FAC602F0FBC69D
:1014700003F00001000C2850FF0801E1282A285041
:101480000908D8A044D1060E0601EA6FDF0EE96F05
:1014900060AE17D0F10E6F146F6EDE99A490DE91DE
:1014A00074BEDE81749E60A40BD0000E60B0010E8D
:1014B000070B006ED8900036F10EDE150010DE6FBF
:1014C00020D00F0150AF19D0F10E6F140A096F6EC2
:1014D0000601DE89A492DE9174BCDE81749C0F014A
:1014E0005051070B070B006ED8900036F10E060125
:1014F000DE150010DE6F05D00F01000E016E4CD01E
:10150000060165500F0BDD6FDE9B65BCDE8BDE9D3B
:1015100062B6DE8D000EDEBD010EEE6F0F0EF66FB1
:10152000640EF56FEEC6F7F6000190DE03C0DCF640
:1015300002C0DBF601C0DAF600C0D9F60F0E0601D4
:10154000ED6F660EEC6FEB6BDD51EB5D14E2ECC6FC
:10155000E9FFEDC6EAFFEFCFF0F6EAC6EAFFE9C61B
:10156000E9FFF0C6EFFFE92BD8B4EA2BEC2BD8B497
:10157000ED2BEB2BE9D7F10E6F146F6EDE9FA4BE3F
:10158000DE8FA49EDEA904D00F01509F03D0060178
:10159000609E0F01010E016E0601E86BE85320E129
:1015A000E851040DF350036A390FE96E010E032070
:1015B000EA6EEFCF00F0ECCF01F0ECCF02F0ECCF11
:1015C00003F00050D95D0AE10150DA5D07E10250F5
:1015D000DB5D04E10350DC5D01E123D1E82BDED7C4
:1015E00028500E0DF350EA6BE96F290EE925E96EDC
:1015F000000EEA21EA6EDCC6EFFF28500E0DF35014
:10160000EA6BE96F010EE925016E000EEA21036E17
:101610000150290FE96E000E0320EA6EDBC6EFFFD2
:1016200028500E0DF350EA6BE96F020EE925016EAA
:10163000000EEA21036E0150290FE96E000E03200F
:10164000EA6EDAC6EFFF28500E0DF350EA6BE96F31
:10165000030EE925016E000EEA21036E0150290FE9
:10166000E96E000E0320EA6ED9C6EFFF28500E0D7A
:10167000F350EA6BE96F040EE925016E000EEA21D2
:10168000036E0150290FE96E000E0320EA6EDDC6DD
:10169000EFFF28500E0DF350EA6BE96F050EE925B8
:1016A000016E000EEA21036E0150290FE96E000E53
:1016B0000320EA6EDEC6EFFFE76BDD51E75D24E253
:1016C00028500E0DF350EA6BE96F060EE725036A0A
:1016D000E925016EEA5103220150290F016E000E27
:1016E000032203C0EAF6036AE751DF0FE96E060E34
:1016F0000320EA6EEFCFEBF6EAC6EAFF01C0E9FF8E
:10170000EBC6EFFFE72BD9D7282A8BD00001060EB6
:101710000601EA6FDF0EE96F60AE17D0F10E6F14AD
:101720006F6EDE99A490DE9174BEDE81749E60A41B
:101730000BD0000E60B0010E070B006ED890003683
:10174000F10EDE150010DE6F20D00F0150AF19D062
:10175000F10E6F140A096F6E0601DE89A492DE9104
:1017600074BCDE81749C0F015051070B070B006E97
:10177000D8900036F10E0601DE150010DE6F05D0A0
:101780000F01000E016E4CD0060165500F0BDD6F8E
:10179000DE9B65BCDE8BDE9D62B6DE8D000EDEBD9F
:1017A000010EEE6F0F0EF66F640EF56FEEC6F7F6D4
:1017B00000014CDD03C0DCF602C0DBF601C0DAF646
:1017C00000C0D9F60F0E0601ED6F660EEC6FEB6BE5
:1017D000DD51EB5D14E2ECC6E9FFEDC6EAFFEFCFA9
:1017E000F0F6EAC6EAFFE9C6E9FFF0C6EFFFE92B2B
:1017F000D8B4EA2BEC2BD8B4ED2BEB2BE9D7F10EB8
:101800006F146F6EDE9FA4BEDE8FA49EDEA904D08F
:101810000F01509F03D00601609E0F01010E016E63
:1018200006010001000C27DEA49090EF00F023DEFB
:10183000A49290EF00F0FAC601F7F9C600F706018E
:10184000FF535BE000C7E9FF01C7EAFF0601FBC6E3
:10185000EFFF07010051D8B40107000700C7E9FFF7
:1018600001C7EAFF0601FCC6EFFF07010051D8B42B
:101870000107000700C7E9FF01C7EAFF0601FD51A4
:10188000030BEF6E00C7E9FF01C7EAFF0601FDC6C3
:1018900000F0003600360036F80E00160050E00B5F
:1018A000EF10EF6E070100C7E9FF01C7EAFFEF5035
:1018B0000809EF6E0051D8B40107000700C7E9FF1F
:1018C00001C7EAFF0601FDC600F0003A0032070E2C
:1018D00000160050070BEF6E00C7E9FF01C7EAFFD3
:1018E0000601FEC600F0003600360036F80E00167F
:1018F0000050F80BEF10EF6E44D0070100C7E9FF6E
:1019000001C7EAFFEF6A0051D8B40107000700C71A
:10191000E9FF01C7EAFFEF6A0051D8B401070007E9
:1019200000C7E9FF01C7EAFF0601FBC600F0003A65
:101930000036E00E00160050E00BEF6E070100517C
:10194000D8B40107000700C7E9FF01C7EAFF060195
:10195000FBC600F00032003200321F0E00160050AD
:101960001F0BEF6E00C7E9FF01C7EAFF0601FCC6C7
:1019700000F0003A0036E00E00160050E00BEF10C9
:10198000EF6E0001000C0F0E0601F76F660EF66F8A
:101990000F0140B708D0F10E6F1408096F6E0601F1
:1019A000F86B1BD00F0130B709D0F10E6F14060988
:1019B0006F6E010E0601F86F10D00F0120B709D02D
:1019C000F10E6F1404096F6E020E0601F86F05D058
:1019D0000F01000E016E3DD00601F251030B006EA7
:1019E000FC0E60140010606E0F0EFA6F640EF96F3B
:1019F000EEC6FEF6EDC6FDF6ECC6FCF6EBC6FBF653
:101A0000F3C6FFF6000117DFF1C665FF659C06010E
:101A1000F4B1658CF56BF151F55D14E2EFC6E9FFA9
:101A2000F0C6EAFFEFCFFBF6F7C6EAFFF6C6E9FF1E
:101A3000FBC6EFFFF62BD8B4F72BEF2BD8B4F02B67
:101A4000F52BE9D76086F10E6F146F6E010E016EF3
:101A50000F01000135EF0EF0B6510A0801E1B6079B
:101A6000B651FF08D8B403D1B6510D0DF35006019D
:101A7000EA6BE96FB70EE925E96E000EEA21EA6E1E
:101A8000EFCFE9F60001B6510D0DF3500601EB6BF7
:101A9000EA6F010EEA25016E000EEB21036E015084
:101AA000B70FE96E000E0320EA6EEFCFEAF60001F1
:101AB000B6510D0DF3500601EC6BEB6F020EEB25EA
:101AC000016E000EEC21036E0150B70FE96E000E9F
:101AD0000320EA6EEFCFEBF60001B6510D0DF35087
:101AE0000601ED6BEC6F030EEC25016E000EED218F
:101AF000036E0150B70FE96E000E0320EA6EEFCFC0
:101B0000ECF6E9C6DCF6EAC6DBF6EBC6DAF6ECC6BE
:101B1000D9F60001B6510D0DF3500601EA6BE96FDD
:101B20000C0EE925016E000EEA21036E0150B70F7D
:101B3000E96E000E0320EA6EEF38DD6F0F0EDD1741
:101B40000001B6510D0DF3500601EA6BE96F0C0E62
:101B5000E925016E000EEA21036E0150B70FE96E10
:101B6000000E0320EA6EEF500C0B006E0030DE6FAB
:101B7000DE333F0EDE170001B6510D0DF3500601A6
:101B8000EA6BE96F0C0EE925016E000EEA21036E87
:101B90000150B70FE96E000E0320EA6EEFCFE9F6B1
:101BA000E791E9B3E7810001B6510D0DF35006014D
:101BB000EA6BE96F0C0EE925016E000EEA21036E57
:101BC0000150B70FE96E000E0320EA6EEFCFE9F681
:101BD000E793E9B1E783E86BDD51E85D28E2036A4A
:101BE000E851DF0F016E060E032201C0E9F603C0C3
:101BF000EAF60001B6510D0DF3500601EC6BEB6FE8
:101C0000040EE825036AEB25016EEC510322015016
:101C1000B70FE96E000E0320EA6EEFCFEBF6EAC6CF
:101C2000EAFFE9C6E9FFEBC6EFFFE82BD5D7000EC8
:101C3000E7B1010EE96F000EE7B3010EEA6FDCC6F3
:101C4000EEF6DBC6EDF6DAC6ECF6D9C6EBF6060E16
:101C5000F06FDF0EEF6FDDC6F1F6DEC6F2F6E9C615
:101C6000F3F6EAC6F4F600018ED6B60701D000D02E
:101C7000000CF2DEA49490EF00F0EEDEA49690EF5C
:101C800000F0EADEA49890EF00F0A49E90EF00F040
:101C9000A49A90EF00F0696E707574733A25642011
:101CA0006F7574707574733A2564202564202564FB
:101CB0000A0D000006016139700B006ED8900036E5
:101CC0001F0E6F1400106F6E6ECF00F0003A0030E0
:101CD000070B615DF9E10001000CC00E70140409EE
:101CE000706E3F0E7014706EF80E71140209716EF2
:101CF000C70E71142809716E719C718EF80E7214E2
:101D00000509726E729C8BEF0EF0040E0601616F76
:101D10000001D0DFE2D7606A9F0E6014606E6084BD
:101D200060CF50FF739A7398739E739C1B6AF2BCCA
:101D30001B8CF29CF2BE1B8EF29E0F0E0601FA6FF8
:101D40001B0EF96FFE6BFD6BFC6BFB6BFF6B0001F9
:101D500072DD1BBCF28C1BBEF28E1B6AF2BC1B8CAC
:101D6000F29CF2BE1B8EF29E0F0E0601FA6F030E5E
:101D7000F96FFE6BFD6BFC6BFB6BFF6B00015BDDBA
:101D80001BBCF28C1BBEF28E1B6AF2BC1B8CF29C3D
:101D9000F2BE1B8EF29E0F0E0601FA6F070EF96F50
:101DA000FE6BFD6BFC6BFB6BFF6B000144DD1BBC32
:101DB000F28C1BBEF28E1B6AF2BC1B8CF29CF2BE34
:101DC0001B8EF29E0F0E0601FA6F1F0EF96FFE6B4F
:101DD000FD6BFC6BFB6BFF6B00012DDD1BBCF28C04
:101DE0001BBEF28E1B6AF2BC1B8CF29CF2BE1B8ED9
:101DF000F29E0F0E0601FA6F0B0EF96FFE6BFD6B74
:101E0000FC6BFB6BFF6B000116DD1BBCF28C1BBE79
:101E1000F28E1B6AF2BC1B8CF29CF2BE1B8EF29EF1
:101E20000F0E0601FA6FF96FFE6BFD6BFC6BFB6B1F
:101E3000FF6B000100DD1BBCF28C1BBEF28E1B6A27
:101E4000F2BC1B8CF29CF2BE1B8EF29E0F0E0601A2
:101E5000FA6F130EF96FFE6BFD6BFC6BFB6BFF6B88
:101E60000001E9DC1BBCF28C1BBEF28E1B6AF2BCCB
:101E70001B8CF29CF2BE1B8EF29E0F0E0601FA6FB7
:101E8000170EF96FFE6BFD6BFC6BFB6BFF6B0001BC
:101E9000D2DC1BBCF28C1BBEF28E9350FB0B0809EC
:101EA0000601936E616B000105DF58EF0FF02DD72F
:101EB000040E0601616F0001FDDEC00E70140409FE
:101EC000706E3F0E7014706EF80E71140209716E10
:101ED000C70E71142809716E719C719EF80E7214F0
:101EE0000509726E728C0601616B0001E3DE810EE2
:101EF000D56E950ECD6E600E0609CA6EF10ECB6ED4
:101F00000A0EBD6EF18CC150C00B0F09C16EC050DE
:101F1000C00BC06EC09EC2809698C69A949A948850
:101F20009496010EC66E000EC76E070EB46E9550E5
:101F3000956E9650966E0400200E006E002EFED711
:101F400000D0B450A19CB56AB16A93928A92939CD6
:101F50008A9C939E8A9E96968D96D180EEEF47F04E
:101F60000900F6CF75F6F7CF76F6F8CF77F61B6A4D
:101F7000F2BC1B8CF29CF2BE1B8EF29EF5CFDCF6FF
:101F80006DEC07F01BBCF28C1BBEF28E75C6F6FF23
:101F900076C6F7FF77C6F8FF0601742F01D002D08E
:101FA0000001DED70001000CEACF7CF6E9CF7BF61A
:101FB00006017539F009776F7727E20F786F320FD6
:101FC0007A6F75510F0B782778277A27E90F796F89
:101FD0007927792774390F0B79277A2779377A3758
:101FE0007A1F7A3774510F0B7A277737070E766F7F
:101FF0000A0E79077A27FDE378077927FDE377074B
:102000007827FDE376077727FDE3060EEA6E760E66
:10201000E96E070E7B157B9DE9267A0EE95CD8B444
:102020007B8DEF50006E08E17BBD06D07BB921D0DF
:102030007BB702D0200E03D07B877B99300E002621
:10204000EACF75F6E9CF74F61B6AF2BC1B8CF29CE2
:10205000F2BE1B8EF29E00C0DCF600016DEC07F0B4
:102060001BBCF28C1BBEF28E75C6EAFF74C6E9FF7C
:102070000601EE507BADD1D7000107EF11F006014C
:102080007B51016A7A5D03E27AC600F00CD0006AE7
:10209000080E7C6F7A3700367B51005CD8B0006E3A
:1020A00001367C2FF7D70001000C200E060175A920
:1020B000300E766F74C600F074AF07D0001E002A91
:1020C00000C074F62D0E766F758F015074C67AF6C7
:1020D000640E7B6F0001D3DF00C074F6300E012464
:1020E0000601776F74C67AF60A0E7B6F0001C7DFB0
:1020F000300E00240601796F300E0124786F76C609
:1021000000F075A702D075AF759575B90BD075AF96
:1021100022D075B520D000C077F675B31CD000C0B2
:1021200078F619D0300E775D16E100C077F6200EF4
:10213000766F75A704D07595758375AF7593300E5E
:10214000785D09E100C078F6200E776F75A7F7D7A4
:10215000759375AF759175A511D01B6AF2BC1B8C78
:10216000F29CF2BE1B8EF29E76C6DCF600016DEC90
:1021700007F01BBCF28C1BBEF28E060175A311D0BA
:102180001B6AF2BC1B8CF29CF2BE1B8EF29E77C6C1
:10219000DCF600016DEC07F01BBCF28C1BBEF28E6E
:1021A000060175A111D01B6AF2BC1B8CF29CF2BE19
:1021B0001B8EF29E78C6DCF600016DEC07F01BBCAE
:1021C000F28C1BBEF28E06011B6AF2BC1B8CF29CC9
:1021D000F2BE1B8EF29E79C6DCF600016DEC07F0B4
:1021E0001BBCF28C1BBEF28E000C420EF66E030E70
:1021F000F76E000EF86E070E0601746F0001B0DE78
:10220000100EE96E72C675F671C674F6CDD64C0E18
:10221000F66E030EF76E000EF86E070E0601746F71
:1022200000019EDE73C674F61F0E0601756F000175
:102230003CDF1B6AF2BC1B8CF29CF2BE1B8EF29E32
:102240000A0E0601DC6F00016DEC07F01BBCF28C7E
:102250001BBEF28E1B6AF2BC1B8CF29CF2BE1B8E64
:10226000F29E0D0E0601DC6F00016DEC07F01BBC49
:10227000F28C1BBEF28E72C6AAFF71C6A9FF73C68E
:10228000A8FFA69CA69EA684F250006EF29CF29E29
:102290000F01550EA76EAA0EA76EA682A6B2FED794
:1022A000A6940050F2120001000C3AC672F639C62C
:1022B00071F6010E0601736F000197DF0601392BDD
:1022C000D8B43A2B3AC672F639C671F661C673F6BF
:1022D00000018BDF0601392BD8B43A2B3AC672F6CF
:1022E00039C671F662C673F600017FDF0601392B2D
:1022F000D8B43A2B3AC672F639C671F663C673F68D
:10230000000173DF0601392BD8B43A2B0001000C11
:102310003AC672F639C671F60601736B000165DFC5
:102320000601392BD8B43A2B3AC672F639C671F683
:1023300061C673F6000159DF0601392BD8B43A2B78
:102340003AC672F639C671F662C673F600014DDF01
:102350000601392BD8B43A2B3AC672F639C671F653
:1023600063C673F6000141DF0601392BD8B43A2B5E
:102370003AC672F639C671F664C673F6000135DFE7
:102380000601392BD8B43A2B000117EF48F00601AB
:102390006D6B6C516D5D1BE26D516A256E6F000EA9
:1023A0006B216F6F69C603F068C6E9FF69C6EAFF73
:1023B000EFCF70F6726F6EC671F670C673F60001DD
:1023C00014DF0601682BD8B4692B6D2BE2D700010E
:1023D000000C3AC672F639C671F6640E0601736FC8
:1023E000000103DF0601392BD8B43A2B62C669F627
:1023F00061C668F63AC66BF639C66AF6080E6C6FA7
:102400000001C5DF080E06013927000E3A2364C615
:1024100069F663C668F63AC66BF639C66AF6080E00
:102420006C6F0001B4DF080E06013927000E3A2355
:102430003AC672F639C671F665C673F60001D5DE86
:102440000601392BD8B43A2B0001000C3AC672F6BB
:1024500039C671F6650E0601736F0001C6DE06010E
:10246000392BD8B43A2B62C669F661C668F63AC60B
:102470006BF639C66AF6080E6C6F000188DF080E2D
:1024800006013927000E3A2364C669F663C668F66A
:102490003AC66BF639C66AF6080E6C6F000177DF34
:1024A000080E06013927000E3A2366C669F665C68E
:1024B00068F63AC66BF639C66AF6080E6C6F00010C
:1024C00066DF080E06013927000E3A233AC672F677
:1024D00039C671F667C673F6000187DE0601392B2F
:1024E000D8B43A2B0001000C0601C0C6E9FFC1C6F2
:1024F000EAFF010EEF6EBEC6C3F6BFC6C6F6C983BD
:10250000CE6FC591C891C46BC76B036AC2511C0FD3
:10251000E96E000E0320EA6EEFCFCFF6010EC02564
:10252000E96E000EC121EA6E060EE26EC30EE16E88
:10253000200E016EE6CFEEFF012EFCD7000113EF57
:1025400018F00601C1C6E9FFC2C6EAFFEF6A010E34
:10255000C125016E000EC22101C0E9FFEA6EBEC6B0
:10256000EFFF010EC125016E000EC221036E015066
:10257000030FE96E000E0320EA6EBFC6EFFF010EE7
:10258000C125016E000EC221036E0150060FE96ED7
:10259000000E0320EA6EC0C6EFFF010EC125016EDA
:1025A000000EC221036E01500E0FE96E000E0320D3
:1025B000EA6EEF82010EC125016E000EC221036E8C
:1025C00001500F0FE96E000E0320EA6E010EEF6E50
:1025D000C125016E000EC221036E0150090FE96E84
:1025E000000E0320EA6EEF6A010EC125016E000E97
:1025F000C221036E01500E0FE96E000E0320EA6E39
:10260000EF94010EC125016E000EC221036E015030
:10261000020FE96E000E0320EA6EEF90010EC12555
:10262000016E000EC221036E0150050FE96E000E0F
:102630000320EA6EEF90010EC125016E000EC2214B
:10264000036E0150080FE96E000E0320EA6EEF8062
:10265000010EC125016E000EC221036E0150010F53
:10266000E96E000E0320EA6EEF6A010EC125016ECD
:10267000000EC221036E0150040FE96E000E03200C
:10268000EA6EEF6A010EC125016E000EC221036ED3
:102690000150070FE96E000E0320EA6E010EEF6E87
:1026A000C125016E000EC221036E0150100F016E94
:1026B000000E032203C0C7F6036AC3511C0FE96E64
:1026C000000E0320EA6EEFCFC8F6C7C6EAFF01C0CE
:1026D000E9FFC8C6EFFF010EC125016E000EC22141
:1026E000036E01500A0FE96E000E0320EA6EEE52EF
:1026F000EE52EC6AED52EF6AED52EF6AED52EF6A7C
:102700000001ADEF18F00601C1C6E9FFC2C6EAFF3D
:10271000020EEF6EBFC6C5F6C0C6C8F6CB83010E6B
:10272000CC6FC791CA91C66BC96BCD91C4B1CD8135
:10273000036AC3511C0FE96E000E0320EA6EEFCF4F
:10274000CEF6010EC125E96E000EC221EA6E060E1C
:10275000E26EC50EE16E200E016EE6CFEEFF012E99
:10276000FCD700014CEF19F00601C16BC051C15DEF
:1027700022E2BDC603F0BC51E96E03C0EAFFC151BD
:10278000BE25C46F000EBF21C56FF2CFC6F6F29C06
:10279000F29EC5C6AAFFC4C6A9FFA69CA69EA68097
:1027A000A850C6BDF28CC6BFF28EEF6EBC2BD8B45B
:1027B000BD2BC12BDBD70001000C0601D56BD4511A
:1027C000D55D19E2036AD551D225016ED35103229A
:1027D00003C0D7F6D0C6E9FFD1C6EAFFEFCFD8F6DF
:1027E000D7C6EAFF01C0E9FFD8C6EFFFD02BD8B4A7
:1027F000D12BD52BE4D70001000C0601C4C6E9FF9C
:10280000C5C6EAFF030EEF6E010EC425016E000E71
:10281000C521036E0150050FE96E000E0320EA6E1C
:10282000EF90010EC425016E000EC521036E01500C
:10283000080FE96E000E0320EA6EEF90010EC4252A
:10284000016E000EC521036E0150040FE96E000EEB
:102850000320EA6EEF6A010EC425016E000EC52149
:10286000036E0150070FE96E000E0320EA6EEF6A57
:10287000010EC425016E000EC521036E0150120F1A
:10288000E96E000E0320EA6EEF90010EC425016E82
:10289000000EC521036E01501C0FE96E000E0320CF
:1028A000EA6EEF90010EC425016E000EC521036E85
:1028B0000150110FE96E000E0320EA6EEF6A010E5F
:1028C000C425016E000EC521036E01501B0FE96E79
:1028D000000E0320EA6EEF6A010EC425016E000EA1
:1028E000C521036E01501D0FE96E000E0320EA6E34
:1028F000EC6AED52EF6A010EC425016E000EC5218F
:1029000001C0E9FFEA6EC6C6EFFF010EC425016EE5
:10291000000EC521036E01501F0FE96E000E03204B
:10292000EA6EEF90010EC425016E000EC521036E04
:102930000150010FE96E000E0320EA6EC8C6ECFFDD
:10294000ED52C7C6EFFF010EC425016E000EC52172
:10295000036E0150030FE96E000E0320EA6EC2C63B
:10296000EFFF010EC425016E000EC521036E01505C
:10297000060FE96E000E0320EA6EC3C6EFFF010EDC
:10298000C425016E000EC521036E0150090F016EB2
:10299000000E032201C0CBF603C0CCF6BFC6D1F6B1
:1029A000BEC6D0F603C0D3F601C0D2F6080ED46F6F
:1029B000000103DF010E0601C425016E000EC521D2
:1029C000036E0150130F016E000E032201C0CBF6FF
:1029D00003C0CCF6C1C6D1F6C0C6D0F603C0D3F64C
:1029E00001C0D2F6080ED46F0001E7DE2CEF1AF01A
:1029F0000601C4C6E9FFC5C6EAFF650EEF6E010E0B
:102A0000C425016E000EC521036E01501D0FE96E35
:102A1000000E0320EA6EEF90010EC425016E000E39
:102A2000C521036E0150090FE96E000E0320EA6E06
:102A3000EF90010EC425016E000EC521036E0150FA
:102A4000130FE96E000E0320EA6EEF90010EC4250D
:102A5000016E000EC521036E01501C0FE96E000EC1
:102A60000320EA6E7F0EEF6E010EC425016E000E8C
:102A7000C521036E0150080FE96E000E0320EA6EB7
:102A8000EF6A010EC425016E000EC521036E0150D0
:102A9000120FE96E000E0320EA6EEF6A010EC425E4
:102AA000016E000EC521036E01501F0FE96E000E6E
:102AB0000320EA6EC6C6EFFF010EC425016E000EAC
:102AC000C521036E0150140F016E000E032201C0D8
:102AD000C9F603C0CAF6BFC6D1F6BEC6D0F603C05B
:102AE000D3F601C0D2F6080ED46F000166DE010EE7
:102AF0000601C425016E000EC521036E01C0C9F692
:102B0000CA6FC1C6D1F6C0C6D0F6D36F01C0D2F627
:102B1000080ED46F000151DE010E0601C425016EBE
:102B2000000EC521036E01500A0F016E000E032234
:102B300001C0C9F603C0CAF6C3C6D1F6C2C6D0F6F4
:102B400003C0D3F601C0D2F6080ED46F000135DE03
:102B5000010E0601C425016E000EC521036E015051
:102B60001E0FE96E000E0320EA6E010EEF6E0001EB
:102B7000C6EF1AF00601C6C6E9FFC7C6EAFF660E31
:102B8000EF6E010EC625016E000EC721036E0150C7
:102B9000090FE96E000E0320EA6EEF90010EC625C4
:102BA000016E000EC721036E0150130FE96E000E77
:102BB0000320EA6EEF90010EC625016E000EC721BC
:102BC000036E0150080FE96E000E0320EA6EEF6AF3
:102BD000010EC625016E000EC721036E0150120FB3
:102BE000E96E000E0320EA6EEF6A010EC625016E43
:102BF000000EC721036E01501D0FE96E000E032069
:102C0000EA6EEF90010EC625016E000EC721036E1D
:102C10000150270FE96E000E0320EA6EEF90010EBF
:102C2000C625016E000EC721036E01501C0FE96E10
:102C3000000E0320EA6EEF6A010EC625016E000E3B
:102C4000C721036E0150260FE96E000E0320EA6EC5
:102C5000EF6A010EC625016E000EC721036E0150FA
:102C6000280FE96E000E0320EA6EC8C6EFFF010EC2
:102C7000C625016E000EC721036E0150290FE96EB3
:102C8000000E0320EA6EC9C6EFFF010EC625016ED5
:102C9000000EC721036E01502B0FE96E000E0320BA
:102CA000EA6ECBC6EFFF010EC625016E000EC721EE
:102CB000036E01502C0FE96E000E0320EA6ECAC6A7
:102CC000EFFF010EC625016E000EC721036E01C085
:102CD000CEF6CF6FBFC6D1F6BEC6D0F6D36F01C059
:102CE000D2F6080ED46F000168DD010E0601C6257C
:102CF000016E000EC721036E01500A0F016E000E17
:102D0000032201C0CEF603C0CFF6C1C6D1F6C0C6BD
:102D1000D0F603C0D3F601C0D2F6080ED46F00017E
:102D20004CDD010E0601C625016E000EC721036EA3
:102D30000150140F016E000E032201C0CEF603C035
:102D4000CFF6C3C6D1F6C2C6D0F603C0D3F601C0D3
:102D5000D2F6080ED46F000130DD010E0601C62543
:102D6000016E000EC721036E01501E0F016E000E92
:102D7000032201C0CEF603C0CFF6C5C6D1F6C4C645
:102D8000D0F603C0D3F601C0D2F6080ED46F00010E
:102D900014DD010E0601C625016E000EC721036E6B
:102DA00001502D0FE96E000E0320EA6E040EEF6E47
:102DB0000001B8EF1BF00601C2C6E9FFC3C6EAFF77
:102DC000640EEF6E010EC225016E000EC321036E6C
:102DD0000150090FE96E000E0320EA6EEF90010E1C
:102DE000C225016E000EC321036E0150130FE96E60
:102DF000000E0320EA6EEF90010EC225016E000E58
:102E0000C321036E0150080FE96E000E0320EA6E25
:102E1000EF6A010EC225016E000EC321036E015040
:102E2000120FE96E000E0320EA6EEF6A010EC22552
:102E3000016E000EC321036E0150140FE96E000EE7
:102E40000320EA6EC4C6EFFF010EC225016E000E1C
:102E5000C321036E01C0C7F6C86FBFC6D1F6BEC698
:102E6000D0F6D36F01C0D2F6080ED46F0001A5DCF6
:102E7000010E0601C225016E000EC321036E015032
:102E80000A0F016E000E032201C0C7F603C0C8F688
:102E9000C1C6D1F6C0C6D0F603C0D3F601C0D2F683
:102EA000080ED46F000189DC3CEF1CF00601626B58
:102EB000616B636B646BF2CFBCF6F29CF29E62C6F0
:102EC000AAFF61C6A9FFA69CA69EA680A850BCBD6D
:102ED000F28CBCBFF28EFF08D8B446EF1CF0F2CFE4
:102EE000BCF6F29CF29E62C6AAFF61C6A9FFA69C30
:102EF000A69EA680A850BCBDF28CBCBFF28E010A73
:102F0000000115E0010AD8B496D0020AD8B42CD139
:102F1000010AD8B4C8D1660AD8B4A5D2030AD8B475
:102F20003CD3020AD8B4BFEF1BF043EF1CF0580E9D
:102F3000F66E030EF76E000EF86E1B6AF2BC1B8C69
:102F4000F29CF2BE1B8EF29E97EC07F01BBCF28C3B
:102F50001BBEF28E0601612BD8B4622BF2CFBCF6F9
:102F6000F29CF29E62C6AAFF61C6A9FFA69CA69E1D
:102F7000A680A850BCBDF28CBCBFF28E656F612BE1
:102F8000D8B4622BF2CFBDF6F29CF29E62C6AAFFC5
:102F900061C6A9FFA69CA69EA680A850BDBDF28CC6
:102FA000BDBFF28E666F612BD8B4622BF2CFBEF636
:102FB000F29CF29E62C6AAFF61C6A9FFA69CA69ECD
:102FC000A680A850BEBDF28CBEBFF28E676F1B6A92
:102FD000F2BC1B8CF29CF2BE1B8EF29EDB6B63C6B6
:102FE000DAF6DD6B210EDC6F000110EC02F01BBC89
:102FF000F28C1BBEF28E02C003F00150400F016E36
:10300000010E032201C0BCF603C0BDF665C6BEF6C4
:1030100066C6BFF603C0C1F601C0C0F667C6C2F6F9
:10302000000174EF12F00601632B612BD8B4622B00
:10303000000143EF1CF0700EF66E030EF76E000EEB
:10304000F86E1B6AF2BC1B8CF29CF2BE1B8EF29EC9
:1030500097EC07F01BBCF28C1BBEF28E0601612BB5
:10306000D8B4622BF2CFBCF6F29CF29E62C6AAFFE5
:1030700061C6A9FFA69CA69EA680A850BCBDF28CE6
:10308000BCBFF28E686F612BD8B4622BF2CFBCF656
:10309000F29CF29E62C6AAFF61C6A9FFA69CA69EEC
:1030A000A680A850BCBDF28CBCBFF28E656F612BB0
:1030B000D8B4622BF2CFBCF6F29CF29E62C6AAFF95
:1030C00061C6A9FFA69CA69EA680A850BCBDF28C96
:1030D000BCBFF28E666F612BD8B4622BF2CFBCF608
:1030E000F29CF29E62C6AAFF61C6A9FFA69CA69E9C
:1030F000A680A850BCBDF28CBCBFF28E676F1B6A65
:10310000F2BC1B8CF29CF2BE1B8EF29EDB6B63C684
:10311000DAF6DD6B210EDC6F000110EC02F01BBC57
:10312000F28C1BBEF28E02C003F00150400F016E04
:10313000010E032201C0BCF603C0BDF668C6BEF690
:1031400065C6BFF666C6C0F603C0C2F601C0C1F6CA
:1031500067C6C3F60001A1EF12F00601632B612BD5
:10316000D8B4622B00018FD3880EF66E030EF76E73
:10317000000EF86E1B6AF2BC1B8CF29CF2BE1B8E1A
:10318000F29E97EC07F01BBCF28C1BBEF28E060180
:10319000612BD8B4622BF2CFBCF6F29CF29E62C6D1
:1031A000AAFF61C6A9FFA69CA69EA680A850BCBD8A
:1031B000F28CBCBFF28E656F612BD8B4622BF2CF5C
:1031C000BCF6F29CF29E62C6AAFF61C6A9FFA69C4D
:1031D000A69EA680A850BCBDF28CBCBFF28E666FC6
:1031E000612BD8B4622BF2CFBCF6F29CF29E62C681
:1031F000AAFF61C6A9FFA69CA69EA680A850BCBD3A
:10320000F28CBCBFF28E676F612BD8B4622BF2CF09
:10321000BCF6F29CF29E62C6AAFF61C6A9FFA69CFC
:10322000A69EA680A850BCBDF28CBCBFF28E016EDB
:10323000699101B069811B6AF2BC1B8CF29CF2BEE1
:103240001B8EF29EDB6B63C6DAF6DD6B210EDC6F44
:10325000000110EC02F01BBCF28C1BBEF28E02C00F
:1032600003F00150400F016E010E032201C0BCF6B5
:10327000060103C0BDF6000E69B1010E65C6BFF6BA
:1032800066C6C0F603C0C2F601C0C1F667C6C3F683
:10329000C46F000183EF13F00601632B612BD8B4D8
:1032A000622B0001F0D2A00EF66E030EF76E000E38
:1032B000F86E1B6AF2BC1B8CF29CF2BE1B8EF29E57
:1032C00097EC07F01BBCF28C1BBEF28E0601612B43
:1032D000D8B4622B060EBD6F6A0EBC6F62C6BFF615
:1032E00061C6BEF6080EC06F0001B4EC13F0080E04
:1032F00006016127000E6223060EBD6F720EBC6FC1
:1033000062C6BFF661C6BEF6080EC06F0001B4EC1F
:1033100013F0080E06016127000E6223F2CFBCF6FF
:10332000F29CF29E62C6AAFF61C6A9FFA69CA69E59
:10333000A680A850BCBDF28CBCBFF28E7A6F612B08
:10334000D8B4622BF2CFBDF6F29CF29E62C6AAFF01
:1033500061C6A9FFA69CA69EA680A850BDBDF28C02
:10336000BDBFF28E7B6F612BD8B4622BF2CFBEF65D
:10337000F29CF29E62C6AAFF61C6A9FFA69CA69E09
:10338000A680A850BEBDF28CBEBFF28E7C6F612BB2
:10339000D8B4622BF2CFBFF6F29CF29E62C6AAFFAF
:1033A00061C6A9FFA69CA69EA680A850BFBDF28CB0
:1033B000BFBFF28E7E6B7D6F7DC67EF67D6B612B0F
:1033C000D8B4622BF2CFBCF6F29CF29E62C6AAFF82
:1033D00061C6A9FFA69CA69EA680A850BCBDF28C83
:1033E000BCBFF28E7D131B6AF2BC1B8CF29CF2BE3A
:1033F0001B8EF29EDB6B63C6DAF6DD6B210EDC6F93
:10340000000110EC02F01BBCF28C1BBEF28E02C05D
:1034100003F00150400F016E010E032201C0BCF603
:10342000060103C0BDF6060EBF6F6A0EBE6F060E24
:10343000C16F720EC06F7AC6C2F67BC6C3F603C0F8
:10344000C5F601C0C4F67CC6C6F67EC6C8F67DC603
:10345000C7F60001FDEF13F00601632B612BD8B412
:10346000622B000110D2B00EF66E030EF76E000E46
:10347000F86E1B6AF2BC1B8CF29CF2BE1B8EF29E95
:1034800097EC07F01BBCF28C1BBEF28E060E0601F9
:10349000BD6F7F0EBC6F62C6BFF661C6BEF6080E7A
:1034A000C06F0001B4EC13F0080E06016127000E96
:1034B0006223060EBD6F870EBC6F62C6BFF661C683
:1034C000BEF6080EC06F0001B4EC13F0080E060142
:1034D0006127000E6223060EBD6F8F0EBC6F62C6A1
:1034E000BFF661C6BEF6080EC06F0001B4EC13F063
:1034F000080E06016127000E6223612BD8B4622BEF
:10350000F2CFBCF6F29CF29E62C6AAFF61C6A9FF8A
:10351000A69CA69EA680A850BCBDF28CBCBFF28E15
:10352000976F1B6AF2BC1B8CF29CF2BE1B8EF29E44
:10353000DB6B64C6DAF6DD6B2F0EDC6F000110EC7E
:1035400002F01BBCF28C1BBEF28E02C003F00150D5
:103550008A0F016E020E032201C0BCF6060103C0F1
:10356000BDF6060EBF6F7F0EBE6F060EC16F870ED3
:10357000C06F060EC36F8F0EC26F03C0C5F601C0C9
:10358000C4F697C6C6F60001F8EF14F00601642BE6
:10359000612BD8B4622B000176D1C40EF66E030EF7
:1035A000F76E000EF86E1B6AF2BC1B8CF29CF2BE2A
:1035B0001B8EF29E97EC07F01BBCF28C1BBEF28EAA
:1035C000060E0601BD6F980EBC6F62C6BFF661C6DF
:1035D000BEF6080EC06F0001B4EC13F0080E060131
:1035E0006127000E6223060EBD6FA00EBC6F62C67F
:1035F000BFF661C6BEF6080EC06F0001B4EC13F052
:10360000080E06016127000E6223060EBD6FA80E8C
:10361000BC6F62C6BFF661C6BEF6080EC06F000181
:10362000B4EC13F0080E06016127000E6223060EAB
:10363000BD6FB00EBC6F62C6BFF661C6BEF6080EA7
:10364000C06F0001B4EC13F0080E06016127000EF4
:103650006223612BD8B4622BF2CFBCF6F29CF29EAF
:1036600062C6AAFF61C6A9FFA69CA69EA680A85016
:10367000BCBDF28CBCBFF28EB86F612BD8B4622B8C
:10368000F2CFBDF6F29CF29E62C6AAFF61C6A9FF08
:10369000A69CA69EA680A850BDBDF28CBDBFF28E92
:1036A000B96F612BD8B4622BF2CFBEF6F29CF29EBA
:1036B00062C6AAFF61C6A9FFA69CA69EA680A850C6
:1036C000BEBDF28CBEBFF28EBA6F612BD8B4622B36
:1036D000F2CFBFF6F29CF29E62C6AAFF61C6A9FFB6
:1036E000A69CA69EA680A850BFBDF28CBFBFF28E3E
:1036F000BB6F1B6AF2BC1B8CF29CF2BE1B8EF29E4F
:10370000DB6B64C6DAF6DD6B2F0EDC6F000110ECAC
:1037100002F01BBCF28C1BBEF28E02C003F0015003
:103720008A0F016E020E032201C0BCF6060103C01F
:10373000BDF6060EBF6F980EBE6F060EC16FA00ECF
:10374000C06F060EC36FA80EC26F060EC56FB00E17
:10375000C46F03C0C7F601C0C6F6B8C6C8F6B9C67E
:10376000C9F6BAC6CAF6BBC6CBF60001BAEF15F069
:103770000601642B612BD8B4622B000184D0DA0ED1
:10378000F66E030EF76E000EF86E1B6AF2BC1B8C11
:10379000F29CF2BE1B8EF29E97EC07F01BBCF28CE3
:1037A0001BBEF28E060E0601BD6F870EBC6F62C691
:1037B000BFF661C6BEF6080EC06F0001B4EC13F090
:1037C000080E06016127000E6223060EBD6F8F0EE4
:1037D000BC6F62C6BFF661C6BEF6080EC06F0001C0
:1037E000B4EC13F0080E06016127000E6223612B72
:1037F000D8B4622BF2CFBCF6F29CF29E62C6AAFF4E
:1038000061C6A9FFA69CA69EA680A850BCBDF28C4E
:10381000BCBFF28E976F1B6AF2BC1B8CF29CF2BE8F
:103820001B8EF29EDB6B64C6DAF6DD6B2F0EDC6F4F
:10383000000110EC02F01BBCF28C1BBEF28E02C029
:1038400003F001508A0F016E020E032201C0BCF684
:10385000060103C0BDF6060EBF6F870EBE6F060ED3
:10386000C16F8F0EC06F03C0C3F601C0C2F697C60A
:10387000C4F60001DBEF16F00601642B612BD8B40F
:10388000622B000100D006015BEF17F063C63EF12A
:1038900064C63FF10001BCEF48F00601A36BA481B0
:1038A000A56B05017A510601A55D47E2A551040DFE
:1038B000F350AA6BA96F630EA925016E060EAA210B
:1038C000036EAA6F036AA551810FE96E050E0320EE
:1038D000EA6EEF50036AAAC6EAFF01C0E9FF03C01F
:1038E000ECFFED52EF6EA551040DF350AA6BA96FDA
:1038F000020EA925016E000EAA21036E0150630F6E
:10390000016E060E032203C0AAF6D890A535036AFD
:10391000190FE96E060E0320EA6EECCF03F0ED52AC
:10392000EFCFABF6AAC6EAFF01C0E9FF03C0ECFF88
:10393000ED52ABC6EFFFA52BB4D7A4A1E3D0A49161
:10394000A56B010E05017A5D0601A55DD8B0D9D041
:10395000A551040DF350AA6BA96F630EA925E96E5A
:10396000060EAA21EA6EECCFAAF6ED52EFCFA9F629
:10397000010EA525040DF350AC6BAB6F630EAB25A8
:10398000E96E060EAC21EA6EECCF03F0ED52EFCFFC
:1039900001F0AA51035CD8A0B2D004E10150A95DA6
:1039A000D8B0ADD0A481A551040DF350AA6BA96F76
:1039B000630EA925E96E060EAA21EA6EECCF03F08C
:1039C000ED52EFCFA6F603C0A7F6A551040DF350B4
:1039D000AA6BA96F630EA925016E060EAA21036EBC
:1039E000AA6F010EA525040DF350AC6BAB6F630EEF
:1039F000AB25E96E060EAC21EA6EECCF03F0ED527A
:103A0000EFCFABF6AAC6EAFF01C0E9FF03C0ECFFA7
:103A1000ED52ABC6EFFF010EA525040DF350AA6BC6
:103A2000A96F630EA925E96E060EAA21EA6EA7C644
:103A3000ECFFED52A6C6EFFFA551040DF350AA6BA3
:103A4000A96F020EA925016E000EAA21036E015076
:103A5000630FE96E060E0320EA6EECCF03F0ED5221
:103A6000EFCFA6F603C0A7F6A551040DF350AA6B3D
:103A7000A96F020EA925016E000EAA21036E015046
:103A8000630F016E060E032201C0A9F603C0AAF659
:103A9000010EA525040DF350AC6BAB6F020EAB25E8
:103AA000016E000EAC21036E0150630FE96E060E2D
:103AB0000320EA6EECCF03F0ED52EFCFABF6AAC6CF
:103AC000EAFFA9C6E9FF03C0ECFFED52ABC6EFFF6A
:103AD000010EA525040DF350AA6BA96F020EA925AE
:103AE000016E000EAA21036E0150630FE96E060EEF
:103AF0000320EA6EA7C6ECFFED52A6C6EFFFA52B8A
:103B000020D71BD7635304E1645302E1A36BD0D1E8
:103B1000010EA36FA86B0001B5A709D064C692F58A
:103B200063C691F566C694F565C693F508D064C67C
:103B3000D6F563C6D5F566C6D8F565C6D7F5010EC8
:103B40000601A56F05017A510601A55DD8B0B0D177
:103B5000A551040DF350AA6BA96F630EA925E96E58
:103B6000060EAA21EA6EECCFAAF6ED52EFCFA9F627
:103B7000010EA55D040DF350AC6BAB6F630EAB256E
:103B8000E96E060EAC21EA6EECCF03F0ED52EF5079
:103B9000A95D03E10350AA5D02E0000E01D0010E11
:103BA000A96FA551040DF350AB6BAA6F630EAA2544
:103BB000E96E060EAB21EA6EEF5202E1EC5202E032
:103BC000000E01D0010E000A02E0000E01D0010E2D
:103BD000A915D8B49DD00001B5A74DD00601A851B4
:103BE000040DF350AA6BA96F020EA925016E000EF9
:103BF000AA21036E0150910F016E050E032201C030
:103C0000A9F603C0AAF6A851040DF350AC6BAB6F34
:103C1000020EAB25016E000EAC21036E0150910F18
:103C2000E96E050E0320EA6EECCFACF6ED52EFCF55
:103C3000ABF6A551040DF350AE6BAD6F020EAD2582
:103C4000016E000EAE21036E0150630FE96E060E89
:103C50000320EA6EECCF03F0ED52EF50AB15006E8F
:103C60000350AC15AAC6EAFFA9C6E9FFEC6EED52F7
:103C700000C0EFFF4CD00601A851040DF350AA6B11
:103C8000A96F020EA925016E000EAA21036E015034
:103C9000D50F016E050E032201C0A9F603C0AAF6D6
:103CA000A851040DF350AC6BAB6F020EAB25016E47
:103CB000000EAC21036E0150D50FE96E050E0320F6
:103CC000EA6EECCFACF6ED52EFCFABF6A551040D9A
:103CD000F350AE6BAD6F020EAD25016E000EAE213E
:103CE000036E0150630FE96E060E0320EA6EECCFFF
:103CF00003F0ED52EF50AB15006E0350AC15AAC6A1
:103D0000EAFFA9C6E9FFEC6EED5200C0EFFFCED08E
:103D1000A551040DF350AA6BA96F630EA925E96E96
:103D2000060EAA21EA6EEF5202E1EC5202E0000E0A
:103D300001D0010E000AD8A4B9D0A82B0001B5A764
:103D40005BD00601A851040DF350AA6BA96F910E28
:103D5000A925016E050EAA21036EAA6FA551040DB7
:103D6000F350AC6BAB6F630EAB25E96E060EAC2166
:103D7000EA6EECCF03F0ED52EFCFABF6AAC6EAFF46
:103D800001C0E9FF03C0ECFFED52ABC6EFFFA85145
:103D9000040DF350AA6BA96F020EA925016E000E47
:103DA000AA21036E0150910F016E050E032201C07E
:103DB000A9F603C0AAF6A551040DF350AC6BAB6F86
:103DC000020EAB25016E000EAC21036E0150630F95
:103DD000E96E060E0320EA6EECCF03F0ED52EFCF52
:103DE000ABF6AAC6EAFFA9C6E9FF03C0ECFFED5295
:103DF000ABC6EFFF5AD000010601A851040DF350E5
:103E0000AA6BA96FD50EA925016E050EAA21036E16
:103E1000AA6FA551040DF350AC6BAB6F630EAB25CD
:103E2000E96E060EAC21EA6EECCF03F0ED52EFCF57
:103E3000ABF6AAC6EAFF01C0E9FF03C0ECFFED52F2
:103E4000ABC6EFFFA851040DF350AA6BA96F020E89
:103E5000A925016E000EAA21036E0150D50F016E37
:103E6000050E032201C0A9F603C0AAF6A551040D50
:103E7000F350AC6BAB6F020EAB25016E000EAC21A4
:103E8000036E0150630FE96E060E0320EA6EECCF5D
:103E900003F0ED52EFCFABF6AAC6EAFFA9C6E9FFE1
:103EA00003C0ECFFED52ABC6EFFFA32BA52B4AD608
:103EB0000001B5A705D00501D26BA3C6D1F504D08A
:103EC0000601166BA3C615F60001B585000C0501A9
:103ED000D26BD16B0601166B156B050E05017C6F5D
:103EE000910E7B6F0001B597FF0E826E836E000E00
:103EF000946E956EFF0E826E836E0601616B0101FA
:103F00003F510601615DD8B0B6D01B6AF2BC1B8C74
:103F1000F29CF2BE1B8EF29EDB6B61C6DAF6DD6BA5
:103F20002F0EDC6F000110EC02F01BBCF28C1BBEEC
:103F3000F28E02C003F001508A0F016E020E0322BE
:103F400001C0E9FF03C0EAFFEF50650A01E090D02D
:103F5000BE0EF66E020EF76E000EF86E1B6AF2BC15
:103F60001B8CF29CF2BE1B8EF29E97EC07F01BBCE2
:103F7000F28C1BBEF28ED89005017A35036A190FB8
:103F8000016E060E032201C062F6060103C063F64D
:103F90001B6AF2BC1B8CF29CF2BE1B8EF29EDB6B8A
:103FA00061C6DAF6DD6B2F0EDC6F000110EC02F05B
:103FB0001BBCF28C1BBEF28E01504C0F0601646FCD
:103FC000010E0220656F010E6425016E000E652151
:103FD000036E01503E0F016E010E032201501F0FB0
:103FE000E96E000E0320EA6ED890EF34036A0001F8
:103FF000BBEC00F00900F5CF03F0060163C6EAFF51
:1040000062C6E9FF03C0ECFFED52EF6E1B6AF2BC23
:104010001B8CF29CF2BE1B8EF29EDB6B61C6DAF645
:10402000DD6B2F0EDC6F000110EC02F01BBCF28C7C
:104030001BBEF28E01504C0F0601626F010E022072
:10404000636F010E6225016E000E6321036E015045
:104050003E0F016E010E03220150200FE96E000E8B
:104060000320EA6E7AC5EFFF05017A2B000100D02C
:104070000601612B44D705017A5313E00001B5977F
:10408000050E05017C6F910E7B6F000106DC050EAD
:1040900005017C6FD50E7B6F0001B5874DEC1CF0E0
:1040A000050100013AEF49F006016291616B0101DF
:1040B0003F510601615DD8B01AEF2BF01B6AF2BCCC
:1040C0001B8CF29CF2BE1B8EF29EDB6B61C6DAF695
:1040D000DD6B2F0EDC6F000110EC02F01BBCF28CCC
:1040E0001BBEF28E02C003F001508A0F016E020E59
:1040F000032201C0E9FF03C0EAFFEF50650A09E0AF
:10410000010AD8B40CD3020AD8B41FEF25F016EF79
:104110002BF01B6AF2BC1B8CF29CF2BE1B8EF29E33
:104120000601DB6B61C6DAF6DD6B2F0EDC6F00017A
:1041300010EC02F01BBCF28C1BBEF28E01504C0F37
:104140000601636F010E0220646F010E6325016E8C
:10415000000E6421036E01503E0F016E010E03221A
:1041600001501D0FE96E000E0320EA6EEFA0C6D0CD
:104170001B6AF2BC1B8CF29CF2BE1B8EF29EDB6BA8
:1041800061C6DAF6DD6B2F0EDC6F000110EC02F079
:104190001BBCF28C1BBEF28E01504C0F0601636FEC
:1041A000010E0220646F010E6325016E000E642172
:1041B000036E01503E0F016E010E032201501E0FCF
:1041C000E96E000E0320EA6EEF526BE11B6AF2BC4F
:1041D0001B8CF29CF2BE1B8EF29EDB6B61C6DAF684
:1041E000DD6B2F0EDC6F000110EC02F01BBCF28CBB
:1041F0001BBEF28E01504C0F0601636F010E0220B0
:10420000646F010E6325016E000E6421036E015080
:104210003E0F016E010E03220150200FE96E000EC9
:104220000320EA6E036AEF50810F016E050E032230
:1042300001C065F603C066F61B6AF2BC1B8CF29CDB
:10424000F2BE1B8EF29EDB6B61C6DAF6DD6B2F0EC3
:10425000DC6F000110EC02F01BBCF28C1BBEF28E76
:1042600001504C0F0601676F010E0220686F010EAE
:104270006725016E000E6821036E01503E0F016E2E
:10428000010E032201501C0FE96E000E0320EA6E9E
:10429000EFCF69F666C6EAFF65C6E9FF69C6EFFFBC
:1042A00062811B6AF2BC1B8CF29CF2BE1B8EF29EDA
:1042B000DB6B61C6DAF6DD6B2F0EDC6F000110ECF4
:1042C00002F01BBCF28C1BBEF28E01504C0F06019B
:1042D000636F010E0220646F010E6325016E000EF4
:1042E0006421036E01503E0F016E010E0322015046
:1042F0001D0FE96E000E0320EA6EEF901B6AF2BC00
:104300001B8CF29CF2BE1B8EF29EDB6B61C6DAF652
:10431000DD6B2F0EDC6F000110EC02F01BBCF28C89
:104320001BBEF28E01504C0F0601636F010E02207E
:10433000646F010E6325016E000E6421036E01504F
:104340003E0F016E010E03220150130FE96E000EA5
:104350000320EA6EEFA0BED01B6AF2BC1B8CF29C5D
:10436000F2BE1B8EF29EDB6B61C6DAF6DD6B2F0EA2
:10437000DC6F000110EC02F01BBCF28C1BBEF28E55
:1043800001504C0F0601636F010E0220646F010E95
:104390006325016E000E6421036E01503E0F016E15
:1043A000010E03220150120FE96E000E0320EA6E87
:1043B000EF5263E01B6AF2BC1B8CF29CF2BE1B8EB8
:1043C000F29EDB6B61C6DAF6DD6B2F0EDC6F00014F
:1043D00010EC02F01BBCF28C1BBEF28E01504C0F95
:1043E0000601636F010E0220646F010E6325016EEA
:1043F000000E6421036E01503E0F016E010E032278
:1044000001501E0FE96E000E0320EA6E010EEF6EE2
:104410001B6AF2BC1B8CF29CF2BE1B8EF29EDB6B05
:1044200061C6DAF6DD6B2F0EDC6F000110EC02F0D6
:104430001BBCF28C1BBEF28E01504C0F0601636F49
:10444000010E0220646F010E6325016E000E6421CF
:10445000036E01503E0F016E010E03220150200F2A
:10446000E96E000E0320EA6E036AEF50810FE96ED9
:10447000050E0320EA6EEF6A62811B6AF2BC1B8C98
:10448000F29CF2BE1B8EF29EDB6B61C6DAF6DD6B30
:104490002F0EDC6F000110EC02F01BBCF28C1BBE77
:1044A000F28E01504C0F0601636F010E0220646F03
:1044B000010E6325016E000E6421036E01503E0F54
:1044C000016E010E03220150130FE96E000E03204E
:1044D000EA6EEF901B6AF2BC1B8CF29CF2BE1B8E44
:1044E000F29EDB6B61C6DAF6DD6B2F0EDC6F00012E
:1044F00010EC02F01BBCF28C1BBEF28E01504C0F74
:104500000601636F010E0220646F010E6325016EC8
:10451000000E6421036E01503E0F016E010E032256
:104520000150090FE96E000E0320EA6EEFA0F4D0EF
:104530001B6AF2BC1B8CF29CF2BE1B8EF29EDB6BE4
:1045400061C6DAF6DD6B2F0EDC6F000110EC02F0B5
:104550001BBCF28C1BBEF28E01504C0F0601636F28
:10456000010E0220646F010E6325016E000E6421AE
:10457000036E01503E0F016E010E03220150080F21
:10458000E96E000E0320EA6EEF52D8B498D01B6A91
:10459000F2BC1B8CF29CF2BE1B8EF29EDB6B61C6E2
:1045A000DAF6DD6B2F0EDC6F000110EC02F01BBCA5
:1045B000F28C1BBEF28E01504C0F0601636F010E90
:1045C0000220646F010E6325016E000E6421036EEC
:1045D00001503E0F016E010E032201501E0FE96EC5
:1045E000000E0320EA6EEF6A1B6AF2BC1B8CF29C81
:1045F000F2BE1B8EF29EDB6B61C6DAF6DD6B2F0E10
:10460000DC6F000110EC02F01BBCF28C1BBEF28EC2
:1046100001504C0F0601636F010E0220646F010E02
:104620006325016E000E6421036E01503E0F016E82
:10463000010E03220150200FE96E000E0320EA6EE6
:10464000036AEF50810F016E050E032201C065F66B
:1046500003C066F61B6AF2BC1B8CF29CF2BE1B8E7A
:10466000F29EDB6B61C6DAF6DD6B2F0EDC6F0001AC
:1046700010EC02F01BBCF28C1BBEF28E01504C0FF2
:104680000601676F010E0220686F010E6725016E3B
:10469000000E6821036E01503E0F016E010E0322D1
:1046A00001501C0FE96E000E0320EA6EEFCF69F691
:1046B00066C6EAFF65C6E9FF69C6EFFF62811B6A4D
:1046C000F2BC1B8CF29CF2BE1B8EF29EDB6B61C6B1
:1046D000DAF6DD6B2F0EDC6F000110EC02F01BBC74
:1046E000F28C1BBEF28E01504C0F0601636F010E5F
:1046F0000220646F010E6325016E000E6421036EBB
:1047000001503E0F016E010E03220150090FE96EA8
:10471000000E0320EA6EEF90000116EF2BF01B6AEB
:10472000F2BC1B8CF29CF2BE1B8EF29E0601DB6B70
:1047300061C6DAF6DD6B2F0EDC6F000110EC02F0C3
:104740001BBCF28C1BBEF28E01504C0F0601636F36
:10475000010E0220646F010E6325016E000E6421BC
:10476000036E01503E0F016E010E03220150130F24
:10477000E96E000E0320EA6EEFA09BD01B6AF2BC2C
:104780001B8CF29CF2BE1B8EF29EDB6B61C6DAF6CE
:10479000DD6B2F0EDC6F000110EC02F01BBCF28C05
:1047A0001BBEF28E01504C0F0601636F010E0220FA
:1047B000646F010E6325016E000E6421036E0150CB
:1047C0003E0F016E010E03220150120FE96E000E22
:1047D0000320EA6EEF5240E01B6AF2BC1B8CF29C95
:1047E000F2BE1B8EF29EDB6B61C6DAF6DD6B2F0E1E
:1047F000DC6F000110EC02F01BBCF28C1BBEF28ED1
:1048000001504C0F0601636F010E0220646F010E10
:104810006325016E000E6421036E01503E0F016E90
:10482000010E03220150140FE96E000E0320EA6E00
:10483000D890EF34036A0001BBEC00F00900F5CF1B
:1048400003F0006A0006001AFF0E031A005005016B
:104850007F130350801306011B6AF2BC1B8CF29C71
:10486000F2BE1B8EF29EDB6B61C6DAF6DD6B2F0E9D
:10487000DC6F000110EC02F01BBCF28C1BBEF28E50
:1048800001504C0F0601636F010E0220646F010E90
:104890006325016E000E6421036E01503E0F016E10
:1048A000010E03220150130FE96E000E0320EA6E81
:1048B000EF901B6AF2BC1B8CF29CF2BE1B8EF29E28
:1048C000DB6B61C6DAF6DD6B2F0EDC6F000110ECDE
:1048D00002F01BBCF28C1BBEF28E01504C0F060185
:1048E000636F010E0220646F010E6325016E000EDE
:1048F0006421036E01503E0F016E010E0322015030
:10490000090FE96E000E0320EA6EEFA095D01B6A36
:10491000F2BC1B8CF29CF2BE1B8EF29EDB6B61C65E
:10492000DAF6DD6B2F0EDC6F000110EC02F01BBC21
:10493000F28C1BBEF28E01504C0F0601636F010E0C
:104940000220646F010E6325016E000E6421036E68
:1049500001503E0F016E010E03220150080FE96E57
:10496000000E0320EA6EEF523AE01B6AF2BC1B8C89
:10497000F29CF2BE1B8EF29EDB6B61C6DAF6DD6B3B
:104980002F0EDC6F000110EC02F01BBCF28C1BBE82
:10499000F28E01504C0F0601636F010E0220646F0E
:1049A000010E6325016E000E6421036E01503E0F5F
:1049B000016E010E03220150140FE96E000E032058
:1049C000EA6ED890EF34036A0001BBEC00F00900F6
:1049D000F5CF03F005017F170350801706011B6A0E
:1049E000F2BC1B8CF29CF2BE1B8EF29EDB6B61C68E
:1049F000DAF6DD6B2F0EDC6F000110EC02F01BBC51
:104A0000F28C1BBEF28E01504C0F0601636F010E3B
:104A10000220646F010E6325016E000E6421036E97
:104A200001503E0F016E010E03220150090FE96E85
:104A3000000E0320EA6EEF90000116EF2BF01B6AC8
:104A4000F2BC1B8CF29CF2BE1B8EF29E0601DB6B4D
:104A500061C6DAF6DD6B2F0EDC6F000110EC02F0A0
:104A60001BBCF28C1BBEF28E01504C0F0601636F13
:104A7000010E0220646F010E6325016E000E642199
:104A8000036E01503E0F016E010E03220150090F0B
:104A9000E96E000E0320EA6EEFA04ED11B6AF2BC55
:104AA0001B8CF29CF2BE1B8EF29EDB6B61C6DAF6AB
:104AB000DD6B2F0EDC6F000110EC02F01BBCF28CE2
:104AC0001BBEF28E01504C0F0601656F010E0220D5
:104AD000666F010E6525016E000E6621036E0150A2
:104AE0003E0F016E010E032201502D0FE96E000EE4
:104AF0000320EA6EEF5004082FE01B6AF2BC1B8C07
:104B0000F29CF2BE1B8EF29EDB6B61C6DAF6DD6BA9
:104B10002F0EDC6F000110EC02F01BBCF28C1BBEF0
:104B2000F28E01504C0F0601676F010E0220686F74
:104B3000010E6725016E000E6821036E01503E0FC5
:104B4000016E010E032201502D0FE96E000E0320AD
:104B5000EA6EEF52D8A4F0D01B6AF2BC1B8CF29C18
:104B6000F2BE1B8EF29EDB6B61C6DAF6DD6B2F0E9A
:104B7000DC6F000110EC02F01BBCF28C1BBEF28E4D
:104B800001504C0F0601636F010E0220646F010E8D
:104B90006325016E000E6421036E01503E0F016E0D
:104BA000010E03220150080FE96E000E0320EA6E89
:104BB000EF52D8B494D01B6AF2BC1B8CF29CF2BEAC
:104BC0001B8EF29EDB6B61C6DAF6DD6B2F0EDC6F9F
:104BD000000110EC02F01BBCF28C1BBEF28E0150E7
:104BE0004C0F0601636F010E0220646F010E6325F6
:104BF000016E000E6421036E01503E0F016E010E26
:104C0000032201502A0FE96E000E0320EA6EEF6ABC
:104C10001B6AF2BC1B8CF29CF2BE1B8EF29EDB6BFD
:104C200061C6DAF6DD6B2F0EDC6F000110EC02F0CE
:104C30001BBCF28C1BBEF28E01504C0F0601636F41
:104C4000010E0220646F010E6325016E000E6421C7
:104C5000036E01503E0F016E010E032201502D0F15
:104C6000E96E000E0320EA6EEF6A1B6AF2BC1B8C31
:104C7000F29CF2BE1B8EF29EDB6B61C6DAF6DD6B38
:104C80002F0EDC6F000110EC02F01BBCF28C1BBE7F
:104C9000F28E01504C0F0601636F010E0220646F0B
:104CA000010E6325016E000E6421036E01503E0F5C
:104CB000016E010E03220150280FE96E000E032041
:104CC000EA6ED890EF34036A0001BBEC00F00900F3
:104CD000F5CF03F005017F170350801706011B6A0B
:104CE000F2BC1B8CF29CF2BE1B8EF29EDB6B61C68B
:104CF000DAF6DD6B2F0EDC6F000110EC02F01BBC4E
:104D0000F28C1BBEF28E01504C0F0601636F010E38
:104D10000220646F010E6325016E000E6421036E94
:104D200001503E0F016E010E03220150090FE96E82
:104D3000000E0320EA6EEF901B6AF2BC1B8CF29C03
:104D4000F2BE1B8EF29EDB6B61C6DAF6DD6B2F0EB8
:104D5000DC6F000110EC02F01BBCF28C1BBEF28E6B
:104D600001504C0F0601636F010E0220646F010EAB
:104D70006325016E000E6421036E01503E0F016E2B
:104D8000010E03220150130FE96E000E0320EA6E9C
:104D9000EFA04ED11B6AF2BC1B8CF29CF2BE1B8EA4
:104DA000F29EDB6B61C6DAF6DD6B2F0EDC6F000165
:104DB00010EC02F01BBCF28C1BBEF28E01504C0FAB
:104DC0000601656F010E0220666F010E6525016EFA
:104DD000000E6621036E01503E0F016E010E03228C
:104DE00001502D0FE96E000E0320EA6EEF5004080B
:104DF0002EE01B6AF2BC1B8CF29CF2BE1B8EF29E54
:104E0000DB6B61C6DAF6DD6B2F0EDC6F000110EC98
:104E100002F01BBCF28C1BBEF28E01504C0F06013F
:104E2000676F010E0220686F010E6725016E000E8C
:104E30006821036E01503E0F016E010E03220150E6
:104E40002D0FE96E000E0320EA6EEF2CF1D01B6AE5
:104E5000F2BC1B8CF29CF2BE1B8EF29EDB6B61C619
:104E6000DAF6DD6B2F0EDC6F000110EC02F01BBCDC
:104E7000F28C1BBEF28E01504C0F0601636F010EC7
:104E80000220646F010E6325016E000E6421036E23
:104E900001503E0F016E010E03220150120FE96E08
:104EA000000E0320EA6EEF52D8B495D01B6AF2BC14
:104EB0001B8CF29CF2BE1B8EF29EDB6B61C6DAF697
:104EC000DD6B2F0EDC6F000110EC02F01BBCF28CCE
:104ED0001BBEF28E01504C0F0601636F010E0220C3
:104EE000646F010E6325016E000E6421036E015094
:104EF0003E0F016E010E032201502A0FE96E000ED3
:104F00000320EA6EEF6A1B6AF2BC1B8CF29CF2BEB5
:104F10001B8EF29EDB6B61C6DAF6DD6B2F0EDC6F4B
:104F2000000110EC02F01BBCF28C1BBEF28E015093
:104F30004C0F0601636F010E0220646F010E6325A2
:104F4000016E000E6421036E01503E0F016E010ED2
:104F5000032201502D0FE96E000E0320EA6E010EB0
:104F6000EF6E1B6AF2BC1B8CF29CF2BE1B8EF29E93
:104F7000DB6B61C6DAF6DD6B2F0EDC6F000110EC27
:104F800002F01BBCF28C1BBEF28E01504C0F0601CE
:104F9000636F010E0220646F010E6325016E000E27
:104FA0006421036E01503E0F016E010E0322015079
:104FB000290FE96E000E0320EA6ED890EF34036AE1
:104FC0000001BBEC00F00900F5CF03F005017F17ED
:104FD0000350801706011B6AF2BC1B8CF29CF2BEC8
:104FE0001B8EF29EDB6B61C6DAF6DD6B2F0EDC6F7B
:104FF000000110EC02F01BBCF28C1BBEF28E0150C3
:105000004C0F0601636F010E0220646F010E6325D1
:10501000016E000E6421036E01503E0F016E010E01
:1050200003220150130FE96E000E0320EA6EEF9089
:105030001B6AF2BC1B8CF29CF2BE1B8EF29EDB6BD9
:1050400061C6DAF6DD6B2F0EDC6F000110EC02F0AA
:105050001BBCF28C1BBEF28E01504C0F0601636F1D
:10506000010E0220646F010E6325016E000E6421A3
:10507000036E01503E0F016E010E032201501D0F01
:10508000E96E000E0320EA6EEFA050D11B6AF2BC5D
:105090001B8CF29CF2BE1B8EF29EDB6B61C6DAF6B5
:1050A000DD6B2F0EDC6F000110EC02F01BBCF28CEC
:1050B0001BBEF28E01504C0F0601656F010E0220DF
:1050C000666F010E6525016E000E6621036E0150AC
:1050D0003E0F016E010E032201502D0FE96E000EEE
:1050E0000320EA6EEF50040830E01B6AF2BC1B8C10
:1050F000F29CF2BE1B8EF29EDB6B61C6DAF6DD6BB4
:105100002F0EDC6F000110EC02F01BBCF28C1BBEFA
:10511000F28E01504C0F0601676F010E0220686F7E
:10512000010E6725016E000E6821036E01503E0FCF
:10513000016E010E032201502D0FE96E000E0320B7
:10514000EA6EEF500208D8A4F1D01B6AF2BC1B8CA7
:10515000F29CF2BE1B8EF29EDB6B61C6DAF6DD6B53
:105160002F0EDC6F000110EC02F01BBCF28C1BBE9A
:10517000F28E01504C0F0601636F010E0220646F26
:10518000010E6325016E000E6421036E01503E0F77
:10519000016E010E032201501C0FE96E000E032068
:1051A000EA6EEF52D8B495D01B6AF2BC1B8CF29C0D
:1051B000F2BE1B8EF29EDB6B61C6DAF6DD6B2F0E44
:1051C000DC6F000110EC02F01BBCF28C1BBEF28EF7
:1051D00001504C0F0601636F010E0220646F010E37
:1051E0006325016E000E6421036E01503E0F016EB7
:1051F000010E032201502A0FE96E000E0320EA6E11
:10520000EF6A1B6AF2BC1B8CF29CF2BE1B8EF29EF4
:10521000DB6B61C6DAF6DD6B2F0EDC6F000110EC84
:1052200002F01BBCF28C1BBEF28E01504C0F06012B
:10523000636F010E0220646F010E6325016E000E84
:105240006421036E01503E0F016E010E03220150D6
:105250002D0FE96E000E0320EA6E020EEF6E1B6A40
:10526000F2BC1B8CF29CF2BE1B8EF29EDB6B61C605
:10527000DAF6DD6B2F0EDC6F000110EC02F01BBCC8
:10528000F28C1BBEF28E01504C0F0601636F010EB3
:105290000220646F010E6325016E000E6421036E0F
:1052A00001503E0F016E010E03220150280FE96EDE
:1052B000000E0320EA6ED890EF34036A0001BBECC5
:1052C00000F00900F5CF03F005017F1703508017A8
:1052D00006011B6AF2BC1B8CF29CF2BE1B8EF29E76
:1052E000DB6B61C6DAF6DD6B2F0EDC6F000110ECB4
:1052F00002F01BBCF28C1BBEF28E01504C0F06015B
:10530000636F010E0220646F010E6325016E000EB3
:105310006421036E01503E0F016E010E0322015005
:105320001D0FE96E000E0320EA6EEF901B6AF2BCBF
:105330001B8CF29CF2BE1B8EF29EDB6B61C6DAF612
:10534000DD6B2F0EDC6F000110EC02F01BBCF28C49
:105350001BBEF28E01504C0F0601636F010E02203E
:10536000646F010E6325016E000E6421036E01500F
:105370003E0F016E010E03220150270FE96E000E51
:105380000320EA6EEFA050D11B6AF2BC1B8CF29C8A
:10539000F2BE1B8EF29EDB6B61C6DAF6DD6B2F0E62
:1053A000DC6F000110EC02F01BBCF28C1BBEF28E15
:1053B00001504C0F0601656F010E0220666F010E51
:1053C0006525016E000E6621036E01503E0F016ED1
:1053D000010E032201502D0FE96E000E0320EA6E2C
:1053E000EF50040830E01B6AF2BC1B8CF29CF2BE4A
:1053F0001B8EF29EDB6B61C6DAF6DD6B2F0EDC6F67
:10540000000110EC02F01BBCF28C1BBEF28E0150AE
:105410004C0F0601676F010E0220686F010E6725B1
:10542000016E000E6821036E01503E0F016E010EE9
:10543000032201502D0FE96E000E0320EA6EEF509B
:105440000308D8A4F1D01B6AF2BC1B8CF29CF2BEFC
:105450001B8EF29EDB6B61C6DAF6DD6B2F0EDC6F06
:10546000000110EC02F01BBCF28C1BBEF28E01504E
:105470004C0F0601636F010E0220646F010E63255D
:10548000016E000E6421036E01503E0F016E010E8D
:1054900003220150260FE96E000E0320EA6EEF5240
:1054A000D8B495D01B6AF2BC1B8CF29CF2BE1B8E4A
:1054B000F29EDB6B61C6DAF6DD6B2F0EDC6F00014E
:1054C00010EC02F01BBCF28C1BBEF28E01504C0F94
:1054D0000601636F010E0220646F010E6325016EE9
:1054E000000E6421036E01503E0F016E010E032277
:1054F00001502A0FE96E000E0320EA6EEF6A1B6A64
:10550000F2BC1B8CF29CF2BE1B8EF29EDB6B61C662
:10551000DAF6DD6B2F0EDC6F000110EC02F01BBC25
:10552000F28C1BBEF28E01504C0F0601636F010E10
:105530000220646F010E6325016E000E6421036E6C
:1055400001503E0F016E010E032201502D0FE96E36
:10555000000E0320EA6E030EEF6E1B6AF2BC1B8C7A
:10556000F29CF2BE1B8EF29EDB6B61C6DAF6DD6B3F
:105570002F0EDC6F000110EC02F01BBCF28C1BBE86
:10558000F28E01504C0F0601636F010E0220646F12
:10559000010E6325016E000E6421036E01503E0F63
:1055A000016E010E03220150290FE96E000E032047
:1055B000EA6ED890EF34036A0001BBEC00F00900FA
:1055C000F5CF03F005017F170350801706011B6A12
:1055D000F2BC1B8CF29CF2BE1B8EF29EDB6B61C692
:1055E000DAF6DD6B2F0EDC6F000110EC02F01BBC55
:1055F000F28C1BBEF28E01504C0F0601636F010E40
:105600000220646F010E6325016E000E6421036E9B
:1056100001503E0F016E010E03220150270FE96E6B
:10562000000E0320EA6EEF90000100D00601612B0E
:1056300057EF20F062A104D000014DEC1CF00601F0
:105640000001000C9D84F28A9D809D82F288C00E2C
:10565000F2123EEF49F09388040081B8FDD7080E9E
:10566000006E0601646B008E0ED0009E0CD0D890A8
:1056700081B8D8806433008C06D0009C002EF7D708
:1056800064C601F016D0010EE96E000E00BE550E84
:10569000016E012EFED7E92EF8D7520E00BE160E6F
:1056A000016E012EFED700D000BEDFD700BCE5D7CB
:1056B000DED70001000CD00EF66E020EF76E000E63
:1056C000F86E1B6AF2BC1B8CF29CF2BE1B8EF29E23
:1056D00097EC07F01BBCF28C1BBEF28EDA0EF66E56
:1056E000020EF76E000EF86E1B6AF2BC1B8CF29C69
:1056F000F2BE1B8EF29E97EC07F01BBCF28C1BBE19
:10570000F28E81A867D21B6AF2BC1B8CF29CF2BE9F
:105710001B8EF29E1CC0DDF6010E0601DE6F0F0E21
:10572000E06F920EDF6F000121EC02F01BBCF28CE7
:105730001BBEF28E1B6AF2BC1B8CF29CF2BE1B8E4F
:10574000F29E1CC0DDF60F0E0601DF6F800EDE6FCD
:10575000000142EC02F01BBCF28C1BBEF28E060173
:10576000629101B062811B6AF2BC1B8CF29CF2BE9A
:105770001B8EF29E1DC0DDF6010EDE6F0F0EE06F78
:10578000920EDF6F000121EC02F01BBCF28C1BBEFD
:10579000F28E1B6AF2BC1B8CF29CF2BE1B8EF29E38
:1057A0001DC0DDF60F0E0601DF6F800EDE6F0001FB
:1057B00042EC02F01BBCF28C1BBEF28E060162931F
:1057C00001B062831B6AF2BC1B8CF29CF2BE1B8E82
:1057D000F29E1EC0DDF6010EDE6F0F0EE06F920E20
:1057E000DF6F000121EC02F01BBCF28C1BBEF28EBD
:1057F0001B6AF2BC1B8CF29CF2BE1B8EF29E1EC07A
:10580000DDF60F0E0601DF6F800EDE6F000142EC49
:1058100002F01BBCF28C1BBEF28E0601629501B039
:1058200062851B6AF2BC1B8CF29CF2BE1B8EF29E40
:105830001FC0DDF6010EDE6F0F0EE06F920EDF6F00
:10584000000121EC02F01BBCF28C1BBEF28E1B6A25
:10585000F2BC1B8CF29CF2BE1B8EF29E1FC0DDF6CA
:105860000F0E0601DF6F800EDE6F000142EC02F0CA
:105870001BBCF28C1BBEF28E0601629701B06287E0
:105880001B6AF2BC1B8CF29CF2BE1B8EF29E20C0E7
:10589000DDF6010EDE6F0F0EE06F920EDF6F00017E
:1058A00021EC02F01BBCF28C1BBEF28E1B6AF2BC18
:1058B0001B8CF29CF2BE1B8EF29E20C0DDF60F0EFA
:1058C0000601DF6F800EDE6F000142EC02F01BBCB0
:1058D000F28C1BBEF28E0601629901B062891B6ACE
:1058E000F2BC1B8CF29CF2BE1B8EF29E21C0DDF638
:1058F000010EDE6F0F0EE06F920EDF6F000121ECE4
:1059000002F01BBCF28C1BBEF28E1B6AF2BC1B8C1D
:10591000F29CF2BE1B8EF29E21C0DDF60F0E060138
:10592000DF6F800EDE6F000142EC02F01BBCF28CD8
:105930001BBEF28E0601629B01B0628B1B6AF2BC39
:105940001B8CF29CF2BE1B8EF29E22C0DDF6010E75
:10595000DE6F0F0EE06F920EDF6F000121EC02F0A0
:105960001BBCF28C1BBEF28E1B6AF2BC1B8CF29C21
:10597000F2BE1B8EF29E22C0DDF60F0E0601DF6F17
:10598000800EDE6F000142EC02F01BBCF28C1BBEED
:10599000F28E0601629D01B0628D1B6AF2BC1B8C07
:1059A000F29CF2BE1B8EF29E23C0DDF6010EDE6F6E
:1059B0000F0EE06F920EDF6F000121EC02F01BBCB6
:1059C000F28C1BBEF28E1B6AF2BC1B8CF29CF2BEE8
:1059D0001B8EF29E23C0DDF60F0E0601DF6F800ED8
:1059E000DE6F000142EC02F01BBCF28C1BBEF28E9B
:1059F0000601629F01B0628F000E62B1010E636FFB
:105A0000000E62B3010E646F000E62B5010E656F89
:105A1000000E62B7010E666F000E62B9010E676F6D
:105A2000000E62BB010E686F000E62BD010E696F51
:105A3000000E62BF010E6A6F63C674F61F0E756FAB
:105A4000000155EC10F01B6AF2BC1B8CF29CF2BEFC
:105A50001B8EF29E200E0601DC6F00016DEC07F03C
:105A60001BBCF28C1BBEF28E64C674F61F0E0601C0
:105A7000756F000155EC10F01B6AF2BC1B8CF29C98
:105A8000F2BE1B8EF29E200E0601DC6F00016DEC53
:105A900007F01BBCF28C1BBEF28E65C674F61F0E9F
:105AA0000601756F000155EC10F01B6AF2BC1B8CEF
:105AB000F29CF2BE1B8EF29E200E0601DC6F0001EE
:105AC0006DEC07F01BBCF28C1BBEF28E66C674F642
:105AD0001F0E0601756F000155EC10F01B6AF2BC39
