:04000000EEEF3DF0F2
:08000800046ED8CF05F0E0CF33
:1000100006F00001E9CF0CF0EACF07F0E1CF08F0DD
:10002000E2CF09F0D9CF0AF0DACF0BF0F3CF12F01C
:10003000F4CF13F0FACF14F0F5CF15F0F6CF16F099
:10004000F7CF17F0F8CF18F0FBCF19F000C00EF083
:1000500001C00FF002C010F003C011F0F2AA34EF9B
:1000600000F0F2B415EF07F09DA03AEF00F09EB05B
:1000700027EF07F09DA240EF00F09EB22BEF07F0B4
:10008000F2A846EF00F0F2B240EF07F09DAA4CEF65
:1000900000F09EBA82EF08F09DA852EF00F09EB8E3
:1000A00085EF08F09DA458EF00F09EB4E8EF07F04C
:1000B000A0A65EEF00F0A1B688EF08F0A3AE64EF53
:1000C00000F0A4BEA2EF0DF0A3AA6AEF00F0A4BA5C
:1000D000A5EF0DF0A3A870EF00F0A4B89EEF0DF00F
:1000E000A3A676EF00F0A4B69AEF0DF0A3A47CEFE0
:1000F00000F0A4B496EF0DF0A3A282EF00F0A4B23A
:100100007EEF0BF0A3A088EF00F0A4B07AEF0BF025
:10011000A0AE8EEF00F0A1BE8BEF08F00EC000F095
:100120000FC001F010C002F011C003F00CC0E9FFD5
:1001300007C0EAFF078E08C0E1FF09C0E2FF0AC05E
:10014000D9FF0BC0DAFF12C0F3FF13C0F4FF14C0D5
:10015000FAFF15C0F5FF16C0F6FF17C0F7FF18C06D
:10016000F8FF19C0FBFF045006C0E0FF05C0D8FF30
:100170001000F76A860FF66E010EF722000EF86E79
:100180000900F5501200EFFFDFFFBFFF7FFFF7FF11
:10019000FBFFFEFFFDFFFF7FFFBFFFDFFFEFFFF76E
:1001A000FFFBFFFDFFFEF76ABA0FF66E010EF722A6
:1001B000000EF86E0900F550120000964B975C9601
:1001C0006D957E948F93A092B191C290D38FE48E5F
:1001D000F58D068D178C288B398A4A895B886C8748
:1001E0007D868E859F84B083C182D281E380F47F37
:1001F000057F167E277D387C497B5A7A6B797C781F
:100200008D779E76AF75C074D173E272F37104710D
:100210001570266F376E486D596C6A6B7B6A8C69F6
:100220009D68AE67BF66D065E164F26303631462E4
:1002300025613660475F585E695D7A5C8B5B9C5ACE
:10024000AD59BE58CF57E056F155025513542453BB
:10025000355246515750684F794E8A4D9B4CAC4BA6
:10026000BD4ACE49DF48F047014712462345344492
:100270004543564267417840893F9A3EAB3DBC3C7E
:10028000CD3BDE3AEF390039113822373336443569
:1002900055346633773288319930AA2FBB2ECC2D56
:1002A000DD2CEE2BFF2A102A212932284327542641
:1002B00065257624872398226902496E70757473C8
:1002C0000A0D000031203220332034203520362022
:1002D0003720380A0D00507265737320302D462088
:1002E000746F206163746976617465206F757470D2
:1002F00075740A0D00004465627567206D6F646552
:10030000206163746976650A0D00312D546573743C
:1003100020696E707574730A0D00322D5465737404
:10032000206F7574707574730A0D000053746172D8
:1003300074206164723D2564000064696D5F6C65C2
:1003400076656C2025750A0D00006F6666202575A0
:100350000A0D00006F66662025750A0D0000060173
:10036000F851FA03F3CF01F0F4CF00F0FB03F350A0
:100370000026F951FA03F3500020026E0001000C30
:100380000601FB51070B006EFB31016E0132013299
:100390001F0E01160150FD25E96E000EFE21EA6ECA
:1003A000016A012A002A01D00136002EFDD7FC5334
:1003B00003E00150EF1203D0011E0150EF160001BF
:1003C000000C0601FB51070B006EFB31016E013280
:1003D00001321F0E01160150FC25E96E000EFD21B1
:1003E000EA6EEFCF01F0002A01D00132002EFDD7D6
:1003F0000001000C090E0601FA25E96E000EFB2132
:10040000EA6EEFCFFCF60E0EFA25E96E000EFB2128
:10041000EA6E000EEFB0010E010BD8A406D10E0E4D
:10042000FA25E96E000EFB21EA6EEF920A0EFA251C
:10043000E96E000EFB21EA6EEFCF00F0ECCF01F089
:10044000ECCF02F0ECCF03F000503B5DFD6F0150AC
:100450003C59FE6F02503D59FF6F03503E59070152
:10046000006F060143510701005D1CE326E1060110
:100470004251FF5DD8B002D0070114D0D8B402D0E9
:1004800007011BD04151FE5DD8B002D007010AD050
:10049000D8B402D0070111D0FD51405DD8B002D0D0
:1004A00007010BD00F0E0601FA25E96E000EFB21A5
:1004B000EA6EEF500208D8A4B7D00F0E0601FA2555
:1004C000E96E000EFB21EA6EEF500408D8B4ACD000
:1004D0000F0EFA25E96E000EFB21EA6EEF2C1FD0FD
:1004E0000F0EFA25E96E000EFB21EA6E040EEF6E88
:1004F000FA25E96E000EFB21EA6E010EEF6E090E81
:10050000FA25E96E000EFB21EA6E7F0EEF6E050EF6
:10051000FA25E96E000EFB21EA6EEF8084D00F0E03
:10052000FA25E96E000EFB21EA6E020EEF6E0A0E4E
:10053000FA25E96E000EFB21EA6EEFCF00F0ECCF5A
:1005400001F0ECCF02F0ECCF03F000503B5DFD6F0B
:1005500001503C59FE6F02503D59FF6F03503E5908
:100560000701006F00530FE10601FF53D8B402D01A
:10057000070109D0FE53D8B402D0070104D0FD51C1
:100580003F5D43E207010E0E0601FA25E96E000EFB
:10059000FB21EA6E000EEFB4010E010B18E1090E0B
:1005A000FA25E96E000EFB21EA6EEF2A090EFA2504
:1005B000E96E000EFB21EA6EEF507F0807E10E0E98
:1005C000FA25E96E000EFB21EA6EEF841ED0090EBB
:1005D000FA25E96E000EFB21EA6EEF06090EFA25F8
:1005E000E96E000EFB21EA6EEF520FE10E0EFA25C6
:1005F000E96E000EFB21EA6EEF94070EFA25E96E14
:10060000000EFB21EA6E010EEF6E0A0EFA25E96E6E
:10061000000EFB21EA6E3BC6EFFF3CC6ECFF3DC679
:10062000ECFF3EC6ECFF00D0B0D00E0EFA25E96E0E
:10063000000EFB21EA6E000EEFB2010E010BD8A4F2
:1006400096D00E0EFA25E96E000EFB21EA6EEF82BF
:100650000F0EFA25E96E000EFB21EA6EEF5002083C
:1006600022E10F0EFA25E96E000EFB21EA6EEF6A19
:100670000E0EFA25E96E000EFB21EA6E000EEFB4B5
:10068000010E010B08E10E0EFA25E96E000EFB21AA
:10069000EA6EEF8407D00E0EFA25E96E000EFB21FC
:1006A000EA6EEF9464D00F0EFA25E96E000EFB217E
:1006B000EA6EEF2C1ED00F0EFA25E96E000EFB211C
:1006C000EA6EEF6A040EFA25E96E000EFB21EA6E6F
:1006D000010EEF6E0E0EFA25E96E000EFB21EA6E9A
:1006E000EF84050EFA25E96E000EFB21EA6EEF801D
:1006F0003ED00F0EFA25E96E000EFB21EA6EEF5296
:100700001FE10F0EFA25E96E000EFB21EA6E010EC5
:10071000EF6E070EFA25E96E000EFB21EA6E010E60
:10072000EF6E0E0EFA25E96E000EFB21EA6EEF94D5
:10073000080EFA25E96E000EFB21EA6EEF8017D055
:100740000F0EFA25E96E000EFB21EA6EEF50040849
:100750000EE10F0EFA25E96E000EFB21EA6EEF6A3C
:100760000E0EFA25E96E000EFB21EA6EEF840A0EEA
:10077000FA25E96E000EFB21EA6E3BC6EFFF3CC690
:10078000ECFF3DC6ECFF3EC6ECFF090EFA25E96E14
:10079000000EFB21EA6EEF50FC5D1BE0010EFA2516
:1007A000016E000EFB21036E090EFA25E96E000EA4
:1007B000FB21EA6EEFCFFFF603C0EAFF01C0E9FFBD
:1007C000FFC6EFFF020EFA25E96E000EFB21EA6E6E
:1007D000EF8000010FEF07F0060E0601FA25E96E23
:1007E000000EFB21EA6E000EEFB0010E010B6EE170
:1007F000060EFA25E96E000EFB21EA6E000EEFB23E
:10080000010E010B010862E1060EFA25E96E000EE9
:10081000FB21EA6EEF920B0EFA25E96E000EFB212A
:10082000EA6EEF2C25D00B0EFA25E96E000EFB21A7
:10083000EA6EEF6A010EFA25E96E000EFB21EA6E00
:10084000010EEF6E020EFA25E96E000EFB21EA6E34
:10085000EF80040EFA25E96E000EFB21EA6EEF6AC6
:10086000050EFA25E96E000EFB21EA6EEF802DD011
:100870000B0EFA25E96E000EFB21EA6EEF5225E120
:100880000B0EFA25E96E000EFB21EA6E010EEF6EEB
:10089000040EFA25E96E000EFB21EA6E010EEF6EE2
:1008A000050EFA25E96E000EFB21EA6EEF80010EBF
:1008B000FA25E96E000EFB21EA6EEF6A020EFA25B8
:1008C000E96E000EFB21EA6EEF8013D0060EFA25CA
:1008D000E96E000EFB21EA6E000EEFB0010E010B77
:1008E000010807E1060EFA25E96E000EFB21EA6E0B
:1008F000EF8200010FEF07F0060E0601FA25E96E00
:10090000000EFB21EA6E000EEFB0010E010B2DE18F
:10091000070EFA25E96E000EFB21EA6EEF2C25D0BA
:10092000070EFA25E96E000EFB21EA6EEF6A010E52
:10093000FA25E96E000EFB21EA6E010EEF6E020E43
:10094000FA25E96E000EFB21EA6EEF80040EFA250F
:10095000E96E000EFB21EA6EEF6A050EFA25E96EDC
:10096000000EFB21EA6EEF8039D0060EFA25E96E03
:10097000000EFB21EA6E000EEFB0010E010B010824
:100980002DE1070EFA25E96E000EFB21EA6EEF520B
:1009900025E1070EFA25E96E000EFB21EA6E010E35
:1009A000EF6E040EFA25E96E000EFB21EA6E010ED1
:1009B000EF6E050EFA25E96E000EFB21EA6EEF8060
:1009C000010EFA25E96E000EFB21EA6EEF6A020EB7
:1009D000FA25E96E000EFB21EA6EEF8000010FEFB1
:1009E00007F00601F76B01013E510601F75DD8B033
:1009F00019D2F96BF7C6F8F6FB6B210EFA6F0001FE
:100A0000AEDC02C003F00150400F016E010E032264
:100A100001C0E9FF03C0EAFFEF500AE0030AD8B4BF
:100A2000AAD0020AD8B4A8D0030AD8B44ED1F6D1BD
:100A30000601F96BF7C6F8F6FB6B210EFA6F0001A1
:100A40008EDC0150020F0601F86F000E0220F96FD4
:100A5000010EF825016E000EF921036E01503E0FC4
:100A6000016E010E03220150100FE96E000E0320EB
:100A7000EA6EEFCFFAF6FAC6FBF6010EFC6F0F0E28
:100A8000FE6F920EFD6F00017BDCFAC6FBF60F0EC7
:100A90000601FD6F800EFC6F000193DC01A024D0E5
:100AA0000601F96BF7C6F8F6FB6B210EFA6F000131
:100AB00056DC0150020F0601F86F000E0220F96F9C
:100AC000010EF825016E000EF921036E01503E0F54
:100AD000016E010E032201500E0FE96E000E03207D
:100AE000EA6EEF8023D000010601F96BF7C6F8F635
:100AF000FB6B210EFA6F000132DC0150020F060180
:100B0000F86F000E0220F96F010EF825016E000E3D
:100B1000F921036E01503E0F016E010E03220150B8
:100B20000E0FE96E000E0320EA6EEF90F96BF7C628
:100B3000F8F6FB6B210EFA6F000111DC0150020F79
:100B40000601F86F000E0220F96F010EF825016E04
:100B5000000EF921036E01503E0F016E010E0322BB
:100B600001C0F8F603C0F9F603C0FBF601C0FAF6BF
:100B7000000140D454D153D10601F96BF7C6F8F601
:100B8000FB6B210EFA6F0001AFEC01F00150020F78
:100B90000601F86F000E0220F96F010EF825016EB4
:100BA000000EF921036E01503E0F016E010E03226B
:100BB00001500C0FE96E000E0320EA6EEFCFFAF63B
:100BC000FAC6FBF6010EFC6F0F0EFE6F920EFD6F64
:100BD0000001C0EC01F0FAC6FBF60F0E0601FD6F36
:100BE000800EFC6F0001E1EC01F001A025D00601B0
:100BF000F96BF7C6F8F6FB6B210EFA6F0001AFEC4C
:100C000001F00150020F0601F86F000E0220F96F8B
:100C1000010EF825016E000EF921036E01503E0F02
:100C2000016E010E03220150060FE96E000E032033
:100C3000EA6EEF8024D000010601F96BF7C6F8F6E2
:100C4000FB6B210EFA6F0001AFEC01F00150020FB7
:100C50000601F86F000E0220F96F010EF825016EF3
:100C6000000EF921036E01503E0F016E010E0322AA
:100C70000150060FE96E000E0320EA6EEF90F96B4B
:100C8000F7C6F8F6FB6B210EFA6F0001AFEC01F02E
:100C90000150020F0601F86F000E0220F96F010EDD
:100CA000F825016E000EF921036E01503E0F016E12
:100CB000010E032201C0F8F603C0F9F603C0FBF6EB
:100CC00001C0FAF6000188D5AAD00601F96BF7C673
:100CD000F8F6FB6B210EFA6F0001AFEC01F001504A
:100CE000020F0601F86F000E0220F96F010EF825C1
:100CF000016E000EF921036E01503E0F016E010ED0
:100D000003220150090FE96E000E0320EA6EEFCFB7
:100D1000FAF6FAC6FBF6010EFC6F0F0EFE6F920E8E
:100D2000FD6F0001C0EC01F0FAC6FBF60F0E0601E4
:100D3000FD6F800EFC6F0001E1EC01F001A025D0F9
:100D40000601F96BF7C6F8F6FB6B210EFA6F00018E
:100D5000AFEC01F00150020F0601F86F000E022007
:100D6000F96F010EF825016E000EF921036E015096
:100D70003E0F016E010E03220150060FE96E000EB8
:100D80000320EA6EEF8024D000010601F96BF7C65C
:100D9000F8F6FB6B210EFA6F0001AFEC01F0015089
:100DA000020F0601F86F000E0220F96F010EF82500
:100DB000016E000EF921036E01503E0F016E010E0F
:100DC00003220150060FE96E000E0320EA6EEF9039
:100DD000F96BF7C6F8F6FB6B210EFA6F0001AFEC6A
:100DE00001F00150020F0601F86F000E0220F96FAA
:100DF000010EF825016E000EF921036E01503E0F21
:100E0000016E010E032201C0F8F603C0F9F603C01B
:100E1000FBF601C0FAF600016FD501D000D0060143
:100E2000F72BE1D5000122EF07F0010E06013B2769
:100E3000D8B03C2BD8B43D2BD8B43E2B3BA303D029
:100E40000001CFD50601F29400018EEF00F0B58BC2
:100E50009E908EEF00F00601462B4651C8080CE12B
:100E6000466B010E2426D8B0252AD8B4262AD8B439
:100E7000272A0001B58906019E9200018EEF00F03D
:100E8000050180C582FF7FC583FF0001B5A511D094
:100E9000B595B5A708D0B597050E05017C6F910EE5
:100EA0007B6F07D00001B587050E05017C6FD50E5D
:100EB0007B6F05017D6B0601F96BFA6BD890F935F4
:100EC000006ED8900036005005017B250601FD6FAD
:100ED000000E05017C210601FE6FD890FA35FD2534
:100EE000FB6F000EFE21FC6FD890F935006ED89094
:100EF0000036005005017B250601FD6F000E05013F
:100F00007C210601FE6FD890FA35FD25016E000E9A
:100F1000FE21036E01C0E9FFEA6EEFCF01F0E92A7E
:100F2000EF50E906026E02C0F8F601C0F7F6D8905D
:100F30000134026EF835036E02500001D3EC00F06C
:100F40000900F5CF03F0BE6E03C0BFFF100E06010F
:100F5000F96FFA6BD890F935006ED89000360050D2
:100F600005017B250601FD6F000E05017C210601B0
:100F7000FE6FD890FA35FD25FB6F000EFE21FC6F49
:100F8000D890F935006ED8900036005005017B25C9
:100F90000601FD6F000E05017C210601FE6FD89051
:100FA000FA35FD25016E000EFE21036E01C0E9FF3A
:100FB000EA6EEFCF01F0E92AEF50E906026E01C0B8
:100FC0007EF5CF6ACE6A0001B59BF2928EEF00F0FB
:100FD00005017E53D8B492D07DC5F9F6010E060105
:100FE000FA6FD890F935006ED890003600500501A0
:100FF0007B250601FD6F000E05017C210601FE6FB9
:10100000D890FA35FD25FB6F000EFE21FC6FD890BD
:10101000F935006ED8900036005005017B25060199
:10102000FD6F000E05017C210601FE6FD890FA3598
:10103000FD25016E000EFE21036E01C0E9FFEA6E80
:10104000EFCF01F0E92AEF50E906026E02C0F8F690
:1010500001C0F7F6F8518216F751831605017D2B72
:101060007E077DC5F9F60601FA6BD890F935006E5A
:10107000D8900036005005017B250601FD6F000E5B
:1010800005017C210601FE6FD890FA35FD25FB6F26
:10109000000EFE21FC6FD890F935006ED890003616
:1010A000005005017B250601FD6F000E05017C2126
:1010B0000601FE6FD890FA35FD25016E000EFE2167
:1010C000036E01C0E9FFEA6EEFCF01F0E92AEF50AD
:1010D000E906026E02C0FAF601C0F9F6D8900134B2
:1010E000026EFA35036E02500001D3EC00F00900E5
:1010F000F5CF03F0BE6E03C0BFFF05019E94000153
:101100008EEF00F09E9A8EEF00F09E988EEF00F02A
:10111000A1968EEF00F0B58DA19E8EEF00F0070135
:10112000196B186B176B166B14C71BF713C71AF7DD
:101130001553D8B493D01BC703F01AC7E9FF1BC7D8
:10114000EAFFEFCF00F0016A026A036A03C019F7F1
:1011500002C018F701C017F700C016F71A51D8B42B
:101160001B071A071AC7E9FF1BC7EAFFEF501E6BE0
:101170001D6B1C6F006A005016131C5117131D5174
:1011800018131E5119131A51D8B41B071A071AC77E
:10119000E9FF1BC7EAFFEF501F6B1E6B1D6B1C6F37
:1011A000030E1C171D6B1E6B1F6B006A016A00503B
:1011B0001613015017131C5118131D5119131AC778
:1011C000E9FF1BC7EAFFEF501F6B1E6B1D6B1C6F07
:1011D000E00E1C171D6B1E6B1F6B006A1C35016E29
:1011E0001D35026E1E35036E01360236033601369A
:1011F000023603360136023603360136023603362E
:10120000E00E011600501613015017130250181368
:10121000035019131A51D8B41B071A071AC7E9FF4C
:101220001BC7EAFFEF501D6B1C6F006A016A1C357B
:10123000026E1D35036E0236033602360336023661
:10124000033602360336E00E021600501613015024
:101250001713025018130350191353D0020E1A5FBC
:10126000000E1B5B1AC7E9FF1BC7EAFFEF501F6B9D
:101270001E6B1D6B1C6FE00E1C171D6B1E6B1F6B16
:101280001F31196F1E31186F1D31176F1C31166F0A
:1012900019331833173316331933183317331633FA
:1012A00019331833173316331933183317331633EA
:1012B000070E19171A51D8B41B071A071AC7E9FFE6
:1012C0001BC7EAFFEF501F6B1E6B1D6B1C6F1C359D
:1012D000006E1D35016E1E35026E1F35036E003621
:1012E0000136023603360036013602360336F80E72
:1012F0000016005016130150171302501813035014
:10130000191316C700F017C701F018C702F019C764
:1013100003F00001000C2850FF0801E1282A2850A2
:101320000908D8A055D1060E0701086FFD0E076FFA
:1013300060AE18D0F10E6F146F6E0601FC99A49088
:10134000FC9174BEFC81749E60A40BD0000E60B052
:10135000010E070B006ED8900036F10EFC15001040
:10136000FC6F20D00F0150AF19D0F10E6F140A0995
:101370006F6E0601FC89A492FC9174BCFC81749C84
:101380000F015051070B070B006ED8900036F10E7D
:101390000601FC150010FC6F05D00F01000E016E58
:1013A00050D0060165500F0BFB6FFC9B65BCFC8B9E
:1013B000FC9D62B6FC8D000EFCBD010E07010C6F9A
:1013C0000F0E146F640E136F0CC715F70001A7DE24
:1013D00003C0FAF602C0F9F601C0F8F600C0F7F64D
:1013E0000F0E07010B6F660E0A6F096B0601FB51AA
:1013F0000701095D14E20AC7E9FF0BC7EAFFEFCF57
:101400000EF708C7EAFF07C7E9FF0EC7EFFF072B74
:10141000D8B4082B0A2BD8B40B2B092BE7D7F10E25
:101420006F146F6E0601FC9FA4BEFC8FA49EFCA9E6
:1014300004D00F01509F03D00601609E0F01010EE2
:10144000016E0701066B065322E10651040DF350AD
:10145000036A390FE96E010E0320EA6EEFCF00F048
:10146000ECCF01F0ECCF02F0ECCF03F0005006011E
:10147000F75D0AE10150F85D07E10250F95D04E112
:101480000350FA5D01E134D10701062BDCD7285067
:101490000E0DF350086B076F290E0725E96E000E3D
:1014A0000821EA6E0601FAC6EFFF28500E0DF35030
:1014B0000701086B076F010E0725016E000E08215A
:1014C000036E0150290FE96E000E0320EA6E06013B
:1014D000F9C6EFFF28500E0DF3500701086B076F98
:1014E000020E0725016E000E0821036E0150290F20
:1014F000E96E000E0320EA6E0601F8C6EFFF2850E1
:101500000E0DF3500701086B076F030E0725016EE0
:10151000000E0821036E0150290FE96E000E032012
:10152000EA6E0601F7C6EFFF28500E0DF3500701D3
:10153000086B076F040E0725016E000E0821036E6D
:101540000150290FE96E000E0320EA6EFBC6EFFF83
:1015500028500E0DF350086B076F050E0725016E1E
:10156000000E0821036E0150290FE96E000E0320C2
:10157000EA6EFCC6EFFF056B0601FB510701055D36
:1015800024E228500E0DF350086B076F060E052558
:10159000036A0725016E085103220150290F016ECD
:1015A000000E032203C008F7036A0551FD0FE96E20
:1015B000060E0320EA6EEFCF09F708C7EAFF01C065
:1015C000E9FF09C7EFFF052BD7D7282A90D00001E4
:1015D000060E0701086FFD0E076F60AE18D0F10E02
:1015E0006F146F6E0601FC99A490FC9174BEFC818F
:1015F000749E60A40BD0000E60B0010E070B006E4D
:10160000D8900036F10EFC150010FC6F20D00F01B1
:1016100050AF19D0F10E6F140A096F6E0601FC89E4
:10162000A492FC9174BCFC81749C0F015051070B77
:10163000070B006ED8900036F10E0601FC15001065
:10164000FC6F05D00F01000E016E50D006016550F1
:101650000F0BFB6FFC9B65BCFC8BFC9D62B6FC8D8D
:10166000000EFCBD010E07010C6F0F0E146F640E0F
:10167000136F0CC715F7000152DD03C0FAF602C064
:10168000F9F601C0F8F600C0F7F60F0E07010B6F70
:10169000660E0A6F096B0601FB510701095D14E232
:1016A0000AC7E9FF0BC7EAFFEFCF0EF708C7EAFF4B
:1016B00007C7E9FF0EC7EFFF072BD8B4082B0A2B8B
:1016C000D8B40B2B092BE7D7F10E6F146F6E060100
:1016D000FC9FA4BEFC8FA49EFCA904D00F01509FC8
:1016E00003D00601609E0F01010E016E0701060185
:1016F0000001000C10DEA4908EEF00F00CDEA4922E
:101700008EEF00F018C71FF717C71EF707011D530C
:1017100052E01EC7E9FF1FC7EAFF19C7EFFF1E51BE
:10172000D8B41F071E071EC7E9FF1FC7EAFF1AC765
:10173000EFFF1E51D8B41F071E071EC7E9FF1FC7C2
:10174000EAFF1B51030BEF6E1EC7E9FF1FC7EAFF3D
:101750001BC700F0003600360036F80E00160050A9
:10176000E00BEF10EF6E1EC7E9FF1FC7EAFFEF5057
:101770000809EF6E1E51D8B41F071E071EC7E9FFE8
:101780001FC7EAFF1BC700F0003A0032070E001621
:101790000050070BEF6E1EC7E9FF1FC7EAFF1CC70B
:1017A00000F0003600360036F80E00160050F80B38
:1017B000EF10EF6E3FD01EC7E9FF1FC7EAFFEF6AC9
:1017C0001E51D8B41F071E071EC7E9FF1FC7EAFF37
:1017D000EF6A1E51D8B41F071E071EC7E9FF1FC7B7
:1017E000EAFF19C700F0003A0036E00E001600507C
:1017F000E00BEF6E1E51D8B41F071E071EC7E9FF8E
:101800001FC7EAFF19C700F00032003200321F0E76
:10181000001600501F0BEF6E1EC7E9FF1FC7EAFF3F
:101820001AC700F0003A0036E00E00160050E00B38
:10183000EF10EF6E0001000C0F0E0701156F660E22
:10184000146F0F0140B708D0F10E6F1408096F6EC6
:101850000701166B1BD00F0130B709D0F10E6F14C2
:1018600006096F6E010E0701166F10D00F0120B729
:1018700009D0F10E6F1404096F6E020E0701166F86
:1018800005D00F01000E016E3DD007011051030B72
:10189000006EFC0E60140010606E0F0E186F640E68
:1018A000176F0CC71CF70BC71BF70AC71AF709C736
:1018B00019F711C71DF7000125DF0FC765FF659CEC
:1018C000070112B1658C136B0F51135D14E20DC744
:1018D000E9FF0EC7EAFFEFCF19F715C7EAFF14C7F4
:1018E000E9FF19C7EFFF142BD8B4152B0D2BD8B473
:1018F0000E2B132BE9D76086F10E6F146F6E010E5D
:10190000016E0F01000192EF0DF0B6510A0801E1DE
:10191000B607B651FF08D8B407D1B6510D0DF35034
:101920000701086B076FB70E0725E96E000E082147
:10193000EA6EEFCF07F70001B6510D0DF350070126
:10194000096B086F010E0825016E000E0921036E58
:101950000150B70FE96E000E0320EA6EEFCF08F7D3
:101960000001B6510D0DF35007010A6B096F020E0D
:101970000925016E000E0A21036E0150B70FE96EB2
:10198000000E0320EA6EEFCF09F70001B6510D0DEE
:10199000F35007010B6B0A6F030E0A25016E000E50
:1019A0000B21036E0150B70FE96E000E0320EA6EA3
:1019B000EFCF0AF707C7FAF608C7F9F609C7F8F62E
:1019C0000AC7F7F60001B6510D0DF3500701086B79
:1019D000076F0C0E0725016E000E0821036E0150E3
:1019E000B70FE96E000E0320EA6EEF380601FB6FB9
:1019F0000F0EFB170001B6510D0DF3500701086BD8
:101A0000076F0C0E0725016E000E0821036E0150B2
:101A1000B70FE96E000E0320EA6EEF500C0B006E5C
:101A200000300601FC6FFC333F0EFC170001B6517D
:101A30000D0DF3500701086B076F0C0E0725016EA3
:101A4000000E0821036E0150B70FE96E000E03204F
:101A5000EA6EEFCF07F7059107B305810001B65194
:101A60000D0DF3500701086B076F0C0E0725016E73
:101A7000000E0821036E0150B70FE96E000E03201F
:101A8000EA6EEFCF07F7059307B10583066B0601F2
:101A9000FB510701065D28E2036A0651FD0F016E46
:101AA000060E032201C007F703C008F70001B65174
:101AB0000D0DF35007010A6B096F040E0625036A2A
:101AC0000925016E0A5103220150B70FE96E000E7D
:101AD0000320EA6EEFCF09F708C7EAFF07C7E9FF5F
:101AE00009C7EFFF062BD3D7000E05B1010E076F14
:101AF000000E05B3010E086FFAC60CF7F9C60BF716
:101B0000F8C60AF7F7C609F7060E0E6FFD0E0D6F41
:101B1000FBC60FF7FCC610F707C711F708C712F787
:101B200000018AD6B60701D000D0000CEEDEA494E6
:101B30008EEF00F0EADEA4968EEF00F0E6DEA498C9
:101B40008EEF00F0A49E8EEF00F0A49A8EEF00F0CE
:101B5000737461727420254C750A0D0006017F397B
:101B6000700B006ED89000361F0E6F1400106F6E51
:101B70006ECF00F0003A0030070B7F5DF9E1000105
:101B8000000CC00E70140409706E3F0E7014706E5D
:101B9000F80E71140209716EC70E71142809716E66
:101BA000719C718EF80E72140509726E729CDFEFD3
:101BB0000DF0040E06017F6F0001D0DFE2D7606AEE
:101BC0009F0E6014606E608460CF50FF739A7398AC
:101BD000739E739C1B6AF2BE1B8EF29E0F0E070152
:101BE000186F1B0E176F1C6B1B6B1A6B196B1D6B21
:101BF000000188DD1BBEF28E1B6AF2BE1B8EF29EB8
:101C00000F0E0701186F030E176F1C6B1B6B1A6BFF
:101C1000196B1D6B000176DD1BBEF28E1B6AF2BED6
:101C20001B8EF29E0F0E0701186F070E176F1C6BAD
:101C30001B6B1A6B196B1D6B000164DD1BBEF28EF2
:101C40001B6AF2BE1B8EF29E0F0E0701186F1F0E4D
:101C5000176F1C6B1B6B1A6B196B1D6B000152DD30
:101C60001BBEF28E1B6AF2BE1B8EF29E0F0E070188
:101C7000186F0B0E176F1C6B1B6B1A6B196B1D6BA0
:101C8000000140DD1BBEF28E1B6AF2BE1B8EF29E6F
:101C90000F0E0701186F176F1C6B1B6B1A6B196BFC
:101CA0001D6B00012FDD1BBEF28E1B6AF2BE1B8E68
:101CB000F29E0F0E0701186F130E176F1C6B1B6B34
:101CC0001A6B196B1D6B00011DDD1BBEF28E1B6AAA
:101CD000F2BE1B8EF29E0F0E0701186F170E176FC4
:101CE0001C6B1B6B1A6B196B1D6B00010BDD1BBE94
:101CF000F28E9350FB0B08090601936E7F6B000177
:101D00002DDF84EF0EF055D7040E06017F6F000122
:101D100025DFC00E70140409706E3F0E7014706ED3
:101D2000F80E71140209716EC70E71142809716ED4
:101D3000719C719EF80E72140509726E728C060108
:101D40007F6B00010BDF810ED56E950ECD6E600EA0
:101D50000609CA6EF10ECB6E0A0EBD6EF18CC15033
:101D6000C00B0F09C16EC050C00BC06EC09EC280B8
:101D70009698C69A010EC66E000EC76E070EB46E18
:101D80009550956E9650966E0400200E006E002EB3
:101D9000FED700D0B450A19CB56AB16AD1809392AD
:101DA0008A92939C8A9C939E8A9EF3EF3EF095C6FE
:101DB000AAFF94C6A9FF96C6A8FFA69CA69EA684C5
:101DC000F250006EF29E0F01550EA76EAA0EA76E7E
:101DD000A682A6B2FED7A6940050F2120001000C13
:101DE0003AC695F639C694F6010E0601966F0001C3
:101DF000DEDF0601392BD8B43A2B3AC695F639C640
:101E000094F67FC696F60001D2DF0601392BD8B4CE
:101E10003A2B3AC695F639C694F680C696F6000176
:101E2000C6DF0601392BD8B43A2B3AC695F639C627
:101E300094F681C696F60001BADF0601392BD8B4B4
:101E40003A2B0001000C0601906B8F51905D1BE254
:101E500090518D25916F000E8E21926F8CC603F0EC
:101E60008BC6E9FF8CC6EAFFEFCF93F6956F91C65C
:101E700094F693C696F600019ADF06018B2BD8B430
:101E80008C2B902BE2D70001000C3AC695F639C690
:101E900094F6640E0601966F000189DF0601392B66
:101EA000D8B43A2B80C68CF67FC68BF63AC68EF62F
:101EB00039C68DF6080E8F6F0001C5DF080E0601CA
:101EC0003927000E3A2382C68CF681C68BF63AC6B5
:101ED0008EF639C68DF6080E8F6F0001B4DF080E3E
:101EE00006013927000E3A233AC695F639C694F60C
:101EF00083C696F600015BDF0601392BD8B43A2B76
:101F00000001000C939A8A9A080E016E00D000001E
:101F1000018E10D0019E06018F330001D8B08A8A4D
:101F2000D8A08A9A018C06D0019C012EF4D700D04B
:101F300000008A8A160EE96EE92EFED700D0040052
:101F400001BEE8D701BCF0D7000C0900F6CF8AF635
:101F5000F7CF8BF6F8CF8CF6F5CF8FF6D3DF8AC6A6
:101F6000F6FF8BC6F7FF8CC6F8FF0601892F01D05C
:101F700002D00001EAD70001000C06019051016A6D
:101F80008F5D03E28FC600F00CD0006A080E916FDF
:101F90008F3700369051005CD8B0006E0136912F1B
:101FA000F7D70001000C200E06018AA9300E8B6FB6
:101FB00089C600F089AF07D0001E002A00C089F64C
:101FC0002D0E8B6F8A8F015089C68FF6640E906F2D
:101FD0000001D3DF00C089F6300E012406018C6FAA
:101FE00089C68FF60A0E906F0001C7DF300E0024FD
:101FF00006018E6F300E01248D6F8BC600F08AA70C
:1020000002D08AAF8A958AB90BD08AAF22D08AB51E
:1020100020D000C08CF68AB31CD000C08DF619D039
:10202000300E8C5D16E100C08CF6200E8B6F8AA7F7
:1020300004D08A958A838AAF8A93300E8D5D09E138
:1020400000C08DF6200E8C6F8AA7F7D78A938AAFCF
:102050008A918AA505D08BC68FF6000153DF060151
:102060008AA305D08CC68FF600014CDF06018AA139
:1020700004D08DC68FF6000145DF8EC68FF60001B5
:1020800041DF74EF10F03AC695F639C694F6030EA8
:102090000601966F00018BDE0601392BD8B43A2B6E
:1020A00080C68CF67FC68BF63AC68EF639C68DF69C
:1020B000080E8F6F0001C7DE06017FC6E9FF80C6EC
:1020C000EAFFEFCF88F62C0EF66E030EF76E000EC9
:1020D000F86E0A0E896F000138DF88C689F61F0E78
:1020E00006018A6F00015FD7080E06013927000E2E
:1020F0003A2382C68CF681C68BF63AC68EF639C66E
:102100008DF6080E8F6F00019EDE080E060139273E
:10211000000E3A233AC695F639C694F683C696F66B
:10212000000145DE0601392BD8B43A2B3AC695F6A4
:1021300039C694F684C696F6000139DE0601392BBD
:10214000D8B43A2B3AC695F639C694F685C696F6B3
:1021500000012DDE0601392BD8B43A2B87C688F64C
:102160003AC695F639C694F687C696F600011FDE84
:102170000601392BD8B43A2B86C688F63AC695F6AE
:1021800039C694F686C696F6000111DE0601392B93
:10219000D8B43A2B00015DEF3FF03AC695F639C648
:1021A00094F6020E0601966F000101DE0601392B3E
:1021B000D8B43A2B3AC695F639C694F67FC696F649
:1021C0000001F5DD0601392BD8B43A2B3AC695F655
:1021D00039C694F680C696F60001E9DD0601392B72
:1021E000D8B43A2B3AC695F639C694F681C696F617
:1021F0000001DDDD0601392BD8B43A2B3AC695F63D
:1022000039C694F682C696F60001D1DD0601392B57
:10221000D8B43A2B0001000C3AC695F639C694F6AC
:10222000660E0601966F0001C2DD0601392BD8B497
:102230003A2B80C68CF67FC68BF63AC68EF639C628
:102240008DF6080E8F6F0001FEDD080E060139279E
:10225000000E3A2382C68CF681C68BF63AC68EF6FD
:1022600039C68DF6080E8F6F0001EDDD080E0601F0
:102270003927000E3A2384C68CF683C68BF63AC6FD
:102280008EF639C68DF6080E8F6F0001DCDD080E64
:1022900006013927000E3A2386C68CF685C68BF6D2
:1022A0003AC68EF639C68DF6080E8F6F0001CBDD6B
:1022B000080E06013927000E3A233AC695F639C6AC
:1022C00094F687C696F6000172DD0601392BD8B464
:1022D0003A2B3AC695F639C694F688C696F60001AA
:1022E00066DD0601392BD8B43A2B3AC695F639C6C5
:1022F00094F689C696F600015ADD0601392BD8B44A
:102300003A2B3AC695F639C694F68AC696F6000177
:102310004EDD0601392BD8B43A2B0001EAEF3FF02D
:102320000601DEC6E9FFDFC6EAFF010EEF6EDCC67E
:10233000E1F6DDC6E4F6E783EC6FE391E691E26B4C
:10234000E56B036AE0511C0FE96E000E0320EA6E94
:10235000EFCFEDF6010EDE25E96E000EDF21EA6E0D
:10236000060EE26EE10EE16E200E016EE6CFEEFF8C
:10237000012EFCD7000101EF17F00601DFC6E9FFCF
:10238000E0C6EAFFEF6A010EDF25016E000EE021D4
:1023900001C0E9FFEA6EDCC6EFFF010EDF25016E2A
:1023A000000EE021036E0150030FE96E000E0320C2
:1023B000EA6EDDC6EFFF010EDF25016E000EE021A3
:1023C000036E0150060FE96E000E0320EA6EDEC6B2
:1023D000EFFF010EDF25016E000EE021036E0150BC
:1023E0000E0FE96E000E0320EA6EEF82010EDF256C
:1023F000016E000EE021036E01500F0FE96E000E1A
:102400000320EA6E010EEF6EDF25016E000EE02163
:10241000036E0150090FE96E000E0320EA6EEF6AA9
:10242000010EDF25016E000EE021036E01500E0F3C
:10243000E96E000E0320EA6EEF94010EDF25016EB7
:10244000000EE021036E0150020FE96E000E032022
:10245000EA6EEF90010EDF25016E000EE021036EA3
:102460000150050FE96E000E0320EA6EEF90010E99
:10247000DF25016E000EE021036E0150080FE96EAA
:10248000000E0320EA6EEF80010EDF25016E000EC4
:10249000E021036E0150010FE96E000E0320EA6E89
:1024A000EF6A010EDF25016E000EE021036E015080
:1024B000040FE96E000E0320EA6EEF6A010EDF25BD
:1024C000016E000EE021036E0150070FE96E000E51
:1024D0000320EA6E010EEF6EDF25016E000EE02193
:1024E000036E0150100F016E000E032203C0E5F6CB
:1024F000036AE1511C0FE96E000E0320EA6EEFCF74
:10250000E6F6E5C6EAFF01C0E9FFE6C6EFFF010E09
:10251000DF25016E000EE021036E01500A0FE96E07
:10252000000E0320EA6EEE52EE52EC6AED52EF6AB4
:10253000ED52EF6AED52EF6A000176EF17F00601F7
:10254000DFC6E9FFE0C6EAFF020EEF6EDDC6E3F686
:10255000DEC6E6F6E983010EEA6FE591E891E46BE9
:10256000E76BEB91E2B1EB81036AE1511C0FE96E7D
:10257000000E0320EA6EEFCFECF6010EDF25E96EC8
:10258000000EE021EA6E060EE26EE30EE16E200E12
:10259000016EE6CFEEFF012EFCD70001F1EF17F040
:1025A0000601DF6BDE51DF5D1FE2DBC603F0DA51AF
:1025B000E96E03C0EAFFDF51DC25E26F000EDD218A
:1025C000E36FF2CFE4F6F29EE3C6AAFFE2C6A9FFEC
:1025D000A69CA69EA680A850E4BFF28EEF6EDA2BD2
:1025E000D8B4DB2BDF2BDED70001000C0601F36B28
:1025F000F251F35D19E2036AF351F025016EF151D6
:10260000032203C0F5F6EEC6E9FFEFC6EAFFEFCFFF
:10261000F6F6F5C6EAFF01C0E9FFF6C6EFFFEE2BBE
:10262000D8B4EF2BF32BE4D70001000C0601E2C66F
:10263000E9FFE3C6EAFF030EEF6E010EE225016E2D
:10264000000EE321036E0150050FE96E000E03201A
:10265000EA6EEF90010EE225016E000EE321036E9B
:102660000150080FE96E000E0320EA6EEF90010E94
:10267000E225016E000EE321036E0150040FE96EA6
:10268000000E0320EA6EEF6A010EE225016E000ED5
:10269000E321036E0150070FE96E000E0320EA6E7E
:1026A000EF6A010EE225016E000EE321036E015078
:1026B000120FE96E000E0320EA6EEF90010EE22584
:1026C000016E000EE321036E01501C0FE96E000E37
:1026D0000320EA6EEF90010EE225016E000EE32169
:1026E000036E0150110FE96E000E0320EA6EEF6ACF
:1026F000010EE225016E000EE321036E01501B0F57
:10270000E96E000E0320EA6EEF6A010EE225016E0B
:10271000000EE321036E01501D0FE96E000E032031
:10272000EA6EEC6AED52EF6A010EE225016E000ED0
:10273000E32101C0E9FFEA6EE4C6EFFF010EE225E6
:10274000016E000EE321036E01501F0FE96E000EB3
:102750000320EA6EEF90010EE225016E000EE321E8
:10276000036E0150010FE96E000E0320EA6EE6C60B
:10277000ECFFED52E5C6EFFF010EE225016E000E03
:10278000E321036E0150030FE96E000E0320EA6E91
:10279000E0C6EFFF010EE225016E000EE321036E9D
:1027A0000150060FE96E000E0320EA6EE1C6EFFF4E
:1027B000010EE225016E000EE321036E0150090FA8
:1027C000016E000E032201C0E9F603C0EAF6DDC681
:1027D000EFF6DCC6EEF603C0F1F601C0F0F6080E27
:1027E000F26F000103DF010E0601E225016E000E0B
:1027F000E321036E0150130F016E000E032201C08E
:10280000E9F603C0EAF6DFC6EFF6DEC6EEF603C071
:10281000F1F601C0F0F6080EF26F0001E7DEAAEF54
:1028200018F00601E2C6E9FFE3C6EAFF650EEF6EA7
:10283000010EE225016E000EE321036E01501D0F13
:10284000E96E000E0320EA6EEF90010EE225016EA4
:10285000000EE321036E0150090FE96E000E032004
:10286000EA6EEF90010EE225016E000EE321036E89
:102870000150130FE96E000E0320EA6EEF90010E77
:10288000E225016E000EE321036E01501C0FE96E7C
:10289000000E0320EA6E7F0EEF6E010EE225016E40
:1028A000000EE321036E0150080FE96E000E0320B5
:1028B000EA6EEF6A010EE225016E000EE321036E5F
:1028C0000150120FE96E000E0320EA6EEF6A010E4E
:1028D000E225016E000EE321036E01501F0FE96E29
:1028E000000E0320EA6EE4C6EFFF010EE225016E42
:1028F000000EE321036E0150140F016E000E03223F
:1029000001C0E7F603C0E8F6DDC6EFF6DCC6EEF67A
:1029100003C0F1F601C0F0F6080EF26F000166DEAA
:10292000010E0601E225016E000EE321036E01C0D7
:10293000E7F6E86FDFC6EFF6DEC6EEF6F16F01C030
:10294000F0F6080EF26F000151DE010E0601E225DD
:10295000016E000EE321036E01500A0F016E000E9E
:10296000032201C0E7F603C0E8F6E1C6EFF6E0C6D1
:10297000EEF603C0F1F601C0F0F6080EF26F0001AA
:1029800035DE010E0601E225016E000EE321036E25
:1029900001501E0FE96E000E0320EA6E010EEF6E6D
:1029A000000129EF19F00601E4C6E9FFE5C6EAFFD8
:1029B000660EEF6E010EE425016E000EE521036E3A
:1029C0000150090FE96E000E0320EA6EEF90010E30
:1029D000E425016E000EE521036E0150130FE96E30
:1029E000000E0320EA6EEF90010EE425016E000E4A
:1029F000E521036E0150080FE96E000E0320EA6E18
:102A0000EF6A010EE425016E000EE521036E015010
:102A1000120FE96E000E0320EA6EEF6A010EE42544
:102A2000016E000EE521036E01501D0FE96E000ED0
:102A30000320EA6EEF90010EE425016E000EE52101
:102A4000036E0150270FE96E000E0320EA6EEF902F
:102A5000010EE425016E000EE521036E01501C0FEE
:102A6000E96E000E0320EA6EEF6A010EE425016EA6
:102A7000000EE521036E0150260FE96E000E0320C3
:102A8000EA6EEF6A010EE425016E000EE521036E89
:102A90000150280FE96E000E0320EA6EE6C6EFFF34
:102AA000010EE425016E000EE521036E0150290F91
:102AB000E96E000E0320EA6EE7C6EFFF010EE42583
:102AC000016E000EE521036E01502B0FE96E000E22
:102AD0000320EA6EE9C6EFFF010EE425016E000E49
:102AE000E521036E01502C0FE96E000E0320EA6E03
:102AF000E8C6EFFF010EE425016E000EE521036E2E
:102B000001C0ECF6ED6FDDC6EFF6DCC6EEF6F16F58
:102B100001C0F0F6080EF26F000168DD010E06013B
:102B2000E425016E000EE521036E01500A0F016ECF
:102B3000000E032201C0ECF603C0EDF6DFC6EFF68F
:102B4000DEC6EEF603C0F1F601C0F0F6080EF26F35
:102B500000014CDD010E0601E425016E000EE521A9
:102B6000036E0150140F016E000E032201C0ECF63B
:102B700003C0EDF6E1C6EFF6E0C6EEF603C0F1F6EF
:102B800001C0F0F6080EF26F000130DD010E060103
:102B9000E425016E000EE521036E01501E0F016E4B
:102BA000000E032201C0ECF603C0EDF6E3C6EFF61B
:102BB000E2C6EEF603C0F1F601C0F0F6080EF26FC1
:102BC000000114DD010E0601E425016E000EE52171
:102BD000036E01502D0FE96E000E0320EA6E040E05
:102BE000EF6E0001F7EF19F00601E0C6E9FFE1C65C
:102BF000EAFF640EEF6E010EE025016E000EE1218A
:102C0000036E0150090FE96E000E0320EA6EEF908B
:102C1000010EE025016E000EE121036E0150130F3D
:102C2000E96E000E0320EA6EEF90010EE025016EC2
:102C3000000EE121036E0150080FE96E000E032023
:102C4000EA6EEF6A010EE025016E000EE121036ECF
:102C50000150120FE96E000E0320EA6EEF6A010EBA
:102C6000E025016E000EE121036E0150140FE96EA4
:102C7000000E0320EA6EE2C6EFFF010EE025016EB2
:102C8000000EE121036E01C0E5F6E66FDDC6EFF64A
:102C9000DCC6EEF6F16F01C0F0F6080EF26F00012F
:102CA000A5DC010E0601E025016E000EE121036E98
:102CB00001500A0F016E000E032201C0E5F603C0A9
:102CC000E6F6DFC6EFF6DEC6EEF603C0F1F601C0AB
:102CD000F0F6080EF26F000189DC60EF1AF00601D1
:102CE000806B7F6B816B826BF2CFDAF6F29E80C6CF
:102CF000AAFF7FC6A9FFA69CA69EA680A850DABF01
:102D0000F28EFF08D8B4E5D3F2CFDAF6F29E80C691
:102D1000AAFF7FC6A9FFA69CA69EA680A850DABFE0
:102D2000F28E010A000112E0010A72E0020AD8B430
:102D3000E4D0010AD8B45CD1660AD8B412D2030A2E
:102D4000D8B48ED2020AD8B459D3C1D306017F2B8E
:102D5000D8B4802BF2CFDAF6F29E80C6AAFF7FC6E7
:102D6000A9FFA69CA69EA680A850DABFF28E836F0C
:102D70007F2BD8B4802BF2CFDBF6F29E80C6AAFF61
:102D80007FC6A9FFA69CA69EA680A850DBBFF28E98
:102D9000846F7F2BD8B4802BF2CFDCF6F29E80C6F6
:102DA000AAFF7FC6A9FFA69CA69EA680A850DCBF4E
:102DB000F28E856F1B6AF2BE1B8EF29EF96B81C686
:102DC000F8F6FB6B210EFA6F0001AFEC01F01BBEB1
:102DD000F28E02C003F00150400F016E010E03227B
:102DE00001C0DAF603C0DBF683C6DCF684C6DDF686
:102DF00003C0DFF601C0DEF685C6E0F6000190EF05
:102E000011F00601812B7F2BD8B4802B00015FD3FA
:102E100006017F2BD8B4802BF2CFDAF6F29E80C663
:102E2000AAFF7FC6A9FFA69CA69EA680A850DABFCF
:102E3000F28E866F7F2BD8B4802BF2CFDAF6F29E1B
:102E400080C6AAFF7FC6A9FFA69CA69EA680A85002
:102E5000DABFF28E836F7F2BD8B4802BF2CFDAF6F5
:102E6000F29E80C6AAFF7FC6A9FFA69CA69EA6804A
:102E7000A850DABFF28E846F7F2BD8B4802BF2CFAC
:102E8000DAF6F29E80C6AAFF7FC6A9FFA69CA69E80
:102E9000A680A850DABFF28E856F1B6AF2BE1B8E29
:102EA000F29EF96B81C6F8F6FB6B210EFA6F0001FA
:102EB000AFEC01F01BBEF28E02C003F00150400FD8
:102EC000016E010E032201C0DAF603C0DBF686C6EE
:102ED000DCF683C6DDF684C6DEF603C0E0F601C08C
:102EE000DFF685C6E1F60001BDEF11F00601812B8A
:102EF0007F2BD8B4802B0001EAD206017F2BD8B4F7
:102F0000802BF2CFDAF6F29E80C6AAFF7FC6A9FF19
:102F1000A69CA69EA680A850DABFF28E836F7F2B58
:102F2000D8B4802BF2CFDAF6F29E80C6AAFF7FC615
:102F3000A9FFA69CA69EA680A850DABFF28E846F39
:102F40007F2BD8B4802BF2CFDAF6F29E80C6AAFF90
:102F50007FC6A9FFA69CA69EA680A850DABFF28EC7
:102F6000856F7F2BD8B4802BF2CFDAF6F29E80C625
:102F7000AAFF7FC6A9FFA69CA69EA680A850DABF7E
:102F8000F28E016E879101B087811B6AF2BE1B8EA3
:102F9000F29EF96B81C6F8F6FB6B210EFA6F000109
:102FA000AFEC01F01BBEF28E02C003F00150400FE7
:102FB000016E010E032201C0DAF6060103C0DBF642
:102FC000000E87B1010E83C6DDF684C6DEF603C0AF
:102FD000E0F601C0DFF685C6E1F6E26F00019FEF83
:102FE00012F00601812B7F2BD8B4802B00016FD209
:102FF00006017F2BD8B4802B060EDB6F880EDA6FAC
:1030000080C6DDF67FC6DCF6080EDE6F0001D0EC70
:1030100012F0080E06017F27000E8023060EDB6FDC
:10302000900EDA6F80C6DDF67FC6DCF6080EDE6F26
:103030000001D0EC12F0080E06017F27000E80235D
:10304000F2CFDAF6F29E80C6AAFF7FC6A9FFA69C41
:10305000A69EA680A850DABFF28E986F7F2BD8B4B8
:10306000802BF2CFDBF6F29E80C6AAFF7FC6A9FFB7
:10307000A69CA69EA680A850DBBFF28E996F7F2BE0
:10308000D8B4802BF2CFDCF6F29E80C6AAFF7FC6B2
:10309000A9FFA69CA69EA680A850DCBFF28E9A6FC0
:1030A0007F2BD8B4802BF2CFDDF6F29E80C6AAFF2C
:1030B0007FC6A9FFA69CA69EA680A850DDBFF28E63
:1030C0009C6B9B6F9BC69CF69B6B7F2BD8B4802B15
:1030D000F2CFDAF6F29E80C6AAFF7FC6A9FFA69CB1
:1030E000A69EA680A850DABFF28E9B131B6AF2BE82
:1030F0001B8EF29EF96B81C6F8F6FB6B210EFA6F00
:103100000001AFEC01F01BBEF28E02C003F00150D3
:10311000400F016E010E032201C0DAF6060103C062
:10312000DBF6060EDD6F880EDC6F060EDF6F900E8D
:10313000DE6F98C6E0F699C6E1F603C0E3F601C07B
:10314000E2F69AC6E4F69CC6E6F69BC6E5F60001F2
:1031500016EF13F00601812B7F2BD8B4802B0001D2
:10316000B6D1060E0601DB6F9D0EDA6F80C6DDF666
:103170007FC6DCF6080EDE6F0001D0EC12F0080E00
:1031800006017F27000E8023060EDB6FA50EDA6F87
:1031900080C6DDF67FC6DCF6080EDE6F0001D0ECDF
:1031A00012F0080E06017F27000E8023060EDB6F4B
:1031B000AD0EDA6F80C6DDF67FC6DCF6080EDE6F78
:1031C0000001D0EC12F0080E06017F27000E8023CC
:1031D0007F2BD8B4802BF2CFDAF6F29E80C6AAFFFE
:1031E0007FC6A9FFA69CA69EA680A850DABFF28E35
:1031F000B56F1B6AF2BE1B8EF29EF96B82C6F8F6A3
:10320000FB6B2F0EFA6F0001AFEC01F01BBEF28ECC
:1032100002C003F001508A0F016E020E032201C0AA
:10322000DAF6060103C0DBF6060EDD6F9D0EDC6FDD
:10323000060EDF6FA50EDE6F060EE16FAD0EE06FBE
:1032400003C0E3F601C0E2F6B5C6E4F6000111EFF3
:1032500014F00601822B7F2BD8B4802B000137D1CC
:10326000060E0601DB6FB60EDA6F80C6DDF67FC68E
:10327000DCF6080EDE6F0001D0EC12F0080E06013D
:103280007F27000E8023060EDB6FBE0EDA6F80C62E
:10329000DDF67FC6DCF6080EDE6F0001D0EC12F022
:1032A000080E06017F27000E8023060EDB6FC60E78
:1032B000DA6F80C6DDF67FC6DCF6080EDE6F000131
:1032C000D0EC12F0080E06017F27000E8023060EB8
:1032D000DB6FCE0EDA6F80C6DDF67FC6DCF6080E39
:1032E000DE6F0001D0EC12F0080E06017F27000E01
:1032F00080237F2BD8B4802BF2CFDAF6F29E80C6E3
:10330000AAFF7FC6A9FFA69CA69EA680A850DABFEA
:10331000F28ED66F7F2BD8B4802BF2CFDBF6F29EE5
:1033200080C6AAFF7FC6A9FFA69CA69EA680A8501D
:10333000DBBFF28ED76F7F2BD8B4802BF2CFDCF6B9
:10334000F29E80C6AAFF7FC6A9FFA69CA69EA68065
:10335000A850DCBFF28ED86F7F2BD8B4802BF2CF71
:10336000DDF6F29E80C6AAFF7FC6A9FFA69CA69E98
:10337000A680A850DDBFF28ED96F1B6AF2BE1B8EED
:10338000F29EF96B82C6F8F6FB6B2F0EFA6F000106
:10339000AFEC01F01BBEF28E02C003F001508A0FA9
:1033A000016E020E032201C0DAF6060103C0DBF64D
:1033B000060EDD6FB60EDC6F060EDF6FBE0EDE6F23
:1033C000060EE16FC60EE06F060EE36FCE0EE26FE3
:1033D00003C0E5F601C0E4F6D6C6E6F6D7C6E7F6C2
:1033E000D8C6E8F6D9C6E9F60001D3EF14F0060115
:1033F000822B7F2BD8B4802B000169D0060E0601EA
:10340000DB6FA50EDA6F80C6DDF67FC6DCF6080E30
:10341000DE6F0001D0EC12F0080E06017F27000ECF
:103420008023060EDB6FAD0EDA6F80C6DDF67FC639
:10343000DCF6080EDE6F0001D0EC12F0080E06017B
:103440007F27000E80237F2BD8B4802BF2CFDAF6B3
:10345000F29E80C6AAFF7FC6A9FFA69CA69EA68054
:10346000A850DABFF28EB56F1B6AF2BE1B8EF29EB9
:10347000F96B82C6F8F6FB6B2F0EFA6F0001AFEC0A
:1034800001F01BBEF28E02C003F001508A0F016EE4
:10349000020E032201C0DAF6060103C0DBF6060EB7
:1034A000DD6FA50EDC6F060EDF6FAD0EDE6F03C0A5
:1034B000E1F601C0E0F6B5C6E2F60001F4EF15F062
:1034C0000601822B7F2BD8B4802B000100D006018F
:1034D0000BD481C63EF182C63FF10001F6EF3FF00A
:1034E0000601C16BC281C36B05017A510601C35D40
:1034F00047E2C351040DF350C86BC76F810EC72557
:10350000016E060EC821036EC86F036AC351810F96
:10351000E96E050E0320EA6EEF50036AC8C6EAFFA3
:1035200001C0E9FF03C0ECFFED52EF6EC351040D83
:10353000F350C86BC76F020EC725016E000EC8217D
:10354000036E0150810F016E060E032203C0C8F600
:10355000D890C335036A190FE96E060E0320EA6E90
:10356000ECCF03F0ED52EFCFC9F6C8C6EAFF01C0B9
:10357000E9FF03C0ECFFED52C9C6EFFFC32BB4D780
:10358000C2A1E3D0C291C36B010E05017A5D0601B1
:10359000C35DD8B0D9D0C351040DF350C86BC76F09
:1035A000810EC725E96E060EC821EA6EECCFC8F67B
:1035B000ED52EFCFC7F6010EC325040DF350CA6BD1
:1035C000C96F810EC925E96E060ECA21EA6EECCFDD
:1035D00003F0ED52EFCF01F0C851035CD8A0B2D098
:1035E00004E10150C75DD8B0ADD0C281C351040D14
:1035F000F350C86BC76F810EC725E96E060EC82150
:10360000EA6EECCF03F0ED52EFCFC4F603C0C5F67F
:10361000C351040DF350C86BC76F810EC725016EEF
:10362000060EC821036EC86F010EC325040DF350AA
:10363000CA6BC96F810EC925E96E060ECA21EA6EF2
:10364000ECCF03F0ED52EFCFC9F6C8C6EAFF01C0D8
:10365000E9FF03C0ECFFED52C9C6EFFF010EC32521
:10366000040DF350C86BC76F810EC725E96E060EB7
:10367000C821EA6EC5C6ECFFED52C4C6EFFFC351C8
:10368000040DF350C86BC76F020EC725016E000E04
:10369000C821036E0150810FE96E060E0320EA6E09
:1036A000ECCF03F0ED52EFCFC4F603C0C5F6C35123
:1036B000040DF350C86BC76F020EC725016E000ED4
:1036C000C821036E0150810F016E060E032201C056
:1036D000C7F603C0C8F6010EC325040DF350CA6B2C
:1036E000C96F020EC925016E000ECA21036E01507A
:1036F000810FE96E060E0320EA6EECCF03F0ED5267
:10370000EFCFC9F6C8C6EAFFC7C6E9FF03C0ECFFA2
:10371000ED52C9C6EFFF010EC325040DF350C86B6F
:10372000C76F020EC725016E000EC821036E01503F
:10373000810FE96E060E0320EA6EC5C6ECFFED525E
:10374000C4C6EFFFC32B20D71BD7815304E182539C
:1037500002E1C16BD0D1010EC16FC66B0001B5A7EC
:1037600009D082C692F581C691F584C694F583C6C8
:1037700093F508D082C6D6F581C6D5F584C6D8F5AE
:1037800083C6D7F5010E0601C36F05017A51060104
:10379000C35DD8B0B0D1C351040DF350C86BC76F2F
:1037A000810EC725E96E060EC821EA6EECCFC8F679
:1037B000ED52EFCFC7F6010EC35D040DF350CA6B97
:1037C000C96F810EC925E96E060ECA21EA6EECCFDB
:1037D00003F0ED52EF50C75D03E10350C85D02E016
:1037E000000E01D0010EC76FC351040DF350C96B19
:1037F000C86F810EC825E96E060EC921EA6EEF5228
:1038000002E1EC5202E0000E01D0010E000A02E0DB
:10381000000E01D0010EC715D8B49DD00001B5A788
:103820004DD00601C651040DF350C86BC76F020E90
:10383000C725016E000EC821036E0150910F016E65
:10384000050E032201C0C7F603C0C8F6C651040D19
:10385000F350CA6BC96F020EC925016E000ECA2152
:10386000036E0150910FE96E050E0320EA6EECCF56
:10387000CAF6ED52EFCFC9F6C351040DF350CC6B2D
:10388000CB6F020ECB25016E000ECC21036E0150D2
:10389000810FE96E060E0320EA6EECCF03F0ED52C5
:1038A000EF50C915006E0350CA15C8C6EAFFC7C657
:1038B000E9FFEC6EED5200C0EFFF4CD00601C6519F
:1038C000040DF350C86BC76F020EC725016E000EC2
:1038D000C821036E0150D50F016E050E032201C0F1
:1038E000C7F603C0C8F6C651040DF350CA6BC96FC2
:1038F000020EC925016E000ECA21036E0150D50FBC
:10390000E96E050E0320EA6EECCFCAF6ED52EFCF5A
:10391000C9F6C351040DF350CC6BCB6F020ECB250F
:10392000016E000ECC21036E0150810FE96E060E70
:103930000320EA6EECCF03F0ED52EF50C915006E94
:103940000350CA15C8C6EAFFC7C6E9FFEC6EED52C0
:1039500000C0EFFFCED0C351040DF350C86BC76F4A
:10396000810EC725E96E060EC821EA6EEF5202E10C
:10397000EC5202E0000E01D0010E000AD8A4B9D02A
:10398000C62B0001B5A75BD00601C651040DF3504C
:10399000C86BC76F910EC725016E050EC821036E57
:1039A000C86FC351040DF350CA6BC96F810EC9258E
:1039B000E96E060ECA21EA6EECCF03F0ED52EFCFAE
:1039C000C9F6C8C6EAFF01C0E9FF03C0ECFFED522B
:1039D000C9C6EFFFC651040DF350C86BC76F020E86
:1039E000C725016E000EC821036E0150910F016EB4
:1039F000050E032201C0C7F603C0C8F6C351040D6B
:103A0000F350CA6BC96F020EC925016E000ECA21A0
:103A1000036E0150810FE96E060E0320EA6EECCFB3
:103A200003F0ED52EFCFC9F6C8C6EAFFC7C6E9FFFB
:103A300003C0ECFFED52C9C6EFFF5AD000010601EA
:103A4000C651040DF350C86BC76FD50EC725016E64
:103A5000050EC821036EC86FC351040DF350CA6B25
:103A6000C96F810EC925E96E060ECA21EA6EECCF38
:103A700003F0ED52EFCFC9F6C8C6EAFF01C0E9FF77
:103A800003C0ECFFED52C9C6EFFFC651040DF35061
:103A9000C86BC76F020EC725016E000EC821036EEA
:103AA0000150D50F016E050E032201C0C7F603C0F9
:103AB000C8F6C351040DF350CA6BC96F020EC92575
:103AC000016E000ECA21036E0150810FE96E060ED1
:103AD0000320EA6EECCF03F0ED52EFCFC9F6C8C673
:103AE000EAFFC7C6E9FF03C0ECFFED52C9C6EFFF0E
:103AF000C12BC32B4AD60001B5A705D00501D26B57
:103B0000C1C6D1F504D00601166BC1C615F6000179
:103B1000B585000C0501D26BD16B0601166B156BD8
:103B2000050E05017C6F910E7B6F0001B597FF0EAE
:103B3000826E836E000E946E956EFF0E826E836EA3
:103B400006017F6B01013F5106017F5DD8B094D023
:103B50001B6AF2BE1B8EF29EF96B7FC6F8F6FB6BFA
:103B60002F0EFA6F0001AFEC01F01BBEF28E02C007
:103B700003F001508A0F016E020E032201C0E9FF1B
:103B800003C0EAFFEF50650A01E073D0D890050149
:103B90007A35036A190F016E060E032201C080F602
:103BA000060103C081F61B6AF2BE1B8EF29EF96B02
:103BB0007FC6F8F6FB6B2F0EFA6F0001AFEC01F039
:103BC0001BBEF28E01504C0F0601826F010E0220C7
:103BD000836F010E8225016E000E8321036E01505A
:103BE0003E0F016E010E032201501F0FE96E000E01
:103BF0000320EA6ED890EF34036A0001B9EC00F0BC
:103C00000900F5CF03F0060181C6EAFF80C6E9FF8F
:103C100003C0ECFFED52EF6E1B6AF2BE1B8EF29EEC
:103C2000F96B7FC6F8F6FB6B2F0EFA6F0001AFEC55
:103C300001F01BBEF28E01504C0F0601806F010E89
:103C40000220816F010E8025016E000E8121036E1E
:103C500001503E0F016E010E03220150200FE96E4C
:103C6000000E0320EA6E7AC5EFFF05017A2B0001F2
:103C700000D006017F2B66D705017A5312E00001C0
:103C8000B597050E05017C6F910E7B6F000128DC56
:103C9000050E05017C6FD50E7B6F0001B58720DC1A
:103CA00005010001F8EF3FF0060180917F6B0101F3
:103CB0003F5106017F5DD8B0FDEF27F01B6AF2BED1
:103CC0001B8EF29EF96B7FC6F8F6FB6B2F0EFA6F18
:103CD0000001AFEC01F01BBEF28E02C003F00150F8
:103CE0008A0F016E020E032201C0E9FF03C0EAFF42
:103CF000EF50650A09E0010AD8B4BCD2020AD8B470
:103D0000A2EF22F0F9EF27F01B6AF2BE1B8EF29EA3
:103D10000601F96B7FC6F8F6FB6B2F0EFA6F0001F8
:103D2000AFEC01F01BBEF28E01504C0F0601816F0B
:103D3000010E0220826F010E8125016E000E82218C
:103D4000036E01503E0F016E010E032201501D0F44
:103D5000E96E000E0320EA6EEFA0B2D01B6AF2BE3D
:103D60001B8EF29EF96B7FC6F8F6FB6B2F0EFA6F77
:103D70000001AFEC01F01BBEF28E01504C0F0601AA
:103D8000816F010E0220826F010E8125016E000EEF
:103D90008221036E01503E0F016E010E032201507D
:103DA0001E0FE96E000E0320EA6EEF5261E11B6AFE
:103DB000F2BE1B8EF29EF96B7FC6F8F6FB6B2F0EE0
:103DC000FA6F0001AFEC01F01BBEF28E01504C0FF8
:103DD0000601816F010E0220826F010E8125016EA6
:103DE000000E8221036E01503E0F016E010E032270
:103DF0000150200FE96E000E0320EA6E036AEF50B7
:103E0000810F016E050E032201C083F603C084F604
:103E10001B6AF2BE1B8EF29EF96B7FC6F8F6FB6B37
:103E20002F0EFA6F0001AFEC01F01BBEF28E0150B5
:103E30004C0F0601856F010E0220866F010E85254D
:103E4000016E000E8621036E01503E0F016E010EC1
:103E5000032201501C0FE96E000E0320EA6EEFCF23
:103E600087F684C6EAFF83C6E9FF87C6EFFF808135
:103E70001B6AF2BE1B8EF29EF96B7FC6F8F6FB6BD7
:103E80002F0EFA6F0001AFEC01F01BBEF28E015055
:103E90004C0F0601816F010E0220826F010E8125F9
:103EA000016E000E8221036E01503E0F016E010E65
:103EB000032201501D0FE96E000E0320EA6EEF9001
:103EC0001B6AF2BE1B8EF29EF96B7FC6F8F6FB6B87
:103ED0002F0EFA6F0001AFEC01F01BBEF28E015005
:103EE0004C0F0601816F010E0220826F010E8125A9
:103EF000016E000E8221036E01503E0F016E010E15
:103F000003220150130FE96E000E0320EA6EEFA0AA
:103F1000AAD01B6AF2BE1B8EF29EF96B7FC6F8F622
:103F2000FB6B2F0EFA6F0001AFEC01F01BBEF28E9F
:103F300001504C0F0601816F010E0220826F010EAD
:103F40008125016E000E8221036E01503E0F016E2D
:103F5000010E03220150120FE96E000E0320EA6EDB
:103F6000EF5259E01B6AF2BE1B8EF29EF96B7FC6C0
:103F7000F8F6FB6B2F0EFA6F0001AFEC01F01BBEE1
:103F8000F28E01504C0F0601816F010E0220826FEC
:103F9000010E8125016E000E8221036E01503E0F3D
:103FA000016E010E032201501E0FE96E000E032068
:103FB000EA6E010EEF6E1B6AF2BE1B8EF29EF96B6B
:103FC0007FC6F8F6FB6B2F0EFA6F0001AFEC01F025
:103FD0001BBEF28E01504C0F0601816F010E0220B4
:103FE000826F010E8125016E000E8221036E015049
:103FF0003E0F016E010E03220150200FE96E000EEC
:104000000320EA6E036AEF50810FE96E050E03206C
:10401000EA6EEF6A80811B6AF2BE1B8EF29EF96B1C
:104020007FC6F8F6FB6B2F0EFA6F0001AFEC01F0C4
:104030001BBEF28E01504C0F0601816F010E022053
:10404000826F010E8125016E000E8221036E0150E8
:104050003E0F016E010E03220150130FE96E000E98
:104060000320EA6EEF901B6AF2BE1B8EF29EF96B84
:104070007FC6F8F6FB6B2F0EFA6F0001AFEC01F074
:104080001BBEF28E01504C0F0601816F010E022003
:10409000826F010E8125016E000E8221036E015098
:1040A0003E0F016E010E03220150090FE96E000E52
:1040B0000320EA6EEFA0DBD01B6AF2BE1B8EF29EDD
:1040C000F96B7FC6F8F6FB6B2F0EFA6F0001AFECB1
:1040D00001F01BBEF28E01504C0F0601816F010EE4
:1040E0000220826F010E8125016E000E8221036E77
:1040F00001503E0F016E010E03220150080FE96EC0
:10410000000E0320EA6EEF52D8B489D01B6AF2BECB
:104110001B8EF29EF96B7FC6F8F6FB6B2F0EFA6FC3
:104120000001AFEC01F01BBEF28E01504C0F0601F6
:10413000816F010E0220826F010E8125016E000E3B
:104140008221036E01503E0F016E010E03220150C9
:104150001E0FE96E000E0320EA6EEF6A1B6AF2BEC4
:104160001B8EF29EF96B7FC6F8F6FB6B2F0EFA6F73
:104170000001AFEC01F01BBEF28E01504C0F0601A6
:10418000816F010E0220826F010E8125016E000EEB
:104190008221036E01503E0F016E010E0322015079
:1041A000200FE96E000E0320EA6E036AEF50810FC4
:1041B000016E050E032201C083F603C084F61B6A5C
:1041C000F2BE1B8EF29EF96B7FC6F8F6FB6B2F0ECC
:1041D000FA6F0001AFEC01F01BBEF28E01504C0FE4
:1041E0000601856F010E0220866F010E8525016E86
:1041F000000E8621036E01503E0F016E010E032258
:1042000001501C0FE96E000E0320EA6EEFCF87F617
:1042100084C6EAFF83C6E9FF87C6EFFF80811B6A79
:10422000F2BE1B8EF29EF96B7FC6F8F6FB6B2F0E6B
:10423000FA6F0001AFEC01F01BBEF28E01504C0F83
:104240000601816F010E0220826F010E8125016E31
:10425000000E8221036E01503E0F016E010E0322FB
:104260000150090FE96E000E0320EA6EEF90000185
:10427000F9EF27F01B6AF2BE1B8EF29E0601F96B66
:104280007FC6F8F6FB6B2F0EFA6F0001AFEC01F062
:104290001BBEF28E01504C0F0601816F010E0220F1
:1042A000826F010E8125016E000E8221036E015086
:1042B0003E0F016E010E03220150130FE96E000E36
:1042C0000320EA6EEFA08CD01B6AF2BE1B8EF29E1A
:1042D000F96B7FC6F8F6FB6B2F0EFA6F0001AFEC9F
:1042E00001F01BBEF28E01504C0F0601816F010ED2
:1042F0000220826F010E8125016E000E8221036E65
:1043000001503E0F016E010E03220150120FE96EA3
:10431000000E0320EA6EEF523BE01B6AF2BE1B8EDA
:10432000F29EF96B7FC6F8F6FB6B2F0EFA6F000159
:10433000AFEC01F01BBEF28E01504C0F0601816FF5
:10434000010E0220826F010E8125016E000E822176
:10435000036E01503E0F016E010E03220150140F37
:10436000E96E000E0320EA6ED890EF34036A000174
:10437000B9EC00F00900F5CF03F0006A0006001A5E
:10438000FF0E031A005005017F130350801306012E
:104390001B6AF2BE1B8EF29EF96B7FC6F8F6FB6BB2
:1043A0002F0EFA6F0001AFEC01F01BBEF28E015030
:1043B0004C0F0601816F010E0220826F010E8125D4
:1043C000016E000E8221036E01503E0F016E010E40
:1043D00003220150130FE96E000E0320EA6EEF90E6
:1043E0001B6AF2BE1B8EF29EF96B7FC6F8F6FB6B62
:1043F0002F0EFA6F0001AFEC01F01BBEF28E0150E0
:104400004C0F0601816F010E0220826F010E812583
:10441000016E000E8221036E01503E0F016E010EEF
:1044200003220150090FE96E000E0320EA6EEFA08F
:1044300086D01B6AF2BE1B8EF29EF96B7FC6F8F621
:10444000FB6B2F0EFA6F0001AFEC01F01BBEF28E7A
:1044500001504C0F0601816F010E0220826F010E88
:104460008125016E000E8221036E01503E0F016E08
:10447000010E03220150080FE96E000E0320EA6EC0
:10448000EF5235E01B6AF2BE1B8EF29EF96B7FC6BF
:10449000F8F6FB6B2F0EFA6F0001AFEC01F01BBEBC
:1044A000F28E01504C0F0601816F010E0220826FC7
:1044B000010E8125016E000E8221036E01503E0F18
:1044C000016E010E03220150140FE96E000E03204D
:1044D000EA6ED890EF34036A0001B9EC00F00900ED
:1044E000F5CF03F005017F170350801706011B6A03
:1044F000F2BE1B8EF29EF96B7FC6F8F6FB6B2F0E99
:10450000FA6F0001AFEC01F01BBEF28E01504C0FB0
:104510000601816F010E0220826F010E8125016E5E
:10452000000E8221036E01503E0F016E010E032228
:104530000150090FE96E000E0320EA6EEF900001B2
:10454000F9EF27F01B6AF2BE1B8EF29E0601F96B93
:104550007FC6F8F6FB6B2F0EFA6F0001AFEC01F08F
:104560001BBEF28E01504C0F0601816F010E02201E
:10457000826F010E8125016E000E8221036E0150B3
:104580003E0F016E010E03220150090FE96E000E6D
:104590000320EA6EEFA02BD11B6AF2BE1B8EF29EA7
:1045A000F96B7FC6F8F6FB6B2F0EFA6F0001AFECCC
:1045B00001F01BBEF28E01504C0F0601836F010EFD
:1045C0000220846F010E8325016E000E8421036E8C
:1045D00001503E0F016E010E032201502D0FE96EB6
:1045E000000E0320EA6EEF5004082AE01B6AF2BEB8
:1045F0001B8EF29EF96B7FC6F8F6FB6B2F0EFA6FDF
:104600000001AFEC01F01BBEF28E01504C0F060111
:10461000856F010E0220866F010E8525016E000E4A
:104620008621036E01503E0F016E010E03220150E0
:104630002D0FE96E000E0320EA6EEF52D8A4D7D0FA
:104640001B6AF2BE1B8EF29EF96B7FC6F8F6FB6BFF
:104650002F0EFA6F0001AFEC01F01BBEF28E01507D
:104660004C0F0601816F010E0220826F010E812521
:10467000016E000E8221036E01503E0F016E010E8D
:1046800003220150080FE96E000E0320EA6EEF527C
:10469000D8B485D01B6AF2BE1B8EF29EF96B7FC622
:1046A000F8F6FB6B2F0EFA6F0001AFEC01F01BBEAA
:1046B000F28E01504C0F0601816F010E0220826FB5
:1046C000010E8125016E000E8221036E01503E0F06
:1046D000016E010E032201502A0FE96E000E032025
:1046E000EA6EEF6A1B6AF2BE1B8EF29EF96B7FC602
:1046F000F8F6FB6B2F0EFA6F0001AFEC01F01BBE5A
:10470000F28E01504C0F0601816F010E0220826F64
:10471000010E8125016E000E8221036E01503E0FB5
:10472000016E010E032201502D0FE96E000E0320D1
:10473000EA6EEF6A1B6AF2BE1B8EF29EF96B7FC6B1
:10474000F8F6FB6B2F0EFA6F0001AFEC01F01BBE09
:10475000F28E01504C0F0601816F010E0220826F14
:10476000010E8125016E000E8221036E01503E0F65
:10477000016E010E03220150280FE96E000E032086
:10478000EA6ED890EF34036A0001B9EC00F009003A
:10479000F5CF03F005017F170350801706011B6A50
:1047A000F2BE1B8EF29EF96B7FC6F8F6FB6B2F0EE6
:1047B000FA6F0001AFEC01F01BBEF28E01504C0FFE
:1047C0000601816F010E0220826F010E8125016EAC
:1047D000000E8221036E01503E0F016E010E032276
:1047E0000150090FE96E000E0320EA6EEF901B6A7C
:1047F000F2BE1B8EF29EF96B7FC6F8F6FB6B2F0E96
:10480000FA6F0001AFEC01F01BBEF28E01504C0FAD
:104810000601816F010E0220826F010E8125016E5B
:10482000000E8221036E01503E0F016E010E032225
:104830000150130FE96E000E0320EA6EEFA02BD19A
:104840001B6AF2BE1B8EF29EF96B7FC6F8F6FB6BFD
:104850002F0EFA6F0001AFEC01F01BBEF28E01507B
:104860004C0F0601836F010E0220846F010E832519
:10487000016E000E8421036E01503E0F016E010E89
:10488000032201502D0FE96E000E0320EA6EEF5057
:10489000040829E01B6AF2BE1B8EF29EF96B7FC6EC
:1048A000F8F6FB6B2F0EFA6F0001AFEC01F01BBEA8
:1048B000F28E01504C0F0601856F010E0220866FAB
:1048C000010E8525016E000E8621036E01503E0FFC
:1048D000016E010E032201502D0FE96E000E032020
:1048E000EA6EEF2CD8D01B6AF2BE1B8EF29EF96BDB
:1048F0007FC6F8F6FB6B2F0EFA6F0001AFEC01F0EC
:104900001BBEF28E01504C0F0601816F010E02207A
:10491000826F010E8125016E000E8221036E01500F
:104920003E0F016E010E03220150120FE96E000EC0
:104930000320EA6EEF52D8B486D01B6AF2BE1B8EFB
:10494000F29EF96B7FC6F8F6FB6B2F0EFA6F000133
:10495000AFEC01F01BBEF28E01504C0F0601816FCF
:10496000010E0220826F010E8125016E000E822150
:10497000036E01503E0F016E010E032201502A0FFB
:10498000E96E000E0320EA6EEF6A1B6AF2BE1B8E10
:10499000F29EF96B7FC6F8F6FB6B2F0EFA6F0001E3
:1049A000AFEC01F01BBEF28E01504C0F0601816F7F
:1049B000010E0220826F010E8125016E000E822100
:1049C000036E01503E0F016E010E032201502D0FA8
:1049D000E96E000E0320EA6E010EEF6E1B6AF2BE56
:1049E0001B8EF29EF96B7FC6F8F6FB6B2F0EFA6FEB
:1049F0000001AFEC01F01BBEF28E01504C0F06011E
:104A0000816F010E0220826F010E8125016E000E62
:104A10008221036E01503E0F016E010E03220150F0
:104A2000290FE96E000E0320EA6ED890EF34036A76
:104A30000001B9EC00F00900F5CF03F005017F1784
:104A40000350801706011B6AF2BE1B8EF29EF96BA3
:104A50007FC6F8F6FB6B2F0EFA6F0001AFEC01F08A
:104A60001BBEF28E01504C0F0601816F010E022019
:104A7000826F010E8125016E000E8221036E0150AE
:104A80003E0F016E010E03220150130FE96E000E5E
:104A90000320EA6EEF901B6AF2BE1B8EF29EF96B4A
:104AA0007FC6F8F6FB6B2F0EFA6F0001AFEC01F03A
:104AB0001BBEF28E01504C0F0601816F010E0220C9
:104AC000826F010E8125016E000E8221036E01505E
:104AD0003E0F016E010E032201501D0FE96E000E04
:104AE0000320EA6EEFA02DD11B6AF2BE1B8EF29E50
:104AF000F96B7FC6F8F6FB6B2F0EFA6F0001AFEC77
:104B000001F01BBEF28E01504C0F0601836F010EA7
:104B10000220846F010E8325016E000E8421036E36
:104B200001503E0F016E010E032201502D0FE96E60
:104B3000000E0320EA6EEF5004082BE01B6AF2BE61
:104B40001B8EF29EF96B7FC6F8F6FB6B2F0EFA6F89
:104B50000001AFEC01F01BBEF28E01504C0F0601BC
:104B6000856F010E0220866F010E8525016E000EF5
:104B70008621036E01503E0F016E010E032201508B
:104B80002D0FE96E000E0320EA6EEF500208D8A444
:104B9000D8D01B6AF2BE1B8EF29EF96B7FC6F8F668
:104BA000FB6B2F0EFA6F0001AFEC01F01BBEF28E13
:104BB00001504C0F0601816F010E0220826F010E21
:104BC0008125016E000E8221036E01503E0F016EA1
:104BD000010E032201501C0FE96E000E0320EA6E45
:104BE000EF52D8B486D01B6AF2BE1B8EF29EF96BD0
:104BF0007FC6F8F6FB6B2F0EFA6F0001AFEC01F0E9
:104C00001BBEF28E01504C0F0601816F010E022077
:104C1000826F010E8125016E000E8221036E01500C
:104C20003E0F016E010E032201502A0FE96E000EA5
:104C30000320EA6EEF6A1B6AF2BE1B8EF29EF96BCE
:104C40007FC6F8F6FB6B2F0EFA6F0001AFEC01F098
:104C50001BBEF28E01504C0F0601816F010E022027
:104C6000826F010E8125016E000E8221036E0150BC
:104C70003E0F016E010E032201502D0FE96E000E52
:104C80000320EA6E020EEF6E1B6AF2BE1B8EF29ECE
:104C9000F96B7FC6F8F6FB6B2F0EFA6F0001AFECD5
:104CA00001F01BBEF28E01504C0F0601816F010E08
:104CB0000220826F010E8125016E000E8221036E9B
:104CC00001503E0F016E010E03220150280FE96EC4
:104CD000000E0320EA6ED890EF34036A0001B9ECAD
:104CE00000F00900F5CF03F005017F17035080178E
:104CF00006011B6AF2BE1B8EF29EF96B7FC6F8F6A8
:104D0000FB6B2F0EFA6F0001AFEC01F01BBEF28EB1
:104D100001504C0F0601816F010E0220826F010EBF
:104D20008125016E000E8221036E01503E0F016E3F
:104D3000010E032201501D0FE96E000E0320EA6EE2
:104D4000EF901B6AF2BE1B8EF29EF96B7FC6F8F6DF
:104D5000FB6B2F0EFA6F0001AFEC01F01BBEF28E61
:104D600001504C0F0601816F010E0220826F010E6F
:104D70008125016E000E8221036E01503E0F016EEF
:104D8000010E03220150270FE96E000E0320EA6E88
:104D9000EFA02DD11B6AF2BE1B8EF29EF96B7FC66F
:104DA000F8F6FB6B2F0EFA6F0001AFEC01F01BBEA3
:104DB000F28E01504C0F0601836F010E0220846FAA
:104DC000010E8325016E000E8421036E01503E0FFB
:104DD000016E010E032201502D0FE96E000E03201B
:104DE000EA6EEF5004082BE01B6AF2BE1B8EF29EA7
:104DF000F96B7FC6F8F6FB6B2F0EFA6F0001AFEC74
:104E000001F01BBEF28E01504C0F0601856F010EA2
:104E10000220866F010E8525016E000E8621036E2D
:104E200001503E0F016E010E032201502D0FE96E5D
:104E3000000E0320EA6EEF500308D8A4D8D01B6AF6
:104E4000F2BE1B8EF29EF96B7FC6F8F6FB6B2F0E3F
:104E5000FA6F0001AFEC01F01BBEF28E01504C0F57
:104E60000601816F010E0220826F010E8125016E05
:104E7000000E8221036E01503E0F016E010E0322CF
:104E80000150260FE96E000E0320EA6EEF52D8B4EF
:104E900086D01B6AF2BE1B8EF29EF96B7FC6F8F6B7
:104EA000FB6B2F0EFA6F0001AFEC01F01BBEF28E10
:104EB00001504C0F0601816F010E0220826F010E1E
:104EC0008125016E000E8221036E01503E0F016E9E
:104ED000010E032201502A0FE96E000E0320EA6E34
:104EE000EF6A1B6AF2BE1B8EF29EF96B7FC6F8F664
:104EF000FB6B2F0EFA6F0001AFEC01F01BBEF28EC0
:104F000001504C0F0601816F010E0220826F010ECD
:104F10008125016E000E8221036E01503E0F016E4D
:104F2000010E032201502D0FE96E000E0320EA6EE0
:104F3000030EEF6E1B6AF2BE1B8EF29EF96B7FC6EC
:104F4000F8F6FB6B2F0EFA6F0001AFEC01F01BBE01
:104F5000F28E01504C0F0601816F010E0220826F0C
:104F6000010E8125016E000E8221036E01503E0F5D
:104F7000016E010E03220150290FE96E000E03207D
:104F8000EA6ED890EF34036A0001B9EC00F0090032
:104F9000F5CF03F005017F170350801706011B6A48
:104FA000F2BE1B8EF29EF96B7FC6F8F6FB6B2F0EDE
:104FB000FA6F0001AFEC01F01BBEF28E01504C0FF6
:104FC0000601816F010E0220826F010E8125016EA4
:104FD000000E8221036E01503E0F016E010E03226E
:104FE0000150270FE96E000E0320EA6EEF900001DA
:104FF00000D006017F2B57EF1EF080A104D00001E6
:1050000070EC1AF006010001000CEACF89F6E9CF36
:1050100088F606018239F009846F8427E20F856FD4
:10502000320F876F82510F0B852785278727E90F5E
:10503000866F8627862781390F0B86278727863735
:105040008737871F873781510F0B87278437070ED4
:10505000836F0A0E86078727FDE385078627FDE312
:1050600084078527FDE383078427FDE3060EEA6EA8
:10507000830EE96E070E8815889DE926870EE95C88
:10508000D8B4888DEF50006E08E188BD06D088B98D
:1050900016D088B702D0200E03D088878899300EAA
:1050A0000026EACF82F6E9CF81F600C08FF6000134
:1050B00082EC0FF082C6EAFF81C6E9FF0601EE50DE
:1050C00088ADDCD700014AEF40F0A380A382A3841F
:1050D000A386A388A38EA38A9D84F28A9D809D8245
:1050E000F288A08EC00EF21258EF40F00601926BCB
:1050F000925107080FE3036A92518F25E96E905190
:105100000320EA6E9151EF5C03E1010E016E04D0C1
:10511000922BEED7000E016E0001000C06018A6B87
:1051200001013F5106018A5DD8B085EF2DF01B6A61
:10513000F2BE1B8EF29EF96B8AC6F8F6FB6B2F0E41
:10514000FA6F0001AFEC01F01BBEF28E02C003F05B
:1051500001508A0F016E020E032201C0E9FF03C055
:10516000EAFFEF50650A08E0010AD8B49BD1020AB1
:10517000D8B4A5D280EF2DF01B6AF2BE1B8EF29E32
:105180000601F96B8AC6F8F6FB6B2F0EFA6F000169
:10519000AFEC01F01BBEF28E01504C0F06018B6F7D
:1051A000010E02208C6F010E8B25016E000E8C21EA
:1051B000036E01503E0F016E010E03220150140FC9
:1051C000016E000E032201C08DF603C08EF603C0EF
:1051D00090F601C08FF688C691F6000187DF015274
:1051E00054E01B6AF2BE1B8EF29E0601F96B8AC662
:1051F000F8F6FB6B2F0EFA6F0001AFEC01F01BBE4F
:10520000F28E01504C0F06018B6F010E02208C6F45
:10521000010E8B25016E000E8C21036E01503E0F96
:10522000016E010E032201501C0FE96E000E0320D7
:10523000EA6E89C6EFFF1B6AF2BE1B8EF29EF96B07
:105240008AC6F8F6FB6B2F0EFA6F0001AFEC01F087
:105250001BBEF28E01504C0F06018B6F010E022017
:105260008C6F010E8B25016E000E8C21036E015098
:105270003E0F016E010E032201501D0FE96E000E5C
:105280000320EA6EEF800CD100011B6AF2BE1B8E78
:10529000F29E0601F96B8AC6F8F6FB6B2F0EFA6FC9
:1052A0000001AFEC01F01BBEF28E01504C0F060165
:1052B0008B6F010E02208C6F010E8B25016E000E8C
:1052C0008C21036E01503E0F016E010E032201C0BE
:1052D0008DF603C08EF603C090F601C08FF688C627
:1052E00091F6000103DF015254E01B6AF2BE1B8EEF
:1052F000F29E0601F96B8AC6F8F6FB6B2F0EFA6F69
:105300000001AFEC01F01BBEF28E01504C0F060104
:105310008B6F010E02208C6F010E8B25016E000E2B
:105320008C21036E01503E0F016E010E03220150CD
:10533000080FE96E000E0320EA6E89C6EFFF1B6AB4
:10534000F2BE1B8EF29EF96B8AC6F8F6FB6B2F0E2F
:10535000FA6F0001AFEC01F01BBEF28E01504C0F52
:1053600006018B6F010E02208C6F010E8B25016EE2
:10537000000E8C21036E01503E0F016E010E0322C0
:105380000150090FE96E000E0320EA6EEF8088D00D
:1053900000011B6AF2BE1B8EF29E0601F96B8AC6E3
:1053A000F8F6FB6B2F0EFA6F0001AFEC01F01BBE9D
:1053B000F28E01504C0F06018B6F010E02208C6F94
:1053C000010E8B25016E000E8C21036E01503E0FE5
:1053D000016E010E032201500A0F016E000E03221E
:1053E00001C08DF603C08EF603C090F601C08FF6A3
:1053F00088C691F600017ADE015253E01B6AF2BEC4
:105400001B8EF29E0601F96B8AC6F8F6FB6B2F0E17
:10541000FA6F0001AFEC01F01BBEF28E01504C0F91
:1054200006018B6F010E02208C6F010E8B25016E21
:10543000000E8C21036E01503E0F016E010E0322FF
:105440000150120FE96E000E0320EA6E89C6EFFFCD
:105450001B6AF2BE1B8EF29EF96B8AC6F8F6FB6BD6
:105460002F0EFA6F0001AFEC01F01BBEF28E01505F
:105470004C0F06018B6F010E02208C6F010E8B25E5
:10548000016E000E8C21036E01503E0F016E010E65
:1054900003220150130FE96E000E0320EA6EEF8025
:1054A00000012FD31B6AF2BE1B8EF29E0601F96B20
:1054B0008AC6F8F6FB6B2F0EFA6F0001AFEC01F015
:1054C0001BBEF28E01504C0F06018B6F010E0220A5
:1054D0008C6F010E8B25016E000E8C21036E015026
:1054E0003E0F016E010E032201C08DF603C08EF641
:1054F00003C090F601C08FF688C691F60001F6DD74
:10550000015254E01B6AF2BE1B8EF29E0601F96B3B
:105510008AC6F8F6FB6B2F0EFA6F0001AFEC01F0B4
:105520001BBEF28E01504C0F06018B6F010E022044
:105530008C6F010E8B25016E000E8C21036E0150C5
:105540003E0F016E010E03220150080FE96E000E9E
:105550000320EA6E89C6EFFF1B6AF2BE1B8EF29E25
:10556000F96B8AC6F8F6FB6B2F0EFA6F0001AFECF1
:1055700001F01BBEF28E01504C0F06018B6F010E25
:1055800002208C6F010E8B25016E000E8C21036EA4
:1055900001503E0F016E010E03220150090FE96E0A
:1055A000000E0320EA6EEF8088D000011B6AF2BE75
:1055B0001B8EF29E0601F96B8AC6F8F6FB6B2F0E66
:1055C000FA6F0001AFEC01F01BBEF28E01504C0FE0
:1055D00006018B6F010E02208C6F010E8B25016E70
:1055E000000E8C21036E01503E0F016E010E03224E
:1055F00001500A0F016E000E032201C08DF603C098
:105600008EF603C090F601C08FF688C691F60001B1
:105610006DDD015253E01B6AF2BE1B8EF29E060145
:10562000F96B8AC6F8F6FB6B2F0EFA6F0001AFEC30
:1056300001F01BBEF28E01504C0F06018B6F010E64
:1056400002208C6F010E8B25016E000E8C21036EE3
:1056500001503E0F016E010E03220150120FE96E40
:10566000000E0320EA6E89C6EFFF1B6AF2BE1B8E96
:10567000F29EF96B8AC6F8F6FB6B2F0EFA6F0001EB
:10568000AFEC01F01BBEF28E01504C0F06018B6F88
:10569000010E02208C6F010E8B25016E000E8C21F5
:1056A000036E01503E0F016E010E03220150130FD5
:1056B000E96E000E0320EA6EEF80000122D21B6A21
:1056C000F2BE1B8EF29E0601F96B8AC6F8F6FB6BE2
:1056D0002F0EFA6F0001AFEC01F01BBEF28E0150ED
:1056E0004C0F06018B6F010E02208C6F010E8B2573
:1056F000016E000E8C21036E01503E0F016E010EF3
:10570000032201C08DF603C08EF603C090F601C0DF
:105710008FF688C691F60001E9DC015254E01B6A5D
:10572000F2BE1B8EF29E0601F96B8AC6F8F6FB6B81
:105730002F0EFA6F0001AFEC01F01BBEF28E01508C
:105740004C0F06018B6F010E02208C6F010E8B2512
:10575000016E000E8C21036E01503E0F016E010E92
:1057600003220150080FE96E000E0320EA6E89C67D
:10577000EFFF1B6AF2BE1B8EF29EF96B8AC6F8F62B
:10578000FB6B2F0EFA6F0001AFEC01F01BBEF28E27
:1057900001504C0F06018B6F010E02208C6F010E21
:1057A0008B25016E000E8C21036E01503E0F016EA1
:1057B000010E03220150090FE96E000E0320EA6E6C
:1057C000EF809CD100011B6AF2BE1B8EF29E060187
:1057D000F96B8AC6F8F6FB6B2F0EFA6F0001AFEC7F
:1057E00001F01BBEF28E01504C0F06018B6F010EB3
:1057F00002208C6F010E8B25016E000E8C21036E32
:1058000001503E0F016E010E032201500A0F016E7E
:10581000000E032201C08DF603C08EF603C090F681
:1058200001C08FF688C691F6000160DC015254E099
:105830001B6AF2BE1B8EF29E0601F96B8AC6F8F651
:10584000FB6B2F0EFA6F0001AFEC01F01BBEF28E66
:1058500001504C0F06018B6F010E02208C6F010E60
:105860008B25016E000E8C21036E01503E0F016EE0
:10587000010E03220150120FE96E000E0320EA6EA2
:1058800089C6EFFF1B6AF2BE1B8EF29EF96B8AC6B9
:10589000F8F6FB6B2F0EFA6F0001AFEC01F01BBEA8
:1058A000F28E01504C0F06018B6F010E02208C6F9F
:1058B000010E8B25016E000E8C21036E01503E0FF0
:1058C000016E010E03220150130FE96E000E03203A
:1058D000EA6EEF8013D100011B6AF2BE1B8EF29EAE
:1058E0000601F96B8AC6F8F6FB6B2F0EFA6F000102
:1058F000AFEC01F01BBEF28E01504C0F06018B6F16
:10590000010E02208C6F010E8B25016E000E8C2182
:10591000036E01503E0F016E010E03220150140F61
:10592000016E000E032201C08DF603C08EF603C087
:1059300090F601C08FF688C691F6000176EC28F04B
:10594000015254E01B6AF2BE1B8EF29E0601F96BF7
:105950008AC6F8F6FB6B2F0EFA6F0001AFEC01F070
:105960001BBEF28E01504C0F06018B6F010E022000
:105970008C6F010E8B25016E000E8C21036E015081
:105980003E0F016E010E032201501C0FE96E000E46
:105990000320EA6E89C6EFFF1B6AF2BE1B8EF29EE1
:1059A000F96B8AC6F8F6FB6B2F0EFA6F0001AFECAD
:1059B00001F01BBEF28E01504C0F06018B6F010EE1
:1059C00002208C6F010E8B25016E000E8C21036E60
:1059D00001503E0F016E010E032201501D0FE96EB2
:1059E000000E0320EA6EEF8089D000011B6AF2BE30
:1059F0001B8EF29E0601F96B8AC6F8F6FB6B2F0E22
:105A0000FA6F0001AFEC01F01BBEF28E01504C0F9B
:105A100006018B6F010E02208C6F010E8B25016E2B
:105A2000000E8C21036E01503E0F016E010E032209
:105A300001501E0F016E000E032201C08DF603C03F
:105A40008EF603C090F601C08FF688C691F600016D
:105A500076EC28F0015253E01B6AF2BE1B8EF29ED8
:105A60000601F96B8AC6F8F6FB6B2F0EFA6F000180
:105A7000AFEC01F01BBEF28E01504C0F06018B6F94
:105A8000010E02208C6F010E8B25016E000E8C2101
:105A9000036E01503E0F016E010E03220150260FCE
:105AA000E96E000E0320EA6E89C6EFFF1B6AF2BEA4
:105AB0001B8EF29EF96B8AC6F8F6FB6B2F0EFA6FFF
:105AC0000001AFEC01F01BBEF28E01504C0F06013D
:105AD0008B6F010E02208C6F010E8B25016E000E64
