:040000003DEF20F0C0
:08000800046ED8CF05F0E0CF33
:1000100006F00001E9CF0CF0EACF07F0E1CF08F0DD
:10002000E2CF09F0D9CF0AF0DACF0BF0F3CF12F01C
:10003000F4CF13F0FACF14F0F5CF15F0F6CF16F099
:10004000F7CF17F0F8CF18F0FBCF19F000C00EF083
:1000500001C00FF002C010F003C011F0F2AA34EF9B
:1000600000F0F2B4D4EF06F09DA03AEF00F09EB09D
:10007000E6EF06F09DA240EF00F09EB2EAEF06F038
:10008000F2A846EF00F0F2B2FEEF06F09DAA4CEFA8
:1000900000F09EBA48EF08F09DA852EF00F09EB81D
:1000A0004BEF08F09DA458EF00F09EB4AEEF07F0C0
:1000B000A0A65EEF00F0A1B64EEF08F0A3AE64EF8D
:1000C00000F0A4BE4CEF0DF0A3AA6AEF00F0A4BAB2
:1000D0004FEF0DF0A3A870EF00F0A4B848EF0DF0BB
:1000E000A3A676EF00F0A4B644EF0DF0A3A47CEF36
:1000F00000F0A4B440EF0DF0A3A282EF00F0A4B290
:100100002CEF0BF0A3A088EF00F0A4B028EF0BF0C9
:10011000A0AE8EEF00F0A1BE51EF08F00EC000F0CF
:100120000FC001F010C002F011C003F00CC0E9FFD5
:1001300007C0EAFF078E08C0E1FF09C0E2FF0AC05E
:10014000D9FF0BC0DAFF12C0F3FF13C0F4FF14C0D5
:10015000FAFF15C0F5FF16C0F6FF17C0F7FF18C06D
:10016000F8FF19C0FBFF045006C0E0FF05C0D8FF30
:100170001000F76A860FF66E010EF722000EF86E79
:100180000900F5501200EFFFDFFFBFFF7FFFF7FF11
:10019000FBFFFEFFFDFFFF7FFFBFFFDFFFEFFFF76E
:1001A000FFFBFFFDFFFEF76ABA0FF66E010EF722A6
:1001B000000EF86E0900F550120000964B975C9601
:1001C0006D957E948F93A092B191C290D38FE48E5F
:1001D000F58D068D178C288B398A4A895B886C8748
:1001E0007D868E859F84B083C182D281E380F47F37
:1001F000057F167E277D387C497B5A7A6B797C781F
:100200008D779E76AF75C074D173E272F37104710D
:100210001570266F376E486D596C6A6B7B6A8C69F6
:100220009D68AE67BF66D065E164F26303631462E4
:1002300025613660475F585E695D7A5C8B5B9C5ACE
:10024000AD59BE58CF57E056F155025513542453BB
:10025000355246515750684F794E8A4D9B4CAC4BA6
:10026000BD4ACE49DF48F047014712462345344492
:100270004543564267417840893F9A3EAB3DBC3C7E
:10028000CD3BDE3AEF390039113822373336443569
:1002900055346633773288319930AA2FBB2ECC2D56
:1002A000DD2CEE2BFF2A102A212932284327542641
:1002B000652576248723982269026F6E6F66662013
:1002C0006F66662076616C756520254C5820254C3C
:1002D00058006F6E6F6666206F6E00006F6E6F66FF
:1002E00066206F6E2076616C756520254C58000085
:1002F00064696D5F6C6576656C2025750A0D00007C
:100300006F66662025750A0D00006F6666202575EC
:100310000A0D00006F66662025750A0D00000401B5
:100320006E517003F3CF01F0F4CF00F07103F3507E
:1003300000266F517003F3500020026E0001000C84
:1003400004017151070B006E7131016E01320132EF
:100350001F0E011601507325E96E000E7421EA6E1E
:10036000016A012A002A01D00136002EFDD77253FE
:1003700003E00150EF1203D0011E0150EF160001FF
:10038000000C04017151070B006E7131016E0132D6
:1003900001321F0E011601507225E96E000E732105
:1003A000EA6EEFCF01F0002A01D00132002EFDD716
:1003B0000001000C090E04017025E96E000E712188
:1003C000EA6EEFCF72F40E0E7025E96E000E712109
:1003D000EA6E000EEFB0010E010BD8A4E7D00E0EAE
:1003E0007025E96E000E7121EA6EEF920A0E7025FB
:1003F000E96E000E7121EA6EEFCF00F0ECCF01F054
:10040000ECCF02F0ECCF03F000500F5D736F0150A2
:100410001059746F02501159756F03501259766F4D
:100420001751765D0CE315E11651755D08E311E196
:100430001551745D04E30DE17351145D0AE30F0E71
:100440007025E96E000E7121EA6EEF500208D8A403
:10045000ACD00F0E7025E96E000E7121EA6EEF50E0
:100460000408D8B4A2D00F0E7025E96E000E7121D9
:10047000EA6EEF2C1FD00F0E7025E96E000E712171
:10048000EA6E040EEF6E7025E96E000E7121EA6EC1
:10049000010EEF6E090E7025E96E000E7121EA6EF5
:1004A0007F0EEF6E050E7025E96E000E7121EA6E6B
:1004B000EF807AD00F0E7025E96E000E7121EA6E82
:1004C000020EEF6E0A0E7025E96E000E7121EA6EC3
:1004D000EFCF00F0ECCF01F0ECCF02F0ECCF03F067
:1004E00000500F5D736F01501059746F0250115915
:1004F000756F03501259766F765307E1755305E116
:10050000745303E17351135D41E20E0E7025E96EE1
:10051000000E7121EA6E000EEFB4010E010B18E11E
:10052000090E7025E96E000E7121EA6EEF2A090EA0
:100530007025E96E000E7121EA6EEF507F0807E129
:100540000E0E7025E96E000E7121EA6EEF841ED04A
:10055000090E7025E96E000E7121EA6EEF06090E94
:100560007025E96E000E7121EA6EEF520FE10E0E5A
:100570007025E96E000E7121EA6EEF94070E70256A
:10058000E96E000E7121EA6E010EEF6E0A0E702503
:10059000E96E000E7121EA6E0FC4EFFF10C4ECFF8C
:1005A00011C4ECFF12C4ECFF00D0B0D00E0E7025C9
:1005B000E96E000E7121EA6E000EEFB2010E010B22
:1005C000D8A496D00E0E7025E96E000E7121EA6E49
:1005D000EF820F0E7025E96E000E7121EA6EEF506A
:1005E000020822E10F0E7025E96E000E7121EA6EFD
:1005F000EF6A0E0E7025E96E000E7121EA6E000E94
:10060000EFB4010E010B08E10E0E7025E96E000E2D
:100610007121EA6EEF8407D00E0E7025E96E000E90
:100620007121EA6EEF9464D00F0E7025E96E000E12
:100630007121EA6EEF2C1ED00F0E7025E96E000EB0
:100640007121EA6EEF6A040E7025E96E000E7121C9
:10065000EA6E010EEF6E0E0E7025E96E000E71212E
:10066000EA6EEF84050E7025E96E000E7121EA6EC8
:10067000EF803ED00F0E7025E96E000E7121EA6EFC
:10068000EF521FE10F0E7025E96E000E7121EA6E28
:10069000010EEF6E070E7025E96E000E7121EA6EF5
:1006A000010EEF6E0E0E7025E96E000E7121EA6EDE
:1006B000EF94080E7025E96E000E7121EA6EEF804E
:1006C00017D00F0E7025E96E000E7121EA6EEF5003
:1006D00004080EE10F0E7025E96E000E7121EA6E1E
:1006E000EF6A0E0E7025E96E000E7121EA6EEF843E
:1006F0000A0E7025E96E000E7121EA6E0FC4EFFF3D
:1007000010C4ECFF11C4ECFF12C4ECFF090E7025FD
:10071000E96E000E7121EA6EEF50725D1BE0010E72
:100720007025016E000E7121036E090E7025E96EB1
:10073000000E7121EA6EEFCF75F403C0EAFF01C02D
:10074000E9FF75C4EFFF020E7025E96E000E7121FE
:10075000EA6EEF800001CEEF06F0060E0401702570
:10076000E96E000E7121EA6E000EEFB0010E010B72
:100770006EE1060E7025E96E000E7121EA6E000E24
:10078000EFB2010E010B010862E1060E7025E96E61
:10079000000E7121EA6EEF920B0E7025E96E000ECD
:1007A0007121EA6EEF2C25D00B0E7025E96E000E3C
:1007B0007121EA6EEF6A010E7025E96E000E71215B
:1007C000EA6E010EEF6E020E7025E96E000E7121C9
:1007D000EA6EEF80040E7025E96E000E7121EA6E5C
:1007E000EF6A050E7025E96E000E7121EA6EEF804A
:1007F0002DD00B0E7025E96E000E7121EA6EEF52BE
:1008000025E10B0E7025E96E000E7121EA6E010ED6
:10081000EF6E040E7025E96E000E7121EA6E010E76
:10082000EF6E050E7025E96E000E7121EA6EEF8005
:10083000010E7025E96E000E7121EA6EEF6A020E5C
:100840007025E96E000E7121EA6EEF8013D0060E5E
:100850007025E96E000E7121EA6E000EEFB0010EF8
:10086000010B010807E1060E7025E96E000E7121EB
:10087000EA6EEF820001CEEF06F0060E040170254D
:10088000E96E000E7121EA6E000EEFB0010E010B51
:100890002DE10B0E7025E96E000E7121EA6EEF2C32
:1008A00025D00B0E7025E96E000E7121EA6EEF6AFD
:1008B000010E7025E96E000E7121EA6E010EEF6ED9
:1008C000020E7025E96E000E7121EA6EEF80040EB3
:1008D0007025E96E000E7121EA6EEF6A050E702533
:1008E000E96E000E7121EA6EEF8039D0060E702598
:1008F000E96E000E7121EA6E000EEFB0010E010BE1
:1009000001082DE10B0E7025E96E000E7121EA6ED3
:10091000EF5225E10B0E7025E96E000E7121EA6E93
:10092000010EEF6E040E7025E96E000E7121EA6E65
:10093000010EEF6E050E7025E96E000E7121EA6E54
:10094000EF80010E7025E96E000E7121EA6EEF6AEC
:10095000020E7025E96E000E7121EA6EEF80000133
:10096000CEEF06F004016D6B01013A5104016D5D9B
:10097000D8B017D26F6B6DC46EF4716B120E706FBE
:100980000001CDDC02C003F001503C0F016E010EEE
:10099000032201C0E9FF03C0EAFFEF500AE0030AA7
:1009A000D8B4AAD0020AD8B4A8D0030AD8B44CD17B
:1009B000F4D104016F6B6DC46EF4716B120E706F25
:1009C0000001ADDC0150020F04016E6F000E022029
:1009D0006F6F010E6E25016E000E6F21036E0150C8
:1009E0003A0F016E010E03220150100FE96E000E46
:1009F0000320EA6EEFCF70F470C471F4010E726FD1
:100A00000F0E746F920E736F00019ADC70C471F454
:100A10000F0E0401736F800E726F0001B2DC01A033
:100A200024D004016F6B6DC46EF4716B120E706F85
:100A3000000175DC0150020F04016E6F000E0220F0
:100A40006F6F010E6E25016E000E6F21036E015057
:100A50003A0F016E010E032201500E0FE96E000ED7
:100A60000320EA6EEF8023D0000104016F6B6DC498
:100A70006EF4716B120E706F000151DC0150020FA9
:100A800004016E6F000E02206F6F010E6E25016E65
:100A9000000E6F21036E01503A0F016E010E03220A
:100AA00001500E0FE96E000E0320EA6EEF906F6B9F
:100AB0006DC46EF4716B120E706F000130DC01506A
:100AC000020F04016E6F000E02206F6F010E6E2583
:100AD000016E000E6F21036E01503A0F016E010E80
:100AE000032201C06EF403C06FF403C071F401C0AF
:100AF00070F400015FD452D151D104016F6B6DC409
:100B00006EF4716B120E706F000109DC0150020F60
:100B100004016E6F000E02206F6F010E6E25016ED4
:100B2000000E6F21036E01503A0F016E010E032279
:100B300001500C0FE96E000E0320EA6EEFCF70F447
:100B400070C471F4010E726F0F0E746F920E736F9A
:100B50000001A0EC01F070C471F40F0E0401736F7A
:100B6000800E726F00010DDC01A025D004016F6BB7
:100B70006DC46EF4716B120E706F00018FEC01F09A
:100B80000150020F04016E6F000E02206F6F010E04
:100B90006E25016E000E6F21036E01503A0F016E3B
:100BA000010E03220150060FE96E000E0320EA6ECB
:100BB000EF8024D0000104016F6B6DC46EF4716B83
:100BC000120E706F00018FEC01F00150020F040152
:100BD0006E6F000E02206F6F010E6E25016E000E0B
:100BE0006F21036E01503A0F016E010E0322015076
:100BF000060FE96E000E0320EA6EEF906F6B6DC476
:100C00006EF4716B120E706F00018FEC01F00150E9
:100C1000020F04016E6F000E02206F6F010E6E2531
:100C2000016E000E6F21036E01503A0F016E010E2E
:100C3000032201C06EF403C06FF403C071F401C05D
:100C400070F400018AD5AAD004016F6B6DC46EF4F4
:100C5000716B120E706F00018FEC01F00150020FEA
:100C600004016E6F000E02206F6F010E6E25016E83
:100C7000000E6F21036E01503A0F016E010E032228
:100C800001500C0FE96E000E0320EA6EEFCF70F4F6
:100C900070C471F4010E726F0F0E746F920E736F49
:100CA0000001A0EC01F070C471F40F0E0401736F29
:100CB000800E726F0001C1EC01F001A025D004018B
:100CC0006F6B6DC46EF4716B120E706F00018FEC60
:100CD00001F00150020F04016E6F000E02206F6FD1
:100CE000010E6E25016E000E6F21036E01503A0F4A
:100CF000016E010E03220150060FE96E000E032063
:100D0000EA6EEF8024D0000104016F6B6DC46EF4B5
:100D1000716B120E706F00018FEC01F00150020F29
:100D200004016E6F000E02206F6F010E6E25016EC2
:100D3000000E6F21036E01503A0F016E010E032267
:100D40000150060FE96E000E0320EA6EEF906F6B04
:100D50006DC46EF4716B120E706F00018FEC01F0B8
:100D60000150020F04016E6F000E02206F6F010E22
:100D70006E25016E000E6F21036E01503A0F016E59
:100D8000010E032201C06EF403C06FF403C071F4BE
:100D900001C070F4000171D501D000D004016D2BA9
:100DA000E3D50001E1EF06F0010E04010F27D8B0F2
:100DB000102BD8B4112BD8B4122B0FA303D00001E1
:100DC000D1D50401F29400018EEF00F0B1899E901C
:100DD0008EEF00F004011C2B1C51C8080BE1969407
:100DE0008D741C6B010E1827D8B0192BD8B41A2B90
:100DF000D8B41B2B9E9200018EEF00F003015551D9
:100E0000531104016D6F03015651541104016E6FAB
:100E10006EC482FF6DC483FF0001B1A511D0B195EE
:100E2000B1A708D0B197030E0301506F670E4F6F43
:100E300007D00001B187030E0301506FAB0E4F6F57
:100E40000301516B04016F6B706BD8906F35006EAE
:100E5000D8900036005003014F250401736F000E37
:100E6000030150210401746FD89070357325716FA0
:100E7000000E7421726FD8906F35006ED8900036D6
:100E8000005003014F250401736F000E0301502130
:100E90000401746FD89070357325016E000E7421B3
:100EA000036E01C0E9FFEA6EEFCF01F0E92AEF50CF
:100EB000E906026E02C070F401C06FF4D8900134EC
:100EC000026E7035036E02500001D3EC00F0090091
:100ED000F5CF03F0BE6E03C0BFFF100E04016F6FAD
:100EE000706BD8906F35006ED890003600500301BB
:100EF0004F250401736F000E030150210401746F2C
:100F0000D89070357325716F000E7421726FD89070
:100F10006F35006ED8900036005003014F25040154
:100F2000736F000E030150210401746FD890703567
:100F30007325016E000E7421036E01C0E9FFEA6E95
:100F4000EFCF01F0E92AEF50E906026E01C052F33B
:100F5000CF6ACE6AF29200018EEF00F00301525385
:100F6000D8B492D051C36FF4010E0401706FD890C1
:100F70006F35006ED8900036005003014F250401F4
:100F8000736F000E030150210401746FD890703507
:100F90007325716F000E7421726FD8906F35006EDB
:100FA000D8900036005003014F250401736F000EE6
:100FB000030150210401746FD89070357325016EC0
:100FC000000E7421036E01C0E9FFEA6EEFCF01F05D
:100FD000E92AEF50E906026E02C06EF401C06DF41A
:100FE0006E5182166D5183160301512B520751C366
:100FF0006FF40401706BD8906F35006ED890003696
:10100000005003014F250401736F000E03015021AE
:101010000401746FD89070357325716F000E7421C0
:10102000726FD8906F35006ED89000360050030173
:101030004F250401736F000E030150210401746FEA
:10104000D89070357325016E000E7421036E01C0B7
:10105000E9FFEA6EEFCF01F0E92AEF50E906026EF0
:1010600002C070F401C06FF4D8900134026E703584
:10107000036E02500001D3EC00F00900F5CF03F03D
:10108000BE6E03C0BFFF03019E9400018EEF00F00F
:101090009E9A8EEF00F09E988EEF00F0A1968EEF54
:1010A00000F0A19E8EEF00F004018F6B8E6B8D6BB4
:1010B0008C6B8AC491F489C490F48B53D8B493D0C8
:1010C00091C403F090C4E9FF91C4EAFFEFCF00F0B0
:1010D000016A026A036A03C08FF402C08EF401C081
:1010E0008DF400C08CF49051D8B49107900790C44F
:1010F000E9FF91C4EAFFEF50946B936B926F006A23
:1011000000508C1392518D1393518E1394518F1361
:101110009051D8B49107900790C4E9FF91C4EAFFB9
:10112000EF50956B946B936B926F030E9217936BCA
:10113000946B956B006A016A00508C1301508D13FB
:1011400092518E1393518F1390C4E9FF91C4EAFF1B
:10115000EF50956B946B936B926FE00E9217936BBD
:10116000946B956B006A9235016E9335026E9435DF
:10117000036E013602360336013602360336013677
:1011800002360336013602360336E00E01160050F1
:101190008C1301508D1302508E1303508F139051F6
:1011A000D8B49107900790C4E9FF91C4EAFFEF50CB
:1011B000936B926F006A016A9235026E9335036EEB
:1011C000023603360236033602360336023603365B
:1011D000E00E021600508C1301508D1302508E1336
:1011E00003508F1353D0020E905F000E915B90C49A
:1011F000E9FF91C4EAFFEF50956B946B936B926F8C
:10120000E00E9217936B946B956B95318F6F9431C1
:101210008E6F93318D6F92318C6F8F338E338D3310
:101220008C338F338E338D338C338F338E338D33BA
:101230008C338F338E338D338C33070E8F17905151
:10124000D8B49107900790C4E9FF91C4EAFFEF502A
:10125000956B946B936B926F9235006E9335016E24
:101260009435026E9535036E00360136023603362C
:101270000036013602360336F80E001600508C1385
:1012800001508D1302508E1303508F138CC400F045
:101290008DC401F08EC402F08FC403F00001000C75
:1012A0002450FF0801E1242A24500908D8A044D181
:1012B000040E04017E6F730E7D6F60AE17D0F10EC9
:1012C0006F146F6E7299A490729174BE7281749E45
:1012D00060A40BD0000E60B0010E070B006ED8901A
:1012E0000036F10E72150010726F20D00F0150AF52
:1012F00019D0F10E6F140A096F6E04017289A4925D
:10130000729174BC7281749C0F015051070B070BD2
:10131000006ED8900036F10E040172150010726F45
:1013200005D00F01000E016E4CD0040165500F0B6B
:10133000716F729B65BC728B729D62B6728D000E6E
:1013400072BD010E826F0F0E8A6F640E896F82C4A8
:101350008BF40001A9DE03C070F402C06FF401C079
:101360006EF400C06DF40F0E0401816F660E806F85
:101370007F6B71517F5D14E280C4E9FF81C4EAFF95
:10138000EFCF84F47EC4EAFF7DC4E9FF84C4EFFF9D
:101390007D2BD8B47E2B802BD8B4812B7F2BE9D723
:1013A000F10E6F146F6E729FA4BE728FA49E72A90D
:1013B00004D00F01509F03D00401609E0F01010E65
:1013C000016E04017C6B7C5320E17C51040DF350D1
:1013D000036A350FE96E010E0320EA6EEFCF00F0CD
:1013E000ECCF01F0ECCF02F0ECCF03F000506D5DDC
:1013F0000AE101506E5D07E102506F5D04E10350A8
:10140000705D01E123D17C2BDED724500E0DF3500B
:101410007E6B7D6F250E7D25E96E000E7E21EA6EC6
:1014200070C4EFFF24500E0DF3507E6B7D6F010EE4
:101430007D25016E000E7E21036E0150250FE96EA1
:10144000000E0320EA6E6FC4EFFF24500E0DF35020
:101450007E6B7D6F020E7D25016E000E7E21036E78
:101460000150250FE96E000E0320EA6E6EC4EFFFF7
:1014700024500E0DF3507E6B7D6F030E7D25016EA3
:10148000000E7E21036E0150250FE96E000E032031
:10149000EA6E6DC4EFFF24500E0DF3507E6B7D6F2E
:1014A000040E7D25016E000E7E21036E0150250F76
:1014B000E96E000E0320EA6E71C4EFFF24500E0D9A
:1014C000F3507E6B7D6F050E7D25016E000E7E2133
:1014D000036E0150250FE96E000E0320EA6E72C400
:1014E000EFFF7B6B71517B5D24E224500E0DF350B6
:1014F0007E6B7D6F060E7B25036A7D25016E7E5116
:1015000003220150250F016E000E032203C07EF45A
:10151000036A7B51730FE96E040E0320EA6EEFCF6E
:101520007FF47EC4EAFF01C0E9FF7FC4EFFF7B2B9D
:10153000D9D7242A8BD00001040E04017E6F730ECC
:101540007D6F60AE17D0F10E6F146F6E7299A4901C
:10155000729174BE7281749E60A40BD0000E60B054
:10156000010E070B006ED8900036F10E72150010B8
:10157000726F20D00F0150AF19D0F10E6F140A090D
:101580006F6E04017289A492729174BC7281749C12
:101590000F015051070B070B006ED8900036F10E6B
:1015A000040172150010726F05D00F01000E016E5C
:1015B0004CD0040165500F0B716F729B65BC728B30
:1015C000729D62B6728D000E72BD010E826F0F0E9B
:1015D0008A6F640E896F82C48BF4000165DD03C0DD
:1015E00070F402C06FF401C06EF400C06DF40F0E11
:1015F0000401816F660E806F7F6B71517F5D14E215
:1016000080C4E9FF81C4EAFFEFCF84F47EC4EAFF1F
:101610007DC4E9FF84C4EFFF7D2BD8B47E2B802BE3
:10162000D8B4812B7F2BE9D7F10E6F146F6E729FA8
:10163000A4BE728FA49E72A904D00F01509F03D044
:101640000401609E0F01010E016E04010001000CF7
:1016500027DEA4908EEF00F023DEA4928EEF00F040
:101660008EC495F48DC494F40401935352E094C451
:10167000E9FF95C4EAFF8FC4EFFF9451D8B49507F2
:10168000940794C4E9FF95C4EAFF90C4EFFF945116
:10169000D8B49507940794C4E9FF95C4EAFF915123
:1016A000030BEF6E94C4E9FF95C4EAFF91C400F008
:1016B000003600360036F80E00160050E00BEF1032
:1016C000EF6E94C4E9FF95C4EAFFEF500809EF6E8E
:1016D0009451D8B49507940794C4E9FF95C4EAFFE0
:1016E00091C400F0003A0032070E00160050070BBC
:1016F000EF6E94C4E9FF95C4EAFF92C400F000368F
:1017000000360036F80E00160050F80BEF10EF6EA2
:101710003FD094C4E9FF95C4EAFFEF6A9451D8B46E
:101720009507940794C4E9FF95C4EAFFEF6A9451C2
:10173000D8B49507940794C4E9FF95C4EAFF8FC411
:1017400000F0003A0036E00E00160050E00BEF6E9D
:101750009451D8B49507940794C4E9FF95C4EAFF5F
:101760008FC400F00032003200321F0E001600500D
:101770001F0BEF6E94C4E9FF95C4EAFF90C400F01C
:10178000003A0036E00E00160050E00BEF10EF6E4E
:101790000001000C0F0E04018B6F660E8A6F0F01A3
:1017A00040B708D0F10E6F1408096F6E04018C6BFE
:1017B0001BD00F0130B709D0F10E6F1406096F6E00
:1017C000010E04018C6F10D00F0120B709D0F10E6B
:1017D0006F1404096F6E020E04018C6F05D00F01A7
:1017E000000E016E3DD004018651030B006EFC0E0D
:1017F00060140010606E0F0E8E6F640E8D6F82C4C9
:1018000092F481C491F480C490F47FC48FF487C4AF
:1018100093F4000125DF85C465FF659C040188B150
:10182000658C896B8551895D14E283C4E9FF84C4AA
:10183000EAFFEFCF8FF48BC4EAFF8AC4E9FF8FC4BD
:10184000EFFF8A2BD8B48B2B832BD8B4842B892B16
:10185000E9D76086F10E6F146F6E010E016E0F01F5
:1018600000013CEF0DF0B2510A0801E1B207B2519C
:10187000FF08D8B403D1B2510D0DF35004017E6BB3
:101880007D6FB30E7D25E96E000E7E21EA6EEFCFEF
:101890007DF40001B2510D0DF35004017F6B7E6F9A
:1018A000010E7E25016E000E7F21036E0150B30FE5
:1018B000E96E000E0320EA6EEFCF7EF40001B25114
:1018C0000D0DF3500401806B7F6F020E7F25016EBA
:1018D000000E8021036E0150B30FE96E000E03204D
:1018E000EA6EEFCF7FF40001B2510D0DF350040109
:1018F000816B806F030E8025016E000E8121036EC7
:101900000150B30FE96E000E0320EA6EEFCF80F4B2
:101910007DC470F47EC46FF47FC46EF480C46DF433
:101920000001B2510D0DF35004017E6B7D6F0C0E62
:101930007D25016E000E7E21036E0150B30FE96E0E
:10194000000E0320EA6EEF38716F0F0E7117000161
:10195000B2510D0DF35004017E6B7D6F0C0E7D2591
:10196000016E000E7E21036E0150B30FE96E000E72
:101970000320EA6EEF500C0B006E0030726F723372
:101980003F0E72170001B2510D0DF35004017E6B32
:101990007D6F0C0E7D25016E000E7E21036E0150C1
:1019A000B30FE96E000E0320EA6EEFCF7DF47B915A
:1019B0007DB37B810001B2510D0DF35004017E6BAC
:1019C0007D6F0C0E7D25016E000E7E21036E015091
:1019D000B30FE96E000E0320EA6EEFCF7DF47B9328
:1019E0007DB17B837C6B71517C5D28E2036A7C5105
:1019F000730F016E040E032201C07DF403C07EF458
:101A00000001B2510D0DF3500401806B7F6F040E85
:101A10007C25036A7F25016E805103220150B30F9C
:101A2000E96E000E0320EA6EEFCF7FF47EC4EAFF7A
:101A30007DC4E9FF7FC4EFFF7C2BD5D7000E7BB1BF
:101A4000010E7D6F000E7BB3010E7E6F70C482F4B9
:101A50006FC481F46EC480F46DC47FF4040E846F8F
:101A6000730E836F71C485F472C486F47DC487F4E9
:101A70007EC488F400018ED6B20701D000D0000CDD
:101A8000F2DEA4948EEF00F0EEDEA4968EEF00F06E
:101A9000EADEA4988EEF00F0A49E8EEF00F0A49AE8
:101AA0008EEF00F073746172740A0D00256C75205E
:101AB0003C2D3E20256C750A0D00256C75203C2DB3
:101AC0003E202575203C2D3E2025750A0D00040181
:101AD0001F39700B006ED89000361F0E6F14001067
:101AE0006F6E6ECF00F0003A0030070B1F5DF9E11A
:101AF0000001000CC00E70140409706E3F0E7014CB
:101B0000706EF80E71140209716EC70E71142809F7
:101B1000716E719C718EF80E72140509726E729C52
:101B200098EF0DF0040E04011F6F0001D0DFE2D723
:101B3000606A9F0E6014606E608460CF50FF739A7D
:101B40007398739E739C1B6AF2BE1B8EF29E0F0EDF
:101B500004018E6F1B0E8D6F926B916B906B8F6B70
:101B6000936B00017DDD1BBEF28E1B6AF2BE1B8EE5
:101B7000F29E0F0E04018E6F030E8D6F926B916BB0
:101B8000906B8F6B936B00016BDD1BBEF28E1B6A3B
:101B9000F2BE1B8EF29E0F0E04018E6F070E8D6F2C
:101BA000926B916B906B8F6B936B000159DD1BBE39
:101BB000F28E1B6AF2BE1B8EF29E0F0E04018E6F18
:101BC0001F0E8D6F926B916B906B8F6B936B0001FF
:101BD00047DD1BBEF28E1B6AF2BE1B8EF29E0F0EFD
:101BE00004018E6F0B0E8D6F926B916B906B8F6BF0
:101BF000936B000135DD1BBEF28E1B6AF2BE1B8E9D
:101C0000F29E0F0E04018E6F8D6F926B916B906B35
:101C10008F6B936B000124DD1BBEF28E1B6AF2BE3C
:101C20001B8EF29E0F0E04018E6F130E8D6F926B42
:101C3000916B906B8F6B936B000112DD1BBEF28E6C
:101C40001B6AF2BE1B8EF29E0F0E04018E6F170EE2
:101C50008D6F926B916B906B8F6B936B000100DDBE
:101C60001BBEF28E9350FB0B08090401936E1F6B91
:101C700000012DDF3DEF0EF055D7040E04011F6F5C
:101C8000000125DFC00E70140409706E3F0E701441
:101C9000706EF80E71140209716EC70E7114280966
:101CA000716E719C719EF80E72140509726E728CC1
:101CB00004011F6B00010BDF810ED56E950ECD6EFA
:101CC000600E0609CA6EF10ECB6E0A0EBD6EF18C67
:101CD000C150C00B0F09C16EC050C00BC06EC09E7A
:101CE000C2809698C69A010EC66E000EC76E070E89
:101CF000B46E9550956E9650966E0400200E006E50
:101D0000002EFED700D0B450A19CB56AB16A3BEF5B
:101D100021F0040122C4E9FF23C4EAFFEF6A010EA7
:101D20002225016E000E232101C0E9FFEA6E1FC4C7
:101D3000EFFF010E2225016E000E2321036E0150DC
:101D4000030FE96E000E0320EA6E20C4EFFF010EC0
:101D50002225016E000E2321036E0150060FE96E4D
:101D6000000E0320EA6E21C4EFFF010E2225016E52
:101D7000000E2321036E01500E0FE96E000E0320AA
:101D8000EA6EEF82010E2225016E000E2321036E02
:101D900001500F0FE96E000E0320EA6E010EEF6E88
:101DA0002225016E000E2321036E0150090FE96EFA
:101DB000000E0320EA6EEF6A010E2225016E000E6E
:101DC0002321036E01500E0FE96E000E0320EA6E10
:101DD000EF94010E2225016E000E2321036E0150A7
:101DE000020FE96E000E0320EA6EEF90010E22252D
:101DF000016E000E2321036E0150050FE96E000EE7
:101E00000320EA6EEF90010E2225016E000E2321C1
:101E1000036E0150080FE96E000E0320EA6EEF809A
:101E2000010E2225016E000E2321036E0150010FC9
:101E3000E96E000E0320EA6EEF6A010E2225016EA4
:101E4000000E2321036E0150040FE96E000E0320E3
:101E5000EA6EEF6A010E2225016E000E2321036E49
:101E60000150070FE96E000E0320EA6E010EEF6EBF
:101E70002225016E000E2321036E0150100F016E0A
:101E8000000E032203C028F4036A24511C0FE96EDC
:101E9000000E0320EA6EEFCF29F428C4EAFF01C048
:101EA000E9FF29C4EFFF010E2225016E000E232158
:101EB000036E01500A0FE96E000E0320EA6EEE5227
:101EC000EE52EC6AED52EF6AED52EF6AED52EF6AB4
:101ED00000017BEF0FF0010E01013A6F04011F6F4B
:101EE000020E206F030E216F010E236F3C0E226F36
:101EF000246B00010ED73DEF21F00401496B4851DE
:101F0000495D19E2036A49514625016E4751032292
:101F100003C04BF444C4E9FF45C4EAFFEFCF4CF4DF
:101F20004BC4EAFF01C0E9FF4CC4EFFF442BD8B417
:101F3000452B492BE4D70001000C04013DC4E9FF07
:101F40003EC4EAFF010EEF6E3D25016E000E3E21FC
:101F5000036E01501D0FE96E000E0320EA6EEF9034
:101F6000010E3D25016E000E3E21036E0150090F4A
:101F7000E96E000E0320EA6EEF90010E3D25016E22
:101F8000000E3E21036E0150130FE96E000E032078
:101F9000EA6EEF90010E3D25016E000E3E21036EAC
:101FA00001501C0FE96E000E0320EA6E7F0EEF6EEB
:101FB000010E3D25016E000E3E21036E0150080FFB
:101FC000E96E000E0320EA6EEF6A010E3D25016EF8
:101FD000000E3E21036E0150120FE96E000E032029
:101FE000EA6EEF6A010E3D25016E000E3E21036E82
:101FF00001501F0FE96E000E0320EA6E3FC4EFFF91
:10200000010E3D25016E000E3E21036E0150140F9E
:10201000016E000E032201C042F403C043F438C431
:1020200045F437C444F403C047F401C046F4080E35
:10203000486F000162DF010E04013D25016E000EB4
:102040003E21036E01C042F4436F3AC445F439C4E3
:1020500044F4476F01C046F4080E486F00014DDF9D
:10206000010E04013D25016E000E3E21036E01505C
:102070000A0F016E000E032201C042F403C043F4B4
:102080003CC445F43BC444F403C047F401C046F4E7
:10209000080E486F000131DF010E04013D25016E7D
:1020A000000E3E21036E01501E0FE96E000E03204C
:1020B000EA6E010EEF6E000198EF10F0010E0101C3
:1020C0003B6F04011F6F150E206F1F0E216FFF0E57
:1020D000226F236F246F256F266F030E276F330E39
:1020E000286F3D0E296FFF0E2A6F2B6F2C6F2D6FFF
:1020F0002E6F020E2F6F510E306F5B0E316FFF0E81
:10210000326F336F346F356F366F040E386F1F0EBA
:10211000376F040E3A6F2F0E396F040E3C6F270E87
:102120003B6F010E3E6FF00E3D6F3F6B000105D718
:102130003FEF21F004016281636B03014E51040102
:10214000635D47E26351040DF350686B676F210EC6
:102150006725016E040E6821036E686F036A635180
:10216000570FE96E030E0320EA6EEF50036A68C44E
:10217000EAFF01C0E9FF03C0ECFFED52EF6E6351CF
:10218000040DF350686B676F020E6725016E000E39
:102190006821036E0150210F016E040E032203C05B
:1021A00068F4D8906335036AEF0FE96E030E0320DD
:1021B000EA6EECCF03F0ED52EFCF69F468C4EAFFAA
:1021C00001C0E9FF03C0ECFFED5269C4EFFF632BD0
:1021D000B4D762A1E3D06291636B010E03014E5D3F
:1021E0000401635DD8B0D9D06351040DF350686B1E
:1021F000676F210E6725E96E040E6821EA6EECCF49
:1022000068F4ED52EFCF67F4010E6325040DF3502F
:102210006A6B696F210E6925E96E040E6A21EA6E08
:10222000ECCF03F0ED52EFCF01F06851035CD8A082
:10223000B2D004E10150675DD8B0ADD06281635186
:10224000040DF350686B676F210E6725E96E040E6D
:102250006821EA6EECCF03F0ED52EFCF64F403C0D7
:1022600065F46351040DF350686B676F210E6725A9
:10227000016E040E6821036E686F010E6325040D64
:10228000F3506A6B696F210E6925E96E040E6A21AD
:10229000EA6EECCF03F0ED52EFCF69F468C4EAFFC9
:1022A00001C0E9FF03C0ECFFED5269C4EFFF010E6E
:1022B0006325040DF350686B676F210E6725E96E87
:1022C000040E6821EA6E65C4ECFFED5264C4EFFFB2
:1022D0006351040DF350686B676F020E6725016E42
:1022E000000E6821036E0150210FE96E040E0320D9
:1022F000EA6EECCF03F0ED52EFCF64F403C065F467
:102300006351040DF350686B676F020E6725016E11
:10231000000E6821036E0150210F016E040E03228E
:1023200001C067F403C068F4010E6325040DF35087
:102330006A6B696F020E6925016E000E6A21036ED9
:102340000150210FE96E040E0320EA6EECCF03F07A
:10235000ED52EFCF69F468C4EAFF67C4E9FF03C038
:10236000ECFFED5269C4EFFF010E6325040DF3503D
:10237000686B676F020E6725016E000E6821036EA1
:102380000150210FE96E040E0320EA6E65C4ECFFD4
:10239000ED5264C4EFFF632B20D71BD7215304E118
:1023A000225302E1616BD0D1010E616F666B0001B7
:1023B000B1A709D022C468F321C467F324C46AF327
:1023C00023C469F308D022C4ACF321C4ABF324C402
:1023D000AEF323C4ADF3010E0401636F03014E514C
:1023E0000401635DD8B0B0D16351040DF350686B44
:1023F000676F210E6725E96E040E6821EA6EECCF47
:1024000068F4ED52EFCF67F4010E635D040DF350F5
:102410006A6B696F210E6925E96E040E6A21EA6E06
:10242000ECCF03F0ED52EF50675D03E10350685DC0
:1024300002E0000E01D0010E676F6351040DF350EE
:10244000696B686F210E6825E96E040E6921EA6EDA
:10245000EF5202E1EC5202E0000E01D0010E000A40
:1024600002E0000E01D0010E6715D8B49DD0000126
:10247000B1A74DD004016651040DF350686B676F2E
:10248000020E6725016E000E6821036E0150670F72
:10249000016E030E032201C067F403C068F46651A5
:1024A000040DF3506A6B696F020E6925016E000E10
:1024B0006A21036E0150670FE96E030E0320EA6E76
:1024C000ECCF6AF4ED52EFCF69F46351040DF35091
:1024D0006C6B6B6F020E6B25016E000E6C21036E30
:1024E0000150210FE96E040E0320EA6EECCF03F0D9
:1024F000ED52EF506915006E03506A1568C4EAFF8B
:1025000067C4E9FFEC6EED5200C0EFFF4CD0040150
:102510006651040DF350686B676F020E6725016EFC
:10252000000E6821036E0150AB0F016E030E0322F3
:1025300001C067F403C068F46651040DF3506A6B80
:10254000696F020E6925016E000E6A21036E01504B
:10255000AB0FE96E030E0320EA6EECCF6AF4ED5286
:10256000EFCF69F46351040DF3506C6B6B6F020E87
:102570006B25016E000E6C21036E0150210FE96E78
:10258000040E0320EA6EECCF03F0ED52EF50691514
:10259000006E03506A1568C4EAFF67C4E9FFEC6E79
:1025A000ED5200C0EFFFCED06351040DF350686BC5
:1025B000676F210E6725E96E040E6821EA6EEF52FF
:1025C00002E1EC5202E0000E01D0010E000AD8A494
:1025D000B9D0662B0001B1A75BD004016651040D90
:1025E000F350686B676F670E6725016E030E6821F5
:1025F000036E686F6351040DF3506A6B696F210EAF
:102600006925E96E040E6A21EA6EECCF03F0ED5203
:10261000EFCF69F468C4EAFF01C0E9FF03C0ECFF33
:10262000ED5269C4EFFF6651040DF350686B676F9C
:10263000020E6725016E000E6821036E0150670FC0
:10264000016E030E032201C067F403C068F46351F6
:10265000040DF3506A6B696F020E6925016E000E5E
:102660006A21036E0150210FE96E040E0320EA6E09
:10267000ECCF03F0ED52EFCF69F468C4EAFF67C412
:10268000E9FF03C0ECFFED5269C4EFFF5AD000012F
:1026900004016651040DF350686B676FAB0E67253C
:1026A000016E030E6821036E686F6351040DF350D1
:1026B0006A6B696F210E6925E96E040E6A21EA6E64
:1026C000ECCF03F0ED52EFCF69F468C4EAFF01C02C
:1026D000E9FF03C0ECFFED5269C4EFFF6651040D42
:1026E000F350686B676F020E6725016E000E68215C
:1026F000036E0150AB0F016E030E032201C067F49D
:1027000003C068F46351040DF3506A6B696F020EE5
:102710006925016E000E6A21036E0150210FE96EDA
:10272000040E0320EA6EECCF03F0ED52EFCF69F414
:1027300068C4EAFF67C4E9FF03C0ECFFED5269C457
:10274000EFFF612B632B4AD60001B1A705D003012F
:10275000A86B61C4A7F304D00301EC6B61C4EBF375
:102760000001B185000CFF0E826E836E946A956A3B
:1027700004011F6B01013B5104011F5DD8B094D0CF
:102780001B6AF2BE1B8EF29E6F6B1FC46EF4716BE0
:10279000230E706F00018FEC01F01BBEF28E02C0A1
:1027A00003F00150F00F016E010E032201C0E9FF9A
:1027B00003C0EAFFEF50010A01E073D0D890030193
:1027C0004E35036AEF0F016E030E032201C020F4A1
:1027D000040103C021F41B6AF2BE1B8EF29E6F6BD4
:1027E0001FC46EF4716B230E706F00018FEC01F04B
:1027F0001BBEF28E0150B60F0401226F000E0220A4
:10280000236F010E2225016E000E2321036E01505D
:102810003A0F016E010E032201501F0FE96E000EE8
:102820000320EA6ED890EF34036A0001B9EC00F09F
:102830000900F5CF03F0040121C4EAFF20C4E9FF39
:1028400003C0ECFFED52EF6E1B6AF2BE1B8EF29ED0
:102850006F6B1FC46EF4716B230E706F00018FECF1
:1028600001F01BBEF28E0150B60F0401206F000E66
:102870000220216F010E2025016E000E2121036E22
:1028800001503A0F016E010E03220150200FE96E34
:10289000000E0320EA6E4EC3EFFF03014E2B000132
:1028A00000D004011F2B66D703014E5301E12FD046
:1028B00004011F6B03014E5104011F5D13E2D89008
:1028C0001F35036AEF0FE96E030E0320EA6EECCFAB
:1028D00003F0ED52EF500301531703505417040156
:1028E0001F2BE8D70301531F541F0001B197030E9C
:1028F0000301506F670E4F6F00011CDC030E0301D4
:10290000506FAB0E4F6F0001B18714DC0301000163
:1029100041EF21F0939A8A9A080E016E00D00000D0
:10292000018E10D0019E04012C330001D8B08A8A98
:10293000D8A08A9A018C06D0019C012EF4D700D031
:1029400000008A8A160EE96EE92EFED700D0040038
:1029500001BEE8D701BCF0D7000C0900F6CF26F481
:10296000F7CF27F4F8CF28F4F5CF2CF4D3DF26C423
:10297000F6FF27C4F7FF28C4F8FF0401252F01D074
:1029800002D00001EAD70001000C040126BF11D0DB
:102990000F0E006E253900160A0E005C03E2300EA1
:1029A000002602D02651002600C02CF40001B2DF20
:1029B00004010F0E25170A0E255D02E2300E02D02B
:1029C000269F2651252725C42CF40001A3DF000CE7
:1029D0000900F55210E0F6CF21F4F7CF22F4F8CF3A
:1029E00023F4F5CF2CF496DF21C4F6FF22C4F7FFC1
:1029F00023C4F8FFEDD7000C040120911F6B0101E7
:102A00003B5104011F5DD8B0D4EF19F01B6AF2BE30
:102A10001B8EF29E6F6B1FC46EF4716B230E706F72
:102A200000018FEC01F01BBEF28E02C003F00150DA
:102A3000F00F016E010E032201C0E9FF03C0EAFF9F
:102A4000EF50010A05E0010AD8B4B7D2D0EF19F06F
:102A50001B6AF2BE1B8EF29E04016F6B1FC46EF4E4
:102A6000716B230E706F00018FEC01F01BBEF28EB4
:102A70000150B60F0401216F000E0220226F010EDB
:102A80002125016E000E2221036E01503A0F016EC6
:102A9000010E032201501D0FE96E000E0320EA6EA5
:102AA000EFA0B2D01B6AF2BE1B8EF29E6F6B1FC4EA
:102AB0006EF4716B230E706F00018FEC01F01BBE82
:102AC000F28E0150B60F0401216F000E0220226F1A
:102AD000010E2125016E000E2221036E01503A0FD6
:102AE000016E010E032201501E0FE96E000E03203D
:102AF000EA6EEF5261E11B6AF2BE1B8EF29E6F6BB3
:102B00001FC46EF4716B230E706F00018FEC01F027
:102B10001BBEF28E0150B60F0401216F000E022081
:102B2000226F010E2125016E000E2221036E01503D
:102B30003A0F016E010E03220150200FE96E000EC4
:102B40000320EA6E036AEF50570F016E030E032253
:102B500001C023F403C024F41B6AF2BE1B8EF29E54
:102B60006F6B1FC46EF4716B230E706F00018FECDE
:102B700001F01BBEF28E0150B60F0401256F000E4E
:102B80000220266F010E2525016E000E2621036E00
:102B900001503A0F016E010E032201501C0FE96E25
:102BA000000E0320EA6EEFCF27F424C4EAFF23C40B
:102BB000E9FF27C4EFFF20811B6AF2BE1B8EF29E45
:102BC0006F6B1FC46EF4716B230E706F00018FEC7E
:102BD00001F01BBEF28E0150B60F0401216F000EF2
:102BE0000220226F010E2125016E000E2221036EAC
:102BF00001503A0F016E010E032201501D0FE96EC4
:102C0000000E0320EA6EEF901B6AF2BE1B8EF29E4E
:102C10006F6B1FC46EF4716B230E706F00018FEC2D
:102C200001F01BBEF28E0150B60F0401216F000EA1
:102C30000220226F010E2125016E000E2221036E5B
:102C400001503A0F016E010E03220150130FE96E7D
:102C5000000E0320EA6EEFA0AAD01B6AF2BE1B8E04
:102C6000F29E6F6B1FC46EF4716B230E706F0001C8
:102C70008FEC01F01BBEF28E0150B60F0401216FE4
:102C8000000E0220226F010E2125016E000E22216E
:102C9000036E01503A0F016E010E03220150120F14
:102CA000E96E000E0320EA6EEF5259E01B6AF2BE95
:102CB0001B8EF29E6F6B1FC46EF4716B230E706FD0
:102CC00000018FEC01F01BBEF28E0150B60F040123
:102CD000216F000E0220226F010E2125016E000ED1
:102CE0002221036E01503A0F016E010E03220150A2
:102CF0001E0FE96E000E0320EA6E010EEF6E1B6AD6
:102D0000F2BE1B8EF29E6F6B1FC46EF4716B230EAE
:102D1000706F00018FEC01F01BBEF28E0150B60FF8
:102D20000401216F000E0220226F010E2125016E89
:102D3000000E2221036E01503A0F016E010E032294
:102D40000150200FE96E000E0320EA6E036AEF5077
:102D5000570FE96E030E0320EA6EEF6A20811B6AAB
:102D6000F2BE1B8EF29E6F6B1FC46EF4716B230E4E
:102D7000706F00018FEC01F01BBEF28E0150B60F98
:102D80000401216F000E0220226F010E2125016E29
:102D9000000E2221036E01503A0F016E010E032234
:102DA0000150130FE96E000E0320EA6EEF901B6ACC
:102DB000F2BE1B8EF29E6F6B1FC46EF4716B230EFE
:102DC000706F00018FEC01F01BBEF28E0150B60F48
:102DD0000401216F000E0220226F010E2125016ED9
:102DE000000E2221036E01503A0F016E010E0322E4
:102DF0000150090FE96E000E0320EA6EEFA0DBD050
:102E00001B6AF2BE1B8EF29E6F6B1FC46EF4716B59
:102E1000230E706F00018FEC01F01BBEF28E01508B
:102E2000B60F0401216F000E0220226F010E212532
:102E3000016E000E2221036E01503A0F016E010E49
:102E400003220150080FE96E000E0320EA6EEF52D4
:102E5000D8B489D01B6AF2BE1B8EF29E6F6B1FC462
:102E60006EF4716B230E706F00018FEC01F01BBECE
:102E7000F28E0150B60F0401216F000E0220226F66
:102E8000010E2125016E000E2221036E01503A0F22
:102E9000016E010E032201501E0FE96E000E032089
:102EA000EA6EEF6A1B6AF2BE1B8EF29E6F6B1FC446
:102EB0006EF4716B230E706F00018FEC01F01BBE7E
:102EC000F28E0150B60F0401216F000E0220226F16
:102ED000010E2125016E000E2221036E01503A0FD2
:102EE000016E010E03220150200FE96E000E032037
:102EF000EA6E036AEF50570F016E030E032201C002
:102F000023F403C024F41B6AF2BE1B8EF29E6F6B87
:102F10001FC46EF4716B230E706F00018FEC01F013
:102F20001BBEF28E0150B60F0401256F000E022069
:102F3000266F010E2525016E000E2621036E01501D
:102F40003A0F016E010E032201501C0FE96E000EB4
:102F50000320EA6EEFCF27F424C4EAFF23C4E9FF7D
:102F600027C4EFFF20811B6AF2BE1B8EF29E6F6B9F
:102F70001FC46EF4716B230E706F00018FEC01F0B3
:102F80001BBEF28E0150B60F0401216F000E02200D
:102F9000226F010E2125016E000E2221036E0150C9
:102FA0003A0F016E010E03220150090FE96E000E67
:102FB0000320EA6EEF900001F3D11B6AF2BE1B8E74
:102FC000F29E04016F6B1FC46EF4716B230E706F61
:102FD00000018FEC01F01BBEF28E0150B60F040110
:102FE000216F000E0220226F010E2125016E000EBE
:102FF0002221036E01503A0F016E010E032201508F
:10300000130FE96E000E0320EA6EEFA0F2D01B6AE8
:10301000F2BE1B8EF29E6F6B1FC46EF4716B230E9B
:10302000706F00018FEC01F01BBEF28E0150B60FE5
:103030000401216F000E0220226F010E2125016E76
:10304000000E2221036E01503A0F016E010E032281
:103050000150120FE96E000E0320EA6EEF52D8B451
:10306000A0D01B6AF2BE1B8EF29E6F6B1FC46EF463
:10307000716B230E706F00018FEC01F01BBEF28E9E
:103080000150B60F0401216F000E0220226F010EC5
:103090002125016E000E2221036E01503A0F016EB0
:1030A000010E03220150140FE96E000E0320EA6E98
:1030B000D890EF34036A0001B9EC00F00900F5CFB5
:1030C00003F0006A0006001AFF0E031A0050030105
:1030D0005513035056131B6AF2BE1B8EF29E040159
:1030E0006F6B1FC46EF4716B230E706F00018FEC59
:1030F00001F01BBEF28E0150B60F0401216F000ECD
:103100000220226F010E2125016E000E2221036E86
:1031100001503A0F016E010E03220150140FE96EA7
:10312000000E0320EA6ED890EF34036A0001B9EC78
:1031300000F00900F5CF03F0FF0A0401236FFF0E32
:103140000318246FBA0EF66E020EF76E000EF86EBC
:10315000100E256F000101DC56C325F4370E040163
:10316000266F000112DC55C325F4370E0401266FCB
:1031700000010BDC200E04012C6F00018AEC14F01E
:1031800024C425F4370E0401266F0001C5EC14F0A9
:1031900023C425F4370E0401266F0001C5EC14F09A
:1031A00004011B6AF2BE1B8EF29E6F6B1FC46EF48D
:1031B000716B230E706F00018FEC01F01BBEF28E5D
:1031C0000150B60F0401216F000E0220226F010E84
:1031D0002125016E000E2221036E01503A0F016E6F
:1031E000010E03220150130FE96E000E0320EA6E58
:1031F000EF901B6AF2BE1B8EF29E6F6B1FC46EF4C3
:10320000716B230E706F00018FEC01F01BBEF28E0C
:103210000150B60F0401216F000E0220226F010E33
:103220002125016E000E2221036E01503A0F016E1E
:10323000010E03220150090FE96E000E0320EA6E11
:10324000EFA0ACD0D20EF66E020EF76E000EF86E46
:103250000001E8EC14F01B6AF2BE1B8EF29E040122
:103260006F6B1FC46EF4716B230E706F00018FECD7
:1032700001F01BBEF28E0150B60F0401216F000E4B
:103280000220226F010E2125016E000E2221036E05
:1032900001503A0F016E010E03220150080FE96E32
:1032A000000E0320EA6EEF5251E01B6AF2BE1B8E45
:1032B000F29E6F6B1FC46EF4716B230E706F000172
:1032C0008FEC01F01BBEF28E0150B60F0401216F8E
:1032D000000E0220226F010E2125016E000E222118
:1032E000036E01503A0F016E010E03220150140FBC
:1032F000E96E000E0320EA6ED890EF34036A0001F5
:10330000B9EC00F00900F5CF03F0030155170350A5
:103310005617DC0EF66E020EF76E000EF86E0F0EEC
:103320000401256F0001ADEC14F056C325F4370EEF
:103330000401266F0001C5EC14F055C325F4370EC7
:103340000401266F0001C5EC14F004011B6AF2BEF3
:103350001B8EF29E6F6B1FC46EF4716B230E706F29
:1033600000018FEC01F01BBEF28E0150B60F04017C
:10337000216F000E0220226F010E2125016E000E2A
:103380002221036E01503A0F016E010E03220150FB
:10339000090FE96E000E0320EA6EEF90000100D0E5
:1033A00004011F2BFFEF14F020A104D000019AECC0
:1033B00010F004010001000CA380A382A384A38663
:1033C000A388A38EA38A9D84F28A9D82F288C00E70
:1033D000F21245EF21F00401326B325107080FE37E
:1033E000036A32512F25E96E30510320EA6E3151C4
:1033F000EF5C03E1010E016E04D0322BEED7000E1C
:10340000016E0001000C04012A6B01013B51040113
:103410002A5DD8B0CCD21B6AF2BE1B8EF29E6F6BB7
:103420002AC46EF4716B230E706F00018FEC01F0F3
:103430001BBEF28E02C003F00150F00F016E010EB0
:10344000032201C0E9FF03C0EAFFEF50010A07E0D1
:10345000010AD8B49AD1020AD8B4A4D2A4D21B6A61
:10346000F2BE1B8EF29E04016F6B2AC46EF4716B68
:10347000230E706F00018FEC01F01BBEF28E015025
:10348000B60F04012B6F000E02202C6F010E2B25AE
:10349000016E000E2C21036E01503A0F016E010ED9
:1034A00003220150140F016E000E032201C02DF4FF
:1034B00003C02EF403C030F401C02FF428C431F44B
:1034C000000189DF015254E01B6AF2BE1B8EF29E9E
:1034D00004016F6B2AC46EF4716B230E706F0001D0
:1034E0008FEC01F01BBEF28E0150B60F04012B6F62
:1034F000000E02202C6F010E2B25016E000E2C21D8
:10350000036E01503A0F016E010E032201501C0F91
:10351000E96E000E0320EA6E29C4EFFF1B6AF2BEBB
:103520001B8EF29E6F6B2AC46EF4716B230E706F4C
:1035300000018FEC01F01BBEF28E0150B60F0401AA
:103540002B6F000E02202C6F010E2B25016E000E3A
:103550002C21036E01503A0F016E010E032201501F
:103560001D0FE96E000E0320EA6EEF800CD1000102
:103570001B6AF2BE1B8EF29E04016F6B2AC46EF4AE
:10358000716B230E706F00018FEC01F01BBEF28E89
:103590000150B60F04012B6F000E02202C6F010E9C
:1035A0002B25016E000E2C21036E01503A0F016E87
:1035B000010E032201C02DF403C02EF403C030F429
:1035C00001C02FF428C431F4000105DF015254E09A
:1035D0001B6AF2BE1B8EF29E04016F6B2AC46EF44E
:1035E000716B230E706F00018FEC01F01BBEF28E29
:1035F0000150B60F04012B6F000E02202C6F010E3C
:103600002B25016E000E2C21036E01503A0F016E26
:10361000010E03220150080FE96E000E0320EA6E2E
:1036200029C4EFFF1B6AF2BE1B8EF29E6F6B2AC489
:103630006EF4716B230E706F00018FEC01F01BBEF6
:10364000F28E0150B60F04012B6F000E02202C6F7A
:10365000010E2B25016E000E2C21036E01503A0F36
:10366000016E010E03220150090FE96E000E0320C6
:10367000EA6EEF8088D000011B6AF2BE1B8EF29EBC
:1036800004016F6B2AC46EF4716B230E706F00011E
:103690008FEC01F01BBEF28E0150B60F04012B6FB0
:1036A000000E02202C6F010E2B25016E000E2C2126
:1036B000036E01503A0F016E010E032201500A0FF2
:1036C000016E000E032201C02DF403C02EF403C0CE
:1036D00030F401C02FF428C431F400017CDE015223
:1036E00053E01B6AF2BE1B8EF29E04016F6B2AC46C
:1036F0006EF4716B230E706F00018FEC01F01BBE36
:10370000F28E0150B60F04012B6F000E02202C6FB9
:10371000010E2B25016E000E2C21036E01503A0F75
:10372000016E010E03220150120FE96E000E0320FC
:10373000EA6E29C4EFFF1B6AF2BE1B8EF29E6F6B0E
:103740002AC46EF4716B230E706F00018FEC01F0D0
:103750001BBEF28E0150B60F04012B6F000E02202B
:103760002C6F010E2B25016E000E2C21036E0150D3
:103770003A0F016E010E03220150130FE96E000E85
:103780000320EA6EEF8000010FD11B6AF2BE1B8E90
:10379000F29E04016F6B2AC46EF4716B230E706F7E
:1037A00000018FEC01F01BBEF28E0150B60F040138
:1037B0002B6F000E02202C6F010E2B25016E000EC8
:1037C0002C21036E01503A0F016E010E032201C03D
:1037D0002DF403C02EF403C030F401C02FF428C42C
:1037E00031F40001F8DD015254E01B6AF2BE1B8E79
:1037F000F29E04016F6B2AC46EF4716B230E706F1E
:1038000000018FEC01F01BBEF28E0150B60F0401D7
:103810002B6F000E02202C6F010E2B25016E000E67
:103820002C21036E01503A0F016E010E032201504C
:10383000080FE96E000E0320EA6E29C4EFFF1B6A31
:10384000F2BE1B8EF29E6F6B2AC46EF4716B230E58
:10385000706F00018FEC01F01BBEF28E0150B60FAD
:1038600004012B6F000E02202C6F010E2B25016E20
:10387000000E2C21036E01503A0F016E010E03223F
:103880000150090FE96E000E0320EA6EEF8088D028
:1038900000011B6AF2BE1B8EF29E04016F6B2AC4EC
:1038A0006EF4716B230E706F00018FEC01F01BBE84
:1038B000F28E0150B60F04012B6F000E02202C6F08
:1038C000010E2B25016E000E2C21036E01503A0FC4
:1038D000016E010E032201500A0F016E000E032239
:1038E00001C02DF403C02EF403C030F401C02FF446
:1038F00028C431F400016FDD015253E01B6AF2BEAF
:103900001B8EF29E04016F6B2AC46EF4716B230E42
:10391000706F00018FEC01F01BBEF28E0150B60FEC
:1039200004012B6F000E02202C6F010E2B25016E5F
:10393000000E2C21036E01503A0F016E010E03227E
:103940000150120FE96E000E0320EA6E29C4EFFF4A
:103950001B6AF2BE1B8EF29E6F6B2AC46EF4716BF3
:10396000230E706F00018FEC01F01BBEF28E015030
:10397000B60F04012B6F000E02202C6F010E2B25B9
:10398000016E000E2C21036E01503A0F016E010EE4
:1039900003220150130FE96E000E0320EA6EEF8040
:1039A000000102D001D000D004012A2B2ED5000145
:1039B000DFEF1CF026C428F427C429F424D5000C1A
:1039C00004011F6B01013A5104011F5DD8B09CD264
:1039D0001B6AF2BE1B8EF29E6F6B1FC46EF4716B7E
:1039E000120E706F00018FEC01F01BBEF28E02C050
:1039F00003F001503C0F016E010E032201C0E9FFEC
:103A000003C0EAFFEF5004E0030AD8B477D278D2BB
:103A10001B6AF2BE1B8EF29E04016F6B1FC46EF414
:103A2000716B120E706F00018FEC01F01BBEF28EF5
:103A30000150020F0401206F000E0220216F010EC1
:103A40002025016E000E2121036E01503A0F016EF8
:103A5000010E03220150020FE96E000E0320EA6EF0
:103A6000EFA0A7D01B6AF2BE1B8EF29E6F6B1FC425
:103A70006EF4716B120E706F00018FEC01F01BBEC3
:103A8000F28E0150020F0401206F000E0220216F00
:103A9000010E2025016E000E2121036E01503A0F08
:103AA000016E010E032201C0E9FF03C0EAFFEFCF60
:103AB00022F41B6AF2BE1B8EF29E6F6B1FC46EF463
:103AC000716B120E706F00018FEC01F01BBEF28E55
:103AD0000150020F0401236F000E0220246F010E1B
:103AE0002325016E000E2421036E01503A0F016E52
:103AF000010E03220150010FE96E000E0320EA6E51
:103B0000EFCF25F422C426F425C427F4000152DFA8
:103B10001B6AF2BE1B8EF29E04016F6B1FC46EF413
:103B2000716B120E706F00018FEC01F01BBEF28EF4
:103B30000150020F0401206F000E0220216F010EC0
:103B40002025016E000E2121036E01503A0F016EF7
:103B5000010E03220150020FE96E000E0320EA6EEF
:103B6000EF901B6AF2BE1B8EF29E6F6B1FC46EF449
:103B7000716B120E706F00018FEC01F01BBEF28EA4
:103B80000150020F0401206F000E0220216F010E70
:103B90002025016E000E2121036E01503A0F016EA7
:103BA000010E03220150010FE96E000E0320EA6EA0
:103BB000EF6A1B6AF2BE1B8EF29E6F6B1FC46EF41F
:103BC000716B120E706F00018FEC01F01BBEF28E54
:103BD0000150020F0401206F000E0220216F010E20
:103BE0002025016E000E2121036E01503A0F016E57
:103BF000010E03220150050FE96E000E0320EA6E4C
:103C0000EFA0A9D01B6AF2BE1B8EF29E6F6B1FC481
:103C10006EF4716B120E706F00018FEC01F01BBE21
:103C2000F28E0150020F0401206F000E0220216F5E
:103C3000010E2025016E000E2121036E01503A0F66
:103C4000016E010E03220150030FE96E000E0320E6
:103C5000EA6EEFCF22F41B6AF2BE1B8EF29E6F6BF0
:103C60001FC46EF4716B120E706F00018FEC01F0C7
:103C70001BBEF28E0150020F0401236F000E0220C2
:103C8000246F010E2325016E000E2421036E0150C6
:103C90003A0F016E010E03220150040FE96E000E6F
:103CA0000320EA6EEFCF25F422C426F425C427F4BE
:103CB000000180DE1B6AF2BE1B8EF29E04016F6B58
:103CC0001FC46EF4716B120E706F00018FEC01F067
:103CD0001BBEF28E0150020F0401206F000E022065
:103CE000216F010E2025016E000E2121036E01506F
:103CF0003A0F016E010E03220150050FE96E000E0E
:103D00000320EA6EEF901B6AF2BE1B8EF29E6F6B71
:103D10001FC46EF4716B120E706F00018FEC01F016
:103D20001BBEF28E0150020F0401206F000E022014
:103D3000216F010E2025016E000E2121036E01501E
:103D40003A0F016E010E03220150040FE96E000EBE
:103D50000320EA6EEF6A1B6AF2BE1B8EF29E6F6B47
:103D60001FC46EF4716B120E706F00018FEC01F0C6
:103D70001BBEF28E0150020F0401206F000E0220C4
:103D8000216F010E2025016E000E2121036E0150CE
:103D90003A0F016E010E03220150080FE96E000E6A
:103DA0000320EA6EEFA0A9D01B6AF2BE1B8EF29E22
:103DB0006F6B1FC46EF4716B120E706F00018FEC8D
:103DC00001F01BBEF28E0150020F0401206F000EA5
:103DD0000220216F010E2025016E000E2121036EAD
:103DE00001503A0F016E010E03220150060FE96ED9
:103DF000000E0320EA6EEFCF22F41B6AF2BE1B8E88
:103E0000F29E6F6B1FC46EF4716B120E706F000127
:103E10008FEC01F01BBEF28E0150020F0401236FE4
:103E2000000E0220246F010E2325016E000E2421B6
:103E3000036E01503A0F016E010E03220150070F6D
:103E4000E96E000E0320EA6EEFCF25F422C426F4BB
:103E500025C427F40001AEDD1B6AF2BE1B8EF29E64
:103E600004016F6B1FC46EF4716B120E706F000152
:103E70008FEC01F01BBEF28E0150020F0401206F87
:103E8000000E0220216F010E2025016E000E21215F
:103E9000036E01503A0F016E010E03220150080F0C
:103EA000E96E000E0320EA6EEF901B6AF2BE1B8ED5
:103EB000F29E6F6B1FC46EF4716B120E706F000177
:103EC0008FEC01F01BBEF28E0150020F0401206F37
:103ED000000E0220216F010E2025016E000E21210F
:103EE000036E01503A0F016E010E03220150070FBD
:103EF000E96E000E0320EA6EEF6A04D0040102D0DE
:103F0000040100D01F2B5ED500014FEF21F0EACF56
:103F10002BF4E9CF2AF404012439F009266F26276F
:103F2000E20F276F320F296F24510F0B2727272706
:103F30002927E90F286F2827282723390F0B28273F
:103F4000292728372937291F293723510F0B2927DC
:103F50002637070E256F0A0E28072927FDE32707B6
:103F60002827FDE326072727FDE325072627FDE36E
:103F7000040EEA6E250EE96E070E2A152A9DE92623
:103F8000290EE95CD8B42A8DEF50006E08E12ABDF5
:103F900006D02AB916D02AB702D0200E03D02A871D
:103FA0002A99300E0026EACF24F4E9CF23F400C08A
:103FB0002CF400018AEC14F024C4EAFF23C4E9FFC6
:103FC0000401EE502AADDCD70001000C040124519D
:103FD000016A235D03E223C400F00CD0006A080EDE
:103FE000256F233700362451005CD8B0006E0136AF
:103FF000252FF7D70001000C015021C423F4640ED3
:104000000401246F0001E2DF00C021F40150300EF2
:1040100008E1040122A310D022B70ED022B9200E4D
:1040200004D00401229722992281012601C02CF498
:1040300000018AEC14F0040121C423F40A0E246F59
:104040000001C4DF00C021F40150300E08E104017A
:1040500022B70BD022A109D022B9200E00010126DF
:1040600001C02CF48AEC14F00401300E212721C485
:104070002CF400018AEC14F0000CF86AD09E078E34
:10408000EA6AE96A939A8A8A246AB191B26BB18327
:1040900003014E6B0001B1970301546B536BFF0E8C
:1040A000566F556F0401136B176B166B156B270E4C
:1040B000146F0001B199C150C00B0F09C16E070EFA
:1040C000B46E1C6A010E1D6E020E1E6E030E1F6E74
:1040D000040E206E050E216E200E226E210E236E20
:1040E0000B0E0101356F366B376B386B0A0E03010F
:1040F000576F586F596F5A6F5B6F5C6F5D6F5E6F74
:104100005F6F606F616F626F636F646F656F666F23
:10411000676B686B696B6A6B6B6B6C6B010E6D6FB9
:104120006E6B6F6B706B020E716F726B736B746B77
:10413000030E756F766B776B786B040E796F7A6B05
:104140007B6B7C6B050E7D6F7E6B7F6B806B060ED1
:10415000816F826B836B846B070E856F866B876BB9
:10416000886B080E896F8A6B8B6B8C6B090E8D6F59
:104170008E6B8F6B906B0A0E916F926B936B946B3F
:104180000B0E956F966B976B986B0C0E996F9A6BE5
:104190009B6B9C6B0D0E9D6F9E6B9F6BA06B0E0EB1
:1041A000A16FA26BA36BA46B0F0EA56FA66BA76B81
:1041B000A86BA96BAA6BAB6BAC6BAD6BAE6BAF6B4B
:1041C000B06B010EB16FB26BB36BB46B020EB56F17
:1041D000B66BB76BB86B030EB96FBA6BBB6BBC6BCE
:1041E000040EBD6FBE6BBF6BC06B050EC16FC26BA3
:1041F000C36BC46B060EC56FC66BC76BC86B070E6F
:10420000C96FCA6BCB6BCC6B080ECD6FCE6BCF6B0F
:10421000D06B090ED16FD26BD36BD46B0A0ED56FF6
:10422000D66BD76BD86B0B0ED96FDA6BDB6BDC6B95
:104230000C0EDD6FDE6BDF6BE06B0D0EE16FE26B82
:10424000E36BE46B0E0EE56FE66BE76BE86B0F0E4E
:10425000E96FEA6BEB6BEC6BED6BEE6B0401186BCB
:10426000196B1A6B1B6B1C6B126B116B106B0F6B4A
:1042700000013CEF0EF06BEF0FF05EEF10F0B3EFCC
:1042800013F0FCEC14F0DCEF19F0A40EF66E1A0E2D
:10429000F76E000EF86EE8EC14F0E0EF1CF0FCECAA
:1042A00014F0FBD7B1B501D0FDD70101396B3951FD
:1042B0001008D8A0A4D039C16FF40401706BD89055
:1042C0006F35006ED8900036005003014F25040171
:1042D000736F000E030150210401746FD890703584
:1042E0007325716F000E7421726FD8906F35006E58
:1042F000D8900036005003014F250401736F000E63
:10430000030150210401746FD89070357325016E3C
:10431000000E7421036E01C0E9FFEA6EEFCF01F0D9
:10432000E92AEF50E906026E02C020F401C01FF432
:1043300039C16FF4010E706FD8906F35006ED89050
:104340000036005003014F250401736F000E030176
:1043500050210401746FD89070357325716F000E71
:104360007421726FD8906F35006ED890003600506F
:1043700003014F250401736F000E03015021040156
:10438000746FD89070357325016E000E7421036E22
:1043900001C0E9FFEA6EEFCF01F0E92AEF50E9062C
:1043A000026E02C022F401C021F4100EE96E20C496
:1043B00024F41FC423F40001AADDAF0EF66E1A0E1A
:1043C000F76E000EF86E050E0401256F0001ADECCE
:1043D00014F0100EE96E22C424F421C423F497DDF6
:1043E0000A0E04012C6F00018AEC14F00D0E04017A
:1043F0002C6F00018AEC14F00101392B58D704010D
:104400006F6B010E706FD8906F35006ED8900036CC
:10441000005003014F250401736F000E030150216A
:104420000401746FD89070357325716F000E74217C
:10443000726FD8906F35006ED8900036005003012F
:104440004F250401736F000E030150210401746FA6
:10445000D89070357325016E000E7421036E01C073
:10446000E9FFEA6EEFCF01F0E92AEF50E906026EAC
:1044700002C01EF401C01DF41EC41FF41DC420F4AC
:10448000100EE96E1EC424F41DC423F400013FDDA8
:10449000BD0EF66E1A0EF76E000EF86E050E0401D4
:1044A000256F0001ADEC14F01FC421F41B0E0401B4
:1044B000226F0001A1DDC40EF66E1A0EF76E000E1B
:1044C000F86E050E0401256F0001ADEC14F020C458
:1044D00021F41B0E0401226F00018EDD0A0E04017F
:1044E0002C6F00018AEC14F00D0E04012C6F0001FA
:0644F0008AEC14F0FFD776
:020000040030CA
:0E00000000C6190E008630003FC03FE03F40B2
:00000001FF
;PIC18F4685
;CRC=E4ED  CREATED="29-Ago-11 17:31"
