:0400000051EF10F0BC
:08000800046ED8CF05F0E0CF33
:1000100006F00001E9CF0CF0EACF07F0E1CF08F0DD
:10002000E2CF09F0D9CF0AF0DACF0BF0F3CF12F01C
:10003000F4CF13F0FACF14F0F5CF15F0F6CF16F099
:10004000F7CF17F0F8CF18F0FBCF19F000C00EF083
:1000500001C00FF002C010F003C011F0F2AA34EF9B
:1000600000F0F2B474EF06F09DA03AEF00F09EB0FD
:1000700086EF06F09DA240EF00F09EB28AEF06F0F8
:10008000F2A846EF00F0F2B29EEF06F09DAA4CEF08
:1000900000F09EBA42EF07F09DA852EF00F09EB824
:1000A00045EF07F09DA458EF00F09EB44CEF0CF024
:1000B000A0A65EEF00F0A1B648EF07F0A3AE64EF94
:1000C00000F0A4BE46EF0CF0A3AA6AEF00F0A4BAB9
:1000D00049EF0CF0A3A870EF00F0A4B842EF0CF0C9
:1000E000A3A676EF00F0A4B63EEF0CF0A3A47CEF3D
:1000F00000F0A4B43AEF0CF0A3A282EF00F0A4B297
:1001000026EF0AF0A3A088EF00F0A4B022EF0AF0D7
:10011000A0AE8EEF00F0A1BE4BEF07F00EC000F0D6
:100120000FC001F010C002F011C003F00CC0E9FFD5
:1001300007C0EAFF078E08C0E1FF09C0E2FF0AC05E
:10014000D9FF0BC0DAFF12C0F3FF13C0F4FF14C0D5
:10015000FAFF15C0F5FF16C0F6FF17C0F7FF18C06D
:10016000F8FF19C0FBFF045006C0E0FF05C0D8FF30
:100170001000F76A860FF66E010EF722000EF86E79
:100180000900F550120000964B975C966D957E9491
:100190008F93A092B191C290D38FE48EF58D068D8E
:1001A000178C288B398A4A895B886C877D868E8577
:1001B0009F84B083C182D281E380F47F057F167E65
:1001C000277D387C497B5A7A6B797C788D779E764F
:1001D000AF75C074D173E272F37104711570266F3C
:1001E000376E486D596C6A6B7B6A8C699D68AE6727
:1001F000BF66D065E164F263036314622561366013
:10020000475F585E695D7A5C8B5B9C5AAD59BE58FE
:10021000CF57E056F15502551354245335524651E9
:100220005750684F794E8A4D9B4CAC4BBD4ACE49D6
:10023000DF48F047014712462345344445435642C0
:1002400067417840893F9A3EAB3DBC3CCD3BDE3AAE
:10025000EF39003911382237333644355534663397
:10026000773288319930AA2FBB2ECC2DDD2CEE2B86
:10027000FF2A102A2129322843275426652576246F
:10028000872398226902256C75203C2D3E20256C21
:10029000750A0D006E756D6C757A65733D25642069
:1002A000256C7520256C750A0D0064696D5F6C65A1
:1002B00076656C2025750A0D00006F666620257531
:1002C0000A0D00006F66662025750A0D00006F6636
:1002D000662025750A0D0000040133513503F3CF64
:1002E00001F0F4CF00F03603F3500026345135030B
:1002F000F3500020026E0001000C04013651070B80
:10030000006E3631016E013201321F0E01160150AE
:100310003825E96E000E3921EA6E016A012A002AA9
:1003200001D00136002EFDD7375303E00150EF1204
:1003300003D0011E0150EF160001000C04013651DC
:10034000070B006E3631016E013201321F0E0116AD
:1003500001503725E96E000E3821EA6EEFCF01F02B
:10036000002A01D00132002EFDD70001000C090E39
:1003700004013525E96E000E3621EA6EEFCF37F421
:100380000E0E3525E96E000E3621EA6E000EEFB036
:10039000010E010BD8A4E7D00E0E3525E96E000E34
:1003A0003621EA6EEF920A0E3525E96E000E3621EF
:1003B000EA6EEFCF00F0ECCF01F0ECCF02F0ECCF23
:1003C00003F000500D5D386F01500E59396F025027
:1003D0000F593A6F035010593B6F15513B5D0CE3B9
:1003E00015E114513A5D08E311E11351395D04E35D
:1003F0000DE13851125D0AE30F0E3525E96E000E4E
:100400003621EA6EEF500208D8A4ACD00F0E352585
:10041000E96E000E3621EA6EEF500408D8B4A2D07F
:100420000F0E3525E96E000E3621EA6EEF2C1FD037
:100430000F0E3525E96E000E3621EA6E040EEF6EC2
:100440003525E96E000E3621EA6E010EEF6E090EBB
:100450003525E96E000E3621EA6E7F0EEF6E050E31
:100460003525E96E000E3621EA6EEF807AD00F0E48
:100470003525E96E000E3621EA6E020EEF6E0A0E89
:100480003525E96E000E3621EA6EEFCF00F0ECCF95
:1004900001F0ECCF02F0ECCF03F000500D5D386FAF
:1004A00001500E59396F02500F593A6F03501059CD
:1004B0003B6F3B5307E13A5305E1395303E13851B0
:1004C000115D41E20E0E3525E96E000E3621EA6E11
:1004D000000EEFB4010E010B18E1090E3525E96E8F
:1004E000000E3621EA6EEF2A090E3525E96E000E60
:1004F0003621EA6EEF507F0807E10E0E3525E96ED2
:10050000000E3621EA6EEF841ED0090E3525E96E05
:10051000000E3621EA6EEF06090E3525E96E000E53
:100520003621EA6EEF520FE10E0E3525E96E000E10
:100530003621EA6EEF94070E3525E96E000E36215E
:10054000EA6E010EEF6E0A0E3525E96E000E3621B9
:10055000EA6E0DC4EFFF0EC4ECFF0FC4ECFF10C435
:10056000ECFF00D0B0D00E0E3525E96E000E36211E
:10057000EA6E000EEFB2010E010BD8A496D00E0E5B
:100580003525E96E000E3621EA6EEF820F0E352515
:10059000E96E000E3621EA6EEF50020822E10F0EDE
:1005A0003525E96E000E3621EA6EEF6A0E0E35250E
:1005B000E96E000E3621EA6E000EEFB4010E010B5B
:1005C00008E10E0E3525E96E000E3621EA6EEF8445
:1005D00007D00E0E3525E96E000E3621EA6EEF9437
:1005E00064D00F0E3525E96E000E3621EA6EEF2C31
:1005F0001ED00F0E3525E96E000E3621EA6EEF6A29
:10060000040E3525E96E000E3621EA6E010EEF6EFE
:100610000E0E3525E96E000E3621EA6EEF84050ECA
:100620003525E96E000E3621EA6EEF803ED00F0EC2
:100630003525E96E000E3621EA6EEF521FE10F0EEE
:100640003525E96E000E3621EA6E010EEF6E070EBB
:100650003525E96E000E3621EA6E010EEF6E0E0EA4
:100660003525E96E000E3621EA6EEF94080E352529
:10067000E96E000E3621EA6EEF8017D00F0E352599
:10068000E96E000E3621EA6EEF5004080EE10F0EFF
:100690003525E96E000E3621EA6EEF6A0E0E35251D
:1006A000E96E000E3621EA6EEF840A0E3525E96EFA
:1006B000000E3621EA6E0DC4EFFF0EC4ECFF0FC42E
:1006C000ECFF10C4ECFF090E3525E96E000E362153
:1006D000EA6EEF50375D1BE0010E3525016E000E0E
:1006E0003621036E090E3525E96E000E3621EA6EBD
:1006F000EFCF3AF403C0EAFF01C0E9FF3AC4EFFFCD
:10070000020E3525E96E000E3621EA6EEF800001FB
:100710006EEF06F0060E04013525E96E000E362157
:10072000EA6E000EEFB0010E010B52E1060E352508
:10073000E96E000E3621EA6E000EEFB2010E010BDB
:10074000010846E1060E3525E96E000E3621EA6EF7
:10075000EF920B0E3525E96E000E3621EA6EEF2C76
:1007600017D00B0E3525E96E000E3621EA6EEF6AC2
:10077000010E3525E96E000E3621EA6E010EEF6E90
:10078000020E3525E96E000E3621EA6EEF801FD08D
:100790000B0E3525E96E000E3621EA6EEF5217E199
:1007A0000B0E3525E96E000E3621EA6E010EEF6E56
:1007B000040E3525E96E000E3621EA6E010EEF6E4D
:1007C000050E3525E96E000E3621EA6EEF8013D056
:1007D000060E3525E96E000E3621EA6E000EEFB0EA
:1007E000010E010B010807E1060E3525E96E000E2A
:1007F0003621EA6EEF8200016EEF06F0060E04016C
:100800003525E96E000E3621EA6E000EEFB0010EBE
:10081000010B1FE10B0E3525E96E000E3621EA6E45
:10082000EF2C17D00B0E3525E96E000E3621EA6E3F
:10083000EF6A010E3525E96E000E3621EA6E010ED3
:10084000EF6E020E3525E96E000E3621EA6EEF805E
:100850002BD0060E3525E96E000E3621EA6E000E0D
:10086000EFB0010E010B01081FE10B0E3525E96EFB
:10087000000E3621EA6EEF5217E10B0E3525E96EB8
:10088000000E3621EA6E010EEF6E040E3525E96E7C
:10089000000E3621EA6E010EEF6E050E3525E96E6B
:1008A000000E3621EA6EEF8000016EEF06F00401C3
:1008B000326B01013A510401325DD8B012D2346B6F
:1008C00032C433F4366B120E356F000105DD02C001
:1008D00003F001503C0FE96E010E0220EA6EEF506A
:1008E0000AE0030AD8B4AAD0020AD8B4A8D0030AEE
:1008F000D8B44AD1F2D10401346B32C433F4366B2C
:10090000120E356F0001E8DC0150020F0401336F55
:10091000000E0220346F010E3325016E000E3421CB
:10092000036E01503A0F016E010E03220150100FA9
:10093000E96E000E0320EA6EEFCF35F435C436F4CD
:10094000010E376F0F0E396F920E386F0001D5DC34
:1009500035C436F40F0E0401386F800E376F000176
:10096000EDDC01A024D00401346B32C433F4366BC7
:10097000120E356F0001B0DC0150020F0401336F1D
:10098000000E0220346F010E3325016E000E34215B
:10099000036E01503A0F016E010E032201500E0F3B
:1009A000E96E000E0320EA6EEF8023D000010401FF
:1009B000346B32C433F4366B120E356F00018CDCAD
:1009C0000150020F0401336F000E0220346F010E3C
:1009D0003325016E000E3421036E01503A0F016E73
:1009E000010E032201500E0FE96E000E0320EA6E85
:1009F000EF90346B32C433F4366B120E356F000156
:100A00006BDC0150020F0401336F000E0220346FC3
:100A1000010E3325016E000E3421036E01503A0F92
:100A2000016E010E032201C033F403C034F403C08D
:100A300036F401C035F400019AD450D14FD10401ED
:100A4000346B32C433F4366B120E356F000144DC64
:100A50000150020F0401336F000E0220346F010EAB
:100A60003325016E000E3421036E01503A0F016EE2
:100A7000010E032201500C0FE96E000E0320EA6EF6
:100A8000EFCF35F435C436F4010E376F0F0E396FE2
:100A9000920E386F000131DC35C436F40F0E0401BC
:100AA000386F800E376F000149DC01A024D00401AB
:100AB000346B32C433F4366B120E356F00010CDC2C
:100AC0000150020F0401336F000E0220346F010E3B
:100AD0003325016E000E3421036E01503A0F016E72
:100AE000010E03220150060FE96E000E0320EA6E8C
:100AF000EF8024D000010401346B32C433F4366B30
:100B0000120E356F00016CEC01F00150020F040170
:100B1000336F000E0220346F010E3325016E000E7C
:100B20003421036E01503A0F016E010E0322015071
:100B3000060FE96E000E0320EA6EEF90346B32C4AC
:100B400033F4366B120E356F00016CEC01F001507E
:100B5000020F0401336F000E0220346F010E3325A3
:100B6000016E000E3421036E01503A0F016E010E2A
:100B7000032201C033F403C034F403C036F401C0CF
:100B800035F40001C7D5AAD00401346B32C433F464
:100B9000366B120E356F00016CEC01F00150020F44
:100BA0000401336F000E0220346F010E3325016EF5
:100BB000000E3421036E01503A0F016E010E032224
:100BC00001500C0FE96E000E0320EA6EEFCF35F4F2
:100BD00035C436F4010E376F0F0E396F920E386F31
:100BE00000017DEC01F035C436F40F0E0401386FBE
:100BF000800E376F00019EEC01F001A025D00401AA
:100C0000346B32C433F4366B120E356F00016CEC6A
:100C100001F00150020F0401336F000E0220346F07
:100C2000010E3325016E000E3421036E01503A0F80
:100C3000016E010E03220150060FE96E000E032023
:100C4000EA6EEF8024D000010401346B32C433F427
:100C5000366B120E356F00016CEC01F00150020F83
:100C60000401336F000E0220346F010E3325016E34
:100C7000000E3421036E01503A0F016E010E032263
:100C80000150060FE96E000E0320EA6EEF90346B00
:100C900032C433F4366B120E356F00016CEC01F088
:100CA0000150020F0401336F000E0220346F010E59
:100CB0003325016E000E3421036E01503A0F016E90
:100CC000010E032201C033F403C034F403C036F430
:100CD00001C035F4000192D501D000D00401322BBF
:100CE000E8D5000181EF06F0010E04010D27D8B010
:100CF0000E2BD8B40F2BD8B4102B0DA303D00001AA
:100D0000D6D50401F29400018EEF00F0B1899E90D7
:100D10008EEF00F004011A2B1A51C8080BE19694CB
:100D20008D741A6B010E1627D8B0172BD8B4182B58
:100D3000D8B4192B9E9200018EEF00F0FF0E826E48
:100D4000836EB1A511D0B195B1A708D0B197030EAC
:100D50000301506F650E4F6F07D00001B187030E7E
:100D60000301506FA90E4F6F0301516B0401346BE7
:100D7000356BD8903435006ED890003600500301A2
:100D80004F250401386F000E030150210401396F13
:100D9000D89035353825366F000E3921376FD89009
:100DA0003435006ED8900036005003014F25040101
:100DB000386F000E030150210401396FD89035358A
:100DC0003825016E000E3921036E01C0E9FFEA6E7D
:100DD000EFCF01F0E92AEF50E906026E02C033F4CA
:100DE00001C032F4D8900134026E3335036E0250E4
:100DF0000001B9EC00F00900F5CF03F0BE6E03C0AE
:100E0000BFFF100E0401346F356BD8903435006E7F
:100E1000D8900036005003014F250401386F000EB2
:100E2000030150210401396FD89035353825366FCC
:100E3000000E3921376FD8903435006ED8900036C7
:100E4000005003014F250401386F000E03015021AB
:100E50000401396FD89035353825016E000E3921DF
:100E6000036E01C0E9FFEA6EEFCF01F0E92AEF500F
:100E7000E906026E01C052F3CF6ACE6AF292000117
:100E80008EEF00F09E9A8EEF00F09E988EEF00F0AD
:100E9000A1968EEF00F0A19E8EEF00F00401546B3E
:100EA000536B526B516B4FC456F44EC455F45053B0
:100EB000D8B493D056C403F055C4E9FF56C4EAFF32
:100EC000EFCF00F0016A026A036A03C054F402C063
:100ED00053F401C052F400C051F45551D8B4560730
:100EE000550755C4E9FF56C4EAFFEF50596B586BDC
:100EF000576F006A005051135751521358515313F2
:100F0000595154135551D8B45607550755C4E9FFE4
:100F100056C4EAFFEF505A6B596B586B576F030E6C
:100F20005717586B596B5A6B006A016A005051137E
:100F300001505213575153135851541355C4E9FFDC
:100F400056C4EAFFEF505A6B596B586B576FE00E5F
:100F50005717586B596B5A6B006A5735016E5835E5
:100F6000026E5935036E01360236033601360236FB
:100F70000336013602360336013602360336E00EFA
:100F800001160050511301505213025053130350D5
:100F900054135551D8B45607550755C4E9FF56C4E4
:100FA000EAFFEF50586B576F006A016A5735026EBF
:100FB0005835036E023603360236033602360336E0
:100FC00002360336E00E0216005051130150521340
:100FD000025053130350541353D0020E555F000EAA
:100FE000565B55C4E9FF56C4EAFFEF505A6B596B84
:100FF000586B576FE00E5717586B596B5A6B5A3135
:10100000546F5931536F5831526F5731516F5433B8
:1010100053335233513354335333523351335433A4
:101020005333523351335433533352335133070E06
:1010300054175551D8B45607550755C4E9FF56C43F
:10104000EAFFEF505A6B596B586B576F5735006E6C
:101050005835016E5935026E5A35036E0036013629
:10106000023603360036013602360336F80E001615
:101070000050511301505213025053130350541394
:1010800051C400F052C401F053C402F054C403F040
:101090000001000C2450FF0801E1242A2450090813
:1010A000D8A044D1040E0401436F380E426F60AEE5
:1010B00017D0F10E6F146F6E3799A490379174BEEC
:1010C0003781749E60A40BD0000E60B0010E070B38
:1010D000006ED8900036F10E37150010376F20D013
:1010E0000F0150AF19D0F10E6F140A096F6E040191
:1010F0003789A492379174BC3781749C0F01505189
:10110000070B070B006ED8900036F10E040137155F
:101110000010376F05D00F01000E016E4CD0040196
:1011200065500F0B366F379B65BC378B379D62B6AA
:10113000378D000E37BD010E476F0F0E4F6F640ED7
:101140004E6F47C450F40001A9DE03C035F402C05D
:1011500034F401C033F400C032F40F0E0401466FC2
:10116000660E456F446B3651445D14E245C4E9FF99
:1011700046C4EAFFEFCF49F443C4EAFF42C4E9FFA3
:1011800049C4EFFF422BD8B4432B452BD8B4462B90
:10119000442BE9D7F10E6F146F6E379FA4BE378FC3
:1011A000A49E37A904D00F01509F03D00401609E74
:1011B0000F01010E016E0401416B415320E14151C9
:1011C000040DF350036A350FE96E010E0320EA6E39
:1011D000EFCF00F0ECCF01F0ECCF02F0ECCF03F05A
:1011E0000050325D0AE10150335D07E10250345D89
:1011F00004E10350355D01E123D1412BDED72450BA
:101200000E0DF350436B426F250E4225E96E000E22
:101210004321EA6E35C4EFFF24500E0DF350436BAB
:10122000426F010E4225016E000E4321036E0150F4
:10123000250FE96E000E0320EA6E34C4EFFF245040
:101240000E0DF350436B426F020E4225016E000EED
:101250004321036E0150250FE96E000E0320EA6E54
:1012600033C4EFFF24500E0DF350436B426F030E57
:101270004225016E000E4321036E0150250FE96ED9
:10128000000E0320EA6E32C4EFFF24500E0DF3501F
:10129000436B426F040E4225016E000E4321036E24
:1012A0000150250FE96E000E0320EA6E36C4EFFFF1
:1012B00024500E0DF350436B426F050E4225016E14
:1012C000000E4321036E0150250FE96E000E03202E
:1012D000EA6E37C4EFFF406B3651405D24E2245084
:1012E0000E0DF350436B426F060E4025036A4225F4
:1012F000016E435103220150250F016E000E03229F
:1013000003C043F4036A4051380FE96E040E032012
:10131000EA6EEFCF44F443C4EAFF01C0E9FF44C4DE
:10132000EFFF402BD9D7242A8BD00001040E0401F3
:10133000436F380E426F60AE17D0F10E6F146F6EB0
:101340003799A490379174BE3781749E60A40BD0F6
:10135000000E60B0010E070B006ED8900036F10E43
:1013600037150010376F20D00F0150AF19D0F10E94
:101370006F140A096F6E04013789A492379174BC07
:101380003781749C0F015051070B070B006ED890EA
:101390000036F10E040137150010376F05D00F012C
:1013A000000E016E4CD0040165500F0B366F379B59
:1013B00065BC378B379D62B6378D000E37BD010E89
:1013C000476F0F0E4F6F640E4E6F47C450F400010D
:1013D00065DD03C035F402C034F401C033F400C04D
:1013E00032F40F0E0401466F660E456F446B3651A2
:1013F000445D14E245C4E9FF46C4EAFFEFCF49F477
:1014000043C4EAFF42C4E9FF49C4EFFF422BD8B40A
:10141000432B452BD8B4462B442BE9D7F10E6F1440
:101420006F6E379FA4BE378FA49E37A904D00F01DB
:10143000509F03D00401609E0F01010E016E040154
:101440000001000C27DEA4908EEF00F023DEA492B2
:101450008EEF00F053C45AF452C459F404015853A7
:1014600052E059C4E9FF5AC4EAFF54C4EFFF59518E
:10147000D8B45A07590759C4E9FF5AC4EAFF55C4FA
:10148000EFFF5951D8B45A07590759C4E9FF5AC454
:10149000EAFF5651030BEF6E59C4E9FF5AC4EAFF45
:1014A00056C400F0003600360036F80E0016005024
:1014B000E00BEF10EF6E59C4E9FF5AC4EAFFEF509A
:1014C0000809EF6E5951D8B45A07590759C4E9FFB2
:1014D0005AC4EAFF56C400F0003A0032070E001664
:1014E0000050070BEF6E59C4E9FF5AC4EAFF57C416
:1014F00000F0003600360036F80E00160050F80BEB
:10150000EF10EF6E3FD059C4E9FF5AC4EAFFEF6A0B
:101510005951D8B45A07590759C4E9FF5AC4EAFFC8
:10152000EF6A5951D8B45A07590759C4E9FF5AC448
:10153000EAFF54C400F0003A0036E00E00160050F6
:10154000E00BEF6E5951D8B45A07590759C4E9FF57
:101550005AC4EAFF54C400F00032003200321F0EB9
:10156000001600501F0BEF6E59C4E9FF5AC4EAFF82
:1015700055C400F0003A0036E00E00160050E00BB3
:10158000EF10EF6E0001000C0F0E0401506F660E9D
:101590004F6F0F0140B708D0F10E6F1408096F6E3E
:1015A0000401516B1BD00F0130B709D0F10E6F143D
:1015B00006096F6E010E0401516F10D00F0120B7A4
:1015C00009D0F10E6F1404096F6E020E0401516F01
:1015D00005D00F01000E016E3DD004014B51030BED
:1015E000006EFC0E60140010606E0F0E536F640EE0
:1015F000526F47C457F446C456F445C455F444C426
:1016000054F44CC458F4000125DF4AC465FF659CBE
:1016100004014DB1658C4E6B4A514E5D14E248C4D5
:10162000E9FF49C4EAFFEFCF54F450C4EAFF4FC4C6
:10163000E9FF54C4EFFF4F2BD8B4502B482BD8B43C
:10164000492B4E2BE9D76086F10E6F146F6E010E99
:10165000016E0F01000136EF0CF0B2510A0801E1F2
:10166000B207B251FF08D8B403D1B2510D0DF350F7
:101670000401436B426FB30E4225E96E000E432115
:10168000EA6EEFCF42F40001B2510D0DF3500401A8
:10169000446B436F010E4325016E000E4421036E1F
:1016A0000150B30FE96E000E0320EA6EEFCF43F452
:1016B0000001B2510D0DF3500401456B446F020E51
:1016C0004425016E000E4521036E0150B30FE96EF3
:1016D000000E0320EA6EEFCF44F40001B2510D0D6D
:1016E000F3500401466B456F030E4525016E000E55
:1016F0004621036E0150B30FE96E000E0320EA6E1F
:10170000EFCF45F442C435F443C434F444C433F455
:1017100045C432F40001B2510D0DF3500401436B86
:10172000426F0C0E4225016E000E4321036E0150E4
:10173000B30FE96E000E0320EA6EEF38366F0F0E1E
:1017400036170001B2510D0DF3500401436B426F87
:101750000C0E4225016E000E4321036E0150B30FA3
:10176000E96E000E0320EA6EEF500C0B006E0030A5
:10177000376F37333F0E37170001B2510D0DF3505D
:101780000401436B426F0C0E4225016E000E432193
:10179000036E0150B30FE96E000E0320EA6EEFCF27
:1017A00042F4409142B340810001B2510D0DF3501B
:1017B0000401436B426F0C0E4225016E000E432163
:1017C000036E0150B30FE96E000E0320EA6EEFCFF7
:1017D00042F4409342B14083416B3651415D28E26F
:1017E000036A4151380F016E040E032201C042F416
:1017F00003C043F40001B2510D0DF3500401456BD9
:10180000446F040E4125036A4425016E45510322AD
:101810000150B30FE96E000E0320EA6EEFCF44F4DF
:1018200043C4EAFF42C4E9FF44C4EFFF412BD5D7CC
:10183000000E40B1010E426F000E40B3010E436F27
:1018400035C447F434C446F433C445F432C444F4D4
:10185000040E496F380E486F36C44AF437C44BF44F
:1018600042C44CF443C44DF400018ED6B20701D0FB
:1018700000D0000CF2DEA4948EEF00F0EEDEA49611
:101880008EEF00F0EADEA4988EEF00F0A49E8EEFBB
:1018900000F0A49A8EEF00F003015253D8B492D016
:1018A00051C334F4010E0401356FD8903435006E05
:1018B000D8900036005003014F250401386F000E08
:1018C000030150210401396FD89035353825366F22
:1018D000000E3921376FD8903435006ED89000361D
:1018E000005003014F250401386F000E0301502101
:1018F0000401396FD89035353825016E000E392135
:10190000036E01C0E9FFEA6EEFCF01F0E92AEF5064
:10191000E906026E02C033F401C032F4335182167C
:10192000325183160301512B520751C334F4040181
:10193000356BD8903435006ED890003600500301D6
:101940004F250401386F000E030150210401396F47
:10195000D89035353825366F000E3921376FD8903D
:101960003435006ED8900036005003014F25040135
:10197000386F000E030150210401396FD8903535BE
:101980003825016E000E3921036E01C0E9FFEA6EB1
:10199000EFCF01F0E92AEF50E906026E02C035F4FC
:1019A00001C034F4D8900134026E3535036E025014
:1019B0000001B9EC00F00900F5CF03F0BE6E03C0E2
:1019C000BFFF03019E9400018EEF00F0256C75208F
:1019D0003C2D3E20256C750A0D00256C75203C2D94
:1019E0003E202575203C2D3E2025750A0D00040162
:1019F0001D39700B006ED89000361F0E6F1400104A
:101A00006F6E6ECF00F0003A0030070B1D5DF9E1FC
:101A10000001000CC00E70140409706E3F0E7014AB
:101A2000706EF80E71140209716EC70E71142809D8
:101A3000716E719C718EF80E72140509726E729C33
:101A400028EF0DF0040E04011D6F0001D0DFE2D776
:101A5000606A9F0E6014606E608460CF50FF739A5E
:101A60007398739E739C1B6AF2BE1B8EF29E0F0EC0
:101A70000401536F1B0E526F576B566B556B546BB3
:101A8000586B0001E7DC1BBEF28E1B6AF2BE1B8E98
:101A9000F29E0F0E0401536F030E526F576B566B7D
:101AA000556B546B586B0001D5DC1BBEF28E1B6A64
:101AB000F2BE1B8EF29E0F0E0401536F070E526F83
:101AC000576B566B556B546B586B0001C3DC1BBED8
:101AD000F28E1B6AF2BE1B8EF29E0F0E0401536F34
:101AE0001F0E526F576B566B556B546B586B000142
:101AF000B1DC1BBEF28E1B6AF2BE1B8EF29E0F0E75
:101B00000401536F0B0E526F576B566B556B546B32
:101B1000586B00019FDC1BBEF28E1B6AF2BE1B8E4F
:101B2000F29E0F0E0401536F526F576B566B556B3D
:101B3000546B586B00018EDC1BBEF28E1B6AF2BE2A
:101B40001B8EF29E0F0E0401536F130E526F576BD4
:101B5000566B556B546B586B00017CDC1BBEF28ED0
:101B60001B6AF2BE1B8EF29E0F0E0401536F170EFE
:101B7000526F576B566B556B546B586B00016ADC98
:101B80001BBEF28E9350FB0B08090401936E1D6B74
:101B900000012DDF49EF11F0040120C4E9FF21C449
:101BA000EAFF020EEF6E1EC423F41FC426F429833D
:101BB000010E2E6F25912891246B276B036A225109
:101BC0001C0FE96E000E0320EA6EEFCF2FF4010E1A
:101BD0002025E96E000E2121EA6E040EE26E230E2E
:101BE000E16E110E016EE6CFEEFF012EFCD7000173
:101BF0000AEF0EF0010E01013A6F04011D6F020E93
:101C00001E6F030E1F6F010E216F3C0E206F226BA3
:101C10000001C2D796EF11F0A380A382A384A3860C
:101C2000A388A38EA38A9D84F28A9D82F288C00E27
:101C3000F21297EF11F0040EEA6E1E0EE96EEF50ED
:101C400011E00C0E016EBF0E006E0400002EFDD7D9
:101C5000012EF9D7F70E006E002EFED7000004000B
:101C6000EF2EEFD7CFEF0EF0939A8A9A080E016EFF
:101C700000D00000018E10D0019E04012A33000123
:101C8000D8B08A8AD8A08A9A018C06D0019C012EED
:101C9000F4D700D000008A8A010E006EE96AE92EAE
:101CA000FED7002EFBD7530EE96EE92EFED700D0EB
:101CB000040001BEE1D701BCE9D7000C0900F6CF52
:101CC00022F4F7CF23F4F8CF24F4F5CF2AF4CCDFB5
:101CD00022C4F6FF23C4F7FF24C4F8FF0401212F18
:101CE00001D002D00001EAD70001000C040122510A
:101CF000016A215D03E221C400F00CD0006A080EE5
:101D0000236F213700362251005CD8B0006E0136B7
:101D1000232FF7D70001000C01501FC421F4640EDB
:101D20000401226F0001E2DF00C01FF40150300EF9
:101D300008E1040120A30FD020B70DD020B9200E58
:101D400004D00401209720992081012601C02AF4A3
:101D500000018ADF04011FC421F40A0E226F000172
:101D6000C5DF00C01FF40150300E08E1040120B7A8
:101D70000AD020A108D020B9200E0001012601C000
:101D80002AF472DF0401300E1F271FC42AF4000159
:101D90006BDF000CC80E04011E6F00014CD704015C
:101DA0001D6B01013A5104011D5DD8B018D11B6AA9
:101DB000F2BE1B8EF29E346B1DC433F4366B120ED2
:101DC000356F00016CEC01F01BBEF28E02C003F017
:101DD00001503C0FE96E010E0220EA6EEF5007E061
:101DE000010AD8B46BD0030AD8B4AFD0F5D0010142
:101DF0003FA11ED0AA0EF66E020EF76E000EF86E10
:101E00000A0E0401216F000159DF3EC11FF41B0EB1
:101E10000401206F000180DF0A0E04012A6F000117
:101E200023DF0D0E04012A6F00011EDF01013F9127
:101E300042A122D06F0E04012A6F000115DF6E0E41
:101E400004012A6F000110DF200E04012A6F000137
:101E50000BDF41C11FF41B0E0401206F00015CDF8A
:101E60000A0E04012A6F0001FFDE0D0E04012A6F25
:101E70000001FADE0101429145A11ED0BA0EF66EB4
:101E8000020EF76E000EF86E040E0401216F0001C1
:101E900015DF44C11FF41B0E0401206F00013CDF5D
:101EA0000A0E04012A6F0001DFDE0D0E04012A6F05
:101EB0000001DADE0101459100018ED001013FA150
:101EC00022D06F0E04012A6F0001CEDE6E0E0401D7
:101ED0002A6F0001C9DE200E04012A6F0001C4DE52
:101EE0003EC11FF41B0E0401206F000115DF0A0E16
:101EF00004012A6F0001B8DE0D0E04012A6F0001F3
:101F0000B3DE01013F9142A11ED0C40EF66E020E57
:101F1000F76E000EF86E040E0401216F0001CEDE94
:101F200041C11FF41B0E0401206F0001F5DE0A0EF3
:101F300004012A6F000198DE0D0E04012A6F0001D2
:101F400093DE01014291000147D001013FA122D05F
:101F50006F0E04012A6F000187DE6E0E04012A6FE6
:101F6000000182DE200E04012A6F00017DDE3EC1E9
:101F70001FF41B0E0401206F0001CEDE0A0E0401C7
:101F80002A6F000171DE0D0E04012A6F00016CDE64
:101F900001013F9142A11ED0CE0EF66E020EF76EE9
:101FA000000EF86E040E0401216F000187DE41C1AE
:101FB0001FF41B0E0401206F0001AEDE0A0E0401A7
:101FC0002A6F000151DE0D0E04012A6F00014CDE64
:101FD00001014291000100D004011D2BE2D6000155
:101FE000D9D698EF11F0EACF29F4E9CF28F404010B
:101FF0002239F009246F2427E20F256F320F276F53
:1020000022510F0B252725272727E90F266F262783
:10201000262721390F0B2627272726372737271F63
:10202000273721510F0B27272437070E236F0A0E5E
:1020300026072727FDE325072627FDE32407252775
:10204000FDE323072427FDE3040EEA6E230EE96E69
:10205000070E2815289DE926270EE95CD8B4288D9F
:10206000EF50006E08E128BD06D028B915D028B77A
:1020700002D0200E03D028872899300E0026EACF00
:1020800022F4E9CF21F400C02AF40001EDDD22C4DE
:10209000EAFF21C4E9FF0401EE5028ADDDD70001BD
:1020A000000CF86AD09E078EEA6AE96A939A8A8AD7
:1020B000246AB191B26BB18303014E6B0001B197F9
:1020C0000401116B156B146B136B270E126F00015B
:1020D000B199C150C00B0F09C16E070EB46E1C6AD6
:1020E000010E1D6E020E1E6E030E1F6E040E206E7C
:1020F000050E216E200E226E210E236E0B0E0101A5
:10210000356F366B376B386B0A0E0301556F566FA0
:10211000576F586F596F5A6F5B6F5C6F5D6F5E6F73
:102120005F6F606F616F626F636F646F656B666B2B
:10213000676B686B696B6A6B010E6B6F6C6B6D6BB9
:102140006E6B020E6F6F706B716B726B030E736F41
:10215000746B756B766B040E776F786B796B7A6B3B
:10216000050E7B6F7C6B7D6B7E6B060E7F6F806BCD
:10217000816B826B070E836F846B856B866B080E99
:10218000876F886B896B8A6B090E8B6F8C6B8D6B7D
:102190008E6B0A0E8F6F906B916B926B0B0E936F21
:1021A000946B956B966B0C0E976F986B996B9A6B03
:1021B0000D0E9B6F9C6B9D6B9E6B0E0E9F6FA06BAD
:1021C000A16BA26B0F0EA36FA46BA56BA66BA76B85
:1021D000A86BA96BAA6BAB6BAC6BAD6BAE6B010E56
:1021E000AF6FB06BB16BB26B020EB36FB46BB56B0C
:1021F000B66B030EB76FB86BB96BBA6B040EBB6FDF
:10220000BC6BBD6BBE6B050EBF6FC06BC16BC26B91
:10221000060EC36FC46BC56BC66B070EC76FC86B6A
:10222000C96BCA6B080ECB6FCC6BCD6BCE6B090E36
:10223000CF6FD06BD16BD26B0A0ED36FD46BD56BD3
:10224000D66B0B0ED76FD86BD96BDA6B0C0EDB6FBE
:10225000DC6BDD6BDE6B0D0EDF6FE06BE16BE26B59
:102260000E0EE36FE46BE56BE66B0F0EE76FE86B4A
:10227000E96BEA6BEB6BEC6B0401166B176B186B7D
:10228000196B1A6B106B0F6B0E6B0D6B000122EF4D
:102290000DF0040E04011D6F0001F7EC0CF0C00EF0
:1022A00070140409706E3F0E7014706EF80E711485
:1022B0000209716EC70E71142809716E719C719EAE
:1022C000F80E72140509726E728C04011D6B000108
:1022D000F7EC0CF0810ED56E950ECD6E600E0609F2
:1022E000CA6EF10ECB6E0A0EBD6EF18CC150C00BE2
:1022F0000F09C16EC050C00BC06EC09EC2809698C0
:10230000C69A010EC66E000EC76E070EB46E9550CB
:10231000956E9650966E0400200E006E002EFED72D
:1023200000D0B450A19CB56AB16A64D475D432D5DA
:10233000B1B501D0FDD70101396B39511008D8A0D2
:10234000A3D039C134F40401356BD8903435006E14
:10235000D8900036005003014F250401386F000E5D
:10236000030150210401396FD89035353825366F77
:10237000000E3921376FD8903435006ED890003672
:10238000005003014F250401386F000E0301502156
:102390000401396FD89035353825016E000E39218A
:1023A000036E01C0E9FFEA6EEFCF01F0E92AEF50BA
:1023B000E906026E02C01EF401C01DF439C134F4F6
:1023C000010E356FD8903435006ED890003600502D
:1023D00003014F250401386F000E03015021040151
:1023E000396FD89035353825366F000E3921376F63
:1023F000D8903435006ED8900036005003014F2538
:102400000401386F000E030150210401396FD89088
:1024100035353825016E000E3921036E01C0E9FF04
:10242000EA6EEFCF01F0E92AEF50E906026E02C032
:1024300020F401C01FF4100EE96E1EC422F41DC466
:1024400021F40001D0DDCF0EF66E190EF76E000EEE
:10245000F86E050E0401216F000130DC100EE96EEC
:1024600020C422F41FC421F4BEDD0A0E04012A6F29
:10247000000134EC0EF00D0E04012A6F000134EC63
:102480000EF00101392B59D70401346B010E356F61
:10249000D8903435006ED8900036005003014F2597
:1024A0000401386F000E030150210401396FD890E8
:1024B00035353825366F000E3921376FD8903435D1
:1024C000006ED8900036005003014F250401386F8C
:1024D000000E030150210401396FD890353538259D
:1024E000016E000E3921036E01C0E9FFEA6EEFCFE5
:1024F00001F0E92AEF50E906026E02C01CF401C0A7
:102500001BF41CC41DF41BC41EF4100EE96E1CC485
:1025100022F41BC421F4000166DDDD0EF66E190EF7
:10252000F76E000EF86E050E0401216F00015EECDF
:102530000EF01DC41FF41B0E0401206F00018CEC73
:102540000EF0E40EF66E190EF76E000EF86E050E24
:102550000401216F00015EEC0EF01EC41FF41B0E7F
:102560000401206F00018CEC0EF00A0E04012A6FAA
:10257000000134EC0EF00D0E04012A6F000134EC62
:042580000EF0030056
:020000040030CA
:0E00000000C61F0E0086B1003FC03FE03F402B
:00000001FF
;PIC18F4685
;CRC=3B3E  CREATED="03-Jun-11 17:11"
