:04000000A5EF14F064
:08000800046ED8CF05F0E0CF33
:1000100006F00001E9CF0CF0EACF07F0E1CF08F0DD
:10002000E2CF09F0D9CF0AF0DACF0BF0F3CF12F01C
:10003000F4CF13F0FACF14F0F5CF15F0F6CF16F099
:10004000F7CF17F0F8CF18F0FBCF19F000C00EF083
:1000500001C00FF002C010F003C011F0F2AA34EF9B
:1000600000F0F2B4AFEF06F09DA03AEF00F09EB0C2
:10007000C1EF06F0F2A840EF00F0F2B2C5EF06F0D3
:100080009DAA46EF00F09EBA69EF07F09DA84CEFDD
:1000900000F09EB86CEF07F09DA452EF00F09EB404
:1000A00073EF0CF0A0A658EF00F0A1B66FEF07F0C9
:1000B000A3AE5EEF00F0A4BE6DEF0CF0A3AA64EF58
:1000C00000F0A4BA70EF0CF0A3A86AEF00F0A4B897
:1000D00069EF0CF0A3A670EF00F0A4B665EF0CF08A
:1000E000A3A476EF00F0A4B461EF0CF0A3A27CEF20
:1000F00000F0A4B24DEF0AF0A3A082EF00F0A4B08C
:1001000049EF0AF0A0AE88EF00F0A1BE72EF07F051
:100110000EC000F00FC001F010C002F011C003F0DB
:100120000CC0E9FF07C0EAFF078E08C0E1FF09C065
:10013000E2FF0AC0D9FF0BC0DAFF12C0F3FF13C001
:10014000F4FF14C0FAFF15C0F5FF16C0F6FF17C084
:10015000F7FF18C0F8FF19C0FBFF045006C0E0FF0E
:1001600005C0D8FF1000F76A7A0FF66E010EF7226D
:10017000000EF86E0900F5501200FFFEFFFDFFFBB8
:10018000FFF7FFEFFFDFFFBFFF7FFEFFFDFFFBFF7E
:10019000F7FFEFFFDFFFBFFF7FFFF76AAE0FF66EDF
:1001A000010EF722000EF86E0900F55012000096BD
:1001B0004B975C966D957E948F93A092B191C2906F
:1001C000D38FE48EF58D068D178C288B398A4A895A
:1001D0005B886C877D868E859F84B083C182D28147
:1001E000E380F47F057F167E277D387C497B5A7A31
:1001F0006B797C788D779E76AF75C074D173E2721F
:10020000F37104711570266F376E486D596C6A6B07
:100210007B6A8C699D68AE67BF66D065E164F263F6
:100220000363146225613660475F585E695D7A5CDE
:100230008B5B9C5AAD59BE58CF57E056F1550255CD
:1002400013542453355246515750684F794E8A4DB6
:100250009B4CAC4BBD4ACE49DF48F04701471246A4
:10026000234534444543564267417840893F9A3E8E
:10027000AB3DBC3CCD3BDE3AEF390039113822377B
:100280003336443555346633773288319930AA2F66
:10029000BB2ECC2DDD2CEE2BFF2A102A2129322853
:1002A0004327542665257624872398226902256CE6
:1002B00075203C2D3E20256C750A0D006E756D6C09
:1002C000757A65733D256420256C7520256C750A4B
:1002D0000D0064696D5F6C6576656C2025750A0D8F
:1002E00000006F66662025750A0D00006F666620A7
:1002F00025750A0D00006F66662025750A0D000041
:1003000004014C514E03F3CF01F0F4CF00F04F0342
:10031000F35000264D514E03F3500020026E0001B1
:10032000000C04014F51070B006E4F31016E01327A
:1003300001321F0E011601505125E96E000E5221A7
:10034000EA6E016A012A002A01D00136002EFDD78B
:10035000505303E00150EF1203D0011E0150EF167D
:100360000001000C04014F51070B006E4F31016E6C
:10037000013201321F0E011601505025E96E000EA8
:100380005121EA6EEFCF01F0002A01D00132002E98
:10039000FDD70001000C090E04014E25E96E000E88
:1003A0004F21EA6EEFCF50F4010E4E25E96E000E9C
:1003B0004F21EA6EEFCF51F40E0E4E25E96E000E7E
:1003C0004F21EA6E000EEFB0010E010BD8A405D14B
:1003D0000E0E4E25E96E000E4F21EA6EEF920A0EC8
:1003E0004E25E96E000E4F21EA6EEFCF00F0ECCF04
:1003F00001F0ECCF02F0ECCF03F000500301EB5D15
:100400000401526F01500301EC590401536F025073
:100410000301ED590401546F03500301EE59040127
:10042000556F0301F3510401555D15E31EE103010E
:10043000F2510401545D0FE318E10301F15104018D
:10044000535D09E312E152510301F05DD8B002D0CF
:1004500004010BD004010F0E4E25E96E000E4F2152
:10046000EA6EEF500208D8A4B7D00F0E4E25E96E01
:10047000000E4F21EA6EEF500408D8B4ADD00F0E35
:100480004E25E96E000E4F21EA6EEF2C1FD00F0EA5
:100490004E25E96E000E4F21EA6E040EEF6E4E25DA
:1004A000E96E000E4F21EA6E010EEF6E090E4E2529
:1004B000E96E000E4F21EA6E7F0EEF6E050E4E259F
:1004C000E96E000E4F21EA6EEF8085D00F0E4E25AB
:1004D000E96E000E4F21EA6E020EEF6E0A0E4E25F7
:1004E000E96E000E4F21EA6EEFCF00F0ECCF01F085
:1004F000ECCF02F0ECCF03F000500301EB5D040100
:10050000526F01500301EC590401536F0250030173
:10051000ED590401546F03500301EE590401556F66
:10052000555309E1545307E1535305E15251030177
:10053000EF5D42E204010E0E4E25E96E000E4F21E2
:10054000EA6E000EEFB4010E010B18E1090E4E2504
:10055000E96E000E4F21EA6EEF2A090E4E25E96E74
:10056000000E4F21EA6EEF507F0807E10E0E4E2578
:10057000E96E000E4F21EA6EEF841ED0090E4E2563
:10058000E96E000E4F21EA6EEF06090E4E25E96E68
:10059000000E4F21EA6EEF520FE10E0E4E25E96E6E
:1005A000000E4F21EA6EEF94070E4E25E96E000E05
:1005B0004F21EA6E010EEF6E0A0E04014E25E96E20
:1005C000000E4F21EA6EEBC3EFFFECC3ECFFEDC36F
:1005D000ECFFEEC3ECFF00D0B0D00E0E4E25E96E5E
:1005E000000E4F21EA6E000EEFB2010E010BD8A4EF
:1005F00096D00E0E4E25E96E000E4F21EA6EEF8268
:100600000F0E4E25E96E000E4F21EA6EEF500208E4
:1006100022E10F0E4E25E96E000E4F21EA6EEF6AC1
:100620000E0E4E25E96E000E4F21EA6E000EEFB45D
:10063000010E010B08E10E0E4E25E96E000E4F2152
:10064000EA6EEF8407D00E0E4E25E96E000E4F21A4
:10065000EA6EEF9464D00F0E4E25E96E000E4F2126
:10066000EA6EEF2C1ED00F0E4E25E96E000E4F21C4
:10067000EA6EEF6A040E4E25E96E000E4F21EA6E17
:10068000010EEF6E0E0E4E25E96E000E4F21EA6E42
:10069000EF84050E4E25E96E000E4F21EA6EEF80C5
:1006A0003ED00F0E4E25E96E000E4F21EA6EEF523E
:1006B0001FE10F0E4E25E96E000E4F21EA6E010E6E
:1006C000EF6E070E4E25E96E000E4F21EA6E010E09
:1006D000EF6E0E0E4E25E96E000E4F21EA6EEF947E
:1006E000080E4E25E96E000E4F21EA6EEF8017D0FE
:1006F0000F0E4E25E96E000E4F21EA6EEF500408F2
:100700000EE10F0E4E25E96E000E4F21EA6EEF6AE4
:100710000E0E4E25E96E000E4F21EA6EEF840A0E92
:100720004E25E96E000E4F21EA6EEBC3EFFFECC3DE
:10073000ECFFEDC3ECFFEEC3ECFF090E4E25E96EB6
:10074000000E4F21EA6EEF50505D1BE0010E4E256A
:10075000016E000E4F21036E090E4E25E96E000E4C
:100760004F21EA6EEFCF54F403C0EAFF01C0E9FF66
:1007700054C4EFFF020E4E25E96E000E4F21EA6EC3
:10078000EF800001A9EF06F0060E04014E25E96E88
:10079000000E4F21EA6E000EEFB0010E010B52E188
:1007A000060E4E25E96E000E4F21EA6E000EEFB2E6
:1007B000010E010B010846E1060E4E25E96E000E02
:1007C0004F21EA6EEF920B0E4E25E96E000E4F217F
:1007D000EA6EEF2C17D00B0E4E25E96E000E4F215E
:1007E000EA6EEF6A010E4E25E96E000E4F21EA6EA9
:1007F000010EEF6E020E4E25E96E000E4F21EA6EDD
:10080000EF801FD00B0E4E25E96E000E4F21EA6ED1
:10081000EF5217E10B0E4E25E96E000E4F21EA6EE6
:10082000010EEF6E040E4E25E96E000E4F21EA6EAA
:10083000010EEF6E050E4E25E96E000E4F21EA6E99
:10084000EF8013D0060E4E25E96E000E4F21EA6EA2
:10085000000EEFB0010E010B010807E1060E4E2558
:10086000E96E000E4F21EA6EEF820001A9EF06F05B
:10087000060E04014E25E96E000E4F21EA6E000EB1
:10088000EFB0010E010B1FE10B0E4E25E96E000EBD
:100890004F21EA6EEF2C17D00B0E4E25E96E000E9D
:1008A0004F21EA6EEF6A010E4E25E96E000E4F21D0
:1008B000EA6E010EEF6E020E4E25E96E000E4F211C
:1008C000EA6EEF802BD0060E4E25E96E000E4F210A
:1008D000EA6E000EEFB0010E010B01081FE10B0ED6
:1008E0004E25E96E000E4F21EA6EEF5217E10B0E16
:1008F0004E25E96E000E4F21EA6E010EEF6E040EDA
:100900004E25E96E000E4F21EA6E010EEF6E050EC8
:100910004E25E96E000E4F21EA6EEF800001A9EF2F
:1009200006F004014B6B0101D75104014B5DD8B0B7
:1009300013D24D6B4BC44CF44F6B120E4E6F000133
:10094000DFDC02C003F00150D90FE96E010E022076
:10095000EA6EEF500AE0030AD8B4AAD0020AD8B46B
:10096000A8D0030AD8B44BD1F3D104014D6B4BC4CA
:100970004CF44F6B120E4E6F0001C2DC0150020F9F
:1009800004014C6F000E02204D6F010E4C25016ECC
:10099000000E4D21036E0150D70F016E010E032290
:1009A0000150100FE96E000E0320EA6EEFCF4EF4F7
:1009B0004EC44FF4010E506F0F0E526F920E516FD6
:1009C0000001AFDC4EC44FF40F0E0401516F800ED6
:1009D000506F0001C7DC01A024D004014D6B4BC453
:1009E0004CF44F6B120E4E6F00018ADC0150020F67
:1009F00004014C6F000E02204D6F010E4C25016E5C
:100A0000000E4D21036E0150D70F016E010E03221F
:100A100001500E0FE96E000E0320EA6EEF8023D026
:100A2000000104014D6B4BC44CF44F6B120E4E6F22
:100A3000000166DC0150020F04014C6F000E022021
:100A40004D6F010E4C25016E000E4D21036E0150BD
:100A5000D70F016E010E032201500E0FE96E000E3A
:100A60000320EA6EEF904D6B4BC44CF44F6B120EAB
:100A70004E6F000145DC0150020F04014C6F000E67
:100A800002204D6F010E4C25016E000E4D21036EAC
:100A90000150D70F016E010E032201C04CF403C0B8
:100AA0004DF403C04FF401C04EF4000174D451D191
:100AB00050D104014D6B4BC44CF44F6B120E4E6F72
:100AC00000011EDC0150020F04014C6F000E0220D9
:100AD0004D6F010E4C25016E000E4D21036E01502D
:100AE000D70F016E010E032201500C0FE96E000EAC
:100AF0000320EA6EEFCF4EF44EC44FF4010E506F58
:100B00000F0E526F920E516F00010BDC4EC44FF46A
:100B10000F0E0401516F800E506F000123DC01A005
:100B200025D004014D6B4BC44CF44F6B120E4E6F2D
:100B3000000180EC01F00150020F04014C6F000E27
:100B400002204D6F010E4C25016E000E4D21036EEB
:100B50000150D70F016E010E03220150060FE96EFE
:100B6000000E0320EA6EEF8024D0000104014D6BDB
:100B70004BC44CF44F6B120E4E6F000180EC01F031
:100B80000150020F04014C6F000E02204D6F010E48
:100B90004C25016E000E4D21036E0150D70F016EE2
:100BA000010E03220150060FE96E000E0320EA6ECB
:100BB000EF904D6B4BC44CF44F6B120E4E6F000117
:100BC00080EC01F00150020F04014C6F000E022076
:100BD0004D6F010E4C25016E000E4D21036E01502C
:100BE000D70F016E010E032201C04CF403C04DF477
:100BF00003C04FF401C04EF40001C6D5AAD00401D1
:100C00004D6B4BC44CF44F6B120E4E6F000180ECD9
:100C100001F00150020F04014C6F000E02204D6FD5
:100C2000010E4C25016E000E4D21036E0150D70FB1
:100C3000016E010E032201500C0FE96E000E03201D
:100C4000EA6EEFCF4EF44EC44FF4010E506F0F0E0C
:100C5000526F920E516F000191EC01F04EC44FF4AF
:100C60000F0E0401516F800E506F0001B2EC01F0C5
:100C700001A025D004014D6B4BC44CF44F6B120EF8
:100C80004E6F000180EC01F00150020F04014C6F27
:100C9000000E02204D6F010E4C25016E000E4D21FD
:100CA000036E0150D70F016E010E03220150060F93
:100CB000E96E000E0320EA6EEF8024D000010401EB
:100CC0004D6B4BC44CF44F6B120E4E6F000180EC19
:100CD00001F00150020F04014C6F000E02204D6F15
:100CE000010E4C25016E000E4D21036E0150D70FF1
:100CF000016E010E03220150060FE96E000E032063
:100D0000EA6EEF904D6B4BC44CF44F6B120E4E6F6E
:100D1000000180EC01F00150020F04014C6F000E45
:100D200002204D6F010E4C25016E000E4D21036E09
:100D30000150D70F016E010E032201C04CF403C015
:100D40004DF403C04FF401C04EF4000191D501D021
:100D500000D004014B2BE7D50001BCEF06F0010EDB
:100D60000301EB27D8B0EC2BD8B4ED2BD8B4EE2B85
:100D7000EBA303D00001D5D50301F294000188EF65
:100D800000F0B1899E9088EF00F0FF0E826E836EB6
:100D9000B1A511D0B195B1A708D0B197010E01014D
:100DA0003C6F4F0E3B6F07D00001B187010E010170
:100DB0003C6F930E3B6F01013D6B04014D6B4E6B1D
:100DC000D8904D35006ED8900036005001013B257B
:100DD0000401516F000E01013C210401526FD890B3
:100DE0004E3551254F6F000E5221506FD8904D3522
:100DF000006ED8900036005001013B250401516F70
:100E0000000E01013C210401526FD8904E3551254E
:100E1000016E000E5221036E01C0E9FFEA6EEFCFB2
:100E200001F0E92AEF50E906026E02C04CF401C05D
:100E30004BF4D8900134026E4C35036E0250000121
:100E4000CDEC00F00900F5CF03F0BE6E03C0BFFF8C
:100E5000100E04014D6F4E6BD8904D35006ED8903A
:100E60000036005001013B250401516F000E0101C5
:100E70003C210401526FD8904E3551254F6F000E22
:100E80005221506FD8904D35006ED89000360050EA
:100E900001013B250401516F000E01013C210401B9
:100EA000526FD8904E355125016E000E5221036EBF
:100EB00001C0E9FFEA6EEFCF01F0E92AEF50E90641
:100EC000026E01C03EF1CF6ACE6AF292000188EF55
:100ED00000F09E9A88EF00F09E9888EF00F0A196AF
:100EE00088EF00F0A19E88EF00F004016D6B6C6B41
:100EF0006B6B6A6B68C46FF467C46EF46953D8B4E3
:100F000093D06FC403F06EC4E9FF6FC4EAFFEFCF64
:100F100000F0016A026A036A03C06DF402C06CF457
:100F200001C06BF400C06AF46E51D8B46F076E074D
:100F30006EC4E9FF6FC4EAFFEF50726B716B706FA4
:100F4000006A00506A1370516B1371516C13725127
:100F50006D136E51D8B46F076E076EC4E9FF6FC48E
:100F6000EAFFEF50736B726B716B706F030E70174B
:100F7000716B726B736B006A016A00506A130150E7
:100F80006B1370516C1371516D136EC4E9FF6FC414
:100F9000EAFFEF50736B726B716B706FE00E70173E
:100FA000716B726B736B006A7035016E7135026E16
:100FB0007235036E013602360336013602360336C9
:100FC000013602360336013602360336E00E0116CC
:100FD00000506A1301506B1302506C1303506D13D1
:100FE0006E51D8B46F076E076EC4E9FF6FC4EAFF95
:100FF000EF50716B706F006A016A7035026E713567
:10100000036E0236033602360336023603360236E4
:101010000336E00E021600506A1301506B130250A3
:101020006C1303506D1353D0020E6E5F000E6F5B96
:101030006EC4E9FF6FC4EAFFEF50736B726B716BA4
:10104000706FE00E7017716B726B736B73316D6F35
:1010500072316C6F71316B6F70316A6F6D336C33DD
:101060006B336A336D336C336B336A336D336C338C
:101070006B336A336D336C336B336A33070E6D1722
:101080006E51D8B46F076E076EC4E9FF6FC4EAFFF4
:10109000EF50736B726B716B706F7035006E7135E2
:1010A000016E7235026E7335036E003601360236FC
:1010B00003360036013602360336F80E00160050AD
:1010C0006A1301506B1302506C1303506D136AC402
:1010D00000F06BC401F06CC402F06DC403F00001B9
:1010E000000C2450FF0801E1242A24500908D8A04C
:1010F00044D1040E04015C6F510E5B6F60AE17D0DB
:10110000F10E6F146F6E5099A490509174BE50817F
:10111000749E60A40BD0000E60B0010E070B006E31
:10112000D8900036F10E50150010506F20D00F01EE
:1011300050AF19D0F10E6F140A096F6E0401508977
:10114000A492509174BC5081749C0F015051070BB4
:10115000070B006ED8900036F10E040150150010F8
:10116000506F05D00F01000E016E4CD00401655088
:101170000F0B4F6F509B65BC508B509D62B6508DCE
:10118000000E50BD010E606F0F0E686F640E676F2A
:1011900060C469F40001A9DE03C04EF402C04DF43E
:1011A00001C04CF400C04BF40F0E04015F6F660EDB
:1011B0005E6F5D6B4F515D5D14E25EC4E9FF5FC41D
:1011C000EAFFEFCF62F45CC4EAFF5BC4E9FF62C4EC
:1011D000EFFF5B2BD8B45C2B5E2BD8B45F2B5D2B61
:1011E000E9D7F10E6F146F6E509FA4BE508FA49E6E
:1011F00050A904D00F01509F03D00401609E0F013D
:10120000010E016E04015A6B5A5320E15A51040D2C
:10121000F350036A350FE96E010E0320EA6EEFCF3B
:1012200000F0ECCF01F0ECCF02F0ECCF03F0005077
:101230004B5D0AE101504C5D07E102504D5D04E158
:1012400003504E5D01E123D15A2BDED724500E0D01
:10125000F3505C6B5B6F250E5B25E96E000E5C2125
:10126000EA6E4EC4EFFF24500E0DF3505C6B5B6FC3
:10127000010E5B25016E000E5C21036E0150250FEF
:10128000E96E000E0320EA6E4DC4EFFF24500E0DF0
:10129000F3505C6B5B6F020E5B25016E000E5C21F0
:1012A000036E0150250FE96E000E0320EA6E4CC458
:1012B000EFFF24500E0DF3505C6B5B6F030E5B254C
:1012C000016E000E5C21036E0150250FE96E000EC9
:1012D0000320EA6E4BC4EFFF24500E0DF3505C6BFD
:1012E0005B6F040E5B25016E000E5C21036E0150E6
:1012F000250FE96E000E0320EA6E4FC4EFFF245065
:101300000E0DF3505C6B5B6F050E5B25016E000EDE
:101310005C21036E0150250FE96E000E0320EA6E7A
:1013200050C4EFFF596B4F51595D24E224500E0D0C
:10133000F3505C6B5B6F060E5925036A5B25016EEB
:101340005C5103220150250F016E000E032203C0E1
:101350005CF4036A5951510FE96E040E0320EA6EE2
:10136000EFCF5DF45CC4EAFF01C0E9FF5DC4EFFFAD
:10137000592BD9D7242A8BD00001040E04015C6FAD
:10138000510E5B6F60AE17D0F10E6F146F6E5099F7
:10139000A490509174BE5081749E60A40BD0000E36
:1013A00060B0010E070B006ED8900036F10E50159C
:1013B0000010506F20D00F0150AF19D0F10E6F14F4
:1013C0000A096F6E04015089A492509174BC508137
:1013D000749C0F015051070B070B006ED89000361C
:1013E000F10E040150150010506F05D00F01000ED2
:1013F000016E4CD0040165500F0B4F6F509B65BCC4
:10140000508B509D62B6508D000E50BD010E606F26
:101410000F0E686F640E676F60C469F4000165DDCC
:1014200003C04EF402C04DF401C04CF400C04BF4B4
:101430000F0E04015F6F660E5E6F5D6B4F515D5D59
:1014400014E25EC4E9FF5FC4EAFFEFCF62F45CC45C
:10145000EAFF5BC4E9FF62C4EFFF5B2BD8B45C2BEF
:101460005E2BD8B45F2B5D2BE9D7F10E6F146F6E36
:10147000509FA4BE508FA49E50A904D00F01509F2E
:1014800003D00401609E0F01010E016E04010001F2
:10149000000C27DEA49088EF00F023DEA49288EFF2
:1014A00000F06CC473F46BC472F40401715352E025
:1014B00072C4E9FF73C4EAFF6DC4EFFF7251D8B480
:1014C0007307720772C4E9FF73C4EAFF6EC4EFFFCB
:1014D0007251D8B47307720772C4E9FF73C4EAFF8C
:1014E0006F51030BEF6E72C4E9FF73C4EAFF6FC460
:1014F00000F0003600360036F80E00160050E00B03
:10150000EF10EF6E72C4E9FF73C4EAFFEF500809F1
:10151000EF6E7251D8B47307720772C4E9FF73C4D7
:10152000EAFF6FC400F0003A0032070E00160050C8
:10153000070BEF6E72C4E9FF73C4EAFF70C400F0DA
:10154000003600360036F80E00160050F80BEF108B
:10155000EF6E3FD072C4E9FF73C4EAFFEF6A7251C5
:10156000D8B47307720772C4E9FF73C4EAFFEF6A65
:101570007251D8B47307720772C4E9FF73C4EAFFEB
:101580006DC400F0003A0036E00E00160050E00B8B
:10159000EF6E7251D8B47307720772C4E9FF73C457
:1015A000EAFF6DC400F00032003200321F0E001658
:1015B00000501F0BEF6E72C4E9FF73C4EAFF6EC4E4
:1015C00000F0003A0036E00E00160050E00BEF107D
:1015D000EF6E0001000C0F0E0401696F660E686F5C
:1015E0000F0140B708D0F10E6F1408096F6E0401A7
:1015F0006A6B1BD00F0130B709D0F10E6F140609CA
:101600006F6E010E04016A6F10D00F0120B709D070
:10161000F10E6F1404096F6E020E04016A6F05D09B
:101620000F01000E016E3DD004016451030B006EEA
:10163000FC0E60140010606E0F0E6C6F640E6B6F0A
:1016400060C470F45FC46FF45EC46EF45DC46DF486
:1016500065C471F4000125DF63C465FF659C040166
:1016600066B1658C676B6351675D14E261C4E9FF25
:1016700062C4EAFFEFCF6DF469C4EAFF68C4E9FF12
:101680006DC4EFFF682BD8B4692B612BD8B4622BE3
:10169000672BE9D76086F10E6F146F6E010E016E35
:1016A0000F0100015DEF0CF0B2510A0801E1B20731
:1016B000B251FF08D8B403D1B2510D0DF35004015B
:1016C0005C6B5B6FB30E5B25E96E000E5C21EA6E0E
:1016D000EFCF5BF40001B2510D0DF35004015D6BCF
:1016E0005C6F010E5C25016E000E5D21036E0150E2
:1016F000B30FE96E000E0320EA6EEFCF5CF4000139
:10170000B2510D0DF35004015E6B5D6F020E5D254D
:10171000016E000E5E21036E0150B30FE96E000EE4
:101720000320EA6EEFCF5DF40001B2510D0DF350CE
:1017300004015F6B5E6F030E5E25016E000E5F217C
:10174000036E0150B30FE96E000E0320EA6EEFCF77
:101750005EF45BC44EF45CC44DF45DC44CF45EC4F2
:101760004BF40001B2510D0DF35004015C6B5B6F43
:101770000C0E5B25016E000E5C21036E0150B30F51
:10178000E96E000E0320EA6EEF384F6F0F0E4F1711
:101790000001B2510D0DF35004015C6B5B6F0C0E38
:1017A0005B25016E000E5C21036E0150B30FE96EE4
:1017B000000E0320EA6EEF500C0B006E0030506FED
:1017C00050333F0E50170001B2510D0DF35004017C
:1017D0005C6B5B6F0C0E5B25016E000E5C21036E73
:1017E0000150B30FE96E000E0320EA6EEFCF5BF4F9
:1017F00059915BB359810001B2510D0DF3500401B1
:101800005C6B5B6F0C0E5B25016E000E5C21036E42
:101810000150B30FE96E000E0320EA6EEFCF5BF4C8
:1018200059935BB159835A6B4F515A5D28E2036A51
:101830005A51510F016E040E032201C05BF403C024
:101840005CF40001B2510D0DF35004015E6B5D6F4D
:10185000040E5A25036A5D25016E5E510322015074
:10186000B30FE96E000E0320EA6EEFCF5DF45CC4A7
:10187000EAFF5BC4E9FF5DC4EFFF5A2BD5D7000E2A
:1018800059B1010E5B6F000E59B3010E5C6F4EC46F
:1018900060F44DC45FF44CC45EF44BC45DF4040EBC
:1018A000626F510E616F4FC463F450C464F45BC443
:1018B00065F45CC466F400018ED6B20701D000D096
:1018C000000CF2DEA49488EF00F0EEDEA49688EF20
:1018D00000F0EADEA49888EF00F0A49E88EF00F004
:1018E000A49A88EF00F001013E53D8B494D09694A6
:1018F0008D943DC14DF4010E04014E6FD8904D35CD
:10190000006ED8900036005001013B250401516F54
:10191000000E01013C210401526FD8904E35512533
:101920004F6F000E5221506FD8904D35006ED890F9
:101930000036005001013B250401516F000E0101EA
:101940003C210401526FD8904E355125016E000E96
:101950005221036E01C0E9FFEA6EEFCF01F0E92AE0
:10196000EF50E906026E02C04CF401C04BF44C513A
:1019700082164B51831601013D2B3E073DC14DF4AC
:1019800004014E6BD8904D35006ED8900036005053
:1019900001013B250401516F000E01013C210401AE
:1019A000526FD8904E3551254F6F000E5221506F17
:1019B000D8904D35006ED8900036005001013B257F
:1019C0000401516F000E01013C210401526FD890B7
:1019D0004E355125016E000E5221036E01C0E9FF04
:1019E000EA6EEFCF01F0E92AEF50E906026E02C07D
:1019F0004EF401C04DF4D8900134026E4E35036EA2
:101A000002500001CDEC00F00900F5CF03F0BE6EEE
:101A100003C0BFFF01019E94000188EF00F0256C18
:101A200075203C2D3E20256C750A0D00256C752017
:101A30003C2D3E202575203C2D3E2025750A0D00AD
:101A40000301F639700B006ED89000361F0E6F142C
:101A500000106F6E6ECF00F0003A0030070BF65D9D
:101A6000F9E10001000CC00E70140409706E3F0E05
:101A70007014706EF80E71140209716EC70E711435
:101A80002809716E719C718EF80E72140509726EC0
:101A9000729C51EF0DF0040E0301F66F0001D0DFD0
:101AA000E2D7606A9F0E6014606E608460CF50FF62
:101AB000739A7398739E739C1B6AF2BE1B8EF29E80
:101AC0000F0E04016C6F1B0E6B6F706B6F6B6E6B88
:101AD0006D6B716B0001E5DC1BBEF28E1B6AF2BE02
:101AE0001B8EF29E0F0E04016C6F030E6B6F706BFA
:101AF0006F6B6E6B6D6B716B0001D3DC1BBEF28E76
:101B00001B6AF2BE1B8EF29E0F0E04016C6F070E55
:101B10006B6F706B6F6B6E6B6D6B716B0001C1DC0B
:101B20001BBEF28E1B6AF2BE1B8EF29E0F0E0401CC
:101B30006C6F1F0E6B6F706B6F6B6E6B6D6B716B81
:101B40000001AFDC1BBEF28E1B6AF2BE1B8EF29E42
:101B50000F0E04016C6F0B0E6B6F706B6F6B6E6B07
:101B60006D6B716B00019DDC1BBEF28E1B6AF2BEB9
:101B70001B8EF29E0F0E04016C6F6B6F706B6F6BA0
:101B80006E6B6D6B716B00018CDC1BBEF28E1B6A81
:101B9000F2BE1B8EF29E0F0E04016C6F130E6B6F64
:101BA000706B6F6B6E6B6D6B716B00017ADC1BBEC3
:101BB000F28E1B6AF2BE1B8EF29E0F0E04016C6F3A
:101BC000170E6B6F706B6F6B6E6B6D6B716B0001D3
:101BD00068DC1BBEF28E9350FB0B08090301936E69
:101BE000F66B00012DDF96EF15F0939A8A9A080E96
:101BF000016E00D00000018E10D0019E04014A3316
:101C00000001D8B08A8AD8A08A9A018C06D0019C9B
:101C1000012EF4D700D000008A8A010E006EE96A16
:101C2000E92EFED7002EFBD7530EE96EE92EFED724
:101C300000D0040001BEE1D701BCE9D7000CEACF17
:101C400049F4E9CF48F404014239F009446F4427CC
:101C5000E20F456F320F476F42510F0B4527452763
:101C60004727E90F466F4627462741390F0B46277E
:101C7000472746374737471F473741510F0B4727FD
:101C80004437070E436F0A0E46074727FDE3450713
:101C90004627FDE344074527FDE343074427FDE3CB
:101CA000040EEA6E430EE96E070E4815489DE926BC
:101CB000470EE95CD8B4488DEF50006E08E148BD8E
:101CC00006D048B915D048B702D0200E03D04887B7
:101CD0004899300E0026EACF42F4E9CF41F400C023
:101CE0004AF4000182DF42C4EAFF41C4E9FF040173
:101CF000EE5048ADDDD70001000C0900F6CF42F4EC
:101D0000F7CF43F4F8CF44F4F5CF4AF46EDF42C482
:101D1000F6FF43C4F7FF44C4F8FF0401412F01D08C
:101D200002D00001EAD70001000C04014451016A0D
:101D3000435D03E243C400F00CD0006A080E456F17
:101D4000433700364451005CD8B0006E0136452F51
:101D5000F7D70001000C200E04013EA9300E3F6FA2
:101D60003DC400F03DAF07D0001E002A00C03DF486
:101D70002D0E3F6F3E8F01503DC443F4640E446FFF
:101D80000001D3DF00C03DF4300E01240401406F98
:101D90003DC443F40A0E446F0001C7DF300E002437
:101DA0000401426F300E0124416F3FC400F03EA792
:101DB00002D03EAF3E953EB90BD03EAF22D03EB5ED
:101DC00020D000C040F43EB31CD000C041F419D074
:101DD000300E405D16E100C040F4200E3F6F3EA77C
:101DE00004D03E953E833EAF3E93300E415D09E107
:101DF00000C041F4200E406F3EA7F7D73E933EAFA0
:101E00003E913EA505D03FC44AF40001EEDE040138
:101E10003EA305D040C44AF40001E7DE04013EA120
:101E200004D041C44AF40001E0DE42C44AF4000197
:101E3000DCDE93EF12F004013881396B01013A5175
:101E40000401395D3DE23951040DF3503E6B3D6FA5
:101E5000F70E3D25016E030E3E21036E3E6F036AB1
:101E600039513F0FE96E010E0320EA6EEF50036A0D
:101E70003EC4EAFF01C0E9FF03C0ECFFED52EF6E84
:101E80003951040DF3503E6B3D6F020E3D25016E3E
:101E9000000E3E21036E0150F70FE96E030E032082
:101EA000EA6ED8903935036A0001B3EC00F00900FE
:101EB000F5CF03F0EF6E03C0ECFF0401392BBED762
:101EC00038A1E3D03891396B010E01013A5D04016C
:101ED000395DD8B0D9D03951040DF3503E6B3D6F08
:101EE000F70E3D25E96E030E3E21EA6EECCF3EF47F
:101EF000ED52EFCF3DF4010E3925040DF350406B48
:101F00003F6FF70E3F25E96E030E4021EA6EECCFDE
:101F100003F0ED52EFCF01F03E51035CD8A0B2D0F8
:101F200004E101503D5DD8B0ADD038813951040D88
:101F3000F3503E6B3D6FF70E3D25E96E030E3E21DB
:101F4000EA6EECCF03F0ED52EFCF3AF403C03BF46E
:101F50003951040DF3503E6B3D6FF70E3D25016E78
:101F6000030E3E21036E3E6F010E3925040DF35022
:101F7000406B3F6FF70E3F25E96E030E4021EA6E7E
:101F8000ECCF03F0ED52EFCF3FF43EC4EAFF01C0C7
:101F9000E9FF03C0ECFFED523FC4EFFF010E39250E
:101FA000040DF3503E6B3D6FF70E3D25E96E030EB9
:101FB0003E21EA6E3BC4ECFFED523AC4EFFF3951CB
:101FC000040DF3503E6B3D6F020E3D25016E000E79
:101FD0003E21036E0150F70FE96E030E0320EA6EF7
:101FE000ECCF03F0ED52EFCF3AF403C03BF439519C
:101FF000040DF3503E6B3D6F020E3D25016E000E49
:102000003E21036E0150F70F016E030E032201C043
:102010003DF403C03EF4010E3925040DF350406B2E
:102020003F6F020E3F25016E000E4021036E0150EE
:10203000F70FE96E030E0320EA6EECCF03F0ED52CA
:10204000EFCF3FF43EC4EAFF3DC4E9FF03C0ECFF1D
:10205000ED523FC4EFFF010E3925040DF3503E6BE6
:102060003D6F020E3D25016E000E3E21036E0150B4
:10207000F70FE96E030E0320EA6E3BC4ECFFED524E
:102080003AC4EFFF392B20D71BD70101396B3951E7
:10209000100850E33951040DF35004013E6B3D6FBD
:1020A000F70E3D25E96E030E3E21EA6EECCF3EF4BD
:1020B000ED52EFCF3DF401013951040DF35004010D
:1020C000406B3F6F020E3F25016E000E4021036EF4
:1020D0000150F70FE96E030E0320EA6EECCF40F4D7
:1020E000ED52EFCF3FF4100EE96E3EC442F43DC412
:1020F00041F40001A4DDB10EF66E020EF76E000E83
:10210000F86E050E0401416F0001F7DD100EE96E57
:1021100040C442F43FC441F492DD0A0E04014A6F08
:10212000000163DD0D0E04014A6F00015EDD010157
:10213000392BADD70301F75306E1F85304E104014D
:10214000376BD2D10301010E0401376F3C6B0001E4
:10215000B1A709D0F8C350F1F7C34FF1FAC352F158
:10216000F9C351F108D0F8C394F1F7C393F1FAC35E
:1021700096F1F9C395F1010E0401396F01013A514D
:102180000401395DD8B0B0D13951040DF3503E6B24
:102190003D6FF70E3D25E96E030E3E21EA6EECCF52
:1021A0003EF4ED52EFCF3DF4010E395D040DF350D6
:1021B000406B3F6FF70E3F25E96E030E4021EA6E3C
:1021C000ECCF03F0ED52EF503D5D03E103503E5D77
:1021D00002E0000E01D0010E3D6F3951040DF350A5
:1021E0003F6B3E6FF70E3E25E96E030E3F21EA6E10
:1021F000EF5202E1EC5202E0000E01D0010E000AA3
:1022000002E0000E01D0010E3D15D8B49DD00001B2
:10221000B1A74DD004013C51040DF3503E6B3D6F0E
:10222000020E3D25016E000E3E21036E01504F0F40
:10223000016E010E032201C03DF403C03EF43C5187
:10224000040DF350406B3F6F020E3F25016E000EF0
:102250004021036E01504F0FE96E010E0320EA6E1C
:10226000ECCF40F4ED52EFCF3FF43951040DF35071
:10227000426B416F020E4125016E000E4221036E3A
:102280000150F70FE96E030E0320EA6EECCF03F066
:10229000ED52EF503F15006E035040153EC4EAFF6B
:1022A0003DC4E9FFEC6EED5200C0EFFF4CD00401DD
:1022B0003C51040DF3503E6B3D6F020E3D25016E07
:1022C000000E3E21036E0150930F016E010E03229A
:1022D00001C03DF403C03EF43C51040DF350406B8B
:1022E0003F6F020E3F25016E000E4021036E01502C
:1022F000930FE96E010E0320EA6EECCF40F4ED522D
:10230000EFCF3FF43951040DF350426B416F020E91
:102310004125016E000E4221036E0150F70FE96E58
:10232000030E0320EA6EECCF03F0ED52EF503F15A1
:10233000006E035040153EC4EAFF3DC4E9FFEC6E59
:10234000ED5200C0EFFFCED03951040DF3503E6B7B
:102350003D6FF70E3D25E96E030E3E21EA6EEF520A
:1023600002E1EC5202E0000E01D0010E000AD8A4F6
:10237000B9D03C2B0001B1A75BD004013C51040D46
:10238000F3503E6B3D6F4F0E3D25016E010E3E2119
:10239000036E3E6F3951040DF350406B3F6FF70EE3
:1023A0003F25E96E030E4021EA6EECCF03F0ED52BB
:1023B000EFCF3FF43EC4EAFF01C0E9FF03C0ECFFEA
:1023C000ED523FC4EFFF3C51040DF3503E6B3D6FA7
:1023D000020E3D25016E000E3E21036E01504F0F8F
:1023E000016E010E032201C03DF403C03EF43951D9
:1023F000040DF350406B3F6F020E3F25016E000E3F
:102400004021036E0150F70FE96E030E0320EA6EC0
:10241000ECCF03F0ED52EFCF3FF43EC4EAFF3DC4F2
:10242000E9FF03C0ECFFED523FC4EFFF5AD00001BB
:1024300004013C51040DF3503E6B3D6F930E3D255E
:10244000016E010E3E21036E3E6F3951040DF350B3
:10245000406B3F6FF70E3F25E96E030E4021EA6E99
:10246000ECCF03F0ED52EFCF3FF43EC4EAFF01C0E2
:10247000E9FF03C0ECFFED523FC4EFFF3C51040DF8
:10248000F3503E6B3D6F020E3D25016E000E3E2166
:10249000036E0150930F016E010E032201C03DF443
:1024A00003C03EF43951040DF350406B3F6F020EF0
:1024B0003F25016E000E4021036E0150F70FE96EBB
:1024C000030E0320EA6EECCF03F0ED52EFCF3FF4A2
:1024D0003EC4EAFF3DC4E9FF03C0ECFFED523FC438
:1024E000EFFF372B392B4AD60001B1A705D00101E8
:1024F000906B37C48FF104D00101D46B37C4D3F192
:10250000BC0EF66E020EF76E000EF86E090E040198
:10251000416F00017DEC0EF037C43DF41F0E040145
:102520003E6F000118D4200E04014A6F0001F5EC43
:102530000DF0100EE96E50C142F44FC141F41FEC92
:102540000EF0200E04014A6F0001F5EC0DF0100EA4
:10255000E96E52C142F451C141F41FEC0EF00A0E73
:1025600004014A6F0001F5EC0DF00D0E04014A6FF5
:102570000001F5EC0DF0B185000C0301F9C3E9FF92
:10258000FAC3EAFF020EEF6EF7C3FCF3F8C3FFF3E2
:1025900004010283010E076F0301FE910401019102
:1025A0000301FD6B0401006B036A0301FB511C0F67
:1025B000E96E000E0320EA6EEFCF08F40401010E6D
:1025C0000301F925E96E000EFA21EA6E030EE26EB0
:1025D000FC0EE16E110E016EE6CFEEFF012EFCD770
:1025E000000103EF13F0010E0101D76F0301F66F35
:1025F000020EF76F030EF86F010EFA6FD90EF96F26
:10260000FB6B0001BAD704EF16F0030EEA6EF70E6B
:10261000E96EEF5011E00C0E016EBF0E006E04006B
:10262000002EFDD7012EF9D7F70E006E002EFED733
:1026300000000400EF2EEFD7000C0150F8C343F464
:10264000640E0401446F000195EC0EF000C0F8F335
:102650000150300E08E10301F9A30FD0F9B70DD0F6
:10266000F9B9200E04D00301F997F999F9810126EF
:1026700001C04AF40001F5EC0DF0F8C343F40A0E72
:102680000401446F000195EC0EF000C0F8F3015016
:10269000300E08E10301F9B70BD0F9A109D0F9B95F
:1026A000200E0001012601C04AF4F5EC0DF00301F3
:1026B000300EF827F8C34AF40001F5EC0DF0000CD9
:1026C000C80E0301F76F0001A0DF0301F66B0101E3
:1026D000D7510301F65DD8B034D11B6AF2BE1B8E10
:1026E000F29E04014D6BF6C34CF44F6B120E4E6F0D
:1026F000000180EC01F01BBEF28E02C003F001501D
:10270000D90FE96E010E0220EA6EEF5007E0010AD0
:10271000D8B476D0030AD8B4C2D010D10101DCA15C
:1027200021D0D20EF66E020EF76E000EF86E0A0E73
:102730000401416F00017DEC0EF0DBC1F8F31B0ECC
:102740000301F96F000179DF0A0E04014A6F0001ED
:10275000F5EC0DF00D0E04014A6F0001F5EC0DF0E3
:102760000101DC91DFA127D06F0E04014A6F000147
:10277000F5EC0DF06E0E04014A6F0001F5EC0DF062
:10278000200E04014A6F0001F5EC0DF0DEC1F8F3F4
:102790001B0E0301F96F000150DF0A0E04014A6F9E
:1027A0000001F5EC0DF00D0E04014A6F0001F5EC8F
:1027B0000DF00101DF91E2A121D0E20EF66E020ED2
:1027C000F76E000EF86E040E0401416F00017DECFF
:1027D0000EF0E1C1F8F31B0E0301F96F00012DDFCC
:1027E0000A0E04014A6F0001F5EC0DF00D0E040114
:1027F0004A6F0001F5EC0DF00101E29100019ED05D
:102800000101DCA127D06F0E04014A6F0001F5EC35
:102810000DF06E0E04014A6F0001F5EC0DF0200E74
:1028200004014A6F0001F5EC0DF0DBC1F8F31B0E5B
:102830000301F96F000101DF0A0E04014A6F000174
:10284000F5EC0DF00D0E04014A6F0001F5EC0DF0F2
:102850000101DC91DFA121D0EC0EF66E020EF76EC5
:10286000000EF86E040E0401416F00017DEC0EF0C5
:10287000DEC1F8F31B0E0301F96F0001DEDE0A0E64
:1028800004014A6F0001F5EC0DF00D0E04014A6FD2
:102890000001F5EC0DF00101DF9100014FD00101C5
:1028A000DCA127D06F0E04014A6F0001F5EC0DF09A
:1028B0006E0E04014A6F0001F5EC0DF0200E0401CC
:1028C0004A6F0001F5EC0DF0DBC1F8F31B0E0301BC
:1028D000F96F0001B2DE0A0E04014A6F0001F5EC47
:1028E0000DF00D0E04014A6F0001F5EC0DF0010131
:1028F000DC91DFA121D0F60EF66E020EF76E000E0F
:10290000F86E040E0401416F00017DEC0EF0DEC193
:10291000F8F31B0E0301F96F00018FDE0A0E0401AC
:102920004A6F0001F5EC0DF00D0E04014A6F000135
:10293000F5EC0DF00101DF91000100D00301F62B51
:10294000C6D60001BDD607EF16F0F86AD09E078EF6
:10295000EA6AE96A939A8A8A246AB191B26BB1836E
:10296000100E01013A6F0301EF6BF36BF26BF16B29
:10297000270EF06F0001B199C150C00B0F09C16E55
:10298000070EB46E1C6A010E1D6E020E1E6E030E43
:102990001F6E040E206E050E216E200E226E210E7B
:1029A000236E0B0E0101356F366B376B386B0A0ED9
:1029B0003F6F406F416F426F436F446F456F466F8B
:1029C000476F486F496F4A6F4B6F4C6F4D6F4E6F3B
:1029D0004F6B506B516B526B536B546B010E556FB9
:1029E000566B576B586B020E596F5A6B5B6B5C6B77
:1029F000030E5D6F5E6B5F6B606B040E616F626BED
:102A0000636B646B050E656F666B676B686B060EB8
:102A1000696F6A6B6B6B6C6B070E6D6F6E6B6F6BB8
:102A2000706B080E716F726B736B746B090E756F40
:102A3000766B776B786B0A0E796F7A6B7B6B7C6B3E
:102A40000B0E7D6F7E6B7F6B806B0C0E816F826BCC
:102A5000836B846B0D0E856F866B876B886B0E0E98
:102A6000896F8A6B8B6B8C6B0F0E8D6F8E6B8F6B80
:102A7000906B916B926B936B946B956B966B976B62
:102A8000986B010E996F9A6B9B6B9C6B020E9D6FFE
:102A90009E6B9F6BA06B030EA16FA26BA36BA46BCD
:102AA000040EA56FA66BA76BA86B050EA96FAA6B8A
:102AB000AB6BAC6B060EAD6FAE6BAF6BB06B070E56
:102AC000B16FB26BB36BB46B080EB56FB66BB76B0F
:102AD000B86B090EB96FBA6BBB6BBC6B0A0EBD6FDE
:102AE000BE6BBF6BC06B0B0EC16FC26BC36BC46B95
:102AF0000C0EC56FC66BC76BC86B0D0EC96FCA6B6A
:102B0000CB6BCC6B0E0ECD6FCE6BCF6BD06B0F0E35
:102B1000D16FD26BD36BD46BD56BD66B0301EE6BDD
:102B2000ED6BEC6BEB6B00014BEF0DF0040E030152
:102B3000F66F000120EC0DF0C00E70140409706EE9
:102B40003F0E7014706EF80E71140209716EC70E8C
:102B500071142809716E719C719EF80E721405092A
:102B6000726E728C0301F66B000120EC0DF0A380F5
:102B7000A382A384A386A388A38EA38AC150C00B7B
:102B80000F09C16EC050C00BC06EC09EC280969827
:102B9000C69A010EC66E000EC76E810ED56E950EDA
:102BA000CD6E000ECA6E000ECB6E0A0EBD6E9D84F9
:102BB000F18C000ECA6E000ECB6EB16A070EB46EB9
:102BC0009550956E9650966E0400200E006E002E65
:102BD000FED700D0B450A19CB56AF28AF288946AFC
:102BE000956AB197010E01013C6F4F0E3B6F0001DA
:102BF0001BEC0FF0010E01013C6F930E3B6F0001C7
:102C0000B1871BEC0FF0EFD4C00EF21259D5B1B55D
:102C100001D0FDD70101396B39511008D8A0A6D0D9
:102C200039C14DF404014E6BD8904D35006ED890EB
:102C30000036005001013B250401516F000E0101D7
:102C40003C210401526FD8904E3551254F6F000E34
:102C50005221506FD8904D35006ED89000360050FC
:102C600001013B250401516F000E01013C210401CB
:102C7000526FD8904E355125016E000E5221036ED1
:102C800001C0E9FFEA6EEFCF01F0E92AEF50E90653
:102C9000026E02C0F7F301C0F6F339C14DF4010E24
:102CA0004E6FD8904D35006ED8900036005001011F
:102CB0003B250401516F000E01013C210401526FBC
:102CC000D8904E3551254F6F000E5221506FD8903D
:102CD0004D35006ED8900036005001013B250401AF
:102CE000516F000E01013C210401526FD8904E3506
:102CF0005125016E000E5221036E01C0E9FFEA6EFC
:102D0000EFCF01F0E92AEF50E906026E02C0F9F3B5
:102D100001C0F8F3100EE96EF7C342F4F6C341F4B4
:102D200000011FEC0EF0210EF66E1A0EF76E000E6B
:102D3000F86E050E0401416F00017DEC0EF0100EDF
:102D4000E96EF9C342F4F8C341F41FEC0EF00A0E29
:102D500004014A6F0001F5EC0DF00D0E04014A6FFD
:102D60000001F5EC0DF00101392B56D704014D6B34
:102D7000010E4E6FD8904D35006ED8900036005041
:102D800001013B250401516F000E01013C210401AA
:102D9000526FD8904E3551254F6F000E5221506F13
:102DA000D8904D35006ED8900036005001013B257B
:102DB0000401516F000E01013C210401526FD890B3
:102DC0004E355125016E000E5221036E01C0E9FF00
:102DD000EA6EEFCF01F0E92AEF50E906026E02C079
:102DE000F5F301C0F4F3F5C3F6F3F4C3F7F3100EF3
:102DF000E96EF5C342F4F4C341F400011FEC0EF098
:102E00002F0EF66E1A0EF76E000EF86E050E040108
:102E1000416F00017DEC0EF0F6C3F8F31B0E0301C9
:102E2000F96F00010ADC360EF66E1A0EF76E000E10
:102E3000F86E050E0401416F00017DEC0EF0F7C342
:102E4000F8F31B0E0301F96F00011DEC13F00A0EDD
:102E500004014A6F0001F5EC0DF00D0E04014A6FFC
:102E60000001F5EC0DF096948D84040E0301F66FCD
:102E7000FA0EF76F000105EC13F00301F62FF8D7F7
:0E2E8000C80EF76F000105EC13F0EDD7FFD779
:020000040030CA
:0E00000000C6190E008630003FC03FE03F40B2
:00000001FF
;PIC18F4685
;CRC=3C87  CREATED="02-Jun-11 15:42"
