:040000001EEF3EF0C1
:08000800046ED8CF05F0E0CF33
:1000100006F00001E9CF0CF0EACF07F0E1CF08F0DD
:10002000E2CF09F0D9CF0AF0DACF0BF0F3CF12F01C
:10003000F4CF13F0FACF14F0F5CF15F0F6CF16F099
:10004000F7CF17F0F8CF18F0FBCF19F000C00EF083
:1000500001C00FF002C010F003C011F0F2AA34EF9B
:1000600000F0F2B414EF07F09DA03AEF00F09EB05C
:1000700026EF07F09DA240EF00F09EB22AEF07F0B6
:10008000F2A846EF00F0F2B23FEF07F09DAA4CEF66
:1000900000F09EBA81EF08F09DA852EF00F09EB8E4
:1000A00084EF08F09DA458EF00F09EB4E7EF07F04E
:1000B000A0A65EEF00F0A1B687EF08F0A3AE64EF54
:1000C00000F0A4BE86EF0DF0A3AA6AEF00F0A4BA78
:1000D00089EF0DF0A3A870EF00F0A4B882EF0DF047
:1000E000A3A676EF00F0A4B67EEF0DF0A3A47CEFFC
:1000F00000F0A4B47AEF0DF0A3A282EF00F0A4B256
:1001000066EF0BF0A3A088EF00F0A4B062EF0BF055
:10011000A0AE8EEF00F0A1BE8AEF08F00EC000F096
:100120000FC001F010C002F011C003F00CC0E9FFD5
:1001300007C0EAFF078E08C0E1FF09C0E2FF0AC05E
:10014000D9FF0BC0DAFF12C0F3FF13C0F4FF14C0D5
:10015000FAFF15C0F5FF16C0F6FF17C0F7FF18C06D
:10016000F8FF19C0FBFF045006C0E0FF05C0D8FF30
:100170001000F76A860FF66E010EF722000EF86E79
:100180000900F5501200EFFFDFFFBFFF7FFFF7FF11
:10019000FBFFFEFFFDFFFF7FFFBFFFDFFFEFFFF76E
:1001A000FFFBFFFDFFFEF76ABA0FF66E010EF722A6
:1001B000000EF86E0900F550120000964B975C9601
:1001C0006D957E948F93A092B191C290D38FE48E5F
:1001D000F58D068D178C288B398A4A895B886C8748
:1001E0007D868E859F84B083C182D281E380F47F37
:1001F000057F167E277D387C497B5A7A6B797C781F
:100200008D779E76AF75C074D173E272F37104710D
:100210001570266F376E486D596C6A6B7B6A8C69F6
:100220009D68AE67BF66D065E164F26303631462E4
:1002300025613660475F585E695D7A5C8B5B9C5ACE
:10024000AD59BE58CF57E056F155025513542453BB
:10025000355246515750684F794E8A4D9B4CAC4BA6
:10026000BD4ACE49DF48F047014712462345344492
:100270004543564267417840893F9A3EAB3DBC3C7E
:10028000CD3BDE3AEF390039113822373336443569
:1002900055346633773288319930AA2FBB2ECC2D56
:1002A000DD2CEE2BFF2A102A212932284327542641
:1002B00065257624872398226902496E70757473C8
:1002C0000A0D000031203220332034203520362022
:1002D0003720380A0D00507265737320302D462088
:1002E000746F206163746976617465206F757470D2
:1002F00075740A0D00004465627567206D6F646552
:10030000206163746976650A0D00312D546573743C
:1003100020696E707574730A0D00322D5465737404
:10032000206F7574707574730A0D000053746172D8
:1003300074206164723D2564000064696D5F6C65C2
:1003400076656C2025750A0D00006F6666202575A0
:100350000A0D00006F66662025750A0D0000070172
:100360000A510C03F3CF01F0F4CF00F00D03F3506A
:1003700000260B510C03F3500020026E0001000C0C
:1003800007010D51070B006E0D31016E0132013274
:100390001F0E011601500F25E96E000E1021EA6EA6
:1003A000016A012A002A01D00136002EFDD70E5322
:1003B00003E00150EF1203D0011E0150EF160001BF
:1003C000000C07010D51070B006E0D31016E01325B
:1003D00001321F0E011601500E25E96E000E0F218D
:1003E000EA6EEFCF01F0002A01D00132002EFDD7D6
:1003F0000001000C090E07010C25E96E000E0D210D
:10040000EA6EEFCF0EF70E0E0C25E96E000E0D21F1
:10041000EA6E000EEFB0010E010BD8A405D10E0E4E
:100420000C25E96E000E0D21EA6EEF920A0E0C25E6
:10043000E96E000E0D21EA6EEFCF00F0ECCF01F077
:10044000ECCF02F0ECCF03F0005006013B5D07015A
:100450000F6F015006013C590701106F0250060151
:100460003D590701116F035006013E590701126FF4
:10047000060143510701125D15E31EE106014251D9
:100480000701115D0FE318E1060141510701105DFD
:1004900009E312E10F510601405DD8B002D0070117
:1004A0000BD007010F0E0C25E96E000E0D21EA6E30
:1004B000EF500208D8A4B7D00F0E0C25E96E000E3D
:1004C0000D21EA6EEF500408D8B4ADD00F0E0C2504
:1004D000E96E000E0D21EA6EEF2C1FD00F0E0C25D9
:1004E000E96E000E0D21EA6E040EEF6E0C25E96E2A
:1004F000000E0D21EA6E010EEF6E090E0C25E96E5D
:10050000000E0D21EA6E7F0EEF6E050E0C25E96ED2
:10051000000E0D21EA6EEF8085D00F0E0C25E96EDE
:10052000000E0D21EA6E020EEF6E0A0E0C25E96E2A
:10053000000E0D21EA6EEFCF00F0ECCF01F0ECCF12
:1005400002F0ECCF03F0005006013B5D07010F6F96
:10055000015006013C590701106F025006013D5938
:100560000701116F035006013E590701126F125324
:1005700009E1115307E1105305E10F5106013F5DF9
:1005800042E207010E0E0C25E96E000E0D21EA6E07
:10059000000EEFB4010E010B18E1090E0C25E96EF7
:1005A000000E0D21EA6EEF2A090E0C25E96E000EF1
:1005B0000D21EA6EEF507F0807E10E0E0C25E96E63
:1005C000000E0D21EA6EEF841ED0090E0C25E96E97
:1005D000000E0D21EA6EEF06090E0C25E96E000EE5
:1005E0000D21EA6EEF520FE10E0E0C25E96E000EA2
:1005F0000D21EA6EEF94070E0C25E96E000E0D2119
:10060000EA6E010EEF6E0A0E07010C25E96E000E70
:100610000D21EA6E3BC6EFFF3CC6ECFF3DC6ECFF8A
:100620003EC6ECFF00D0B0D00E0E0C25E96E000ED9
:100630000D21EA6E000EEFB2010E010BD8A496D088
:100640000E0E0C25E96E000E0D21EA6EEF820F0EE4
:100650000C25E96E000E0D21EA6EEF50020822E132
:100660000F0E0C25E96E000E0D21EA6EEF6A0E0EDC
:100670000C25E96E000E0D21EA6E000EEFB4010E9E
:10068000010B08E10E0E0C25E96E000E0D21EA6E3D
:10069000EF8407D00E0E0C25E96E000E0D21EA6ED8
:1006A000EF9464D00F0E0C25E96E000E0D21EA6E5A
:1006B000EF2C1ED00F0E0C25E96E000E0D21EA6EF8
:1006C000EF6A040E0C25E96E000E0D21EA6E010E94
:1006D000EF6E0E0E0C25E96E000E0D21EA6EEF8412
:1006E000050E0C25E96E000E0D21EA6EEF803ED05E
:1006F0000F0E0C25E96E000E0D21EA6EEF521FE180
:100700000F0E0C25E96E000E0D21EA6E010EEF6E44
:10071000070E0C25E96E000E0D21EA6E010EEF6E3C
:100720000E0E0C25E96E000E0D21EA6EEF94080EF8
:100730000C25E96E000E0D21EA6EEF8017D00F0E2A
:100740000C25E96E000E0D21EA6EEF5004080EE153
:100750000F0E0C25E96E000E0D21EA6EEF6A0E0EEB
:100760000C25E96E000E0D21EA6EEF840A0E0C25B1
:10077000E96E000E0D21EA6E3BC6EFFF3CC6ECFFB2
:100780003DC6ECFF3EC6ECFF090E0C25E96E000EDF
:100790000D21EA6EEF500E5D1BE0010E0C25016E7F
:1007A000000E0D21036E090E0C25E96E000E0D21C1
:1007B000EA6EEFCF11F703C0EAFF01C0E9FF11C7EE
:1007C000EFFF020E0C25E96E000E0D21EA6EEF80A0
:1007D00000010EEF07F0060E07010C25E96E000E72
:1007E0000D21EA6E000EEFB0010E010B6EE1060E58
:1007F0000C25E96E000E0D21EA6E000EEFB2010E1F
:10080000010B010862E1060E0C25E96E000E0D21B8
:10081000EA6EEF920B0E0C25E96E000E0D21EA6ECA
:10082000EF2C25D00B0E0C25E96E000E0D21EA6E83
:10083000EF6A010E0C25E96E000E0D21EA6E010E25
:10084000EF6E020E0C25E96E000E0D21EA6EEF80B0
:10085000040E0C25E96E000E0D21EA6EEF6A050EFE
:100860000C25E96E000E0D21EA6EEF802DD00B0EE7
:100870000C25E96E000E0D21EA6EEF5225E10B0EFC
:100880000C25E96E000E0D21EA6E010EEF6E040ECE
:100890000C25E96E000E0D21EA6E010EEF6E050EBD
:1008A0000C25E96E000E0D21EA6EEF80010E0C257D
:1008B000E96E000E0D21EA6EEF6A020E0C25E96E5C
:1008C000000E0D21EA6EEF8013D0060E0C25E96EA6
:1008D000000E0D21EA6E000EEFB0010E010B0108B3
:1008E00007E1060E0C25E96E000E0D21EA6EEF827F
:1008F00000010EEF07F0060E07010C25E96E000E51
:100900000D21EA6E000EEFB0010E010B2DE1070E76
:100910000C25E96E000E0D21EA6EEF2C25D0070E96
:100920000C25E96E000E0D21EA6EEF6A010E0C2512
:10093000E96E000E0D21EA6E010EEF6E020E0C251F
:10094000E96E000E0D21EA6EEF80040E0C25E96EB3
:10095000000E0D21EA6EEF6A050E0C25E96E000E01
:100960000D21EA6EEF8039D0060E0C25E96E000EDF
:100970000D21EA6E000EEFB0010E010B01082DE112
:10098000070E0C25E96E000E0D21EA6EEF5225E1EF
:10099000070E0C25E96E000E0D21EA6E010EEF6EBA
:1009A000040E0C25E96E000E0D21EA6E010EEF6EAD
:1009B000050E0C25E96E000E0D21EA6EEF80010E8A
:1009C0000C25E96E000E0D21EA6EEF6A020E0C2571
:1009D000E96E000E0D21EA6EEF8000010EEF07F0C8
:1009E0000701096B01013E510701095DD8B019D219
:1009F0000B6B09C70AF70D6B210E0C6F0001AFDC02
:100A000002C003F00150400F016E010E032201C02D
:100A1000E9FF03C0EAFFEF500AE0030AD8B4AAD006
:100A2000020AD8B4A8D0030AD8B44ED1F6D107012F
:100A30000B6B09C70AF70D6B210E0C6F00018FDCE1
:100A40000150020F07010A6F000E02200B6F010E0A
:100A50000A25016E000E0B21036E01503E0F016E40
:100A6000010E03220150100FE96E000E0320EA6E02
:100A7000EFCF0CF70CC70DF7010E0E6F0F0E106FB6
:100A8000920E0F6F00017CDC0CC70DF70F0E0701F3
:100A90000F6F800E0E6F000194DC01A024D00701BF
:100AA0000B6B09C70AF70D6B210E0C6F000157DCA9
:100AB0000150020F07010A6F000E02200B6F010E9A
:100AC0000A25016E000E0B21036E01503E0F016ED0
:100AD000010E032201500E0FE96E000E0320EA6E94
:100AE000EF8023D0000107010B6B09C70AF70D6BDC
:100AF000210E0C6F000133DC0150020F07010A6F59
:100B0000000E02200B6F010E0A25016E000E0B2154
:100B1000036E01503E0F016E010E032201500E0FB5
:100B2000E96E000E0320EA6EEF900B6B09C70AF71F
:100B30000D6B210E0C6F000112DC0150020F07013A
:100B40000A6F000E02200B6F010E0A25016E000EC7
:100B50000B21036E01503E0F016E010E032201C0F6
:100B60000AF703C00BF703C00DF701C00CF7000133
:100B700041D454D153D107010B6B09C70AF70D6B50
:100B8000210E0C6F0001AFEC01F00150020F0701C4
:100B90000A6F000E02200B6F010E0A25016E000E77
:100BA0000B21036E01503E0F016E010E0322015016
:100BB0000C0FE96E000E0320EA6EEFCF0CF70CC7A6
:100BC0000DF7010E0E6F0F0E106F920E0F6F0001DA
:100BD000C0EC01F00CC70DF70F0E07010F6F800E70
:100BE0000E6F0001E1EC01F001A025D007010B6BB5
:100BF00009C70AF70D6B210E0C6F0001AFEC01F075
:100C00000150020F07010A6F000E02200B6F010E48
:100C10000A25016E000E0B21036E01503E0F016E7E
:100C2000010E03220150060FE96E000E0320EA6E4A
:100C3000EF8024D0000107010B6B09C70AF70D6B89
:100C4000210E0C6F0001AFEC01F00150020F070103
:100C50000A6F000E02200B6F010E0A25016E000EB6
:100C60000B21036E01503E0F016E010E0322015055
:100C7000060FE96E000E0320EA6EEF900B6B09C7BA
:100C80000AF70D6B210E0C6F0001AFEC01F0015063
:100C9000020F07010A6F000E02200B6F010E0A25DA
:100CA000016E000E0B21036E01503E0F016E010E0E
:100CB000032201C00AF703C00BF703C00DF701C000
:100CC0000CF7000188D5AAD007010B6B09C70AF7FA
:100CD0000D6B210E0C6F0001AFEC01F00150020F03
:100CE00007010A6F000E02200B6F010E0A25016E2C
:100CF000000E0B21036E01503E0F016E010E032208
:100D00000150090FE96E000E0320EA6EEFCF0CF7D9
:100D10000CC70DF7010E0E6F0F0E106F920E0F6FB6
:100D20000001C0EC01F00CC70DF70F0E07010F6FAB
:100D3000800E0E6F0001E1EC01F001A025D007014B
:100D40000B6B09C70AF70D6B210E0C6F0001AFEC9E
:100D500001F00150020F07010A6F000E02200B6F15
:100D6000010E0A25016E000E0B21036E01503E0F8D
:100D7000016E010E03220150060FE96E000E0320E2
:100D8000EA6EEF8024D0000107010B6B09C70AF758
:100D90000D6B210E0C6F0001AFEC01F00150020F42
:100DA00007010A6F000E02200B6F010E0A25016E6B
:100DB000000E0B21036E01503E0F016E010E032247
:100DC0000150060FE96E000E0320EA6EEF900B6BE8
:100DD00009C70AF70D6B210E0C6F0001AFEC01F093
:100DE0000150020F07010A6F000E02200B6F010E67
:100DF0000A25016E000E0B21036E01503E0F016E9D
:100E0000010E032201C00AF703C00BF703C00DF760
:100E100001C00CF700016FD501D000D00701092BEC
:100E2000E1D5000121EF07F0010E06013B27D8B004
:100E30003C2BD8B43D2BD8B43E2B3BA303D00001B0
:100E4000CFD50601F29400018EEF00F0B58B9E9095
:100E50008EEF00F00601462B4651C8080CE1466BA8
:100E6000010E2426D8B0252AD8B4262AD8B4272A99
:100E70000001B58906019E9200018EEF00F0050188
:100E800080C582FF7FC583FF0001B5A511D0B59550
:100E9000B5A708D0B597050E05017C6F910E7B6F45
:100EA00007D00001B587050E05017C6FD50E7B6F5D
:100EB00005017D6B07010B6B0C6BD8900B35006E39
:100EC000D8900036005005017B2507010F6F000EFA
:100ED00005017C210701106FD8900C350F250D6F8F
:100EE000000E10210E6FD8900B35006ED890003692
:100EF000005005017B2507010F6F000E05017C21C5
:100F00000701106FD8900C350F25016E000E1021CF
:100F1000036E01C0E9FFEA6EEFCF01F0E92AEF505E
:100F2000E906026E02C00AF701C009F7D890013441
:100F3000026E0A35036E02500001D3EC00F0090086
:100F4000F5CF03F0BE6E03C0BFFF100E07010B6F9D
:100F50000C6BD8900B35006ED89000360050050110
:100F60007B2507010F6F000E05017C210701106F23
:100F7000D8900C350F250D6F000E10210E6FD890F4
:100F80000B35006ED8900036005005017B25070117
:100F90000F6F000E05017C210701106FD8900C35F2
:100FA0000F25016E000E1021036E01C0E9FFEA6EED
:100FB000EFCF01F0E92AEF50E906026E01C07EF59D
:100FC000CF6ACE6A0001B59BF2928EEF00F0050168
:100FD0007E53D8B492D07DC50BF7010E07010C6F7C
:100FE000D8900B35006ED8900036005005017B2557
:100FF00007010F6F000E05017C210701106FD890CB
:101000000C350F250D6F000E10210E6FD8900B358B
:10101000006ED8900036005005017B2507010F6F48
:10102000000E05017C210701106FD8900C350F25AB
:10103000016E000E1021036E01C0E9FFEA6EEFCFD2
:1010400001F0E92AEF50E906026E02C00AF701C07A
:1010500009F70A5182160951831605017D2B7E0777
:101060007DC50BF707010C6BD8900B35006ED8903F
:101070000036005005017B2507010F6F000E0501AA
:101080007C210701106FD8900C350F250D6F000ED5
:1010900010210E6FD8900B35006ED890003600509E
:1010A00005017B2507010F6F000E05017C2107015B
:1010B000106FD8900C350F25016E000E1021036EB5
:1010C00001C0E9FFEA6EEFCF01F0E92AEF50E9062F
:1010D000026E02C00CF701C00BF7D8900134026E0B
:1010E0000C35036E02500001D3EC00F00900F5CF7F
:1010F00003F0BE6E03C0BFFF05019E9400018EEF9A
:1011000000F09E9A8EEF00F09E988EEF00F0A19670
:101110008EEF00F0B58DA19E8EEF00F007012B6BD6
:101120002A6B296B286B26C72DF725C72CF7275369
:10113000D8B493D02DC703F02CC7E9FF2DC7EAFF21
:10114000EFCF00F0016A026A036A03C02BF702C006
:101150002AF701C029F700C028F72C51D8B42D0771
:101160002C072CC7E9FF2DC7EAFFEF50306B2F6B20
:101170002E6F006A005028132E5129132F512A1365
:1011800030512B132C51D8B42D072C072CC7E9FF55
:101190002DC7EAFFEF50316B306B2F6B2E6F030EB4
:1011A0002E172F6B306B316B006A016A00502813C9
:1011B000015029132E512A132F512B132CC7E9FF4D
:1011C0002DC7EAFFEF50316B306B2F6B2E6FE00EA7
:1011D0002E172F6B306B316B006A2E35016E2F3559
:1011E000026E3035036E01360236033601360236A2
:1011F0000336013602360336013602360336E00E78
:101200000116005028130150291302502A130350CD
:101210002B132C51D8B42D072C072CC7E9FF2DC751
:10122000EAFFEF502F6B2E6F006A016A2E35026EB7
:101230002F35036E02360336023603360236033686
:1012400002360336E00E021600502813015029130F
:1012500002502A1303502B1353D0020E2C5F000EA2
:101260002D5B2CC7E9FF2DC7EAFFEF50316B306BC8
:101270002F6B2E6FE00E2E172F6B306B316B3131D1
:101280002B6F30312A6F2F31296F2E31286F2B337E
:101290002A33293328332B332A33293328332B336A
:1012A0002A33293328332B332A3329332833070EA3
:1012B0002B172C51D8B42D072C072CC7E9FF2DC7AD
:1012C000EAFFEF50316B306B2F6B2E6F2E35006EB7
:1012D0002F35016E3035026E3135036E0036013622
:1012E000023603360036013602360336F80E001693
:1012F000005028130150291302502A1303502B13B6
:1013000028C700F029C701F02AC702F02BC703F055
:101310000001000C2850FF0801E1282A2850090884
:10132000D8A044D1070E07011A6F0F0E196F60AED7
:1013300017D0F10E6F146F6E0E99A4900E9174BEBB
:101340000E81749E60A40BD0000E60B0010E070BDE
:10135000006ED8900036F10E0E1500100E6F20D0E2
:101360000F0150AF19D0F10E6F140A096F6E07010B
:101370000E89A4920E9174BC0E81749C0F01505181
:10138000070B070B006ED8900036F10E07010E1503
:1013900000100E6F05D00F01000E016E4CD007013A
:1013A00065500F0B0D6F0E9B65BC0E8B0E9D62B6CC
:1013B0000E8D000E0EBD010E1E6F0F0E266F640EF9
:1013C000256F1EC727F70001A9DE03C00CF702C076
:1013D0000BF701C00AF700C009F70F0E07011D6FD8
:1013E000660E1C6F1B6B0D511B5D14E21CC7E9FFE1
:1013F0001DC7EAFFEFCF20F71AC7EAFF19C7E9FFB9
:1014000020C7EFFF192BD8B41A2B1C2BD8B41D2BD7
:101410001B2BE9D7F10E6F146F6E0E9FA4BE0E8FBB
:10142000A49E0EA904D00F01509F03D00701609E17
:101430000F01010E016E0701186B185320E11851BE
:10144000040DF350036A390FE96E010E0320EA6EB2
:10145000EFCF00F0ECCF01F0ECCF02F0ECCF03F0D7
:101460000050095D0AE101500A5D07E102500B5D81
:1014700004E103500C5D01E123D1182BDED7285085
:101480000E0DF3501A6B196F290E1925E96E000E17
:101490001A21EA6E0CC7EFFF28500E0DF3501A6B9D
:1014A000196F010E1925016E000E1A21036E0150ED
:1014B000290FE96E000E0320EA6E0BC7EFFF2850DC
:1014C0000E0DF3501A6B196F020E1925016E000EE6
:1014D0001A21036E0150290FE96E000E0320EA6EF7
:1014E0000AC7EFFF28500E0DF3501A6B196F030E49
:1014F0001925016E000E1A21036E0150290FE96EA5
:10150000000E0320EA6E09C7EFFF28500E0DF350BE
:101510001A6B196F040E1925016E000E1A21036E45
:101520000150290FE96E000E0320EA6E0DC7EFFF90
:1015300028500E0DF3501A6B196F050E1925016E08
:10154000000E1A21036E0150290FE96E000E0320D0
:10155000EA6E0EC7EFFF176B0D51175D24E228509E
:101560000E0DF3501A6B196F060E1725036A192515
:10157000016E1A5103220150290F016E000E032241
:1015800003C01AF7036A17510F0FE96E070E032005
:10159000EA6EEFCF1BF71AC7EAFF01C0E9FF1BC7CE
:1015A000EFFF172BD9D7282A8BD00001070E070190
:1015B0001A6F0F0E196F60AE17D0F10E6F146F6EA9
:1015C0000E99A4900E9174BE0E81749E60A40BD0EF
:1015D000000E60B0010E070B006ED8900036F10EC1
:1015E0000E1500100E6F20D00F0150AF19D0F10E64
:1015F0006F140A096F6E07010E89A4920E9174BCD4
:101600000E81749C0F015051070B070B006ED89090
:101610000036F10E07010E1500100E6F05D00F01F8
:10162000000E016E4CD0070165500F0B0D6F0E9B25
:1016300065BC0E8B0E9D62B60E8D000E0EBD010EAA
:101640001E6F0F0E266F640E256F1EC727F7000151
:1016500065DD03C00CF702C00BF701C00AF700C03C
:1016600009F70F0E07011D6F660E1C6F1B6B0D51E6
:101670001B5D14E21CC7E9FF1DC7EAFFEFCF20F78F
:101680001AC7EAFF19C7E9FF20C7EFFF192BD8B423
:101690001A2B1C2BD8B41D2B1B2BE9D7F10E6F1462
:1016A0006F6E0E9FA4BE0E8FA49E0EA904D00F01D4
:1016B000509F03D00701609E0F01010E016E0701CC
:1016C0000001000C27DEA4908EEF00F023DEA49230
:1016D0008EEF00F02AC731F729C730F707012F53E3
:1016E00052E030C7E9FF31C7EAFF2BC7EFFF3051A7
:1016F000D8B43107300730C7E9FF31C7EAFF2CC73C
:10170000EFFF3051D8B43107300730C7E9FF31C798
:10171000EAFF2D51030BEF6E30C7E9FF31C7EAFF37
:101720002DC700F0003600360036F80E00160050C7
:10173000E00BEF10EF6E30C7E9FF31C7EAFFEF5063
:101740000809EF6E3051D8B43107300730C7E9FFD0
:1017500031C7EAFF2DC700F0003A0032070E00162D
:101760000050070BEF6E30C7E9FF31C7EAFF2EC705
:1017700000F0003600360036F80E00160050F80B68
:10178000EF10EF6E3FD030C7E9FF31C7EAFFEF6AD5
:101790003051D8B43107300730C7E9FF31C7EAFF0D
:1017A000EF6A3051D8B43107300730C7E9FF31C78D
:1017B000EAFF2BC700F0003A0036E00E001600509A
:1017C000E00BEF6E3051D8B43107300730C7E9FF76
:1017D00031C7EAFF2BC700F00032003200321F0E83
:1017E000001600501F0BEF6E30C7E9FF31C7EAFF4C
:1017F0002CC700F0003A0036E00E00160050E00B57
:10180000EF10EF6E0001000C0F0E0701276F660E40
:10181000266F0F0140B708D0F10E6F1408096F6EE4
:101820000701286B1BD00F0130B709D0F10E6F14E0
:1018300006096F6E010E0701286F10D00F0120B747
:1018400009D0F10E6F1404096F6E020E0701286FA4
:1018500005D00F01000E016E3DD007012251030B90
:10186000006EFC0E60140010606E0F0E2A6F640E86
:10187000296F1EC72EF71DC72DF71CC72CF71BC7D6
:101880002BF723C72FF7000125DF21C765FF659CD4
:10189000070124B1658C256B2151255D14E21FC71A
:1018A000E9FF20C7EAFFEFCF2BF727C7EAFF26C7DC
:1018B000E9FF2BC7EFFF262BD8B4272B1F2BD8B45B
:1018C000202B252BE9D76086F10E6F146F6E010E69
:1018D000016E0F01000176EF0DF0B6510A0801E12B
:1018E000B607B651FF08D8B403D1B6510D0DF35069
:1018F00007011A6B196FB70E1925E96E000E1A2130
:10190000EA6EEFCF19F70001B6510D0DF350070144
:101910001B6B1A6F010E1A25016E000E1B21036E40
:101920000150B70FE96E000E0320EA6EEFCF1AF7F1
:101930000001B6510D0DF35007011C6B1B6F020E19
:101940001B25016E000E1C21036E0150B70FE96EBE
:10195000000E0320EA6EEFCF1BF70001B6510D0D0C
:10196000F35007011D6B1C6F030E1C25016E000E4A
:101970001D21036E0150B70FE96E000E0320EA6EC1
:10198000EFCF1CF719C70CF71AC70BF71BC70AF7DD
:101990001CC709F70001B6510D0DF35007011A6B72
:1019A000196F0C0E1925016E000E1A21036E0150DD
:1019B000B70FE96E000E0320EA6EEF380D6F0F0EC1
:1019C0000D170001B6510D0DF35007011A6B196F79
:1019D0000C0E1925016E000E1A21036E0150B70F6F
:1019E000E96E000E0320EA6EEF500C0B006E003023
:1019F0000E6F0E333F0E0E170001B6510D0DF35052
:101A000007011A6B196F0C0E1925016E000E1A21B1
:101A1000036E0150B70FE96E000E0320EA6EEFCFA0
:101A200019F7179119B317810001B6510D0DF35035
:101A300007011A6B196F0C0E1925016E000E1A2181
:101A4000036E0150B70FE96E000E0320EA6EEFCF70
:101A500019F7179319B11783186B0D51185D28E208
:101A6000036A18510F0F016E070E032201C019F708
:101A700003C01AF70001B6510D0DF35007011C6B9E
:101A80001B6F040E1825036A1B25016E1C510322CF
:101A90000150B70FE96E000E0320EA6EEFCF1BF77F
:101AA0001AC7EAFF19C7E9FF1BC7EFFF182BD5D7E5
:101AB000000E17B1010E196F000E17B3010E1A6F49
:101AC0000CC71EF70BC71DF70AC71CF709C71BF782
:101AD000070E206F0F0E1F6F0DC721F70EC722F7DD
:101AE00019C723F71AC724F700018ED6B60701D00D
:101AF00000D0000CF2DEA4948EEF00F0EEDEA4968F
:101B00008EEF00F0EADEA4988EEF00F0A49E8EEF38
:101B100000F0A49A8EEF00F006018F39700B006E72
:101B2000D89000361F0E6F1400106F6E6ECF00F04D
:101B3000003A0030070B8F5DF9E10001000CC00E88
:101B400070140409706E3F0E7014706EF80E7114EC
:101B50000209716EC70E71142809716E719C718E25
:101B6000F80E72140509726E729CBDEF0DF0040E32
:101B700006018F6F0001D0DFE2D7606A9F0E60140C
:101B8000606E608460CF50FF739A7398739E739CED
:101B90001B6AF2BE1B8EF29E0F0E07012A6F1B0EF0
:101BA000296F2E6B2D6B2C6B2B6B2F6B000192DD35
:101BB0001BBEF28E1B6AF2BE1B8EF29E0F0E070139
:101BC0002A6F030E296F2E6B2D6B2C6B2B6B2F6BDB
:101BD000000180DD1BBEF28E1B6AF2BE1B8EF29EE0
:101BE0000F0E07012A6F070E296F2E6B2D6B2C6BC2
:101BF0002B6B2F6B00016EDD1BBEF28E1B6AF2BEDB
:101C00001B8EF29E0F0E07012A6F1F0E296F2E6B7F
:101C10002D6B2C6B2B6B2F6B00015CDD1BBEF28ED2
:101C20001B6AF2BE1B8EF29E0F0E07012A6F0B0E6F
:101C3000296F2E6B2D6B2C6B2B6B2F6B00014ADDEC
:101C40001BBEF28E1B6AF2BE1B8EF29E0F0E0701A8
:101C50002A6F296F2E6B2D6B2C6B2B6B2F6B00015A
:101C600039DD1BBEF28E1B6AF2BE1B8EF29E0F0E7A
:101C700007012A6F130E296F2E6B2D6B2C6B2B6BAC
:101C80002F6B000127DD1BBEF28E1B6AF2BE1B8E7E
:101C9000F29E0F0E07012A6F170E296F2E6B2D6B08
:101CA0002C6B2B6B2F6B000115DD1BBEF28E93503E
:101CB000FB0B08090601936E8F6B00012DDF62EFAD
:101CC0000EF055D7040E06018F6F000125DFC00E00
:101CD00070140409706E3F0E7014706EF80E71145B
:101CE0000209716EC70E71142809716E719C719E84
:101CF000F80E72140509726E728C06018F6B00016A
:101D00000BDF810ED56E950ECD6E600E0609CA6E84
:101D1000F10ECB6E0A0EBD6EF18CC150C00B0F09D7
:101D2000C16EC050C00BC06EC09EC2809698C69A4D
:101D3000949A94889496010EC66E000EC76E070E94
:101D4000B46E9550956E9650966E0400200E006EFF
:101D5000002EFED700D0B450A19CB56AB16A939210
:101D60008A92939C8A9C939E8A9E96968D96D18009
:101D700023EF3FF0A5C6AAFFA4C6A9FFA6C6A8FFE9
:101D8000A69CA69EA684F250006EF29E0F01550EF0
:101D9000A76EAA0EA76EA682A6B2FED7A694005082
:101DA000F2120001000C3AC6A5F639C6A4F6010EDF
:101DB0000601A66F0001DEDF0601392BD8B43A2BED
:101DC0003AC6A5F639C6A4F68FC6A6F60001D2DF3C
:101DD0000601392BD8B43A2B3AC6A5F639C6A4F673
:101DE00090C6A6F60001C6DF0601392BD8B43A2BFF
:101DF0003AC6A5F639C6A4F691C6A6F60001BADF22
:101E00000601392BD8B43A2B0001000C0601A06B57
:101E10009F51A05D1BE2A0519D25A16F000E9E2148
:101E2000A26F9CC603F09BC6E9FF9CC6EAFFEFCFFA
:101E3000A3F6A56FA1C6A4F6A3C6A6F600019ADF75
:101E400006019B2BD8B49C2BA02BE2D70001000CE1
:101E50003AC6A5F639C6A4F6640E0601A66F0001BF
:101E600089DF0601392BD8B43A2B90C69CF68FC671
:101E70009BF63AC69EF639C69DF6080E9F6F000186
:101E8000C5DF080E06013927000E3A2392C69CF6DC
:101E900091C69BF63AC69EF639C69DF6080E9F6F10
:101EA0000001B4DF080E06013927000E3A233AC6B6
:101EB000A5F639C6A4F693C6A6F600015BDF0601B7
:101EC000392BD8B43A2B0001000C939A8A9A080E49
:101ED000016E00D00000018E10D0019E06019F33DC
:101EE0000001D8B08A8AD8A08A9A018C06D0019CB9
:101EF000012EF4D700D000008A8A160EE96EE92E72
:101F0000FED700D0040001BEE8D701BCF0D7000C1A
:101F10000900F6CF9AF6F7CF9BF6F8CF9CF6F5CFEF
:101F20009FF6D3DF9AC6F6FF9BC6F7FF9CC6F8FF65
:101F30000601992F01D002D00001EAD7000151EF2C
:101F400010F00601A051016A9F5D03E29FC600F0F8
:101F50000CD0006A080EA16F9F370036A051005CBC
:101F6000D8B0006E0136A12FF7D70001000C200E6B
:101F700006019AA9300E9B6F99C600F099AF07D061
:101F8000001E002A00C099F62D0E9B6F9A8F0150FB
:101F900099C69FF6640EA06F0001D3DF00C099F6CA
:101FA000300E012406019C6F99C69FF60A0EA06FA1
:101FB0000001C7DF300E002406019E6F300E0124A1
:101FC0009D6F9BC600F09AA702D09AAF9A959AB9D6
:101FD0000BD09AAF22D09AB520D000C09CF69AB30D
:101FE0001CD000C09DF619D0300E9C5D16E100C0DB
:101FF0009CF6200E9B6F9AA704D09A959A839AAF6D
:102000009A93300E9D5D09E100C09DF6200E9C6FF5
:102010009AA7F7D79A939AAF9A919AA505D09BC69B
:102020009FF6000152DF06019AA305D09CC69FF6D9
:1020300000014BDF06019AA104D09DC69FF6000166
:1020400044DF9EC69FF6000140DF58EF10F03AC60D
:10205000A5F639C6A4F6030E0601A66F00018ADEB6
:102060000601392BD8B43A2B90C69CF68FC69BF646
:102070003AC69EF639C69DF6080E9F6F0001C6DE71
:1020800006018FC6E9FF90C6EAFFEFCF98F62C0E47
:10209000F66E030EF76E000EF86E0A0E996F0001D1
:1020A00037D798C699F61F0E06019A6F00015FD7C1
:1020B000080E06013927000E3A2392C69CF691C6F7
:1020C0009BF63AC69EF639C69DF6080E9F6F000134
:1020D0009DDE080E06013927000E3A233AC6A5F602
:1020E00039C6A4F693C6A6F6000144DE0601392BD4
:1020F000D8B43A2B3AC6A5F639C6A4F694C6A6F6C5
:10210000000138DE0601392BD8B43A2B3AC6A5F6C1
:1021100039C6A4F695C6A6F600012CDE0601392BB9
:10212000D8B43A2B97C698F63AC6A5F639C6A4F69F
:1021300097C6A6F600011EDE0601392BD8B43A2B4D
:1021400096C698F63AC6A5F639C6A4F696C6A6F679
:10215000000110DE0601392BD8B43A2B00018DEFB7
:102160003FF03AC6A5F639C6A4F6020E0601A66FE0
:10217000000100DE0601392BD8B43A2B3AC6A5F689
:1021800039C6A4F68FC6A6F60001F4DD0601392B88
:10219000D8B43A2B3AC6A5F639C6A4F690C6A6F628
:1021A0000001E8DD0601392BD8B43A2B3AC6A5F672
:1021B00039C6A4F691C6A6F60001DCDD0601392B6E
:1021C000D8B43A2B3AC6A5F639C6A4F692C6A6F6F6
:1021D0000001D0DD0601392BD8B43A2B0001000CE8
:1021E0003AC6A5F639C6A4F6660E0601A66F00012A
:1021F000C1DD0601392BD8B43A2B90C69CF68FC6A8
:102200009BF63AC69EF639C69DF6080E9F6F0001F2
:10221000FDDD080E06013927000E3A2392C69CF612
:1022200091C69BF63AC69EF639C69DF6080E9F6F7C
:102230000001ECDD080E06013927000E3A2394C692
:102240009CF693C69BF63AC69EF639C69DF6080ED6
:102250009F6F0001DBDD080E06013927000E3A23CF
:1022600096C69CF695C69BF63AC69EF639C69DF66E
:10227000080E9F6F0001CADD080E06013927000E07
:102280003A233AC6A5F639C6A4F697C6A6F60001C3
:1022900071DD0601392BD8B43A2B3AC6A5F639C6FA
:1022A000A4F698C6A6F6000165DD0601392BD8B460
:1022B0003A2B3AC6A5F639C6A4F699C6A6F6000189
:1022C00059DD0601392BD8B43A2B3AC6A5F639C6E2
:1022D000A4F69AC6A6F600014DDD0601392BD8B446
:1022E0003A2B00011AEF40F00601EEC6E9FFEFC6F7
:1022F000EAFF010EEF6EECC6F1F6EDC6F4F6F783D9
:10230000FC6FF391F691F26BF56B036AF0511C0FC1
:10231000E96E000E0320EA6EEFCFFDF6010EEE250A
:10232000E96E000EEF21EA6E060EE26EF10EE16E2E
:10233000200E016EE6CFEEFF012EFCD70001F7EF75
:1023400016F00601EFC6E9FFF0C6EAFFEF6A010EDC
:10235000EF25016E000EF02101C0E9FFEA6EECC628
:10236000EFFF010EEF25016E000EF021036E01500C
:10237000030FE96E000E0320EA6EEDC6EFFF010EBB
:10238000EF25016E000EF021036E0150060FE96E7D
:10239000000E0320EA6EEEC6EFFF010EEF25016E80
:1023A000000EF021036E01500E0FE96E000E0320A7
:1023B000EA6EEF82010EEF25016E000EF021036E32
:1023C00001500F0FE96E000E0320EA6E010EEF6E52
:1023D000EF25016E000EF021036E0150090FE96E2A
:1023E000000E0320EA6EEF6A010EEF25016E000E6B
:1023F000F021036E01500E0FE96E000E0320EA6E0D
:10240000EF94010EEF25016E000EF021036E0150D6
:10241000020FE96E000E0320EA6EEF90010EEF2529
:10242000016E000EF021036E0150050FE96E000EE3
:102430000320EA6EEF90010EEF25016E000EF021F1
:10244000036E0150080FE96E000E0320EA6EEF8064
:10245000010EEF25016E000EF021036E0150010FF9
:10246000E96E000E0320EA6EEF6A010EEF25016EA1
:10247000000EF021036E0150040FE96E000E0320E0
:10248000EA6EEF6A010EEF25016E000EF021036E79
:102490000150070FE96E000E0320EA6E010EEF6E89
:1024A000EF25016E000EF021036E0150100F016E3A
:1024B000000E032203C0F5F6036AF1511C0FE96E0A
:1024C000000E0320EA6EEFCFF6F6F5C6EAFF01C074
:1024D000E9FFF6C6EFFF010EEF25016E000EF021B9
:1024E000036E01500A0FE96E000E0320EA6EEE52F1
:1024F000EE52EC6AED52EF6AED52EF6AED52EF6A7E
:1025000000016DEF17F00601EFC6E9FFF0C6EAFF24
:10251000020EEF6EEDC6F3F6EEC6F6F6F983010E87
:10252000FA6FF591F891F46BF76BFB91F2B1FB81C7
:10253000036AF1511C0FE96E000E0320EA6EEFCF23
:10254000FCF6010EEF25E96E000EF021EA6E060E94
:10255000E26EF30EE16E200E016EE6CFEEFF012E6D
:10256000FCD70001E9EF17F00601EF6BEE51EF5DCC
:102570001FE2EBC603F0EA51E96E03C0EAFFEF5138
:10258000EC25F26F000EED21F36FF2CFF4F6F29E20
:10259000F3C6AAFFF2C6A9FFA69CA69EA680A850D5
:1025A000F4BFF28EEF6EEA2BD8B4EB2BEF2BDED715
:1025B0000001000C0701036B0251035D1CE2036A7A
:1025C00003510025016E0151032203C005F7FEC629
:1025D000E9FFFFC6EAFFEFCF06F7070105C7EAFFED
:1025E00001C0E9FF06C7EFFF0601FE2BD8B4FF2BA1
:1025F0000701032BE1D70001000C0601F2C6E9FF39
:10260000F3C6EAFF030EEF6E010EF225016E000E17
:10261000F321036E0150050FE96E000E0320EA6EF0
:10262000EF90010EF225016E000EF321036E0150B2
:10263000080FE96E000E0320EA6EEF90010EF225FE
:10264000016E000EF321036E0150040FE96E000EBF
:102650000320EA6EEF6A010EF225016E000EF321EF
:10266000036E0150070FE96E000E0320EA6EEF6A59
:10267000010EF225016E000EF321036E0150120FC0
:10268000E96E000E0320EA6EEF90010EF225016E56
:10269000000EF321036E01501C0FE96E000E0320A3
:1026A000EA6EEF90010EF225016E000EF321036E2B
:1026B0000150110FE96E000E0320EA6EEF6A010E61
:1026C000F225016E000EF321036E01501B0FE96E1F
:1026D000000E0320EA6EEF6A010EF225016E000E75
:1026E000F321036E01501D0FE96E000E0320EA6E08
:1026F000EC6AED52EF6A010EF225016E000EF32135
:1027000001C0E9FFEA6EF4C6EFFF010EF225016E8B
:10271000000EF321036E01501F0FE96E000E03201F
:10272000EA6EEF90010EF225016E000EF321036EAA
:102730000150010FE96E000E0320EA6EF6C6ECFFB1
:10274000ED52F5C6EFFF010EF225016E000EF321EA
:10275000036E0150030FE96E000E0320EA6EF0C60F
:10276000EFFF010EF225016E000EF321036E015002
:10277000060FE96E000E0320EA6EF1C6EFFF010EB0
:10278000F225016E000EF321036E0150090F016E58
:10279000000E032201C0F9F603C0FAF6EDC6FFF6FB
:1027A000ECC6FEF603C001F701C000F7080E0701F2
:1027B000026F0001FFDE010E0601F225016E000E20
:1027C000F321036E0150130F016E000E032201C0AE
:1027D000F9F603C0FAF6EFC6FFF6EEC6FEF603C042
:1027E00001F701C000F7080E0701026F0001E2DEE9
:1027F000A3EF18F00601F2C6E9FFF3C6EAFF650E83
:10280000EF6E010EF225016E000EF321036E0150F2
:102810001D0FE96E000E0320EA6EEF90010EF22507
:10282000016E000EF321036E0150090FE96E000ED8
:102830000320EA6EEF90010EF225016E000EF321E7
:10284000036E0150130FE96E000E0320EA6EEF9045
:10285000010EF225016E000EF321036E01501C0FD4
:10286000E96E000E0320EA6E7F0EEF6E010EF22578
:10287000016E000EF321036E0150080FE96E000E89
:102880000320EA6EEF6A010EF225016E000EF321BD
:10289000036E0150120FE96E000E0320EA6EEF6A1C
:1028A000010EF225016E000EF321036E01501F0F81
:1028B000E96E000E0320EA6EF4C6EFFF010EF2256A
:1028C000016E000EF321036E0150140F016E000E15
:1028D000032201C0F7F603C0F8F6EDC6FFF6ECC61A
:1028E000FEF603C001F701C000F7080E0701026FF2
:1028F000000160DE010E0601F225016E000EF321DB
:10290000036E01C0F7F6F86FEFC6FFF6EEC6FEF6EF
:10291000E8CF01F701C000F7080E0701026F0001C0
:1029200049DE010E0601F225016E000EF321036E51
:1029300001500A0F016E000E032201C0F7F603C01A
:10294000F8F6F1C6FFF6F0C6FEF603C001F701C0C7
:1029500000F7080E0701026F00012CDE010E0601D0
:10296000F225016E000EF321036E01501E0FE96E79
:10297000000E0320EA6E010EEF6E000123EF19F046
:102980000601F4C6E9FFF5C6EAFF660EEF6E010E1A
:10299000F425016E000EF521036E0150090FE96E5A
:1029A000000E0320EA6EEF90010EF425016E000E7A
:1029B000F521036E0150130FE96E000E0320EA6E3D
:1029C000EF90010EF425016E000EF521036E01500B
:1029D000080FE96E000E0320EA6EEF6A010EF4257F
:1029E000016E000EF521036E0150120FE96E000E0C
:1029F0000320EA6EEF6A010EF425016E000EF52148
:102A0000036E01501D0FE96E000E0320EA6EEF9079
:102A1000010EF425016E000EF521036E0150270F03
:102A2000E96E000E0320EA6EEF90010EF425016EB0
:102A3000000EF521036E01501C0FE96E000E0320FD
:102A4000EA6EEF6A010EF425016E000EF521036EA9
:102A50000150260FE96E000E0320EA6EEF6A010EA8
:102A6000F425016E000EF521036E0150280FE96E6A
:102A7000000E0320EA6EF6C6EFFF010EF425016E8C
:102A8000000EF521036E0150290FE96E000E0320A0
:102A9000EA6EF7C6EFFF010EF425016E000EF52178
:102AA000036E01502B0FE96E000E0320EA6EF9C68B
:102AB000EFFF010EF425016E000EF521036E0150AB
:102AC0002C0FE96E000E0320EA6EF8C6EFFF010E30
:102AD000F425016E000EF521036E01C0FCF6FD6FBA
:102AE000EDC6FFF6ECC6FEF6E8CF01F701C000F731
:102AF000080E0701026F00015DDD010E0601F425DD
:102B0000016E000EF521036E01500A0F016E000EDA
:102B1000032201C0FCF603C0FDF6EFC6FFF6EEC6C9
:102B2000FEF603C001F701C000F7080E0701026FAF
:102B3000000140DD010E0601F425016E000EF521B5
:102B4000036E0150140F016E000E032201C0FCF64B
:102B500003C0FDF6F1C6FFF6F0C6FEF603C001F7AE
:102B600001C000F7080E0701026F000123DD010E0E
:102B70000601F425016E000EF521036E01501E0FB3
:102B8000016E000E032201C0FCF603C0FDF6F3C681
:102B9000FFF6F2C6FEF603C001F701C000F7080E0B
:102BA0000701026F000106DD010E0601F425016E2A
:102BB000000EF521036E01502D0FE96E000E03206B
:102BC000EA6E040EEF6E0001F2EF19F00601F0C696
:102BD000E9FFF1C6EAFF640EEF6E010EF025016E0B
:102BE000000EF121036E0150090FE96E000E032063
:102BF000EA6EEF90010EF025016E000EF121036EDA
:102C00000150130FE96E000E0320EA6EEF90010EE3
:102C1000F025016E000EF121036E0150080FE96EE0
:102C2000000E0320EA6EEF6A010EF025016E000E21
:102C3000F121036E0150120FE96E000E0320EA6EBF
:102C4000EF6A010EF025016E000EF121036E0150B6
:102C5000140FE96E000E0320EA6EF2C6EFFF010EBC
:102C6000F025016E000EF121036E01C0F5F6F66F3E
:102C7000EDC6FFF6ECC6FEF6E8CF01F701C000F79F
:102C8000080E0701026F000195DC010E0601F02518
:102C9000016E000EF121036E01500A0F016E000E4D
:102CA000032201C0F5F603C0F6F6EFC6FFF6EEC646
:102CB000FEF603C001F701C000F7080E0701026F1E
:102CC000000178DC5CEF1AF00601906B8F6B916B62
:102CD000926BF2CFEAF6F29E90C6AAFF8FC6A9FFCA
:102CE000A69CA69EA680A850EABFF28EFF08D8B484
:102CF000ECD3F2CFEAF6F29E90C6AAFF8FC6A9FFE8
:102D0000A69CA69EA680A850EABFF28E010A0001EA
:102D100012E0010A73E0020AD8B4E6D0010AD8B47E
:102D20005FD1660AD8B416D2030AD8B493D2020A85
:102D3000D8B45FD3C8D306018F2BD8B4902BF2CF71
:102D4000EAF6F29E90C6AAFF8FC6A9FFA69CA69E91
:102D5000A680A850EABFF28E936F8F2BD8B4902B29
:102D6000F2CFEBF6F29E90C6AAFF8FC6A9FFA69CF3
:102D7000A69EA680A850EBBFF28E946F8F2BD8B47E
:102D8000902BF2CFECF6F29E90C6AAFF8FC6A9FF59
:102D9000A69CA69EA680A850ECBFF28E956F1B6ADB
:102DA000F2BE1B8EF29E07010B6B91C60AF70D6BEC
:102DB000210E0C6F0001AFEC01F01BBEF28E02C0C1
:102DC00003F00150400F016E010E032201C0EAF62C
:102DD00003C0EBF693C6ECF694C6EDF603C0EFF62F
:102DE00001C0EEF695C6F0F6000174EF11F0060191
:102DF000912B8F2BD8B4902B000165D306018F2B1C
:102E0000D8B4902BF2CFEAF6F29E90C6AAFF8FC6F6
:102E1000A9FFA69CA69EA680A850EABFF28E966F38
:102E20008F2BD8B4902BF2CFEAF6F29E90C6AAFF71
:102E30008FC6A9FFA69CA69EA680A850EABFF28EC8
:102E4000936F8F2BD8B4902BF2CFEAF6F29E90C6F8
:102E5000AAFF8FC6A9FFA69CA69EA680A850EABF7F
:102E6000F28E946F8F2BD8B4902BF2CFEAF6F29EAD
:102E700090C6AAFF8FC6A9FFA69CA69EA680A850B2
:102E8000EABFF28E956F1B6AF2BE1B8EF29E07019F
:102E90000B6B91C60AF70D6B210E0C6F0001AFECA6
:102EA00001F01BBEF28E02C003F00150400F016E14
:102EB000010E032201C0EAF603C0EBF696C6ECF65B
:102EC00093C6EDF694C6EEF603C0F0F601C0EFF639
:102ED00095C6F1F60001A1EF11F00601912B8F2BA1
:102EE000D8B4902B0001EFD206018F2BD8B4902BD1
:102EF000F2CFEAF6F29E90C6AAFF8FC6A9FFA69C63
:102F0000A69EA680A850EABFF28E936F8F2BD8B4EE
:102F1000902BF2CFEAF6F29E90C6AAFF8FC6A9FFC9
:102F2000A69CA69EA680A850EABFF28E946F8F2B17
:102F3000D8B4902BF2CFEAF6F29E90C6AAFF8FC6C5
:102F4000A9FFA69CA69EA680A850EABFF28E956F08
:102F50008F2BD8B4902BF2CFEAF6F29E90C6AAFF40
:102F60008FC6A9FFA69CA69EA680A850EABFF28E97
:102F7000016E979101B097811B6AF2BE1B8EF29E83
:102F800007010B6B91C60AF70D6B210E0C6F000148
:102F9000AFEC01F01BBEF28E02C003F00150400FF7
:102FA000016E010E032201C0EAF6060103C0EBF632
:102FB000000E97B1010E93C6EDF694C6EEF603C06F
:102FC000F0F601C0EFF695C6F1F6F26F000183EF5F
:102FD00012F00601912B8F2BD8B4902B000173D2E5
:102FE00006018F2BD8B4902B060EEB6F980EEA6F6C
:102FF00090C6EDF68FC6ECF6080EEE6F0001B4EC4D
:1030000012F0080E06018F27000E9023060EEB6FBC
:10301000A00EEA6F90C6EDF68FC6ECF6080EEE6FC6
:103020000001B4EC12F0080E06018F27000E902369
:10303000F2CFEAF6F29E90C6AAFF8FC6A9FFA69C21
:10304000A69EA680A850EABFF28EA86F8F2BD8B498
:10305000902BF2CFEBF6F29E90C6AAFF8FC6A9FF87
:10306000A69CA69EA680A850EBBFF28EA96F8F2BC0
:10307000D8B4902BF2CFECF6F29E90C6AAFF8FC682
:10308000A9FFA69CA69EA680A850ECBFF28EAA6FB0
:103090008F2BD8B4902BF2CFEDF6F29E90C6AAFFFC
:1030A0008FC6A9FFA69CA69EA680A850EDBFF28E53
:1030B000AC6BAB6FABC6ACF6AB6B8F2BD8B4902BB5
:1030C000F2CFEAF6F29E90C6AAFF8FC6A9FFA69C91
:1030D000A69EA680A850EABFF28EAB131B6AF2BE72
:1030E0001B8EF29E07010B6B91C60AF70D6B210E2A
:1030F0000C6F0001AFEC01F01BBEF28E02C003F0BA
:103100000150400F016E010E032201C0EAF60601D4
:1031100003C0EBF6060EED6F980EEC6F060EEF6F28
:10312000A00EEE6FA8C6F0F6A9C6F1F603C0F3F63E
:1031300001C0F2F6AAC6F4F6ACC6F6F6ABC6F5F6D2
:103140000001FDEF12F00601912B8F2BD8B4902BCC
:103150000001B9D1060E0601EB6FAD0EEA6F90C605
:10316000EDF68FC6ECF6080EEE6F0001B4EC12F02F
:10317000080E06018F27000E9023060EEB6FB50E8A
:10318000EA6F90C6EDF68FC6ECF6080EEE6F000102
:10319000B4EC12F0080E06018F27000E9023060EE5
:1031A000EB6FBD0EEA6F90C6EDF68FC6ECF6080E1B
:1031B000EE6F0001B4EC12F0080E06018F27000E2E
:1031C00090238F2BD8B4902BF2CFEAF6F29E90C6C4
:1031D000AAFF8FC6A9FFA69CA69EA680A850EABFFC
:1031E000F28EC56F1B6AF2BE1B8EF29E07010B6B3F
:1031F00092C60AF70D6B2F0E0C6F0001AFEC01F0B9
:103200001BBEF28E02C003F001508A0F016E020E47
:10321000032201C0EAF6060103C0EBF6060EED6FCD
:10322000AD0EEC6F060EEF6FB50EEE6F060EF16F82
:10323000BD0EF06F03C0F3F601C0F2F6C5C6F4F69A
:103240000001FAEF13F00601922B8F2BD8B4902BCC
:10325000000139D1060E0601EB6FC60EEA6F90C66B
:10326000EDF68FC6ECF6080EEE6F0001B4EC12F02E
:10327000080E06018F27000E9023060EEB6FCE0E70
:10328000EA6F90C6EDF68FC6ECF6080EEE6F000101
:10329000B4EC12F0080E06018F27000E9023060EE4
:1032A000EB6FD60EEA6F90C6EDF68FC6ECF6080E01
:1032B000EE6F0001B4EC12F0080E06018F27000E2D
:1032C0009023060EEB6FDE0EEA6F90C6EDF68FC60A
:1032D000ECF6080EEE6F0001B4EC12F0080E0601D9
:1032E0008F27000E90238F2BD8B4902BF2CFEAF6C5
:1032F000F29E90C6AAFF8FC6A9FFA69CA69EA68096
:10330000A850EABFF28EE66F8F2BD8B4902BF2CF85
:10331000EBF6F29E90C6AAFF8FC6A9FFA69CA69EBA
:10332000A680A850EBBFF28EE76F8F2BD8B4902BFE
:10333000F2CFECF6F29E90C6AAFF8FC6A9FFA69C1C
:10334000A69EA680A850ECBFF28EE86F8F2BD8B453
:10335000902BF2CFEDF6F29E90C6AAFF8FC6A9FF82
:10336000A69CA69EA680A850EDBFF28EE96F1B6AB0
:10337000F2BE1B8EF29E07010B6B92C60AF70D6B15
:103380002F0E0C6F0001AFEC01F01BBEF28E02C0DD
:1033900003F001508A0F016E020E032201C0EAF60B
:1033A000060103C0EBF6060EED6FC60EEC6F060EBF
:1033B000EF6FCE0EEE6F060EF16FD60EF06F060EAB
:1033C000F36FDE0EF26F03C0F5F601C0F4F6E6C649
:1033D000F6F6E7C6F7F6E8C6F8F6E9C6F9F600012C
:1033E000C0EF14F00601922B8F2BD8B4902B000164
:1033F0006AD0060E0601EB6FB50EEA6F90C6EDF6C9
:103400008FC6ECF6080EEE6F0001B4EC12F0080E59
:1034100006018F27000E9023060EEB6FBD0EEA6F9C
:1034200090C6EDF68FC6ECF6080EEE6F0001B4EC18
:1034300012F0080E06018F27000E90238F2BD8B4B0
:10344000902BF2CFEAF6F29E90C6AAFF8FC6A9FF94
:10345000A69CA69EA680A850EABFF28EC56F1B6AE6
:10346000F2BE1B8EF29E07010B6B92C60AF70D6B24
:103470002F0E0C6F0001AFEC01F01BBEF28E02C0EC
:1034800003F001508A0F016E020E032201C0EAF61A
:10349000060103C0EBF6060EED6FB50EEC6F060EDF
:1034A000EF6FBD0EEE6F03C0F1F601C0F0F6C5C6BA
:1034B000F2F60001E6EF15F00601922B8F2BD8B43F
:1034C000902B000100D0060104D491C63EF192C6B3
:1034D0003FF1000164EF40F00601D16BD281D36B64
:1034E00005017A510601D35D47E2D351040DF35033
:1034F000D86BD76F910ED725016E060ED821036EBB
:10350000D86F036AD351810FE96E050E0320EA6E6E
:10351000EF50036AD8C6EAFF01C0E9FF03C0ECFF21
:10352000ED52EF6ED351040DF350D86BD76F020EEE
:10353000D725016E000ED821036E0150910F016E48
:10354000060E032203C0D8F6D890D335036A190FAC
:10355000E96E060E0320EA6EECCF03F0ED52EFCFDA
:10356000D9F6D8C6EAFF01C0E9FF03C0ECFFED526F
:10357000D9C6EFFFD32BB4D7D2A1E3D0D291D36B6E
:10358000010E05017A5D0601D35DD8B0D9D0D351C3
:10359000040DF350D86BD76F910ED725E96E060E48
:1035A000D821EA6EECCFD8F6ED52EFCFD7F6010E68
:1035B000D325040DF350DA6BD96F910ED925E96E3E
:1035C000060EDA21EA6EECCF03F0ED52EFCF01F0F8
:1035D000D851035CD8A0B2D004E10150D75DD8B077
:1035E000ADD0D281D351040DF350D86BD76F910E6B
:1035F000D725E96E060ED821EA6EECCF03F0ED5226
:10360000EFCFD4F603C0D5F6D351040DF350D86BE9
:10361000D76F910ED725016E060ED821036ED86F95
:10362000010ED325040DF350DA6BD96F910ED92515
:10363000E96E060EDA21EA6EECCF03F0ED52EFCF21
:10364000D9F6D8C6EAFF01C0E9FF03C0ECFFED528E
:10365000D9C6EFFF010ED325040DF350D86BD76FF9
:10366000910ED725E96E060ED821EA6ED5C6ECFF7D
:10367000ED52D4C6EFFFD351040DF350D86BD76F82
:10368000020ED725016E000ED821036E0150910F56
:10369000E96E060E0320EA6EECCF03F0ED52EFCF99
:1036A000D4F603C0D5F6D351040DF350D86BD76FC1
:1036B000020ED725016E000ED821036E0150910F26
:1036C000016E060E032201C0D7F603C0D8F6010E24
:1036D000D325040DF350DA6BD96F020ED925016E94
:1036E000000EDA21036E0150910FE96E060E0320E1
:1036F000EA6EECCF03F0ED52EFCFD9F6D8C6EAFF71
:10370000D7C6E9FF03C0ECFFED52D9C6EFFF010EAB
:10371000D325040DF350D86BD76F020ED725016E59
:10372000000ED821036E0150910FE96E060E0320A2
:10373000EA6ED5C6ECFFED52D4C6EFFFD32B20D7EF
:103740001BD7915304E1925302E1D16BD0D1010E0A
:10375000D16FD66B0001B5A709D092C692F591C67C
:1037600091F594C694F593C693F508D092C6D6F514
:1037700091C6D5F594C6D8F593C6D7F5010E0601C6
:10378000D36F05017A510601D35DD8B0B0D1D351C2
:10379000040DF350D86BD76F910ED725E96E060E46
:1037A000D821EA6EECCFD8F6ED52EFCFD7F6010E66
:1037B000D35D040DF350DA6BD96F910ED925E96E04
:1037C000060EDA21EA6EECCF03F0ED52EF50D75D32
:1037D00003E10350D85D02E0000E01D0010ED76F67
:1037E000D351040DF350D96BD86F910ED825E96EE3
:1037F000060ED921EA6EEF5202E1EC5202E0000E11
:1038000001D0010E000A02E0000E01D0010ED71512
:10381000D8B49DD00001B5A74DD00601D651040DF6
:10382000F350D86BD76F020ED725016E000ED8214A
:10383000036E0150910F016E050E032201C0D7F6F1
:1038400003C0D8F6D651040DF350DA6BD96F020ECF
:10385000D925016E000EDA21036E0150910FE96E39
:10386000050E0320EA6EECCFDAF6ED52EFCFD9F673
:10387000D351040DF350DC6BDB6F020EDB25016EC0
:10388000000EDC21036E0150910FE96E060E03203D
:10389000EA6EECCF03F0ED52EF50D915006E0350F5
:1038A000DA15D8C6EAFFD7C6E9FFEC6EED5200C0C4
:1038B000EFFF4CD00601D651040DF350D86BD76FF3
:1038C000020ED725016E000ED821036E0150D50FD0
:1038D000016E050E032201C0D7F603C0D8F6D651FB
:1038E000040DF350DA6BD96F020ED925016E000E6C
:1038F000DA21036E0150D50FE96E050E0320EA6E42
:10390000ECCFDAF6ED52EFCFD9F6D351040DF350E8
:10391000DC6BDB6F020EDB25016E000EDC21036E1B
:103920000150910FE96E060E0320EA6EECCF03F012
:10393000ED52EF50D915006E0350DA15D8C6EAFFE4
:10394000D7C6E9FFEC6EED5200C0EFFFCED0D351E9
:10395000040DF350D86BD76F910ED725E96E060E84
:10396000D821EA6EEF5202E1EC5202E0000E01D0E3
:10397000010E000AD8A4B9D0D62B0001B5A75BD0A0
:103980000601D651040DF350D86BD76F910ED72591
:10399000016E050ED821036ED86FD351040DF3507C
:1039A000DA6BD96F910ED925E96E060EDA21EA6E2F
:1039B000ECCF03F0ED52EFCFD9F6D8C6EAFF01C045
:1039C000E9FF03C0ECFFED52D9C6EFFFD651040D5D
:1039D000F350D86BD76F020ED725016E000ED82199
:1039E000036E0150910F016E050E032201C0D7F640
:1039F00003C0D8F6D351040DF350DA6BD96F020E21
:103A0000D925016E000EDA21036E0150910FE96E87
:103A1000060E0320EA6EECCF03F0ED52EFCFD9F69D
:103A2000D8C6EAFFD7C6E9FF03C0ECFFED52D9C6FE
:103A3000EFFF5AD000010601D651040DF350D86BA8
:103A4000D76FD50ED725016E050ED821036ED86F1E
:103A5000D351040DF350DA6BD96F910ED925E96E6D
:103A6000060EDA21EA6EECCF03F0ED52EFCFD9F675
:103A7000D8C6EAFF01C0E9FF03C0ECFFED52D9C68A
:103A8000EFFFD651040DF350D86BD76F020ED72538
:103A9000016E000ED821036E0150D50F016E050E88
:103AA000032201C0D7F603C0D8F6D351040DF3505A
:103AB000DA6BD96F020ED925016E000EDA21036E82
:103AC0000150910FE96E060E0320EA6EECCF03F071
:103AD000ED52EFCFD9F6D8C6EAFFD7C6E9FF03C04B
:103AE000ECFFED52D9C6EFFFD12BD32B4AD6000104
:103AF000B5A705D00501D26BD1C6D1F504D006011A
:103B0000166BD1C615F60001B585000C0501D26B08
:103B1000D16B0601166B156B050E05017C6F910EBE
:103B20007B6F0001B597FF0E826E836E000E946E60
:103B3000956EFF0E826E836E06018F6B01013F5101
:103B400006018F5DD8B097D01B6AF2BE1B8EF29E25
:103B500007010B6B8FC60AF70D6B2F0E0C6F000160
:103B6000AFEC01F01BBEF28E02C003F001508A0FD1
:103B7000016E020E032201C0E9FF03C0EAFFEF500D
:103B8000650A01E075D0D89005017A35036A190FEE
:103B9000016E060E032201C090F6060103C091F6E5
:103BA0001B6AF2BE1B8EF29E07010B6B8FC60AF7D3
:103BB0000D6B2F0E0C6F0001AFEC01F01BBEF28EEF
:103BC00001504C0F0601926F010E0220936F010EFF
:103BD0009225016E000E9321036E01503E0F016E7F
:103BE000010E032201501F0FE96E000E0320EA6E42
:103BF000D890EF34036A0001B9EC00F00900F5CF6A
:103C000003F0060191C6EAFF90C6E9FF03C0ECFF8E
:103C1000ED52EF6E1B6AF2BE1B8EF29E07010B6B1C
:103C20008FC60AF70D6B2F0E0C6F0001AFEC01F081
:103C30001BBEF28E01504C0F0601906F010E022048
:103C4000916F010E9025016E000E9121036E0150BF
:103C50003E0F016E010E03220150200FE96E000E8F
:103C60000320EA6E7AC5EFFF05017A2B000100D030
:103C700006018F2B63D705017A5312E00001B59737
:103C8000050E05017C6F910E7B6F000125DC050E92
:103C900005017C6FD50E7B6F0001B5871DDC05012A
:103CA000000166EF40F0060190918F6B01013F51DA
:103CB00006018F5DD8B032EF28F01B6AF2BE1B8E72
:103CC000F29E07010B6B8FC60AF70D6B2F0E0C6F60
:103CD0000001AFEC01F01BBEF28E02C003F00150F8
:103CE0008A0F016E020E032201C0E9FF03C0EAFF42
:103CF000EF50650A09E0010AD8B4CBD2020AD8B461
:103D0000B8EF22F02EEF28F01B6AF2BE1B8EF29E57
:103D100007010B6B8FC60AF70D6B2F0E0C6F00019E
:103D2000AFEC01F01BBEF28E01504C0F0601916FFB
:103D3000010E0220926F010E9125016E000E92215C
:103D4000036E01503E0F016E010E032201501D0F44
:103D5000E96E000E0320EA6EEFA0B6D01B6AF2BE39
:103D60001B8EF29E07010B6B8FC60AF70D6B2F0E91
:103D70000C6F0001AFEC01F01BBEF28E01504C0F36
:103D80000601916F010E0220926F010E9125016EC6
:103D9000000E9221036E01503E0F016E010E0322B0
:103DA00001501E0FE96E000E0320EA6EEF5263E130
:103DB0001B6AF2BE1B8EF29E07010B6B8FC60AF7C1
:103DC0000D6B2F0E0C6F0001AFEC01F01BBEF28EDD
:103DD00001504C0F0601916F010E0220926F010EEF
:103DE0009125016E000E9221036E01503E0F016E6F
:103DF000010E03220150200FE96E000E0320EA6E2F
:103E0000036AEF50810F016E050E032201C093F685
:103E100003C094F61B6AF2BE1B8EF29E07010B6B69
:103E20008FC60AF70D6B2F0E0C6F0001AFEC01F07F
:103E30001BBEF28E01504C0F0601956F010E022041
:103E4000966F010E9525016E000E9621036E0150AE
:103E50003E0F016E010E032201501C0FE96E000E91
:103E60000320EA6EEFCF97F694C6EAFF93C6E9FF08
:103E700097C6EFFF90811B6AF2BE1B8EF29E070170
:103E80000B6B8FC60AF70D6B2F0E0C6F0001AFEC9A
:103E900001F01BBEF28E01504C0F0601916F010E16
:103EA0000220926F010E9125016E000E9221036E89
:103EB00001503E0F016E010E032201501D0FE96EED
:103EC000000E0320EA6EEF901B6AF2BE1B8EF29E7C
:103ED00007010B6B8FC60AF70D6B2F0E0C6F0001DD
:103EE000AFEC01F01BBEF28E01504C0F0601916F3A
:103EF000010E0220926F010E9125016E000E92219B
:103F0000036E01503E0F016E010E03220150130F8C
:103F1000E96E000E0320EA6EEFA0AED01B6AF2BE7F
:103F20001B8EF29E07010B6B8FC60AF70D6B2F0ECF
:103F30000C6F0001AFEC01F01BBEF28E01504C0F74
:103F40000601916F010E0220926F010E9125016E04
:103F5000000E9221036E01503E0F016E010E0322EE
:103F60000150120FE96E000E0320EA6EEF525BE083
:103F70001B6AF2BE1B8EF29E07010B6B8FC60AF7FF
:103F80000D6B2F0E0C6F0001AFEC01F01BBEF28E1B
:103F900001504C0F0601916F010E0220926F010E2D
:103FA0009125016E000E9221036E01503E0F016EAD
:103FB000010E032201501E0FE96E000E0320EA6E6F
:103FC000010EEF6E1B6AF2BE1B8EF29E07010B6B99
:103FD0008FC60AF70D6B2F0E0C6F0001AFEC01F0CE
:103FE0001BBEF28E01504C0F0601916F010E022094
:103FF000926F010E9125016E000E9221036E015009
:104000003E0F016E010E03220150200FE96E000EDB
:104010000320EA6E036AEF50810FE96E050E03205C
:10402000EA6EEF6A90811B6AF2BE1B8EF29E070158
:104030000B6B8FC60AF70D6B2F0E0C6F0001AFECE8
:1040400001F01BBEF28E01504C0F0601916F010E64
:104050000220926F010E9125016E000E9221036ED7
:1040600001503E0F016E010E03220150130FE96E45
:10407000000E0320EA6EEF901B6AF2BE1B8EF29ECA
:1040800007010B6B8FC60AF70D6B2F0E0C6F00012B
:10409000AFEC01F01BBEF28E01504C0F0601916F88
:1040A000010E0220926F010E9125016E000E9221E9
:1040B000036E01503E0F016E010E03220150090FE5
:1040C000E96E000E0320EA6EEFA0E0D01B6AF2BE9C
:1040D0001B8EF29E07010B6B8FC60AF70D6B2F0E1E
:1040E0000C6F0001AFEC01F01BBEF28E01504C0FC3
:1040F0000601916F010E0220926F010E9125016E53
:10410000000E9221036E01503E0F016E010E03223C
:104110000150080FE96E000E0320EA6EEF52D8B48A
:104120008CD01B6AF2BE1B8EF29E07010B6B8FC6F2
:104130000AF70D6B2F0E0C6F0001AFEC01F01BBEE8
:10414000F28E01504C0F0601916F010E0220926F0A
:10415000010E9125016E000E9221036E01503E0F5B
:10416000016E010E032201501E0FE96E000E0320A6
:10417000EA6EEF6A1B6AF2BE1B8EF29E07010B6BA2
:104180008FC60AF70D6B2F0E0C6F0001AFEC01F01C
:104190001BBEF28E01504C0F0601916F010E0220E2
:1041A000926F010E9125016E000E9221036E015057
:1041B0003E0F016E010E03220150200FE96E000E2A
:1041C0000320EA6E036AEF50810F016E050E032291
:1041D00001C093F603C094F61B6AF2BE1B8EF29EDA
:1041E00007010B6B8FC60AF70D6B2F0E0C6F0001CA
:1041F000AFEC01F01BBEF28E01504C0F0601956F23
:10420000010E0220966F010E9525016E000E96217B
:10421000036E01503E0F016E010E032201501C0F70
:10422000E96E000E0320EA6EEFCF97F694C6EAFF20
:1042300093C6E9FF97C6EFFF90811B6AF2BE1B8E03
:10424000F29E07010B6B8FC60AF70D6B2F0E0C6FDA
:104250000001AFEC01F01BBEF28E01504C0F0601C5
:10426000916F010E0220926F010E9125016E000EDA
:104270009221036E01503E0F016E010E0322015088
:10428000090FE96E000E0320EA6EEF9000012EEF99
:1042900028F01B6AF2BE1B8EF29E07010B6B8FC6C5
:1042A0000AF70D6B2F0E0C6F0001AFEC01F01BBE77
:1042B000F28E01504C0F0601916F010E0220926F99
:1042C000010E9125016E000E9221036E01503E0FEA
:1042D000016E010E03220150130FE96E000E032040
:1042E000EA6EEFA08FD01B6AF2BE1B8EF29E070112
:1042F0000B6B8FC60AF70D6B2F0E0C6F0001AFEC26
:1043000001F01BBEF28E01504C0F0601916F010EA1
:104310000220926F010E9125016E000E9221036E14
:1043200001503E0F016E010E03220150120FE96E83
:10433000000E0320EA6EEF523CE01B6AF2BE1B8EB9
:10434000F29E07010B6B8FC60AF70D6B2F0E0C6FD9
:104350000001AFEC01F01BBEF28E01504C0F0601C4
:10436000916F010E0220926F010E9125016E000ED9
:104370009221036E01503E0F016E010E0322015087
:10438000140FE96E000E0320EA6ED890EF34036A32
:104390000001B9EC00F00900F5CF03F0006A000657
:1043A000001AFF0E031A005005017F1303508013FB
:1043B00006011B6AF2BE1B8EF29E07010B6B8FC6B5
:1043C0000AF70D6B2F0E0C6F0001AFEC01F01BBE56
:1043D000F28E01504C0F0601916F010E0220926F78
:1043E000010E9125016E000E9221036E01503E0FC9
:1043F000016E010E03220150130FE96E000E03201F
:10440000EA6EEF901B6AF2BE1B8EF29E07010B6BE9
:104410008FC60AF70D6B2F0E0C6F0001AFEC01F089
:104420001BBEF28E01504C0F0601916F010E02204F
:10443000926F010E9125016E000E9221036E0150C4
:104440003E0F016E010E03220150090FE96E000EAE
:104450000320EA6EEFA089D01B6AF2BE1B8EF29E8B
:1044600007010B6B8FC60AF70D6B2F0E0C6F000147
:10447000AFEC01F01BBEF28E01504C0F0601916FA4
:10448000010E0220926F010E9125016E000E922105
:10449000036E01503E0F016E010E03220150080F02
:1044A000E96E000E0320EA6EEF5236E01B6AF2BEA0
:1044B0001B8EF29E07010B6B8FC60AF70D6B2F0E3A
:1044C0000C6F0001AFEC01F01BBEF28E01504C0FDF
:1044D0000601916F010E0220926F010E9125016E6F
:1044E000000E9221036E01503E0F016E010E032259
:1044F0000150140FE96E000E0320EA6ED890EF34DD
:10450000036A0001B9EC00F00900F5CF03F00501E2
:104510007F170350801706011B6AF2BE1B8EF29EA6
:1045200007010B6B8FC60AF70D6B2F0E0C6F000186
:10453000AFEC01F01BBEF28E01504C0F0601916FE3
:10454000010E0220926F010E9125016E000E922144
:10455000036E01503E0F016E010E03220150090F40
:10456000E96E000E0320EA6EEF9000012EEF28F0B6
:104570001B6AF2BE1B8EF29E07010B6B8FC60AF7F9
:104580000D6B2F0E0C6F0001AFEC01F01BBEF28E15
:1045900001504C0F0601916F010E0220926F010E27
:1045A0009125016E000E9221036E01503E0F016EA7
:1045B000010E03220150090FE96E000E0320EA6E7E
:1045C000EFA032D11B6AF2BE1B8EF29E07010B6B6D
:1045D0008FC60AF70D6B2F0E0C6F0001AFEC01F0C8
:1045E0001BBEF28E01504C0F0601936F010E02208C
:1045F000946F010E9325016E000E9421036E0150FD
:104600003E0F016E010E032201502D0FE96E000EC8
:104610000320EA6EEF5004082BE01B6AF2BE1B8EEB
:10462000F29E07010B6B8FC60AF70D6B2F0E0C6FF6
:104630000001AFEC01F01BBEF28E01504C0F0601E1
:10464000956F010E0220966F010E9525016E000EEA
:104650009621036E01503E0F016E010E03220150A0
:104660002D0FE96E000E0320EA6EEF52D8A4DCD0C5
:104670001B6AF2BE1B8EF29E07010B6B8FC60AF7F8
:104680000D6B2F0E0C6F0001AFEC01F01BBEF28E14
:1046900001504C0F0601916F010E0220926F010E26
:1046A0009125016E000E9221036E01503E0F016EA6
:1046B000010E03220150080FE96E000E0320EA6E7E
:1046C000EF52D8B488D01B6AF2BE1B8EF29E07014F
:1046D0000B6B8FC60AF70D6B2F0E0C6F0001AFEC42
:1046E00001F01BBEF28E01504C0F0601916F010EBE
:1046F0000220926F010E9125016E000E9221036E31
:1047000001503E0F016E010E032201502A0FE96E87
:10471000000E0320EA6EEF6A1B6AF2BE1B8EF29E49
:1047200007010B6B8FC60AF70D6B2F0E0C6F000184
:10473000AFEC01F01BBEF28E01504C0F0601916FE1
:10474000010E0220926F010E9125016E000E922142
:10475000036E01503E0F016E010E032201502D0F1A
:10476000E96E000E0320EA6EEF6A1B6AF2BE1B8E32
:10477000F29E07010B6B8FC60AF70D6B2F0E0C6FA5
:104780000001AFEC01F01BBEF28E01504C0F060190
:10479000916F010E0220926F010E9125016E000EA5
:1047A0009221036E01503E0F016E010E0322015053
:1047B000280FE96E000E0320EA6ED890EF34036AEA
:1047C0000001B9EC00F00900F5CF03F005017F17F7
:1047D0000350801706011B6AF2BE1B8EF29E070172
:1047E0000B6B8FC60AF70D6B2F0E0C6F0001AFEC31
:1047F00001F01BBEF28E01504C0F0601916F010EAD
:104800000220926F010E9125016E000E9221036E1F
:1048100001503E0F016E010E03220150090FE96E97
:10482000000E0320EA6EEF901B6AF2BE1B8EF29E12
:1048300007010B6B8FC60AF70D6B2F0E0C6F000173
:10484000AFEC01F01BBEF28E01504C0F0601916FD0
:10485000010E0220926F010E9125016E000E922131
:10486000036E01503E0F016E010E03220150130F23
:10487000E96E000E0320EA6EEFA032D11B6AF2BE91
:104880001B8EF29E07010B6B8FC60AF70D6B2F0E66
:104890000C6F0001AFEC01F01BBEF28E01504C0F0B
:1048A0000601936F010E0220946F010E9325016E95
:1048B000000E9421036E01503E0F016E010E032283
:1048C00001502D0FE96E000E0320EA6EEF50040830
:1048D0002AE01B6AF2BE1B8EF29E07010B6B8FC68D
:1048E0000AF70D6B2F0E0C6F0001AFEC01F01BBE31
:1048F000F28E01504C0F0601956F010E0220966F4B
:10490000010E9525016E000E9621036E01503E0F9B
:10491000016E010E032201502D0FE96E000E0320DF
:10492000EA6EEF2CDDD01B6AF2BE1B8EF29E0701F1
:104930000B6B8FC60AF70D6B2F0E0C6F0001AFECDF
:1049400001F01BBEF28E01504C0F0601916F010E5B
:104950000220926F010E9125016E000E9221036ECE
:1049600001503E0F016E010E03220150120FE96E3D
:10497000000E0320EA6EEF52D8B489D01B6AF2BE53
:104980001B8EF29E07010B6B8FC60AF70D6B2F0E65
:104990000C6F0001AFEC01F01BBEF28E01504C0F0A
:1049A0000601916F010E0220926F010E9125016E9A
:1049B000000E9221036E01503E0F016E010E032284
:1049C00001502A0FE96E000E0320EA6EEF6A1B6A9F
:1049D000F2BE1B8EF29E07010B6B8FC60AF70D6BA2
:1049E0002F0E0C6F0001AFEC01F01BBEF28E0150D8
:1049F0004C0F0601916F010E0220926F010E91255E
:104A0000016E000E9221036E01503E0F016E010EE9
:104A1000032201502D0FE96E000E0320EA6E010EF5
:104A2000EF6E1B6AF2BE1B8EF29E07010B6B8FC6E8
:104A30000AF70D6B2F0E0C6F0001AFEC01F01BBEDF
:104A4000F28E01504C0F0601916F010E0220926F01
:104A5000010E9125016E000E9221036E01503E0F52
:104A6000016E010E03220150290FE96E000E032092
:104A7000EA6ED890EF34036A0001B9EC00F0090047
:104A8000F5CF03F005017F170350801706011B6A5D
:104A9000F2BE1B8EF29E07010B6B8FC60AF70D6BE1
:104AA0002F0E0C6F0001AFEC01F01BBEF28E015017
:104AB0004C0F0601916F010E0220926F010E91259D
:104AC000016E000E9221036E01503E0F016E010E29
:104AD00003220150130FE96E000E0320EA6EEF90DF
:104AE0001B6AF2BE1B8EF29E07010B6B8FC60AF784
:104AF0000D6B2F0E0C6F0001AFEC01F01BBEF28EA0
:104B000001504C0F0601916F010E0220926F010EB1
:104B10009125016E000E9221036E01503E0F016E31
:104B2000010E032201501D0FE96E000E0320EA6EF4
:104B3000EFA034D11B6AF2BE1B8EF29E07010B6BF5
:104B40008FC60AF70D6B2F0E0C6F0001AFEC01F052
:104B50001BBEF28E01504C0F0601936F010E022016
:104B6000946F010E9325016E000E9421036E015087
:104B70003E0F016E010E032201502D0FE96E000E53
:104B80000320EA6EEF5004082CE01B6AF2BE1B8E75
:104B9000F29E07010B6B8FC60AF70D6B2F0E0C6F81
:104BA0000001AFEC01F01BBEF28E01504C0F06016C
:104BB000956F010E0220966F010E9525016E000E75
:104BC0009621036E01503E0F016E010E032201502B
:104BD0002D0FE96E000E0320EA6EEF500208D8A4F4
:104BE000DDD01B6AF2BE1B8EF29E07010B6B8FC6D7
:104BF0000AF70D6B2F0E0C6F0001AFEC01F01BBE1E
:104C0000F28E01504C0F0601916F010E0220926F3F
:104C1000010E9125016E000E9221036E01503E0F90
:104C2000016E010E032201501C0FE96E000E0320DD
:104C3000EA6EEF52D8B489D01B6AF2BE1B8EF29E88
:104C400007010B6B8FC60AF70D6B2F0E0C6F00015F
:104C5000AFEC01F01BBEF28E01504C0F0601916FBC
:104C6000010E0220926F010E9125016E000E92211D
:104C7000036E01503E0F016E010E032201502A0FF8
:104C8000E96E000E0320EA6EEF6A1B6AF2BE1B8E0D
:104C9000F29E07010B6B8FC60AF70D6B2F0E0C6F80
:104CA0000001AFEC01F01BBEF28E01504C0F06016B
:104CB000916F010E0220926F010E9125016E000E80
:104CC0009221036E01503E0F016E010E032201502E
:104CD0002D0FE96E000E0320EA6E020EEF6E1B6AC6
:104CE000F2BE1B8EF29E07010B6B8FC60AF70D6B8F
:104CF0002F0E0C6F0001AFEC01F01BBEF28E0150C5
:104D00004C0F0601916F010E0220926F010E91254A
:104D1000016E000E9221036E01503E0F016E010ED6
:104D200003220150280FE96E000E0320EA6ED8908E
:104D3000EF34036A0001B9EC00F00900F5CF03F08D
:104D400005017F170350801706011B6AF2BE1B8EF8
:104D5000F29E07010B6B8FC60AF70D6B2F0E0C6FBF
:104D60000001AFEC01F01BBEF28E01504C0F0601AA
:104D7000916F010E0220926F010E9125016E000EBF
:104D80009221036E01503E0F016E010E032201506D
:104D90001D0FE96E000E0320EA6EEF901B6AF2BE53
:104DA0001B8EF29E07010B6B8FC60AF70D6B2F0E41
:104DB0000C6F0001AFEC01F01BBEF28E01504C0FE6
:104DC0000601916F010E0220926F010E9125016E76
:104DD000000E9221036E01503E0F016E010E032260
:104DE0000150270FE96E000E0320EA6EEFA034D1C8
:104DF0001B6AF2BE1B8EF29E07010B6B8FC60AF771
:104E00000D6B2F0E0C6F0001AFEC01F01BBEF28E8C
:104E100001504C0F0601936F010E0220946F010E9A
:104E20009325016E000E9421036E01503E0F016E1A
:104E3000010E032201502D0FE96E000E0320EA6ED1
:104E4000EF5004082CE01B6AF2BE1B8EF29E070195
:104E50000B6B8FC60AF70D6B2F0E0C6F0001AFECBA
:104E600001F01BBEF28E01504C0F0601956F010E32
:104E70000220966F010E9525016E000E9621036E9D
:104E800001503E0F016E010E032201502D0FE96EFD
:104E9000000E0320EA6EEF500308D8A4DDD01B6A91
:104EA000F2BE1B8EF29E07010B6B8FC60AF70D6BCD
:104EB0002F0E0C6F0001AFEC01F01BBEF28E015003
:104EC0004C0F0601916F010E0220926F010E912589
:104ED000016E000E9221036E01503E0F016E010E15
:104EE00003220150260FE96E000E0320EA6EEF52F6
:104EF000D8B489D01B6AF2BE1B8EF29E07010B6BE1
:104F00008FC60AF70D6B2F0E0C6F0001AFEC01F08E
:104F10001BBEF28E01504C0F0601916F010E022054
:104F2000926F010E9125016E000E9221036E0150C9
:104F30003E0F016E010E032201502A0FE96E000E92
:104F40000320EA6EEF6A1B6AF2BE1B8EF29E070117
:104F50000B6B8FC60AF70D6B2F0E0C6F0001AFECB9
:104F600001F01BBEF28E01504C0F0601916F010E35
:104F70000220926F010E9125016E000E9221036EA8
:104F800001503E0F016E010E032201502D0FE96EFC
:104F9000000E0320EA6E030EEF6E1B6AF2BE1B8E3C
:104FA000F29E07010B6B8FC60AF70D6B2F0E0C6F6D
:104FB0000001AFEC01F01BBEF28E01504C0F060158
:104FC000916F010E0220926F010E9125016E000E6D
:104FD0009221036E01503E0F016E010E032201501B
:104FE000290FE96E000E0320EA6ED890EF34036AB1
:104FF0000001B9EC00F00900F5CF03F005017F17BF
:105000000350801706011B6AF2BE1B8EF29E070139
:105010000B6B8FC60AF70D6B2F0E0C6F0001AFECF8
:1050200001F01BBEF28E01504C0F0601916F010E74
:105030000220926F010E9125016E000E9221036EE7
:1050400001503E0F016E010E03220150270FE96E41
:10505000000E0320EA6EEF90000100D006018F2BB6
:1050600056EF1EF090A104D000016CEC1AF006017E
:105070000001000CA380A382A384A386A388A38E2F
:10508000A38A9D84F28A9D809D82F288A08EC00EA4
:10509000F2126AEF40F00601A26BA25107080FE37B
:1050A000036AA2519F25E96EA0510320EA6EA15127
:1050B000EF5C03E1010E016E04D0A22BEED7000ECF
:1050C000016E0001000C06019A6B01013F510601BF
:1050D0009A5DD8B064EF2DF01B6AF2BE1B8EF29E73
:1050E00007010B6B9AC60AF70D6B2F0E0C6F0001B0
:1050F000AFEC01F01BBEF28E02C003F001508A0F2C
:10510000016E020E032201C0E9FF03C0EAFFEF5067
:10511000650A08E0010AD8B49ED1020AD8B4AAD21E
:105120005FEF2DF01B6AF2BE1B8EF29E07010B6B28
:105130009AC60AF70D6B2F0E0C6F0001AFEC01F051
:105140001BBEF28E01504C0F06019B6F010E022018
:105150009C6F010E9B25016E000E9C21036E015079
:105160003E0F016E010E03220150140F016E000E5E
:10517000032201C09DF603C09EF603C0A0F601C045
:105180009FF698C6A1F6000186DF015255E01B6A22
:10519000F2BE1B8EF29E07010B6B9AC60AF70D6BCF
:1051A0002F0E0C6F0001AFEC01F01BBEF28E015010
:1051B0004C0F06019B6F010E02209C6F010E9B2578
:1051C000016E000E9C21036E01503E0F016E010E18
:1051D000032201501C0FE96E000E0320EA6E99C6EF
:1051E000EFFF1B6AF2BE1B8EF29E07010B6B9AC685
:1051F0000AF70D6B2F0E0C6F0001AFEC01F01BBE18
:10520000F28E01504C0F06019B6F010E02209C6F25
:10521000010E9B25016E000E9C21036E01503E0F76
:10522000016E010E032201501D0FE96E000E0320D6
:10523000EA6EEF800ED100011B6AF2BE1B8EF29E59
:1052400007010B6B9AC60AF70D6B2F0E0C6F00014E
:10525000AFEC01F01BBEF28E01504C0F06019B6FAC
:10526000010E02209C6F010E9B25016E000E9C21F9
:10527000036E01503E0F016E010E032201C09DF628
:1052800003C09EF603C0A0F601C09FF698C6A1F623
:10529000000101DF015255E01B6AF2BE1B8EF29E37
:1052A00007010B6B9AC60AF70D6B2F0E0C6F0001EE
:1052B000AFEC01F01BBEF28E01504C0F06019B6F4C
:1052C000010E02209C6F010E9B25016E000E9C2199
:1052D000036E01503E0F016E010E03220150080FB4
:1052E000E96E000E0320EA6E99C6EFFF1B6AF2BE5C
:1052F0001B8EF29E07010B6B9AC60AF70D6B2F0EE1
:105300000C6F0001AFEC01F01BBEF28E01504C0F90
:1053100006019B6F010E02209C6F010E9B25016E02
:10532000000E9C21036E01503E0F016E010E032200
:105330000150090FE96E000E0320EA6EEF8089D05C
:1053400000011B6AF2BE1B8EF29E07010B6B9AC610
:105350000AF70D6B2F0E0C6F0001AFEC01F01BBEB6
:10536000F28E01504C0F06019B6F010E02209C6FC4
:10537000010E9B25016E000E9C21036E01503E0F15
:10538000016E010E032201500A0F016E000E03226E
:1053900001C09DF603C09EF603C0A0F601C09FF6B3
:1053A00098C6A1F6000177DE015254E01B6AF2BEF6
:1053B0001B8EF29E07010B6B9AC60AF70D6B2F0E20
:1053C0000C6F0001AFEC01F01BBEF28E01504C0FD0
:1053D00006019B6F010E02209C6F010E9B25016E42
:1053E000000E9C21036E01503E0F016E010E032240
:1053F0000150120FE96E000E0320EA6E99C6EFFF0E
:105400001B6AF2BE1B8EF29E07010B6B9AC60AF74F
:105410000D6B2F0E0C6F0001AFEC01F01BBEF28E76
:1054200001504C0F06019B6F010E02209C6F010E74
:105430009B25016E000E9C21036E01503E0F016EF4
:10544000010E03220150130FE96E000E0320EA6ED5
:10545000EF80000135D31B6AF2BE1B8EF29E07015E
:105460000B6B9AC60AF70D6B2F0E0C6F0001AFEC99
:1054700001F01BBEF28E01504C0F06019B6F010E16
:1054800002209C6F010E9B25016E000E9C21036E75
:1054900001503E0F016E010E032201C09DF603C0B4
:1054A0009EF603C0A0F601C09FF698C6A1F60001C3
:1054B000F2DD015255E01B6AF2BE1B8EF29E07011F
:1054C0000B6B9AC60AF70D6B2F0E0C6F0001AFEC39
:1054D00001F01BBEF28E01504C0F06019B6F010EB6
:1054E00002209C6F010E9B25016E000E9C21036E15
:1054F00001503E0F016E010E03220150080FE96EAC
:10550000000E0320EA6E99C6EFFF1B6AF2BE1B8EE7
:10551000F29E07010B6B9AC60AF70D6B2F0E0C6FEC
:105520000001AFEC01F01BBEF28E01504C0F0601E2
:105530009B6F010E02209C6F010E9B25016E000ED9
:105540009C21036E01503E0F016E010E032201509B
:10555000090FE96E000E0320EA6EEF8089D000018A
:105560001B6AF2BE1B8EF29E07010B6B9AC60AF7EE
:105570000D6B2F0E0C6F0001AFEC01F01BBEF28E15
:1055800001504C0F06019B6F010E02209C6F010E13
:105590009B25016E000E9C21036E01503E0F016E93
:1055A000010E032201500A0F016E000E032201C0FA
:1055B0009DF603C09EF603C0A0F601C09FF698C6F4
:1055C000A1F6000168DD015254E01B6AF2BE1B8E99
:1055D000F29E07010B6B9AC60AF70D6B2F0E0C6F2C
:1055E0000001AFEC01F01BBEF28E01504C0F060122
:1055F0009B6F010E02209C6F010E9B25016E000E19
:105600009C21036E01503E0F016E010E03220150DA
:10561000120FE96E000E0320EA6E99C6EFFF1B6AB7
:10562000F2BE1B8EF29E07010B6B9AC60AF70D6B3A
:105630002F0E0C6F0001AFEC01F01BBEF28E01507B
:105640004C0F06019B6F010E02209C6F010E9B25E3
:10565000016E000E9C21036E01503E0F016E010E83
:1056600003220150130FE96E000E0320EA6EEF8053
:10567000000126D21B6AF2BE1B8EF29E07010B6B45
:105680009AC60AF70D6B2F0E0C6F0001AFEC01F0FC
:105690001BBEF28E01504C0F06019B6F010E0220C3
:1056A0009C6F010E9B25016E000E9C21036E015024
:1056B0003E0F016E010E032201C09DF603C09EF64F
:1056C00003C0A0F601C09FF698C6A1F60001E3DC76
:1056D000015255E01B6AF2BE1B8EF29E07010B6B56
:1056E0009AC60AF70D6B2F0E0C6F0001AFEC01F09C
:1056F0001BBEF28E01504C0F06019B6F010E022063
:105700009C6F010E9B25016E000E9C21036E0150C3
:105710003E0F016E010E03220150080FE96E000ECC
:105720000320EA6E99C6EFFF1B6AF2BE1B8EF29E43
:1057300007010B6B9AC60AF70D6B2F0E0C6F000159
:10574000AFEC01F01BBEF28E01504C0F06019B6FB7
:10575000010E02209C6F010E9B25016E000E9C2104
:10576000036E01503E0F016E010E03220150090F1E
:10577000E96E000E0320EA6EEF809FD100011B6AE4
:10578000F2BE1B8EF29E07010B6B9AC60AF70D6BD9
:105790002F0E0C6F0001AFEC01F01BBEF28E01501A
:1057A0004C0F06019B6F010E02209C6F010E9B2582
:1057B000016E000E9C21036E01503E0F016E010E22
:1057C000032201500A0F016E000E032201C09DF654
:1057D00003C09EF603C0A0F601C09FF698C6A1F6CE
:1057E000000159DC015255E01B6AF2BE1B8EF29E8D
:1057F00007010B6B9AC60AF70D6B2F0E0C6F000199
:10580000AFEC01F01BBEF28E01504C0F06019B6FF6
:10581000010E02209C6F010E9B25016E000E9C2143
:10582000036E01503E0F016E010E03220150120F54
:10583000E96E000E0320EA6E99C6EFFF1B6AF2BE06
:105840001B8EF29E07010B6B9AC60AF70D6B2F0E8B
:105850000C6F0001AFEC01F01BBEF28E01504C0F3B
:1058600006019B6F010E02209C6F010E9B25016EAD
:10587000000E9C21036E01503E0F016E010E0322AB
:105880000150130FE96E000E0320EA6EEF8015D170
:1058900000011B6AF2BE1B8EF29E07010B6B9AC6BB
:1058A0000AF70D6B2F0E0C6F0001AFEC01F01BBE61
:1058B000F28E01504C0F06019B6F010E02209C6F6F
:1058C000010E9B25016E000E9C21036E01503E0FC0
:1058D000016E010E03220150140F016E000E03220F
:1058E00001C09DF603C09EF603C0A0F601C09FF65E
:1058F00098C6A1F600014BEC28F0015255E01B6A56
:10590000F2BE1B8EF29E07010B6B9AC60AF70D6B57
:105910002F0E0C6F0001AFEC01F01BBEF28E015098
:105920004C0F06019B6F010E02209C6F010E9B2500
:10593000016E000E9C21036E01503E0F016E010EA0
:10594000032201501C0FE96E000E0320EA6E99C677
:10595000EFFF1B6AF2BE1B8EF29E07010B6B9AC60D
:105960000AF70D6B2F0E0C6F0001AFEC01F01BBEA0
:10597000F28E01504C0F06019B6F010E02209C6FAE
:10598000010E9B25016E000E9C21036E01503E0FFF
:10599000016E010E032201501D0FE96E000E03205F
:1059A000EA6EEF808AD000011B6AF2BE1B8EF29E67
:1059B00007010B6B9AC60AF70D6B2F0E0C6F0001D7
:1059C000AFEC01F01BBEF28E01504C0F06019B6F35
:1059D000010E02209C6F010E9B25016E000E9C2182
:1059E000036E01503E0F016E010E032201501E0F87
:1059F000016E000E032201C09DF603C09EF603C097
:105A0000A0F601C09FF698C6A1F600014BEC28F065
:105A1000015254E01B6AF2BE1B8EF29E07010B6B13
:105A20009AC60AF70D6B2F0E0C6F0001AFEC01F058
:105A30001BBEF28E01504C0F06019B6F010E02201F
:105A40009C6F010E9B25016E000E9C21036E015080
:105A50003E0F016E010E03220150260FE96E000E6B
:105A60000320EA6E99C6EFFF1B6AF2BE1B8EF29E00
:105A700007010B6B9AC60AF70D6B2F0E0C6F000116
:105A8000AFEC01F01BBEF28E01504C0F06019B6F74
:105A9000010E02209C6F010E9B25016E000E9C21C1
:105AA000036E01503E0F016E010E03220150270FBD
:105AB000E96E000E0320EA6EEF80000101D000D0F5
:105AC00006019A2B65EF28F09A6B01013E51060101
:105AD0009A5DD8B03DD11B6AF2BE1B8EF29E0701C3
