:0400000064EF40F079
:08000800046ED8CF05F0E0CF33
:1000100006F00001E9CF0CF0EACF07F0E1CF08F0DD
:10002000E2CF09F0D9CF0AF0DACF0BF0F3CF12F01C
:10003000F4CF13F0FACF14F0F5CF15F0F6CF16F099
:10004000F7CF17F0F8CF18F0FBCF19F000C00EF083
:1000500001C00FF002C010F003C011F0F2AA34EF9B
:1000600000F0F2B466EF07F09DA03AEF00F09EB00A
:1000700078EF07F09DA240EF00F09EB27CEF07F012
:10008000F2A846EF00F0F2B291EF07F09DAA4CEF14
:1000900000F09EBAD7EF08F09DA852EF00F09EB88E
:1000A000DAEF08F09DA458EF00F09EB43DEF08F0A1
:1000B000A0A65EEF00F0A1B6DDEF08F0A3AE64EFFE
:1000C00000F0A4BEDBEF0DF0A3AA6AEF00F0A4BA23
:1000D000DEEF0DF0A3A870EF00F0A4B8D7EF0DF09D
:1000E000A3A676EF00F0A4B6D3EF0DF0A3A47CEFA7
:1000F00000F0A4B4CFEF0DF0A3A282EF00F0A4B201
:10010000BBEF0BF0A3A088EF00F0A4B0B7EF0BF0AB
:10011000A0AE8EEF00F0A1BEE0EF08F00EC000F040
:100120000FC001F010C002F011C003F00CC0E9FFD5
:1001300007C0EAFF078E08C0E1FF09C0E2FF0AC05E
:10014000D9FF0BC0DAFF12C0F3FF13C0F4FF14C0D5
:10015000FAFF15C0F5FF16C0F6FF17C0F7FF18C06D
:10016000F8FF19C0FBFF045006C0E0FF05C0D8FF30
:100170001000F76A860FF66E010EF722000EF86E79
:100180000900F5501200EFFFDFFFBFFF7FFFF7FF11
:10019000FBFFFEFFFDFFFF7FFFBFFFDFFFEFFFF76E
:1001A000FFFBFFFDFFFEF76ABA0FF66E010EF722A6
:1001B000000EF86E0900F550120000964B975C9601
:1001C0006D957E948F93A092B191C290D38FE48E5F
:1001D000F58D068D178C288B398A4A895B886C8748
:1001E0007D868E859F84B083C182D281E380F47F37
:1001F000057F167E277D387C497B5A7A6B797C781F
:100200008D779E76AF75C074D173E272F37104710D
:100210001570266F376E486D596C6A6B7B6A8C69F6
:100220009D68AE67BF66D065E164F26303631462E4
:1002300025613660475F585E695D7A5C8B5B9C5ACE
:10024000AD59BE58CF57E056F155025513542453BB
:10025000355246515750684F794E8A4D9B4CAC4BA6
:10026000BD4ACE49DF48F047014712462345344492
:100270004543564267417840893F9A3EAB3DBC3C7E
:10028000CD3BDE3AEF390039113822373336443569
:1002900055346633773288319930AA2FBB2ECC2D56
:1002A000DD2CEE2BFF2A102A212932284327542641
:1002B0006525762487239822690275736564206416
:1002C000696D6D65722121210A0D000073686974E2
:1002D00074657200496E707574730A0D00003120E8
:1002E000322033203420352036203720380A0D00C4
:1002F000507265737320302D4620746F20616374D3
:100300006976617465206F75747075740A0D0000EC
:100310004465627567206D6F6465206163746976FA
:10032000650A0D00312D5465737420696E70757403
:10033000730A0D00322D54657374206F75747075D7
:1003400074730A0D00006164726573733D25642047
:1003500076616C75653D25640A0D00004545505277
:100360004F4D2061742025643D25640A0D006C6F9B
:1003700061646564206F6E2F6F66662073776974A1
:1003800063680A0D00006F6E2F6F6666202564207B
:100390002564202564006C6F616465642064696D68
:1003A0006D6572207377697463680A0D00006C6F65
:1003B0006164656420627574746F6E20737769740C
:1003C00063680A0D00006C6F616465642074696D78
:1003D00065720A0D00006C6F616465642064696D6C
:1003E0006D6572206F75740A0D006C6F61646564D1
:1003F0002073687574746572206F75740A0D00003F
:100400006C6F61646564206F6E2F6F6666206F7518
:10041000740A0D0064696D5F6C6576656C202575E6
:100420000A0D00006F66662025750A0D00006F66D4
:10043000662025750A0D00006F66662025750A0D79
:1004400000000601D651D803F3CF01F0F4CF00F03D
:10045000D903F3500026D751D803F3500020026E81
:100460000001000C0601D951070B006ED931016E55
:10047000013201321F0E01160150DB25E96E000E1C
:10048000DC21EA6E016A012A002A01D00136002E21
:10049000FDD7DA5303E00150EF1203D0011E0150E3
:1004A000EF160001000C0601D951070B006ED9317F
:1004B000016E013201321F0E01160150DA25E96E7C
:1004C000000EDB21EA6EEFCF01F0002A01D00132ED
:1004D000002EFDD70001000C090E0601D825E96E9B
:1004E000000ED921EA6EEFCFDAF60E0ED825E96EAE
:1004F000000ED921EA6E000EEFB0010E010BD8A458
:10050000E7D00E0ED825E96E000ED921EA6EEF92E3
:100510000A0ED825E96E000ED921EA6EEFCF00F061
:10052000ECCF01F0ECCF02F0ECCF03F000503A5DDD
:10053000DB6F01503B59DC6F02503C59DD6F0350BB
:100540003D59DE6F4251DE5D0CE315E14151DD5D49
:1005500008E311E14051DC5D04E30DE1DB513F5D57
:100560000AE30F0ED825E96E000ED921EA6EEF508E
:100570000208D8A4ACD00F0ED825E96E000ED92100
:10058000EA6EEF500408D8B4A2D00F0ED825E96E59
:10059000000ED921EA6EEF2C1FD00F0ED825E96E80
:1005A000000ED921EA6E040EEF6ED825E96E000E1A
:1005B000D921EA6E010EEF6E090ED825E96E000E04
:1005C000D921EA6E7F0EEF6E050ED825E96E000E7A
:1005D000D921EA6EEF807AD00F0ED825E96E000E91
:1005E000D921EA6E020EEF6E0A0ED825E96E000ED2
:1005F000D921EA6EEFCF00F0ECCF01F0ECCF02F0A2
:10060000ECCF03F000503A5DDB6F01503B59DC6FDB
:1006100002503C59DD6F03503D59DE6FDE5307E158
:10062000DD5305E1DC5303E1DB513E5D41E20E0E9B
:10063000D825E96E000ED921EA6E000EEFB4010E46
:10064000010B18E1090ED825E96E000ED921EA6EDA
:10065000EF2A090ED825E96E000ED921EA6EEF5077
:100660007F0807E10E0ED825E96E000ED921EA6E4B
:10067000EF841ED0090ED825E96E000ED921EA6E4E
:10068000EF06090ED825E96E000ED921EA6EEF5269
:100690000FE10E0ED825E96E000ED921EA6EEF9417
:1006A000070ED825E96E000ED921EA6E010EEF6E15
:1006B0000A0ED825E96E000ED921EA6E3AC6EFFF80
:1006C0003BC6ECFF3CC6ECFF3DC6ECFF00D0B0D013
:1006D0000E0ED825E96E000ED921EA6E000EEFB29B
:1006E000010E010BD8A496D00E0ED825E96E000E8F
:1006F000D921EA6EEF820F0ED825E96E000ED921BE
:10070000EA6EEF50020822E10F0ED825E96E000EC6
:10071000D921EA6EEF6A0E0ED825E96E000ED921B6
:10072000EA6E000EEFB4010E010B08E10E0ED825A3
:10073000E96E000ED921EA6EEF8407D00E0ED8259F
:10074000E96E000ED921EA6EEF9464D00F0ED82521
:10075000E96E000ED921EA6EEF2C1ED00F0ED825BF
:10076000E96E000ED921EA6EEF6A040ED825E96E13
:10077000000ED921EA6E010EEF6E0E0ED825E96E3D
:10078000000ED921EA6EEF84050ED825E96E000E21
:10079000D921EA6EEF803ED00F0ED825E96E000E0B
:1007A000D921EA6EEF521FE10F0ED825E96E000E37
:1007B000D921EA6E010EEF6E070ED825E96E000E04
:1007C000D921EA6E010EEF6E0E0ED825E96E000EED
:1007D000D921EA6EEF94080ED825E96E000ED921D2
:1007E000EA6EEF8017D00F0ED825E96E000ED921E2
:1007F000EA6EEF5004080EE10F0ED825E96E000EE8
:10080000D921EA6EEF6A0E0ED825E96E000ED921C5
:10081000EA6EEF840A0ED825E96E000ED921EA6E41
:100820003AC6EFFF3BC6ECFF3CC6ECFF3DC6ECFF13
:10083000090ED825E96E000ED921EA6EEF50DA5D77
:100840001BE0010ED825016E000ED921036E090EA2
:10085000D825E96E000ED921EA6EEFCFDDF603C090
:10086000EAFF01C0E9FFDDC6EFFF020ED825E96E01
:10087000000ED921EA6EEF80000160EF07F0060E4E
:100880000601D825E96E000ED921EA6E000EEFB000
:10089000010E010B6EE1060ED825E96E000ED9217E
:1008A000EA6E000EEFB2010E010B010862E1060EC6
:1008B000D825E96E000ED921EA6EEF920B0ED825ED
:1008C000E96E000ED921EA6EEF2C25D00B0ED8254B
:1008D000E96E000ED921EA6EEF6A010ED825E96EA5
:1008E000000ED921EA6E010EEF6E020ED825E96ED8
:1008F000000ED921EA6EEF80040ED825E96E000EB5
:10090000D921EA6EEF6A050ED825E96E000ED921CD
:10091000EA6EEF802DD00B0ED825E96E000ED9219E
:10092000EA6EEF5225E10B0ED825E96E000ED921B3
:10093000EA6E010EEF6E040ED825E96E000ED92185
:10094000EA6E010EEF6E050ED825E96E000ED92174
:10095000EA6EEF80010ED825E96E000ED921EA6E0D
:10096000EF6A020ED825E96E000ED921EA6EEF80FB
:1009700013D0060ED825E96E000ED921EA6E000EBE
:10098000EFB0010E010B010807E1060ED825E96E54
:10099000000ED921EA6EEF82000160EF07F0060E2B
:1009A0000601D825E96E000ED921EA6E000EEFB0DF
:1009B000010E010B2DE1070ED825E96E000ED9219D
:1009C000EA6EEF2C25D0070ED825E96E000ED9214E
:1009D000EA6EEF6A010ED825E96E000ED921EA6EA3
:1009E000010EEF6E020ED825E96E000ED921EA6ED7
:1009F000EF80040ED825E96E000ED921EA6EEF6A69
:100A0000050ED825E96E000ED921EA6EEF8039D0A7
:100A1000060ED825E96E000ED921EA6E000EEFB061
:100A2000010E010B01082DE1070ED825E96E000E1D
:100A3000D921EA6EEF5225E1070ED825E96E000EA6
:100A4000D921EA6E010EEF6E040ED825E96E000E74
:100A5000D921EA6E010EEF6E050ED825E96E000E63
:100A6000D921EA6EEF80010ED825E96E000ED9215A
:100A7000EA6EEF6A020ED825E96E000ED921EA6E01
:100A8000EF80000160EF07F00601D56B01013E51D8
:100A90000601D55DD8B017D2D76BD5C6D6F6D96BBF
:100AA000210ED86F0001CDDC02C003F00150400FD1
:100AB000016E010E032201C0E9FF03C0EAFFEF50FF
:100AC0000AE0030AD8B4AAD0020AD8B4A8D0030A0C
:100AD000D8B44CD1F4D10601D76BD5C6D6F6D96BB4
:100AE000210ED86F0001ADDC0150020F0601D66F58
:100AF000000E0220D76F010ED625016E000ED72101
:100B0000036E01503E0F016E010E03220150100FC3
:100B1000E96E000E0320EA6EEFCFD8F6D8C6D9F6FC
:100B2000010EDA6F0F0EDC6F920EDB6F00019ADCA4
:100B3000D8C6D9F60F0E0601DB6F800EDA6F000102
:100B4000B2DC01A024D00601D76BD5C6D6F6D96B8E
:100B5000210ED86F000175DC0150020F0601D66F1F
:100B6000000E0220D76F010ED625016E000ED72190
:100B7000036E01503E0F016E010E032201500E0F55
:100B8000E96E000E0320EA6EEF8023D0000106011B
:100B9000D76BD5C6D6F6D96B210ED86F000151DCC4
:100BA0000150020F0601D66F000E0220D76F010E12
:100BB000D625016E000ED721036E01503E0F016E47
:100BC000010E032201500E0FE96E000E0320EA6EA3
:100BD000EF90D76BD5C6D6F6D96B210ED86F000132
:100BE00030DC0150020F0601D66F000E0220D76FD5
:100BF000010ED625016E000ED721036E01503E0F67
:100C0000016E010E032201C0D6F603C0D7F603C061
:100C1000D9F601C0D8F600015FD452D151D10601F6
:100C2000D76BD5C6D6F6D96B210ED86F000109DC7B
:100C30000150020F0601D66F000E0220D76F010E81
:100C4000D625016E000ED721036E01503E0F016EB6
:100C5000010E032201500C0FE96E000E0320EA6E14
:100C6000EFCFD8F6D8C6D9F6010EDA6F0F0EDC6FCB
:100C7000920EDB6F000132EC02F0D8C6D9F60F0EEF
:100C80000601DB6F800EDA6F00010DDC01A025D0BC
:100C90000601D76BD5C6D6F6D96B210ED86F0001E9
:100CA00021EC02F00150020F0601D66F000E022067
:100CB000D76F010ED625016E000ED721036E0150AD
:100CC0003E0F016E010E03220150060FE96E000E69
:100CD0000320EA6EEF8024D000010601D76BD5C651
:100CE000D6F6D96B210ED86F000121EC02F001502D
:100CF000020F0601D66F000E0220D76F010ED62517
:100D0000016E000ED721036E01503E0F016E010EE1
:100D100003220150060FE96E000E0320EA6EEF90E9
:100D2000D76BD5C6D6F6D96B210ED86F000121EC52
:100D300002F00150020F0601D66F000E0220D76F9D
:100D4000010ED625016E000ED721036E01503E0F15
:100D5000016E010E032201C0D6F603C0D7F603C010
:100D6000D9F601C0D8F600018AD5AAD00601D76B02
:100D7000D5C6D6F6D96B210ED86F000121EC02F052
:100D80000150020F0601D66F000E0220D76F010E30
:100D9000D625016E000ED721036E01503E0F016E65
:100DA000010E03220150090FE96E000E0320EA6EC6
:100DB000EFCFD8F6D8C6D9F6010EDA6F0F0EDC6F7A
:100DC000920EDB6F000132EC02F0D8C6D9F60F0E9E
:100DD0000601DB6F800EDA6F000153EC02F001A018
:100DE00025D00601D76BD5C6D6F6D96B210ED86FA4
:100DF000000121EC02F00150020F0601D66F000E37
:100E00000220D76F010ED625016E000ED721036E8A
:100E100001503E0F016E010E03220150060FE96ED4
:100E2000000E0320EA6EEF8024D000010601D76B8C
:100E3000D5C6D6F6D96B210ED86F000121EC02F091
:100E40000150020F0601D66F000E0220D76F010E6F
:100E5000D625016E000ED721036E01503E0F016EA4
:100E6000010E03220150060FE96E000E0320EA6E08
:100E7000EF90D76BD5C6D6F6D96B210ED86F00018F
:100E800021EC02F00150020F0601D66F000E022085
:100E9000D76F010ED625016E000ED721036E0150CB
:100EA0003E0F016E010E032201C0D6F603C0D7F635
:100EB00003C0D9F601C0D8F6000171D501D000D029
:100EC0000601D52BE3D5000173EF07F0010E0601F3
:100ED0003A27D8B03B2BD8B43C2BD8B43D2B3AA3FF
:100EE00003D00001D1D50601F29400018EEF00F08D
:100EF000B58B9E908EEF00F00601452B4551C8083A
:100F00000CE1456B010E2426D8B0252AD8B4262A38
:100F1000D8B4272A0001B58906019E9200018EEF00
:100F200000F0050180C582FF7FC583FF7E53D8B4E2
:100F30009DD00001B5A511D0B595B5A708D0B5973E
:100F4000050E05017C6F910E7B6F07D00001B58700
:100F5000050E05017C6FD50E7B6F05017D6B0601CB
:100F6000D76BD86BD890D735006ED890003600502C
:100F700005017B250601DB6F000E05017C210601C2
:100F8000DC6FD890D835DB25D96F000EDC21DA6F05
:100F9000D890D735006ED8900036005005017B25DB
:100FA0000601DB6F000E05017C210601DC6FD89085
:100FB000D835DB25016E000EDC21036E01C0E9FF90
:100FC000EA6EEFCF01F0E92AEF50E906026E02C0A7
:100FD000D6F601C0D5F6D8900134026ED635036E30
:100FE00002500001D3EC00F00900F5CF03F0BE6E13
:100FF00003C0BFFF100E0601D76FD86BD890D7354E
:10100000006ED8900036005005017B250601DB6F8D
:10101000000E05017C210601DC6FD890D835DB2558
:10102000D96F000EDC21DA6FD890D735006ED890DA
:101030000036005005017B250601DB6F000E05011F
:101040007C210601DC6FD890D835DB25016E000EBF
:10105000DC21036E01C0E9FFEA6EEFCF01F0E92A5F
:10106000EF50E906026E01C07EF50501CF6ACE6A37
:101070000001B59BF2928EEF00F005017E53D8B4CB
:1010800092D07DC5D7F6010E0601D86FD890D7351E
:10109000006ED8900036005005017B250601DB6FFD
:1010A000000E05017C210601DC6FD890D835DB25C8
:1010B000D96F000EDC21DA6FD890D735006ED8904A
:1010C0000036005005017B250601DB6F000E05018F
:1010D0007C210601DC6FD890D835DB25016E000E2F
:1010E000DC21036E01C0E9FFEA6EEFCF01F0E92ACF
:1010F000EF50E906026E02C0D6F601C0D5F6D65111
:101100008216D551831605017D2B7E077DC5D7F646
:101110000601D86BD890D735006ED89000360050B5
:1011200005017B250601DB6F000E05017C21060110
:10113000DC6FD890D835DB25D96F000EDC21DA6F53
:10114000D890D735006ED8900036005005017B2529
:101150000601DB6F000E05017C210601DC6FD890D3
:10116000D835DB25016E000EDC21036E01C0E9FFDE
:10117000EA6EEFCF01F0E92AEF50E906026E02C0F5
:10118000D8F601C0D7F6D8900134026ED835036E78
:1011900002500001D3EC00F00900F5CF03F0BE6E61
:1011A00003C0BFFF05019E9400018EEF00F09E9AE0
:1011B0008EEF00F09E988EEF00F0A1968EEF00F07B
:1011C000A19E8EEF00F00601F76BF66BF56BF46BEA
:1011D000F2C6F9F6F1C6F8F6F353D8B493D0F9C6CF
:1011E00003F0F8C6E9FFF9C6EAFFEFCF00F0016AA5
:1011F000026A036A03C0F7F602C0F6F601C0F5F60C
:1012000000C0F4F6F851D8B4F907F807F8C6E9FFBA
:10121000F9C6EAFFEF50FC6BFB6BFA6F006A0050F7
:10122000F413FA51F513FB51F613FC51F713F8516F
:10123000D8B4F907F807F8C6E9FFF9C6EAFFEF5096
:10124000FD6BFC6BFB6BFA6F030EFA17FB6BFC6B11
:10125000FD6B006A016A0050F4130150F513FA5156
:10126000F613FB51F713F8C6E9FFF9C6EAFFEF5092
:10127000FD6BFC6BFB6BFA6FE00EFA17FB6BFC6B04
:10128000FD6B006AFA35016EFB35026EFC35036EAC
:10129000013602360336013602360336013602368F
:1012A0000336013602360336E00E01160050F41301
:1012B0000150F5130250F6130350F713F851D8B448
:1012C000F907F807F8C6E9FFF9C6EAFFEF50FB6B2C
:1012D000FA6F006A016AFA35026EFB35036E023658
:1012E0000336023603360236033602360336E00E84
:1012F00002160050F4130150F5130250F613035078
:10130000F71353D0020EF85F000EF95BF8C6E9FF41
:10131000F9C6EAFFEF50FD6BFC6BFB6BFA6FE00E5A
:10132000FA17FB6BFC6BFD6BFD31F76FFC31F66F51
:10133000FB31F56FFA31F46FF733F633F533F433ED
:10134000F733F633F533F433F733F633F533F43359
:10135000F733F633F533F433070EF717F851D8B4F3
:10136000F907F807F8C6E9FFF9C6EAFFEF50FD6B89
:10137000FC6BFB6BFA6FFA35006EFB35016EFC35CA
:10138000026EFD35036E0036013602360336003636
:10139000013602360336F80E00160050F4130150E1
:1013A000F5130250F6130350F713F4C600F0F5C618
:1013B00001F0F6C602F0F7C603F00001000C285059
:1013C000FF0801E1282A28500908D8A044D1060EB8
:1013D0000601E66FDB0EE56F60AE17D0F10E6F14FD
:1013E0006F6EDA99A490DA9174BEDA81749E60A46B
:1013F0000BD0000E60B0010E070B006ED8900036C7
:10140000F10EDA150010DA6F20D00F0150AF19D0AD
:10141000F10E6F140A096F6E0601DA89A492DA914F
:1014200074BCDA81749C0F015051070B070B006EDE
:10143000D8900036F10E0601DA150010DA6F05D0EB
:101440000F01000E016E4CD0060165500F0BD96FD5
:10145000DA9B65BCDA8BDA9D62B6DA8D000EDABDF6
:10146000010EEA6F0F0EF26F640EF16FEAC6F3F62B
:101470000001A9DE03C0D8F602C0D7F601C0D6F637
:1014800000C0D5F60F0E0601E96F660EE86FE76B38
:10149000D951E75D14E2E8C6E9FFE9C6EAFFEFCFFC
:1014A000ECF6E6C6EAFFE5C6E9FFECC6EFFFE52B82
:1014B000D8B4E62BE82BD8B4E92BE72BE9D7F10E0B
:1014C0006F146F6EDA9FA4BEDA8FA49EDAA904D0DF
:1014D0000F01509F03D00601609E0F01010E016EA7
:1014E0000601E46BE45320E1E451040DF350036A78
:1014F000390FE96E010E0320EA6EEFCF00F0ECCF5A
:1015000001F0ECCF02F0ECCF03F00050D55D0AE122
:101510000150D65D07E10250D75D04E10350D85D6C
:1015200001E123D1E42BDED728500E0DF350E66BFA
:10153000E56F290EE525E96E000EE621EA6ED8C6B4
:10154000EFFF28500E0DF350E66BE56F010EE52519
:10155000016E000EE621036E0150290FE96E000EA8
:101560000320EA6ED7C6EFFF28500E0DF350E66B4E
:10157000E56F020EE525016E000EE621036E0150B7
:10158000290FE96E000E0320EA6ED6C6EFFF285041
:101590000E0DF350E66BE56F030EE525016E000EB0
:1015A000E621036E0150290FE96E000E0320EA6E5A
:1015B000D5C6EFFF28500E0DF350E66BE56F040E15
:1015C000E525016E000EE621036E0150290FE96E3C
:1015D000000E0320EA6ED9C6EFFF28500E0DF3501F
:1015E000E66BE56F050EE525016E000EE621036E44
:1015F0000150290FE96E000E0320EA6EDAC6EFFFF4
:10160000E36BD951E35D24E228500E0DF350E66BF5
:10161000E56F060EE325036AE525016EE651032218
:101620000150290F016E000E032203C0E6F6036A83
:10163000E351DB0FE96E060E0320EA6EEFCFE7F60B
:10164000E6C6EAFF01C0E9FFE7C6EFFFE32BD9D703
:10165000282A8BD00001060E0601E66FDB0EE56F2F
:1016600060AE17D0F10E6F146F6EDA99A490DA9114
:1016700074BEDA81749E60A40BD0000E60B0010EBF
:10168000070B006ED8900036F10EDA150010DA6FF5
:1016900020D00F0150AF19D0F10E6F140A096F6EF0
:1016A0000601DA89A492DA9174BCDA81749C0F0184
:1016B0005051070B070B006ED8900036F10E060153
:1016C000DA150010DA6F05D00F01000E016E4CD054
:1016D000060165500F0BD96FDA9B65BCDA8BDA9D7A
:1016E00062B6DA8D000EDABD010EEA6F0F0EF26FF0
:1016F000640EF16FEAC6F3F6000165DD03C0D8F6AB
:1017000002C0D7F601C0D6F600C0D5F60F0E06010E
:10171000E96F660EE86FE76BD951E75D14E2E8C642
:10172000E9FFE9C6EAFFEFCFECF6E6C6EAFFE5C659
:10173000E9FFECC6EFFFE52BD8B4E62BE82BD8B4D5
:10174000E92BE72BE9D7F10E6F146F6EDA9FA4BE79
:10175000DA8FA49EDAA904D00F01509F03D00601AE
:10176000609E0F01010E016E06010001000C27DED4
:10177000A4908EEF00F023DEA4928EEF00F0F6C668
:10178000FDF6F5C6FCF60601FB5352E0FCC6E9FF88
:10179000FDC6EAFFF7C6EFFFFC51D8B4FD07FC0712
:1017A000FCC6E9FFFDC6EAFFF8C6EFFFFC51D8B45E
:1017B000FD07FC07FCC6E9FFFDC6EAFFF951030B74
:1017C000EF6EFCC6E9FFFDC6EAFFF9C600F0003681
:1017D00000360036F80E00160050E00BEF10EF6EEA
:1017E000FCC6E9FFFDC6EAFFEF500809EF6EFC51A9
:1017F000D8B4FD07FC07FCC6E9FFFDC6EAFFF9C641
:1018000000F0003A0032070E00160050070BEF6E92
:10181000FCC6E9FFFDC6EAFFFAC600F00036003656
:101820000036F80E00160050F80BEF10EF6E3FD0A8
:10183000FCC6E9FFFDC6EAFFEF6AFC51D8B4FD071C
:10184000FC07FCC6E9FFFDC6EAFFEF6AFC51D8B40D
:10185000FD07FC07FCC6E9FFFDC6EAFFF7C600F07E
:10186000003A0036E00E00160050E00BEF6EFC511F
:10187000D8B4FD07FC07FCC6E9FFFDC6EAFFF7C6C2
:1018800000F00032003200321F0E001600501F0B15
:10189000EF6EFCC6E9FFFDC6EAFFF8C600F0003AAD
:1018A0000036E00E00160050E00BEF10EF6E000166
:1018B000000C0F0E0601F36F660EF26F0F0140B7BA
:1018C00008D0F10E6F1408096F6E0601F46B1BD07F
:1018D0000F0130B709D0F10E6F1406096F6E010EBB
:1018E0000601F46F10D00F0120B709D0F10E6F146C
:1018F00004096F6E020E0601F46F05D00F01000E91
:10190000016E3DD00601EE51030B006EFC0E60141B
:101910000010606E0F0EF66F640EF56FEAC6FAF6F1
:10192000E9C6F9F6E8C6F8F6E7C6F7F6EFC6FBF63D
:10193000000125DFEDC665FF659C0601F0B1658CF1
:10194000F16BED51F15D14E2EBC6E9FFECC6EAFF85
:10195000EFCFF7F6F3C6EAFFF2C6E9FFF7C6EFFFEF
:10196000F22BD8B4F32BEB2BD8B4EC2BF12BE9D71B
:101970006086F10E6F146F6E010E016E0F01000193
:10198000CBEF0DF0B6510A0801E1B607B651FF08DA
:10199000D8B403D1B6510D0DF3500601E66BE56FD7
:1019A000B70EE525E96E000EE621EA6EEFCFE5F60B
:1019B0000001B6510D0DF3500601E76BE66F010E05
:1019C000E625016E000EE721036E0150B70FE96EA8
:1019D000000E0320EA6EEFCFE6F60001B6510D0DC2
:1019E000F3500601E86BE76F020EE725016E000E6B
:1019F000E821036E0150B70FE96E000E0320EA6E76
:101A0000EFCFE7F60001B6510D0DF3500601E96B7B
:101A1000E86F030EE825016E000EE921036E015008
:101A2000B70FE96E000E0320EA6EEFCFE8F6E5C6C9
:101A3000D8F6E6C6D7F6E7C6D6F6E8C6D5F600016C
:101A4000B6510D0DF3500601E66BE56F0C0EE52562
:101A5000016E000EE621036E0150B70FE96E000E15
:101A60000320EA6EEF38D96F0F0ED9170001B65177
:101A70000D0DF3500601E66BE56F0C0EE525016ECA
:101A8000000EE621036E0150B70FE96E000E032031
:101A9000EA6EEF500C0B006E0030DA6FDA333F0E57
:101AA000DA170001B6510D0DF3500601E66BE56F34
:101AB0000C0EE525016E000EE621036E0150B70FF6
:101AC000E96E000E0320EA6EEFCFE5F6E391E5B391
:101AD000E3810001B6510D0DF3500601E66BE56F91
:101AE0000C0EE525016E000EE621036E0150B70FC6
:101AF000E96E000E0320EA6EEFCFE5F6E393E5B161
:101B0000E383E46BD951E45D28E2036AE451DB0F1F
:101B1000016E060E032201C0E5F603C0E6F60001E1
:101B2000B6510D0DF3500601E86BE76F040EE42586
:101B3000036AE725016EE85103220150B70FE96EF1
:101B4000000E0320EA6EEFCFE7F6E6C6EAFFE5C631
:101B5000E9FFE7C6EFFFE42BD5D7000EE3B1010E96
:101B6000E56F000EE3B3010EE66FD8C6EAF6D7C6FE
:101B7000E9F6D6C6E8F6D5C6E7F6060EEC6FDB0E3C
:101B8000EB6FD9C6EDF6DAC6EEF6E5C6EFF6E6C6B9
:101B9000F0F600018ED6B60701D000D0000CF2DEC0
:101BA000A4948EEF00F0EEDEA4968EEF00F0EADE55
:101BB000A4988EEF00F0A49E8EEF00F0A49A8EEF12
:101BC00000F0696E707574733A2564206F757470D7
:101BD0007574733A25642025642025640A0D00007D
:101BE00073746172740A0D0006015E39700B006E29
:101BF000D89000361F0E6F1400106F6E6ECF00F07D
:101C0000003A0030070B5E5DF9E10001000CC00EE8
:101C100070140409706E3F0E7014706EF80E71141B
:101C20000209716EC70E71142809716E719C718E54
:101C3000F80E72140509726E729C25EF0EF0040EF8
:101C400006015E6F0001D0DFE2D7606A9F0E60146C
:101C5000606E608460CF50FF739A7398739E739C1C
:101C60001B6AF2BE1B8EF29E0F0E0601F66F1B0E54
:101C7000F56FFA6BF96BF86BF76BFB6B00017FDDAF
:101C80001BBEF28E1B6AF2BE1B8EF29E0F0E060169
:101C9000F66F030EF56FFA6BF96BF86BF76BFB6B76
:101CA00000016DDD1BBEF28E1B6AF2BE1B8EF29E22
:101CB0000F0E0601F66F070EF56FFA6BF96BF86BF6
:101CC000F76BFB6B00015BDD1BBEF28E1B6AF2BE85
:101CD0001B8EF29E0F0E0601F66F1F0EF56FFA6B4C
:101CE000F96BF86BF76BFB6B000149DD1BBEF28EE5
:101CF0001B6AF2BE1B8EF29E0F0E0601F66F0B0ED4
:101D0000F56FFA6BF96BF86BF76BFB6B000137DD66
:101D10001BBEF28E1B6AF2BE1B8EF29E0F0E0601D8
:101D2000F66FF56FFA6BF96BF86BF76BFB6B0001F5
:101D300026DD1BBEF28E1B6AF2BE1B8EF29E0F0EBC
:101D40000601F66F130EF56FFA6BF96BF86BF76B14
:101D5000FB6B000114DD1BBEF28E1B6AF2BE1B8EF4
:101D6000F29E0F0E0601F66F170EF56FFA6BF96B08
:101D7000F86BF76BFB6B000102DD1BBEF28E93501C
:101D8000FB0B08090601936E5E6B00012DDFCAEFA5
:101D90000EF055D7040E06015E6F000125DFC00E60
:101DA00070140409706E3F0E7014706EF80E71148A
:101DB0000209716EC70E71142809716E719C719EB3
:101DC000F80E72140509726E728C06015E6B0001CA
:101DD0000BDF810ED56E950ECD6E600E0609CA6EB4
:101DE000F10ECB6E0A0EBD6EF18CC150C00B0F0907
:101DF000C16EC050C00BC06EC09EC2809698C69A7D
:101E0000010EC66E000EC76E070EB46E9550956E2D
:101E10009650966E0400200E006E002EFED700D065
:101E2000B450A19CB56AB16AD18065EF41F0939A34
:101E30008A9A080E016E00D00000018E10D0019E1B
:101E40000601C0330001D8B08A8AD8A08A9A018CD2
:101E500006D0019C012EF4D700D000008A8A160E0D
:101E6000E96EE92EFED700D0040001BEE8D701BC20
:101E7000F0D7000C0900F6CFBBF6F7CFBCF6F8CFD1
:101E8000BDF6F5CFC0F6D3DFBBC6F6FFBCC6F7FF85
:101E9000BDC6F8FF0601BA2F01D002D00001EAD773
:101EA0000001000C0601C151016AC05D03E2C0C619
:101EB00000F00CD0006A080EC26FC0370036C15166
:101EC000005CD8B0006E0136C22FF7D70001000CBD
:101ED000200E0601BBA9300EBC6FBAC600F0BAAF27
:101EE00007D0001E002A00C0BAF62D0EBC6FBB8FB3
:101EF0000150BAC6C0F6640EC16F0001D3DF00C046
:101F0000BAF6300E01240601BD6FBAC6C0F60A0E3D
:101F1000C16F0001C7DF300E00240601BF6F300E15
:101F20000124BE6FBCC600F0BBA702D0BBAFBB95FF
:101F3000BBB90BD0BBAF22D0BBB520D000C0BDF623
:101F4000BBB31CD000C0BEF619D0300EBD5D16E18B
:101F500000C0BDF6200EBC6FBBA704D0BB95BB83F1
:101F6000BBAFBB93300EBE5D09E100C0BEF6200ED4
:101F7000BD6FBBA7F7D7BB93BBAFBB91BBA505D0CC
:101F8000BCC6C0F6000153DF0601BBA305D0BDC629
:101F9000C0F600014CDF0601BBA104D0BEC6C0F6EE
:101FA000000145DFBFC6C0F6000141DF000C460E50
:101FB000F66E030EF76E000EF86E070E0601BA6F8E
:101FC000000158DF71C6BAF61F0E0601BB6F000193
:101FD0007FDF4F0EF66E030EF76E000EF86E070EE3
:101FE0000601BA6F000146DF72C6BAF61F0E06017F
:101FF000BB6F00016DDF0A0E0601C06F000117DF25
:102000000D0E0601C06F000112DFAA6A71C6A9FF9A
:1020100072C6A8FFA69CA69EA684F250006EF29EF1
:102020000F01550EA76EAA0EA76EA682A6B2FED706
:10203000A6940050F2120001000C39C671F6010E90
:102040000601726F0001B3DF0601392B39C671F644
:102050005EC672F60001ABDF0601392B39C671F698
:102060005FC672F60001A3DF0601392B39C671F68F
:1020700060C672F600019BDF0601392B0001000CDF
:1020800006016E6B6D516E5D16E26E516C256F6FC1
:102090006BC603F06AC6E9FF6BC6EAFFEFCF70F6C6
:1020A000716F70C672F6000182DF06016A2BD8B428
:1020B0006B2B6E2BE7D70001000C39C671F6640E4E
:1020C0000601726F000173DF0601392B5FC66BF6E4
:1020D0005EC66AF639C66CF6080E6D6F0001D0DF79
:1020E000080E0601392761C66BF660C66AF639C666
:1020F0006CF66D6F0001C4DF080E0601392739C682
:1021000071F662C672F6000152DF0601392B00013A
:10211000000C39C671F6020E0601726F000147DF2E
:102120000601392B39C671F65EC672F600013FDF33
:102130000601392B39C671F65FC672F6000137DF2A
:102140000601392B39C671F660C672F600012FDF21
:102150000601392B39C671F661C672F6000127DF18
:102160000601392B0001000C39C671F6660E060116
:10217000726F00011CDF0601392B5FC66BF65EC66D
:102180006AF639C66CF6080E6D6F000179DF080E2D
:102190000601392761C66BF660C66AF639C66CF669
:1021A0006D6F00016DDF080E0601392763C66BF6FF
:1021B00062C66AF639C66CF66D6F000161DF080E03
:1021C0000601392765C66BF664C66AF639C66CF631
:1021D0006D6F000155DF080E0601392739C671F60B
:1021E00066C672F60001E3DE0601392B39C671F6C8
:1021F00067C672F60001DBDE0601392B39C671F6BF
:1022000068C672F60001D3DE0601392B39C671F6B5
:1022100069C672F60001CBDE0601392B0001EDEF35
:1022200041F00900F55210E0F6CFB8F6F7CFB9F655
:10223000F8CFBAF6F5CFC0F6FADDB8C6F6FFB9C6E4
:10224000F7FFBAC6F8FFEDD7000C0601BCC6E9FFE0
:10225000BDC6EAFF010EEF6EBAC6BFF6BBC6C2F638
:10226000C583CA6FC191C491C06BC36B036ABE5171
:102270001C0FE96E000E0320EA6EEFCFCBF6010EC5
:10228000BC25E96E000EBD21EA6E060EE26EBF0EA1
:10229000E16E200E016EE6CFEEFF012EFCD70001AD
:1022A00000EF17F00601BDC6E9FFBEC6EAFFEF6A00
:1022B000010EBD25016E000EBE2101C0E9FFEA6ED0
:1022C000BAC6EFFF010EBD25016E000EBE21036EE2
:1022D0000150030FE96E000E0320EA6EBBC6EFFF4C
:1022E000010EBD25016E000EBE21036E0150060FCA
:1022F000E96E000E0320EA6EBCC6EFFF010EBD259D
:10230000016E000EBE21036E01500E0FE96E000E2D
:102310000320EA6EEF82010EBD25016E000EBE2184
:10232000036E01500F0FE96E000E0320EA6E010EDE
:10233000EF6EBD25016E000EBE21036E0150090F28
:10234000E96E000E0320EA6EEF6A010EBD25016EF4
:10235000000EBE21036E01500E0FE96E000E032029
:10236000EA6EEF94010EBD25016E000EBE21036ED4
:102370000150020FE96E000E0320EA6EEF90010E8D
:10238000BD25016E000EBE21036E0150050FE96EE2
:10239000000E0320EA6EEF90010EBD25016E000EC7
:1023A000BE21036E0150080FE96E000E0320EA6E95
:1023B000EF80010EBD25016E000EBE21036E01509F
:1023C000010FE96E000E0320EA6EEF6A010EBD25D3
:1023D000016E000EBE21036E0150040FE96E000E67
:1023E0000320EA6EEF6A010EBD25016E000EBE21CC
:1023F000036E0150070FE96E000E0320EA6E010E16
:10240000EF6EBD25016E000EBE21036E0150100F50
:10241000016E000E032203C0C3F6036ABF511C0FF6
:10242000E96E000E0320EA6EEFCFC4F6C3C6EAFFE2
:1024300001C0E9FFC4C6EFFF010EBD25016E000E0D
:10244000BE21036E01500A0FE96E000E0320EA6EF2
:10245000EE52EE52EC6AED52EF6AED52EF6AED5237
:10246000EF6A00016FEF17F00601BDC6E9FFBEC6B7
:10247000EAFF020EEF6EBBC6C1F6BCC6C4F6C78348
:10248000010EC86FC391C691C26BC56BC991C0B133
:10249000C981036ABF511C0FE96E000E0320EA6E6A
:1024A000EFCFCAF6010EBD25E96E000EBE21EA6E21
:1024B000060EE26EC10EE16E200E016EE6CFEEFF5B
:1024C000012EFCD70001E4EF17F00601BC6BBB51F5
:1024D000BC5D1BE2B9C603F0B851E96E03C0EAFF68
:1024E000BC51BA25BF6FF2CFC0F6F29EAA6ABFC632
:1024F000A9FFA69CA69EA680A850C0BFF28EEF6E34
:10250000B82BD8B4B92BBC2BE2D70001000C0601C4
:10251000D16BD051D15D19E2036AD151CE25016E44
:10252000CF51032203C0D3F6CCC6E9FFCDC6EAFFE4
:10253000EFCFD4F6D3C6EAFF01C0E9FFD4C6EFFF60
:10254000CC2BD8B4CD2BD12BE4D70001000C060145
:10255000C0C6E9FFC1C6EAFF030EEF6E010EC0253B
:10256000016E000EC121036E0150050FE96E000ED1
:102570000320EA6EEF90010EC025016E000EC1210E
:10258000036E0150080FE96E000E0320EA6EEF9013
:10259000010EC025016E000EC121036E0150040F13
:1025A000E96E000E0320EA6EEF6A010EC025016E8F
:1025B000000EC121036E0150070FE96E000E0320CB
:1025C000EA6EEF6A010EC025016E000EC121036E96
:1025D0000150120FE96E000E0320EA6EEF90010E1B
:1025E000C025016E000EC121036E01501C0FE96E63
:1025F000000E0320EA6EEF90010EC025016E000E62
:10260000C121036E0150110FE96E000E0320EA6E26
:10261000EF6A010EC025016E000EC121036E01504C
:102620001B0FE96E000E0320EA6EEF6A010EC02553
:10263000016E000EC121036E01501D0FE96E000EE8
:102640000320EA6EEC6AED52EF6A010EC025016EBE
:10265000000EC12101C0E9FFEA6EC2C6EFFF010E04
:10266000C025016E000EC121036E01501F0FE96EDF
:10267000000E0320EA6EEF90010EC025016E000EE1
:10268000C121036E0150010FE96E000E0320EA6EB6
:10269000C4C6ECFFED52C3C6EFFF010EC025016EAC
:1026A000000EC121036E0150030FE96E000E0320DE
:1026B000EA6EBEC6EFFF010EC025016E000EC121FD
:1026C000036E0150060FE96E000E0320EA6EBFC6CE
:1026D000EFFF010EC025016E000EC121036E0150F7
:1026E000090F016E000E032201C0C7F603C0C8F631
:1026F000BBC6CDF6BAC6CCF603C0CFF601C0CEF647
:10270000080ED06F000103DF010E0601C025016E27
:10271000000EC121036E0150130F016E000E032243
:1027200001C0C7F603C0C8F6BDC6CDF6BCC6CCF620
:1027300003C0CFF601C0CEF6080ED06F0001E7DE71
:102740008CEF18F00601C0C6E9FFC1C6EAFF650EAE
:10275000EF6E010EC025016E000EC121036E015007
:102760001D0FE96E000E0320EA6EEF90010EC025EA
:10277000016E000EC121036E0150090FE96E000EBB
:102780000320EA6EEF90010EC025016E000EC121FC
:10279000036E0150130FE96E000E0320EA6EEF90F6
:1027A000010EC025016E000EC121036E01501C0FE9
:1027B000E96E000E0320EA6E7F0EEF6E010EC0255B
:1027C000016E000EC121036E0150080FE96E000E6C
:1027D0000320EA6EEF6A010EC025016E000EC121D2
:1027E000036E0150120FE96E000E0320EA6EEF6ACD
:1027F000010EC025016E000EC121036E01501F0F96
:10280000E96E000E0320EA6EC2C6EFFF010EC0257E
:10281000016E000EC121036E0150140F016E000EF7
:10282000032201C0C5F603C0C6F6BBC6CDF6BAC6C4
:10283000CCF603C0CFF601C0CEF6080ED06F000173
:1028400066DE010E0601C025016E000EC121036E79
:1028500001C0C5F6C66FBDC6CDF6BCC6CCF6CF6FFF
:1028600001C0CEF6080ED06F000151DE010E060148
:10287000C025016E000EC121036E01500A0F016ECA
:10288000000E032201C0C5F603C0C6F6BFC6CDF6D2
:10289000BEC6CCF603C0CFF601C0CEF6080ED06F90
:1028A000000135DE010E0601C025016E000EC121BA
:1028B000036E01501E0FE96E000E0320EA6E010E3A
:1028C000EF6E000102EF19F00601C2C6E9FFC3C6B0
:1028D000EAFF660EEF6E010EC225016E000EC321E7
:1028E000036E0150090FE96E000E0320EA6EEF90AF
:1028F000010EC225016E000EC321036E0150130F9D
:10290000E96E000E0320EA6EEF90010EC225016E03
:10291000000EC321036E0150080FE96E000E032064
:10292000EA6EEF6A010EC225016E000EC321036E2E
:102930000150120FE96E000E0320EA6EEF6A010EDD
:10294000C225016E000EC321036E01501D0FE96EFA
:10295000000E0320EA6EEF90010EC225016E000EFC
:10296000C321036E0150270FE96E000E0320EA6EAB
:10297000EF90010EC225016E000EC321036E0150BF
:102980001C0FE96E000E0320EA6EEF6A010EC225ED
:10299000016E000EC321036E0150260FE96E000E7A
:1029A0000320EA6EEF6A010EC225016E000EC321FC
:1029B000036E0150280FE96E000E0320EA6EC4C6B4
:1029C000EFFF010EC225016E000EC321036E015000
:1029D000290FE96E000E0320EA6EC5C6EFFF010E57
:1029E000C225016E000EC321036E01502B0FE96E4C
:1029F000000E0320EA6EC7C6EFFF010EC225016E6E
:102A0000000EC321036E01502C0FE96E000E03204F
:102A1000EA6EC6C6EFFF010EC225016E000EC3218D
:102A2000036E01C0CAF6CB6FBBC6CDF6BAC6CCF6F4
:102A3000CF6F01C0CEF6080ED06F000168DD010E29
:102A40000601C225016E000EC321036E01500A0F5C
:102A5000016E000E032201C0CAF603C0CBF6BDC64C
:102A6000CDF6BCC6CCF603C0CFF601C0CEF6080E3C
:102A7000D06F00014CDD010E0601C225016E000E73
:102A8000C321036E0150140F016E000E032201C01A
:102A9000CAF603C0CBF6BFC6CDF6BEC6CCF603C0A1
:102AA000CFF601C0CEF6080ED06F000130DD010E6A
:102AB0000601C225016E000EC321036E01501E0FD8
:102AC000016E000E032201C0CAF603C0CBF6C1C6D8
:102AD000CDF6C0C6CCF603C0CFF601C0CEF6080EC8
:102AE000D06F000114DD010E0601C225016E000E3B
:102AF000C321036E01502D0FE96E000E0320EA6E14
:102B0000040EEF6E0001BAEF19F00601BEC6E9FF30
:102B1000BFC6EAFF640EEF6E010EBE25016E000E09
:102B2000BF21036E0150090FE96E000E0320EA6E0B
:102B3000EF90010EBE25016E000EBF21036E015005
:102B4000130FE96E000E0320EA6EEF90010EBE2512
:102B5000016E000EBF21036E0150080FE96E000EDA
:102B60000320EA6EEF6A010EBE25016E000EBF2142
:102B7000036E0150120FE96E000E0320EA6EEF6A39
:102B8000010EBE25016E000EBF21036E0150140F11
:102B9000E96E000E0320EA6EC0C6EFFF010EBE25EF
:102BA000016E000EBF21036E01C0C3F6C46FBBC629
:102BB000CDF6BAC6CCF6CF6F01C0CEF6080ED06FF8
:102BC0000001A5DC010E0601BE25016E000EBF212D
:102BD000036E01500A0F016E000E032201C0C3F6FE
:102BE00003C0C4F6BDC6CDF6BCC6CCF603C0CFF656
:102BF00001C0CEF6080ED06F000189DC1EEF1AF07E
:102C000006015E6B5F6B606B5E511D083DE3F2CFAA
:102C1000B8F6F29EAA6A5EC6A9FFA69CA69EA680EA
:102C2000A850B8BFF28EB96F5C0EF66E030EF76E49
:102C3000000EF86E0A0EBA6F00013AEC0FF05EC695
:102C4000BAF61F0E0601BB6F000168EC0FF03D0ED7
:102C50000601C06F000117EC0FF0B9C6BAF61F0EDF
:102C60000601BB6F000168EC0FF00A0E0601C06F91
:102C7000000117EC0FF00D0E0601C06F000117ECFC
:102C80000FF006015E2BC0D75E6BF2CFB8F6F29E56
:102C9000AA6A5EC6A9FFA69CA69EA680A850B8BF39
:102CA000F28EFF08D8B4D1D3F2CFB8F6F29EAA6A5A
:102CB0005EC6A9FFA69CA69EA680A850B8BFF28EAD
:102CC000010A000113E0010AD8B49FD0020AD8B467
:102CD0000BD1010AD8B47DD1660AD8B422D2030A36
:102CE000D8B495D2020AD8B44AD3ADD36E0EF66EDC
:102CF000030EF76E000EF86E11EC11F006015E2B5C
:102D0000F2CFB8F6F29EAA6A5EC6A9FFA69CA69E5E
:102D1000A680A850B8BFF28E616F5E2BF2CFB9F6D5
:102D2000F29EAA6A5EC6A9FFA69CA69EA680A8508F
:102D3000B9BFF28E626F5E2BF2CFBAF6F29EAA6A2C
:102D40005EC6A9FFA69CA69EA680A850BABFF28E1A
:102D5000636F860EF66E030EF76E000EF86E070EAA
:102D6000BA6F00013AEC0FF061C6BAF61F0E060109
:102D7000BB6F000168EC0FF0200E0601C06F000170
:102D800017EC0FF062C6BAF61F0E0601BB6F00010A
:102D900068EC0FF0200E0601C06F000117EC0FF079
:102DA00063C6BAF61F0E0601BB6F000168EC0FF098
:102DB0001B6AF2BE1B8EF29E0601D76B5FC6D6F66B
:102DC000D96B210ED86F000121EC02F01BBEF28EF0
:102DD00002C003F00150400F016E010E032201C03A
:102DE000B8F603C0B9F661C6BAF662C6BBF603C050
:102DF000BDF601C0BCF663C6BEF6000125EF11F0BA
:102E000006015F2B5E2B00011ED3960EF66E030E9D
:102E1000F76E000EF86E11EC11F006015E2BF2CF8A
:102E2000B8F6F29EAA6A5EC6A9FFA69CA69EA680D8
:102E3000A850B8BFF28E646F5E2BF2CFB8F6F29E48
:102E4000AA6A5EC6A9FFA69CA69EA680A850B8BF87
:102E5000F28E616F5E2BF2CFB8F6F29EAA6A5EC662
:102E6000A9FFA69CA69EA680A850B8BFF28E626F4E
:102E70005E2BF2CFB8F6F29EAA6A5EC6A9FFA69CA8
:102E8000A69EA680A850B8BFF28E636F1B6AF2BEE2
:102E90001B8EF29ED76B5FC6D6F6D96B210ED86F0C
:102EA000000121EC02F01BBEF28E02C003F00150C3
:102EB000400F016E010E032201C0B8F603C0B9F63F
:102EC00064C6BAF661C6BBF662C6BCF603C0BEF6FF
:102ED00001C0BDF663C6BFF6000152EF11F0060156
:102EE0005F2B5E2B0001AFD2AE0EF66E030EF76EB7
:102EF000000EF86E11EC11F006015E2BF2CFB8F661
:102F0000F29EAA6A5EC6A9FFA69CA69EA680A850AD
:102F1000B8BFF28E616F5E2BF2CFB8F6F29EAA6A4E
:102F20005EC6A9FFA69CA69EA680A850B8BFF28E3A
:102F3000626F5E2BF2CFB8F6F29EAA6A5EC6A9FF58
:102F4000A69CA69EA680A850B8BFF28E636F5E2B8B
:102F5000F2CFB8F6F29EAA6A5EC6A9FFA69CA69E0C
:102F6000A680A850B8BFF28E016E659101B0658150
:102F70001B6AF2BE1B8EF29ED76B5FC6D6F6D96B6C
:102F8000210ED86F000121EC02F01BBEF28E02C0B0
:102F900003F00150400F016E010E032201C0B8F68C
:102FA000060103C0B9F6000E65B1010E61C6BBF69D
:102FB00062C6BCF603C0BEF601C0BDF663C6BFF66E
:102FC000C06F000134EF12F006015F2B5E2B000191
:102FD0003AD2C60EF66E030EF76E000EF86E11ECC6
:102FE00011F0060E0601B96F660EB86F5EC6BAF62E
:102FF000080EBB6F000165EC12F0080E06015E279B
:10300000060EB96F660EB86F5EC6BAF6080EBB6FD5
:10301000000165EC12F0080E06015E275E2BF2CF70
:10302000B8F6F29EAA6A5EC6A9FFA69CA69EA680D6
:10303000A850B8BFF28E766F5E2BF2CFB9F6F29E33
:10304000AA6A5EC6A9FFA69CA69EA680A850B9BF84
:10305000F28E776F5E2BF2CFBAF6F29EAA6A5EC648
:10306000A9FFA69CA69EA680A850BABFF28E786F34
:103070005E2BF2CFBBF6F29EAA6A5EC6A9FFA69CA3
:10308000A69EA680A850BBBFF28E7A6B796F79C6D8
:103090007AF6796B5E2BF2CFB8F6F29EAA6A5EC61C
:1030A000A9FFA69CA69EA680A850B8BFF28E791351
:1030B0001B6AF2BE1B8EF29ED76B5FC6D6F6D96B2B
:1030C000210ED86F000121EC02F01BBEF28E02C06F
:1030D00003F00150400F016E010E032201C0B8F64B
:1030E000060103C0B9F6060EBB6F660EBA6F060E78
:1030F000BD6F6E0EBC6F76C6BEF677C6BFF603C058
:10310000C1F601C0C0F678C6C2F67AC6C4F679C662
:10311000C3F60001A7EF12F006015F2B5E2B000142
:1031200092D1D60EF66E030EF76E000EF86E11EC0D
:1031300011F0060E0601B96F660EB86F5EC6BAF6DC
:10314000080EBB6F000165EC12F0080E06015E2749
:10315000060EB96F660EB86F5EC6BAF6080EBB6F84
:10316000000165EC12F0080E06015E27060EB96F2D
:10317000660EB86F5EC6BAF6080EBB6F000165EC4E
:1031800012F0080E06015E275E2BF2CFB8F6F29E13
:10319000AA6A5EC6A9FFA69CA69EA680A850B8BF34
:1031A000F28E936F1B6AF2BE1B8EF29ED76B60C6C7
:1031B000D6F6D96B2F0ED86F000121EC02F01BBEA2
:1031C000F28E02C003F001508A0F016E020E03223C
:1031D00001C0B8F6060103C0B9F6060EBB6F7B0E40
:1031E000BA6F060EBD6F830EBC6F060EBF6F8B0EDF
:1031F000BE6F03C0C1F601C0C0F693C6C2F600019F
:10320000A2EF13F00601602B5E2B00011CD1EA0E29
:10321000F66E030EF76E000EF86E11EC11F0060E4E
:103220000601B96F940EB86F5EC6BAF6080EBB6F92
:10323000000165EC12F0080E06015E27060EB96F5C
:103240009C0EB86F5EC6BAF6080EBB6F000165EC47
:1032500012F0080E06015E27060EB96FA40EB86FB5
:103260005EC6BAF6080EBB6F000165EC12F0080EE0
:1032700006015E27060EB96FAC0EB86F5EC6BAF6D1
:10328000080EBB6F000165EC12F0080E06015E2708
:103290005E2BF2CFB8F6F29EAA6A5EC6A9FFA69C84
:1032A000A69EA680A850B8BFF28EB46F5E2BF2CF58
:1032B000B9F6F29EAA6A5EC6A9FFA69CA69EA68043
:1032C000A850B9BFF28EB56F5E2BF2CFBAF6F29E60
:1032D000AA6A5EC6A9FFA69CA69EA680A850BABFF1
:1032E000F28EB66F5E2BF2CFBBF6F29EAA6A5EC676
:1032F000A9FFA69CA69EA680A850BBBFF28EB76F62
:103300001B6AF2BE1B8EF29ED76B60C6D6F6D96BD7
:103310002F0ED86F000121EC02F01BBEF28E02C00E
:1033200003F001508A0F016E020E032201C0B8F6AD
:10333000060103C0B9F6060EBB6F940EBA6F060EF7
:10334000BD6F9C0EBC6F060EBF6FA40EBE6F060E47
:10335000C16FAC0EC06F03C0C3F601C0C2F6B4C6E5
:10336000C4F6B5C6C5F6B6C6C6F6B7C6C7F60001FA
:1033700064EF14F00601602B5E2B000164D0000E98
:10338000F66E040EF76E000EF86E11EC11F0060EDC
:103390000601B96F830EB86F5EC6BAF6080EBB6F32
:1033A000000165EC12F0080E06015E27060EB96FEB
:1033B0008B0EB86F5EC6BAF6080EBB6F000165ECE7
:1033C00012F0080E06015E275E2BF2CFB8F6F29ED1
:1033D000AA6A5EC6A9FFA69CA69EA680A850B8BFF2
:1033E000F28E936F1B6AF2BE1B8EF29ED76B60C685
:1033F000D6F6D96B2F0ED86F000121EC02F01BBE60
:10340000F28E02C003F001508A0F016E020E0322F9
:1034100001C0B8F6060103C0B9F6060EBB6F830EF5
:10342000BA6F060EBD6F8B0EBC6F03C0BFF601C036
:10343000BEF693C6C0F6000185EF15F00601602BBD
:103440005E2B000100D0060120D45FC63EF160C6AD
:103450003FF10001EFEF41F00601A06BA181A26BEB
:1034600005017A510601A25D47E2A251040DF35015
:10347000A76BA66F600EA625016E060EA721036E30
:10348000A76F036AA251810FE96E050E0320EA6E51
:10349000EF50036AA7C6EAFF01C0E9FF03C0ECFFD3
:1034A000ED52EF6EA251040DF350A76BA66F020E02
:1034B000A625016E000EA721036E0150600F016E5C
:1034C000060E032203C0A7F6D890A235036A190F8F
:1034D000E96E060E0320EA6EECCF03F0ED52EFCF5B
:1034E000A8F6A7C6EAFF01C0E9FF03C0ECFFED5252
:1034F000A8C6EFFFA22BB4D7A1A1E3D0A191A26BE4
:10350000010E05017A5D0601A25DD8B0D9D0A251A5
:10351000040DF350A76BA66F600EA625E96E060E8C
:10352000A721EA6EECCFA7F6ED52EFCFA6F6010E7B
:10353000A225040DF350A96BA86F600EA825E96EB3
:10354000060EA921EA6EECCF03F0ED52EFCF01F0A9
:10355000A751035CD8A0B2D004E10150A65DD8B059
:10356000ADD0A181A251040DF350A76BA66F600EE0
:10357000A625E96E060EA721EA6EECCF03F0ED5208
:10358000EFCFA3F603C0A4F6A251040DF350A76B2E
:10359000A66F600EA625016E060EA721036EA76F0B
:1035A000010EA225040DF350A96BA86F600EA8258B
:1035B000E96E060EA921EA6EECCF03F0ED52EFCFD3
:1035C000A8F6A7C6EAFF01C0E9FF03C0ECFFED5271
:1035D000A8C6EFFF010EA225040DF350A76BA66F3E
:1035E000600EA625E96E060EA721EA6EA4C6ECFFC2
:1035F000ED52A3C6EFFFA251040DF350A76BA66FC7
:10360000020EA625016E000EA721036E0150600F69
:10361000E96E060E0320EA6EECCF03F0ED52EFCF19
:10362000A3F603C0A4F6A251040DF350A76BA66F36
:10363000020EA625016E000EA721036E0150600F39
:10364000016E060E032201C0A6F603C0A7F6010E06
:10365000A225040DF350A96BA86F020EA825016ED8
:10366000000EA921036E0150600FE96E060E0320C3
:10367000EA6EECCF03F0ED52EFCFA8F6A7C6EAFF53
:10368000A6C6E9FF03C0ECFFED52A8C6EFFF010E8E
:10369000A225040DF350A76BA66F020EA625016E9E
:1036A000000EA721036E0150600FE96E060E032085
:1036B000EA6EA4C6ECFFED52A3C6EFFFA22B20D703
:1036C0001BD7605304E1615302E1A06BD0D1010E1E
:1036D000A06FA56B0001B5A709D061C692F560C6C1
:1036E00091F563C694F562C693F508D061C6D6F528
:1036F00060C6D5F563C6D8F562C6D7F5010E0601DA
:10370000A26F05017A510601A25DD8B0B0D1A251D5
:10371000040DF350A76BA66F600EA625E96E060E8A
:10372000A721EA6EECCFA7F6ED52EFCFA6F6010E79
:10373000A25D040DF350A96BA86F600EA825E96E79
:10374000060EA921EA6EECCF03F0ED52EF50A65D14
:1037500003E10350A75D02E0000E01D0010EA66F49
:10376000A251040DF350A86BA76F600EA725E96E58
:10377000060EA821EA6EEF5202E1EC5202E0000EC2
:1037800001D0010E000A02E0000E01D0010EA615C4
:10379000D8B49DD00001B5A74DD00601A551040DA8
:1037A000F350A76BA66F020EA625016E000EA7218F
:1037B000036E0150910F016E050E032201C0A6F6A3
:1037C00003C0A7F6A551040DF350A96BA86F020E14
:1037D000A825016E000EA921036E0150910FE96E1C
:1037E000050E0320EA6EECCFA9F6ED52EFCFA8F656
:1037F000A251040DF350AB6BAA6F020EAA25016E05
:10380000000EAB21036E0150600FE96E060E03201F
:10381000EA6EECCF03F0ED52EF50A815006E0350A6
:10382000A915A7C6EAFFA6C6E9FFEC6EED5200C0D7
:10383000EFFF4CD00601A551040DF350A76BA66F06
:10384000020EA625016E000EA721036E0150D50FB2
:10385000016E050E032201C0A6F603C0A7F6A5510E
:10386000040DF350A96BA86F020EA825016E000E7F
:10387000A921036E0150D50FE96E050E0320EA6EF3
:10388000ECCFA9F6ED52EFCFA8F6A251040DF350FC
:10389000AB6BAA6F020EAA25016E000EAB21036E60
:1038A0000150600FE96E060E0320EA6EECCF03F0C4
:1038B000ED52EF50A815006E0350A915A7C6EAFFF8
:1038C000A6C6E9FFEC6EED5200C0EFFFCED0A251CC
:1038D000040DF350A76BA66F600EA625E96E060EC9
:1038E000A721EA6EEF5202E1EC5202E0000E01D095
:1038F000010E000AD8A4B9D0A52B0001B5A75BD052
:103900000601A551040DF350A76BA66F910EA625D5
:10391000016E050EA721036EA76FA251040DF3508F
:10392000A96BA86F600EA825E96E060EA921EA6EA4
:10393000ECCF03F0ED52EFCFA8F6A7C6EAFF01C027
:10394000E9FF03C0ECFFED52A8C6EFFFA551040D3F
:10395000F350A76BA66F020EA625016E000EA721DD
:10396000036E0150910F016E050E032201C0A6F6F1
:1039700003C0A7F6A251040DF350A96BA86F020E65
:10398000A825016E000EA921036E0150600FE96E9B
:10399000060E0320EA6EECCF03F0ED52EFCFA8F64F
:1039A000A7C6EAFFA6C6E9FF03C0ECFFED52A8C612
:1039B000EFFF5AD000010601A551040DF350A76B8B
:1039C000A66FD50EA625016E050EA721036EA76F63
:1039D000A251040DF350A96BA86F600EA825E96EE3
:1039E000060EA921EA6EECCF03F0ED52EFCFA8F658
:1039F000A7C6EAFF01C0E9FF03C0ECFFED52A8C66D
:103A0000EFFFA551040DF350A76BA66F020EA6257C
:103A1000016E000EA721036E0150D50F016E050E39
:103A2000032201C0A6F603C0A7F6A251040DF3506D
:103A3000A96BA86F020EA825016E000EA921036EC6
:103A40000150600FE96E060E0320EA6EECCF03F022
:103A5000ED52EFCFA8F6A7C6EAFFA6C6E9FF03C05E
:103A6000ECFFED52A8C6EFFFA02BA22B4AD6000117
:103A7000B5A705D00501D26BA0C6D1F504D00601CB
:103A8000166BA0C615F60001B585000C0501D26BBA
:103A9000D16B0601166B156BFF0E826E836E000EE6
:103AA000946E956EFF0E826E836E5E6B01013F51C8
:103AB00006015E5DD8B09CD01B6AF2BE1B8EF29EE2
:103AC000D76B5EC6D6F6D96B2F0ED86F000121ECEE
:103AD00002F01BBEF28E02C003F001508A0F016E8D
:103AE000020E032201C0E9FF03C0EAFFEF50650A9E
:103AF00001E07BD0BA0EF66E020EF76E000EF86E85
:103B000011EC11F0D89005017A35036A190F016E96
:103B1000060E032201C05FF6060103C060F61B6AB1
:103B2000F2BE1B8EF29ED76B5EC6D6F6D96B2F0EF9
:103B3000D86F000121EC02F01BBEF28E01504C0F39
:103B40000601616F010E0220626F010E6125016E98
:103B5000000E6221036E01503E0F016E010E032222
:103B600001501F0FE96E000E0320EA6ED890EF346B
:103B7000036A0001B9EC00F00900F5CF03F006017B
:103B800060C6EAFF5FC6E9FF03C0ECFFED52EF6ECF
:103B90001B6AF2BE1B8EF29ED76B5EC6D6F6D96B41
:103BA0002F0ED86F000121EC02F01BBEF28E0150E7
:103BB0004C0F06015F6F010E0220606F010E5F2542
:103BC000016E000E6021036E01503E0F016E010E6A
:103BD00003220150200FE96E000E0320EA6E7AC521
:103BE000EFFF05017A2B000100D006015E2B5ED7A6
:103BF00005017A5312E00001B597050E05017C6FAF
:103C0000910E7B6F000128DC050E05017C6FD50E3F
:103C10007B6F0001B58720DC0501000141EF42F018
:103C200006015F915E6B01013F5106015E5DD8B0F8
:103C3000FCEF27F01B6AF2BE1B8EF29ED76B5EC6AE
:103C4000D6F6D96B2F0ED86F000121EC02F01BBE07
:103C5000F28E02C003F001508A0F016E020E0322A1
:103C600001C0E9FF03C0EAFFEF50650A09E0010A5D
:103C7000D8B4BCD2020AD8B497EF22F0F8EF27F0FC
:103C80001B6AF2BE1B8EF29E0601D76B5EC6D6F68D
:103C9000D96B2F0ED86F000121EC02F01BBEF28E03
:103CA00001504C0F0601606F010E0220616F010E82
:103CB0006025016E000E6121036E01503E0F016E02
:103CC000010E032201501D0FE96E000E0320EA6E63
:103CD000EFA0B2D01B6AF2BE1B8EF29ED76B5EC6FF
:103CE000D6F6D96B2F0ED86F000121EC02F01BBE67
:103CF000F28E01504C0F0601606F010E0220616FC1
:103D0000010E6025016E000E6121036E01503E0F11
:103D1000016E010E032201501E0FE96E000E0320FA
:103D2000EA6EEF5261E11B6AF2BE1B8EF29ED76B08
:103D30005EC6D6F6D96B2F0ED86F000121EC02F0CB
:103D40001BBEF28E01504C0F0601606F010E022067
:103D5000616F010E6025016E000E6121036E01503E
:103D60003E0F016E010E03220150200FE96E000E7E
:103D70000320EA6E036AEF50810F016E050E0322E5
:103D800001C062F603C063F61B6AF2BE1B8EF29E90
:103D9000D76B5EC6D6F6D96B2F0ED86F000121EC1B
:103DA00002F01BBEF28E01504C0F0601646F010E33
:103DB0000220656F010E6425016E000E6521036E01
:103DC00001503E0F016E010E032201501C0FE96EDF
:103DD000000E0320EA6EEFCF66F663C6EAFF62C606
:103DE000E9FF66C6EFFF5F811B6AF2BE1B8EF29E83
:103DF000D76B5EC6D6F6D96B2F0ED86F000121ECBB
:103E000002F01BBEF28E01504C0F0601606F010ED6
:103E10000220616F010E6025016E000E6121036EAC
:103E200001503E0F016E010E032201501D0FE96E7D
:103E3000000E0320EA6EEF901B6AF2BE1B8EF29E0C
:103E4000D76B5EC6D6F6D96B2F0ED86F000121EC6A
:103E500002F01BBEF28E01504C0F0601606F010E86
:103E60000220616F010E6025016E000E6121036E5C
:103E700001503E0F016E010E03220150130FE96E37
:103E8000000E0320EA6EEFA0AAD01B6AF2BE1B8EC2
:103E9000F29ED76B5EC6D6F6D96B2F0ED86F000197
:103EA00021EC02F01BBEF28E01504C0F0601606F38
:103EB000010E0220616F010E6025016E000E61216E
:103EC000036E01503E0F016E010E03220150120FCE
:103ED000E96E000E0320EA6EEF5259E01B6AF2BE53
:103EE0001B8EF29ED76B5EC6D6F6D96B2F0ED86F9F
:103EF000000121EC02F01BBEF28E01504C0F0601B6
:103F0000606F010E0220616F010E6025016E000ED0
:103F10006121036E01503E0F016E010E032201501C
:103F20001E0FE96E000E0320EA6E010EEF6E1B6A93
:103F3000F2BE1B8EF29ED76B5EC6D6F6D96B2F0EE5
:103F4000D86F000121EC02F01BBEF28E01504C0F25
:103F50000601606F010E0220616F010E6025016E87
:103F6000000E6121036E01503E0F016E010E03220F
:103F70000150200FE96E000E0320EA6E036AEF5035
:103F8000810FE96E050E0320EA6EEF6A5F811B6AFE
:103F9000F2BE1B8EF29ED76B5EC6D6F6D96B2F0E85
:103FA000D86F000121EC02F01BBEF28E01504C0FC5
:103FB0000601606F010E0220616F010E6025016E27
:103FC000000E6121036E01503E0F016E010E0322AF
:103FD0000150130FE96E000E0320EA6EEF901B6A8A
:103FE000F2BE1B8EF29ED76B5EC6D6F6D96B2F0E35
:103FF000D86F000121EC02F01BBEF28E01504C0F75
:104000000601606F010E0220616F010E6025016ED6
:10401000000E6121036E01503E0F016E010E03225E
:104020000150090FE96E000E0320EA6EEFA0DBD00D
:104030001B6AF2BE1B8EF29ED76B5EC6D6F6D96B9C
:104040002F0ED86F000121EC02F01BBEF28E015042
:104050004C0F0601606F010E0220616F010E60259A
:10406000016E000E6121036E01503E0F016E010EC4
:1040700003220150080FE96E000E0320EA6EEF5292
:10408000D8B489D01B6AF2BE1B8EF29ED76B5EC677
:10409000D6F6D96B2F0ED86F000121EC02F01BBEB3
:1040A000F28E01504C0F0601606F010E0220616F0D
:1040B000010E6025016E000E6121036E01503E0F5E
:1040C000016E010E032201501E0FE96E000E032047
:1040D000EA6EEF6A1B6AF2BE1B8EF29ED76B5EC65B
:1040E000D6F6D96B2F0ED86F000121EC02F01BBE63
:1040F000F28E01504C0F0601606F010E0220616FBD
:10410000010E6025016E000E6121036E01503E0F0D
:10411000016E010E03220150200FE96E000E0320F4
:10412000EA6E036AEF50810F016E050E032201C093
:1041300062F603C063F61B6AF2BE1B8EF29ED76B5B
:104140005EC6D6F6D96B2F0ED86F000121EC02F0B7
:104150001BBEF28E01504C0F0601646F010E02204F
:10416000656F010E6425016E000E6521036E01501E
:104170003E0F016E010E032201501C0FE96E000E6E
:104180000320EA6EEFCF66F663C6EAFF62C6E9FF78
:1041900066C6EFFF5F811B6AF2BE1B8EF29ED76B75
:1041A0005EC6D6F6D96B2F0ED86F000121EC02F057
:1041B0001BBEF28E01504C0F0601606F010E0220F3
:1041C000616F010E6025016E000E6121036E0150CA
:1041D0003E0F016E010E03220150090FE96E000E21
:1041E0000320EA6EEF900001F8EF27F01B6AF2BEA1
:1041F0001B8EF29E0601D76B5EC6D6F6D96B2F0ECC
:10420000D86F000121EC02F01BBEF28E01504C0F62
:104210000601606F010E0220616F010E6025016EC4
:10422000000E6121036E01503E0F016E010E03224C
:104230000150130FE96E000E0320EA6EEFA08CD040
:104240001B6AF2BE1B8EF29ED76B5EC6D6F6D96B8A
:104250002F0ED86F000121EC02F01BBEF28E015030
:104260004C0F0601606F010E0220616F010E602588
:10427000016E000E6121036E01503E0F016E010EB2
:1042800003220150120FE96E000E0320EA6EEF5276
:104290003BE01B6AF2BE1B8EF29ED76B5EC6D6F663
:1042A000D96B2F0ED86F000121EC02F01BBEF28EED
:1042B00001504C0F0601606F010E0220616F010E6C
:1042C0006025016E000E6121036E01503E0F016EEC
:1042D000010E03220150140FE96E000E0320EA6E56
:1042E000D890EF34036A0001B9EC00F00900F5CF73
:1042F00003F0006A0006001AFF0E031A00500501C1
:104300007F130350801306011B6AF2BE1B8EF29EC0
:10431000D76B5EC6D6F6D96B2F0ED86F000121EC95
:1043200002F01BBEF28E01504C0F0601606F010EB1
:104330000220616F010E6025016E000E6121036E87
:1043400001503E0F016E010E03220150130FE96E62
:10435000000E0320EA6EEF901B6AF2BE1B8EF29EE7
:10436000D76B5EC6D6F6D96B2F0ED86F000121EC45
:1043700002F01BBEF28E01504C0F0601606F010E61
:104380000220616F010E6025016E000E6121036E37
:1043900001503E0F016E010E03220150090FE96E1C
:1043A000000E0320EA6EEFA0BFD01B6AF2BE1B8E88
:1043B000F29ED76B5EC6D6F6D96B2F0ED86F000172
:1043C00021EC02F01BBEF28E01504C0F0601606F13
:1043D000010E0220616F010E6025016E000E612149
:1043E000036E01503E0F016E010E03220150080FB3
:1043F000E96E000E0320EA6EEF526EE01B6AF2BE19
:104400001B8EF29ED76B5EC6D6F6D96B2F0ED86F79
:10441000000121EC02F01BBEF28E01504C0F060190
:10442000606F010E0220616F010E6025016E000EAB
:104430006121036E01503E0F016E010E03220150F7
:10444000140FE96E000E0320EA6ED890EF34036A71
:104450000001B9EC00F00900F5CF03F005017F176A
:1044600003508017000E0201C3B1010E0601606FF8
:104470002E0EC06F000117EC0FF0580E0601C06F32
:10448000000117EC0FF03D0E0601C06F000117ECA4
:104490000FF05EC6BAF61F0E0601BB6F000168EC96
:1044A0000FF0200E0601C06F000117EC0FF060C680
:1044B000BAF61F0E0601BB6F000168EC0FF00A0E82
:1044C0000601C06F000117EC0FF0640E0601C06F0B
:1044D000000117EC0FF006011B6AF2BE1B8EF29E64
:1044E000D76B5EC6D6F6D96B2F0ED86F000121ECC4
:1044F00002F01BBEF28E01504C0F0601606F010EE0
:104500000220616F010E6025016E000E6121036EB5
:1045100001503E0F016E010E03220150090FE96E9A
:10452000000E0320EA6EEF900001F8EF27F01B6AFF
:10453000F2BE1B8EF29E0601D76B5EC6D6F6D96B15
:104540002F0ED86F000121EC02F01BBEF28E01503D
:104550004C0F0601606F010E0220616F010E602595
:10456000016E000E6121036E01503E0F016E010EBF
:1045700003220150090FE96E000E0320EA6EEFA03E
:1045800035D11B6AF2BE1B8EF29ED76B5EC6D6F685
:10459000D96B2F0ED86F000121EC02F01BBEF28EFA
:1045A00001504C0F0601626F010E0220636F010E75
:1045B0006225016E000E6321036E01503E0F016EF5
:1045C000010E032201502D0FE96E000E0320EA6E4A
:1045D000EF5004082AE01B6AF2BE1B8EF29ED76BD6
:1045E0005EC6D6F6D96B2F0ED86F000121EC02F013
:1045F0001BBEF28E01504C0F0601646F010E0220AB
:10460000656F010E6425016E000E6521036E015079
:104610003E0F016E010E032201502D0FE96E000EB8
:104620000320EA6EEF52D8A4E1D0CC0EF66E020E53
:10463000F76E000EF86E000111EC11F01B6AF2BE6D
:104640001B8EF29E0601D76B5EC6D6F6D96B2F0E77
:10465000D86F000121EC02F01BBEF28E01504C0F0E
:104660000601606F010E0220616F010E6025016E70
:10467000000E6121036E01503E0F016E010E0322F8
:104680000150080FE96E000E0320EA6EEF52D8B415
:1046900085D01B6AF2BE1B8EF29ED76B5EC6D6F625
:1046A000D96B2F0ED86F000121EC02F01BBEF28EE9
:1046B00001504C0F0601606F010E0220616F010E68
:1046C0006025016E000E6121036E01503E0F016EE8
:1046D000010E032201502A0FE96E000E0320EA6E3C
:1046E000EF6A1B6AF2BE1B8EF29ED76B5EC6D6F6D1
:1046F000D96B2F0ED86F000121EC02F01BBEF28E99
:1047000001504C0F0601606F010E0220616F010E17
:104710006025016E000E6121036E01503E0F016E97
:10472000010E032201502D0FE96E000E0320EA6EE8
:10473000EF6A1B6AF2BE1B8EF29ED76B5EC6D6F680
:10474000D96B2F0ED86F000121EC02F01BBEF28E48
:1047500001504C0F0601606F010E0220616F010EC7
:104760006025016E000E6121036E01503E0F016E47
:10477000010E03220150280FE96E000E0320EA6E9D
:10478000D890EF34036A0001B9EC00F00900F5CFCE
:1047900003F005017F170350801706011B6AF2BE64
:1047A0001B8EF29ED76B5EC6D6F6D96B2F0ED86FD6
:1047B000000121EC02F01BBEF28E01504C0F0601ED
:1047C000606F010E0220616F010E6025016E000E08
:1047D0006121036E01503E0F016E010E0322015054
:1047E000090FE96E000E0320EA6EEF901B6AF2BE1D
:1047F0001B8EF29ED76B5EC6D6F6D96B2F0ED86F86
:10480000000121EC02F01BBEF28E01504C0F06019C
:10481000606F010E0220616F010E6025016E000EB7
:104820006121036E01503E0F016E010E0322015003
:10483000130FE96E000E0320EA6EEFA02BD11B6A66
:10484000F2BE1B8EF29ED76B5EC6D6F6D96B2F0ECC
:10485000D86F000121EC02F01BBEF28E01504C0F0C
:104860000601626F010E0220636F010E6225016E68
:10487000000E6321036E01503E0F016E010E0322F4
:1048800001502D0FE96E000E0320EA6EEF50040870
:1048900029E01B6AF2BE1B8EF29ED76B5EC6D6F66F
:1048A000D96B2F0ED86F000121EC02F01BBEF28EE7
:1048B00001504C0F0601646F010E0220656F010E5E
:1048C0006425016E000E6521036E01503E0F016EDE
:1048D000010E032201502D0FE96E000E0320EA6E37
:1048E000EF2CD8D01B6AF2BE1B8EF29ED76B5EC631
:1048F000D6F6D96B2F0ED86F000121EC02F01BBE4B
:10490000F28E01504C0F0601606F010E0220616FA4
:10491000010E6025016E000E6121036E01503E0FF5
:10492000016E010E03220150120FE96E000E0320EA
:10493000EA6EEF52D8B486D01B6AF2BE1B8EF29E8E
:10494000D76B5EC6D6F6D96B2F0ED86F000121EC5F
:1049500002F01BBEF28E01504C0F0601606F010E7B
:104960000220616F010E6025016E000E6121036E51
:1049700001503E0F016E010E032201502A0FE96E15
:10498000000E0320EA6EEF6A1B6AF2BE1B8EF29ED7
:10499000D76B5EC6D6F6D96B2F0ED86F000121EC0F
:1049A00002F01BBEF28E01504C0F0601606F010E2B
:1049B0000220616F010E6025016E000E6121036E01
:1049C00001503E0F016E010E032201502D0FE96EC2
:1049D000000E0320EA6E010EEF6E1B6AF2BE1B8E04
:1049E000F29ED76B5EC6D6F6D96B2F0ED86F00013C
:1049F00021EC02F01BBEF28E01504C0F0601606FDD
:104A0000010E0220616F010E6025016E000E612112
:104A1000036E01503E0F016E010E03220150290F5B
:104A2000E96E000E0320EA6ED890EF34036A0001AD
:104A3000B9EC00F00900F5CF03F005017F17035032
:104A4000801706011B6AF2BE1B8EF29ED76B5EC6F4
:104A5000D6F6D96B2F0ED86F000121EC02F01BBEE9
:104A6000F28E01504C0F0601606F010E0220616F43
:104A7000010E6025016E000E6121036E01503E0F94
:104A8000016E010E03220150130FE96E000E032088
:104A9000EA6EEF901B6AF2BE1B8EF29ED76B5EC66B
:104AA000D6F6D96B2F0ED86F000121EC02F01BBE99
:104AB000F28E01504C0F0601606F010E0220616FF3
:104AC000010E6025016E000E6121036E01503E0F44
:104AD000016E010E032201501D0FE96E000E03202E
:104AE000EA6EEFA02DD11B6AF2BE1B8EF29ED76B31
:104AF0005EC6D6F6D96B2F0ED86F000121EC02F0FE
:104B00001BBEF28E01504C0F0601626F010E022097
:104B1000636F010E6225016E000E6321036E01506A
:104B20003E0F016E010E032201502D0FE96E000EA3
:104B30000320EA6EEF5004082BE01B6AF2BE1B8EC6
:104B4000F29ED76B5EC6D6F6D96B2F0ED86F0001DA
:104B500021EC02F01BBEF28E01504C0F0601646F77
:104B6000010E0220656F010E6425016E000E6521A5
:104B7000036E01503E0F016E010E032201502D0FF6
:104B8000E96E000E0320EA6EEF500208D8A4D8D0D8
:104B90001B6AF2BE1B8EF29ED76B5EC6D6F6D96B31
:104BA0002F0ED86F000121EC02F01BBEF28E0150D7
:104BB0004C0F0601606F010E0220616F010E60252F
:104BC000016E000E6121036E01503E0F016E010E59
:104BD000032201501C0FE96E000E0320EA6EEF5213
:104BE000D8B486D01B6AF2BE1B8EF29ED76B5EC60F
:104BF000D6F6D96B2F0ED86F000121EC02F01BBE48
:104C0000F28E01504C0F0601606F010E0220616FA1
:104C1000010E6025016E000E6121036E01503E0FF2
:104C2000016E010E032201502A0FE96E000E0320CF
:104C3000EA6EEF6A1B6AF2BE1B8EF29ED76B5EC6EF
:104C4000D6F6D96B2F0ED86F000121EC02F01BBEF7
:104C5000F28E01504C0F0601606F010E0220616F51
:104C6000010E6025016E000E6121036E01503E0FA2
:104C7000016E010E032201502D0FE96E000E03207C
:104C8000EA6E020EEF6E1B6AF2BE1B8EF29ED76BAF
:104C90005EC6D6F6D96B2F0ED86F000121EC02F05C
:104CA0001BBEF28E01504C0F0601606F010E0220F8
:104CB000616F010E6025016E000E6121036E0150CF
:104CC0003E0F016E010E03220150280FE96E000E07
:104CD0000320EA6ED890EF34036A0001B9EC00F0CB
:104CE0000900F5CF03F005017F1703508017060177
:104CF0001B6AF2BE1B8EF29ED76B5EC6D6F6D96BD0
:104D00002F0ED86F000121EC02F01BBEF28E015075
:104D10004C0F0601606F010E0220616F010E6025CD
:104D2000016E000E6121036E01503E0F016E010EF7
:104D3000032201501D0FE96E000E0320EA6EEF9072
:104D40001B6AF2BE1B8EF29ED76B5EC6D6F6D96B7F
:104D50002F0ED86F000121EC02F01BBEF28E015025
:104D60004C0F0601606F010E0220616F010E60257D
:104D7000016E000E6121036E01503E0F016E010EA7
:104D800003220150270FE96E000E0320EA6EEFA008
:104D90002DD11B6AF2BE1B8EF29ED76B5EC6D6F675
:104DA000D96B2F0ED86F000121EC02F01BBEF28EE2
:104DB00001504C0F0601626F010E0220636F010E5D
:104DC0006225016E000E6321036E01503E0F016EDD
:104DD000010E032201502D0FE96E000E0320EA6E32
:104DE000EF5004082BE01B6AF2BE1B8EF29ED76BBD
:104DF0005EC6D6F6D96B2F0ED86F000121EC02F0FB
:104E00001BBEF28E01504C0F0601646F010E022092
:104E1000656F010E6425016E000E6521036E015061
:104E20003E0F016E010E032201502D0FE96E000EA0
:104E30000320EA6EEF500308D8A4D8D01B6AF2BE54
:104E40001B8EF29ED76B5EC6D6F6D96B2F0ED86F2F
:104E5000000121EC02F01BBEF28E01504C0F060146
:104E6000606F010E0220616F010E6025016E000E61
:104E70006121036E01503E0F016E010E03220150AD
:104E8000260FE96E000E0320EA6EEF52D8B486D0EA
:104E90001B6AF2BE1B8EF29ED76B5EC6D6F6D96B2E
:104EA0002F0ED86F000121EC02F01BBEF28E0150D4
:104EB0004C0F0601606F010E0220616F010E60252C
:104EC000016E000E6121036E01503E0F016E010E56
:104ED000032201502A0FE96E000E0320EA6EEF6AEA
:104EE0001B6AF2BE1B8EF29ED76B5EC6D6F6D96BDE
:104EF0002F0ED86F000121EC02F01BBEF28E015084
:104F00004C0F0601606F010E0220616F010E6025DB
:104F1000016E000E6121036E01503E0F016E010E05
:104F2000032201502D0FE96E000E0320EA6E030EDE
:104F3000EF6E1B6AF2BE1B8EF29ED76B5EC6D6F674
:104F4000D96B2F0ED86F000121EC02F01BBEF28E40
:104F500001504C0F0601606F010E0220616F010EBF
:104F60006025016E000E6121036E01503E0F016E3F
:104F7000010E03220150290FE96E000E0320EA6E94
:104F8000D890EF34036A0001B9EC00F00900F5CFC6
:104F900003F005017F170350801706011B6AF2BE5C
:104FA0001B8EF29ED76B5EC6D6F6D96B2F0ED86FCE
:104FB000000121EC02F01BBEF28E01504C0F0601E5
:104FC000606F010E0220616F010E6025016E000E00
:104FD0006121036E01503E0F016E010E032201504C
:104FE000270FE96E000E0320EA6EEF90000100D05B
:104FF00006015E2B13EF1EF05FA104D000012CEC24
:105000001AF006010001000CA380A382A384A386EA
:10501000A388A38EA38A9D84F28A9D809D82F288B4
:10502000C00EF21245EF42F09388040081B8FDD71C
:10503000080E006E0601616B008E10D0009E0ED02F
:1050400061C602F0D89081B8D8800232008C06D0B8
:10505000009C002EF7D702C001F00CD0160E00BE47
:10506000060E016E012EFED700D000BEE7D700BCB1
:10507000EFD7E8D70001000CD40EF66E020EF76EE3
:10508000000EF86E11EC11F0DE0EF66E020EF76EE9
:10509000000EF86E11EC11F081A8BFD11B6AF2BEB0
:1050A0001B8EF29E1CC0D9F6010E0601DA6F0F0EA0
:1050B000DC6F920EDB6F000132EC02F01BBEF28E51
:1050C0001B6AF2BE1B8EF29E1CC0D9F60F0E0601A3
:1050D000DB6F800EDA6F000153EC02F01BBEF28E24
:1050E00006015F9101B05F811B6AF2BE1B8EF29ECA
:1050F0001DC0D9F6010EDA6F0F0EDC6F920EDB6F5A
:10510000000132EC02F01BBEF28E1B6AF2BE1B8E57
:10511000F29E1DC0D9F60F0E0601DB6F800EDA6F0E
:10512000000153EC02F01BBEF28E06015F9301B04A
:105130005F831B6AF2BE1B8EF29E1EC0D9F6010E63
:10514000DA6F0F0EDC6F920EDB6F000132EC02F0B3
:105150001BBEF28E1B6AF2BE1B8EF29E1EC0D9F6DB
:105160000F0E0601DB6F800EDA6F000153EC02F0C8
:105170001BBEF28E06015F9501B05F851B6AF2BE11
:105180001B8EF29E1FC0D9F6010EDA6F0F0EDC6F78
:10519000920EDB6F000132EC02F01BBEF28E1B6A36
:1051A000F2BE1B8EF29E1FC0D9F60F0E0601DB6FFA
:1051B000800EDA6F000153EC02F01BBEF28E060186
:1051C0005F9701B05F871B6AF2BE1B8EF29E20C004
:1051D000D9F6010EDA6F0F0EDC6F920EDB6F000155
:1051E00032EC02F01BBEF28E1B6AF2BE1B8EF29EE8
:1051F00020C0D9F60F0E0601DB6F800EDA6F0001BA
:1052000053EC02F01BBEF28E06015F9901B05F897C
:105210001B6AF2BE1B8EF29E21C0D9F6010EDA6F18
:105220000F0EDC6F920EDB6F000132EC02F01BBE42
:10523000F28E1B6AF2BE1B8EF29E21C0D9F60F0EB3
:105240000601DB6F800EDA6F000153EC02F01BBE2B
:10525000F28E06015F9B01B05F8B1B6AF2BE1B8E54
:10526000F29E22C0D9F6010EDA6F0F0EDC6F920E9D
:10527000DB6F000132EC02F01BBEF28E1B6AF2BE45
:105280001B8EF29E22C0D9F60F0E0601DB6F800E38
:10529000DA6F000153EC02F01BBEF28E06015F9D37
:1052A00001B05F8D1B6AF2BE1B8EF29E23C0D9F641
:1052B000010EDA6F0F0EDC6F920EDB6F000132EC25
:1052C00002F01BBEF28E1B6AF2BE1B8EF29E23C042
:1052D000D9F60F0E0601DB6F800EDA6F000153EC7A
:1052E00002F01BBEF28E06015F9F01B05F8F000EC1
:1052F0005FB1010E606F000E5FB3010E616F000EB3
:105300005FB5010E626F000E5FB7010E636F000E96
:105310005FB9010E646F000E5FBB010E656F000E7A
:105320005FBD010E666F000E5FBF010E676F60C646
:10533000BAF61F0EBB6F000168EC0FF0200E0601DD
:10534000C06F000117EC0FF061C6BAF61F0E060120
:10535000BB6F000168EC0FF0200E0601C06F00016A
:1053600017EC0FF062C6BAF61F0E0601BB6F000104
:1053700068EC0FF0200E0601C06F000117EC0FF073
:1053800063C6BAF61F0E0601BB6F000168EC0FF092
:10539000200E0601C06F000117EC0FF064C6BAF6CC
:1053A0001F0E0601BB6F000168EC0FF0200E060116
:1053B000C06F000117EC0FF065C6BAF61F0E0601AC
:1053C000BB6F000168EC0FF0200E0601C06F0001FA
:1053D00017EC0FF066C6BAF61F0E0601BB6F000190
:1053E00068EC0FF0200E0601C06F000117EC0FF003
:1053F00067C6BAF61F0E0601BB6F000168EC0FF01E
:105400000D0E0601C06F000117EC0FF00400200E16
:10541000006E002EFED700D03FD6DDEF2AF0060149
:105420005F81F00EF66E020EF76E000EF86E000150
:1054300011EC11F006015FA186D081A801D0FDD743
:105440000001F2DD01C060F606016051300A000182
:1054500021E0010A24E0030A27E0010A2AE0070A02
:105460002DE0010A30E0030A33E0010A36E00F0ABA
:1054700039E0010A3CE0580A3FE0030A42E0010A31
:1054800045E0070A48E0010A4BE0030A4EE01E0A25
:1054900051E057D0FF0E826EEF0E836E52D0FF0E9A
:1054A000826EDF0E836E4DD0FF0E826EBF0E836E56
:1054B00048D0FF0E826E7F0E836E43D0FF0E826E49
:1054C000F70E836E3ED0FF0E826EFB0E836E39D0D8
:1054D000FF0E826EFE0E836E34D0FF0E826EFD0EC6
:1054E000836E2FD07F0E826EFF0E836E2AD0BF0E8A
:1054F000826EFF0E836E25D0DF0E826EFF0E836EEE
:1055000020D0EF0E826EFF0E836E1BD0F70E826EE0
:10551000FF0E836E16D0FB0E826EFF0E836E11D0CF
:10552000FD0E826EFF0E836E0CD0FE0E826EFF0E9D
:10553000836E07D006015F91FF0E826E836E0001BD
:1055400000D078D706010001DDEF2AF0100EF66ECC
:10555000030EF76E000EF86E11EC11F0240EF66ECD
:10556000030EF76E000EF86E11EC11F0340EF66EAD
:10557000030EF76E000EF86E11EC11F081A801D049
:10558000FDD752DD01C05EF606015E51310805E12E
:10559000000172D5000111D006015E51320805E10B
:1055A00000013DD7000109D006015E51780804E1F1
:1055B000D180C00EF21203D00001C8D7060100014D
:1055C0006AEF42F00601716B715107080FE3036A3D
:1055D00071516E25E96E6F510320EA6E7051EF5CD8
:1055E00003E1010E016E04D0712BEED7000E016EA7
:1055F0000001000C0601696B01013F510601695D64
:10560000D8B0FDEF2FF01B6AF2BE1B8EF29ED76B57
:1056100069C6D6F6D96B2F0ED86F000121EC02F0C7
:105620001BBEF28E02C003F001508A0F016E020E03
:10563000032201C0E9FF03C0EAFFEF50650A08E05A
:10564000010AD8B49BD1020AD8B4A5D2F8EF2FF042
:105650001B6AF2BE1B8EF29E0601D76B69C6D6F698
:10566000D96B2F0ED86F000121EC02F01BBEF28E19
:1056700001504C0F06016A6F010E02206B6F010E84
:105680006A25016E000E6B21036E01503E0F016E04
:10569000010E03220150140F016E000E032201C0FF
:1056A0006CF603C06DF603C06FF601C06EF667C6F8
:1056B00070F6000187DF015254E01B6AF2BE1B8EB8
:1056C000F29E0601D76B69C6D6F6D96B2F0ED86F3E
:1056D000000121EC02F01BBEF28E01504C0F0601BE
:1056E0006A6F010E02206B6F010E6A25016E000EBB
:1056F0006B21036E01503E0F016E010E032201501B
:105700001C0FE96E000E0320EA6E68C6EFFF1B6AED
:10571000F2BE1B8EF29ED76B69C6D6F6D96B2F0EE2
:10572000D86F000121EC02F01BBEF28E01504C0F2D
:1057300006016A6F010E02206B6F010E6A25016E71
:10574000000E6B21036E01503E0F016E010E03220D
:1057500001501D0FE96E000E0320EA6EEF800CD1A0
:1057600000011B6AF2BE1B8EF29E0601D76B69C652
:10577000D6F6D96B2F0ED86F000121EC02F01BBEBC
:10578000F28E01504C0F06016A6F010E02206B6F02
:10579000010E6A25016E000E6B21036E01503E0F53
:1057A000016E010E032201C06CF603C06DF603C04A
:1057B0006FF601C06EF667C670F6000103DF015296
:1057C00054E01B6AF2BE1B8EF29E0601D76B69C6BF
:1057D000D6F6D96B2F0ED86F000121EC02F01BBE5C
:1057E000F28E01504C0F06016A6F010E02206B6FA2
:1057F000010E6A25016E000E6B21036E01503E0FF3
:10580000016E010E03220150080FE96E000E032005
:10581000EA6E68C6EFFF1B6AF2BE1B8EF29ED76B64
:1058200069C6D6F6D96B2F0ED86F000121EC02F0B5
:105830001BBEF28E01504C0F06016A6F010E022052
:105840006B6F010E6A25016E000E6B21036E015015
:105850003E0F016E010E03220150090FE96E000E8A
:105860000320EA6EEF8088D000011B6AF2BE1B8E17
:10587000F29E0601D76B69C6D6F6D96B2F0ED86F8C
:10588000000121EC02F01BBEF28E01504C0F06010C
:105890006A6F010E02206B6F010E6A25016E000E09
:1058A0006B21036E01503E0F016E010E0322015069
:1058B0000A0F016E000E032201C06CF603C06DF6E4
:1058C00003C06FF601C06EF667C670F600017ADE9F
:1058D000015253E01B6AF2BE1B8EF29E0601D76B8B
:1058E00069C6D6F6D96B2F0ED86F000121EC02F0F5
:1058F0001BBEF28E01504C0F06016A6F010E022092
:105900006B6F010E6A25016E000E6B21036E015054
:105910003E0F016E010E03220150120FE96E000EC0
:105920000320EA6E68C6EFFF1B6AF2BE1B8EF29E72
:10593000D76B69C6D6F6D96B2F0ED86F000121EC54
:1059400002F01BBEF28E01504C0F06016A6F010E71
:1059500002206B6F010E6A25016E000E6B21036E33
:1059600001503E0F016E010E03220150130FE96E2C
:10597000000E0320EA6EEF8000013BD31B6AF2BEEB
:105980001B8EF29E0601D76B69C6D6F6D96B2F0E19
:10599000D86F000121EC02F01BBEF28E01504C0FBB
:1059A00006016A6F010E02206B6F010E6A25016EFF
:1059B000000E6B21036E01503E0F016E010E03229B
:1059C00001C06CF603C06DF603C06FF601C06EF641
:1059D00067C670F60001F6DD015254E01B6AF2BEA4
:1059E0001B8EF29E0601D76B69C6D6F6D96B2F0EB9
:1059F000D86F000121EC02F01BBEF28E01504C0F5B
:105A000006016A6F010E02206B6F010E6A25016E9E
:105A1000000E6B21036E01503E0F016E010E03223A
:105A20000150080FE96E000E0320EA6E68C6EFFF12
:105A30001B6AF2BE1B8EF29ED76B69C6D6F6D96B77
:105A40002F0ED86F000121EC02F01BBEF28E015028
:105A50004C0F06016A6F010E02206B6F010E6A2562
:105A6000016E000E6B21036E01503E0F016E010EA0
:105A700003220150090FE96E000E0320EA6EEF8049
:105A800088D000011B6AF2BE1B8EF29E0601D76B06
:105A900069C6D6F6D96B2F0ED86F000121EC02F043
:105AA0001BBEF28E01504C0F06016A6F010E0220E0
:105AB0006B6F010E6A25016E000E6B21036E0150A3
:105AC0003E0F016E010E032201500A0F016E000EFF
:105AD000032201C06CF603C06DF603C06FF601C06F
