:04000000E6EF33F004
:08000800046ED8CF05F0E0CF33
:1000100006F00001E9CF0CF0EACF07F0E1CF08F0DD
:10002000E2CF09F0D9CF0AF0DACF0BF0F3CF12F01C
:10003000F4CF13F0FACF14F0F5CF15F0F6CF16F099
:10004000F7CF17F0F8CF18F0FBCF19F000C00EF083
:1000500001C00FF002C010F003C011F0F2AA34EF9B
:1000600000F0F2B4BDEF06F09DA03AEF00F09EB0B4
:10007000CFEF06F09DA240EF00F09EB2D3EF06F066
:10008000F2A846EF00F0F2B2E8EF06F09DAA4CEFBE
:1000900000F09EBA2EEF08F09DA852EF00F09EB837
:1000A00031EF08F09DA458EF00F09EB494EF07F0F4
:1000B000A0A65EEF00F0A1B634EF08F0A3AE64EFA7
:1000C00000F0A4BE32EF0DF0A3AA6AEF00F0A4BACC
:1000D00035EF0DF0A3A870EF00F0A4B82EEF0DF0EF
:1000E000A3A676EF00F0A4B62AEF0DF0A3A47CEF50
:1000F00000F0A4B426EF0DF0A3A282EF00F0A4B2AA
:1001000012EF0BF0A3A088EF00F0A4B00EEF0BF0FD
:10011000A0AE8EEF00F0A1BE37EF08F00EC000F0E9
:100120000FC001F010C002F011C003F00CC0E9FFD5
:1001300007C0EAFF078E08C0E1FF09C0E2FF0AC05E
:10014000D9FF0BC0DAFF12C0F3FF13C0F4FF14C0D5
:10015000FAFF15C0F5FF16C0F6FF17C0F7FF18C06D
:10016000F8FF19C0FBFF045006C0E0FF05C0D8FF30
:100170001000F76A860FF66E010EF722000EF86E79
:100180000900F5501200EFFFDFFFBFFF7FFFF7FF11
:10019000FBFFFEFFFDFFFF7FFFBFFFDFFFEFFFF76E
:1001A000FFFBFFFDFFFEF76ABA0FF66E010EF722A6
:1001B000000EF86E0900F550120000964B975C9601
:1001C0006D957E948F93A092B191C290D38FE48E5F
:1001D000F58D068D178C288B398A4A895B886C8748
:1001E0007D868E859F84B083C182D281E380F47F37
:1001F000057F167E277D387C497B5A7A6B797C781F
:100200008D779E76AF75C074D173E272F37104710D
:100210001570266F376E486D596C6A6B7B6A8C69F6
:100220009D68AE67BF66D065E164F26303631462E4
:1002300025613660475F585E695D7A5C8B5B9C5ACE
:10024000AD59BE58CF57E056F155025513542453BB
:10025000355246515750684F794E8A4D9B4CAC4BA6
:10026000BD4ACE49DF48F047014712462345344492
:100270004543564267417840893F9A3EAB3DBC3C7E
:10028000CD3BDE3AEF390039113822373336443569
:1002900055346633773288319930AA2FBB2ECC2D56
:1002A000DD2CEE2BFF2A102A212932284327542641
:1002B00065257624872398226902736869747465BA
:1002C000720064696D5F6C6576656C2025750A0D3A
:1002D00000006F66662025750A0D00006F666620B7
:1002E00025750A0D00006F66662025750A0D000051
:1002F000050178517A03F3CF01F0F4CF00F07B03CE
:10030000F350002679517A03F3500020026E000169
:10031000000C05017B51070B006E7B31016E013231
:1003200001321F0E011601507D25E96E000E7E215F
:10033000EA6E016A012A002A01D00136002EFDD79B
:100340007C5303E00150EF1203D0011E0150EF1661
:100350000001000C05017B51070B006E7B31016E23
:10036000013201321F0E011601507C25E96E000E8C
:100370007D21EA6EEFCF01F0002A01D00132002E7C
:10038000FDD70001000C090E05017A25E96E000E6B
:100390007B21EA6EEFCF7CF50E0E7A25E96E000E1A
:1003A0007B21EA6E000EEFB0010E010BD8A4E7D05E
:1003B0000E0E7A25E96E000E7B21EA6EEF920A0E90
:1003C0007A25E96E000E7B21EA6EEFCF00F0ECCFCC
:1003D00001F0ECCF02F0ECCF03F000501F5D7D6F19
:1003E000015020597E6F025021597F6F03502259CE
:1003F000806F2751805D0CE315E126517F5D08E396
:1004000011E125517E5D04E30DE17D51245D0AE398
:100410000F0E7A25E96E000E7B21EA6EEF5002087E
:10042000D8A4ACD00F0E7A25E96E000E7B21EA6EBF
:10043000EF500408D8B4A2D00F0E7A25E96E000E52
:100440007B21EA6EEF2C1FD00F0E7A25E96E000E8D
:100450007B21EA6E040EEF6E7A25E96E000E7B2199
:10046000EA6E010EEF6E090E7A25E96E000E7B2111
:10047000EA6E7F0EEF6E050E7A25E96E000E7B2187
:10048000EA6EEF807AD00F0E7A25E96E000E7B219E
:10049000EA6E020EEF6E0A0E7A25E96E000E7B21DF
:1004A000EA6EEFCF00F0ECCF01F0ECCF02F0ECCF32
:1004B00003F000501F5D7D6F015020597E6F025088
:1004C00021597F6F03502259806F805307E17F537A
:1004D00005E17E5303E17D51235D41E20E0E7A2555
:1004E000E96E000E7B21EA6E000EEFB4010E010BE7
:1004F00018E1090E7A25E96E000E7B21EA6EEF2ADB
:10050000090E7A25E96E000E7B21EA6EEF507F0816
:1005100007E10E0E7A25E96E000E7B21EA6EEF846C
:100520001ED0090E7A25E96E000E7B21EA6EEF06D9
:10053000090E7A25E96E000E7B21EA6EEF520FE17B
:100540000E0E7A25E96E000E7B21EA6EEF94070EFF
:100550007A25E96E000E7B21EA6E010EEF6E0A0E1F
:100560007A25E96E000E7B21EA6E1FC5EFFF20C5DC
:10057000ECFF21C5ECFF22C5ECFF00D0B0D00E0E81
:100580007A25E96E000E7B21EA6E000EEFB2010EB5
:10059000010BD8A496D00E0E7A25E96E000E7B21B1
:1005A000EA6EEF820F0E7A25E96E000E7B21EA6E6D
:1005B000EF50020822E10F0E7A25E96E000E7B2132
:1005C000EA6EEF6A0E0E7A25E96E000E7B21EA6E66
:1005D000000EEFB4010E010B08E10E0E7A25E96E54
:1005E000000E7B21EA6EEF8407D00E0E7A25E96EAD
:1005F000000E7B21EA6EEF9464D00F0E7A25E96E2F
:10060000000E7B21EA6EEF2C1ED00F0E7A25E96ECC
:10061000000E7B21EA6EEF6A040E7A25E96E000E69
:100620007B21EA6E010EEF6E0E0E7A25E96E000E4A
:100630007B21EA6EEF84050E7A25E96E000E7B21A0
:10064000EA6EEF803ED00F0E7A25E96E000E7B2118
:10065000EA6EEF521FE10F0E7A25E96E000E7B2144
:10066000EA6E010EEF6E070E7A25E96E000E7B2111
:10067000EA6E010EEF6E0E0E7A25E96E000E7B21FA
:10068000EA6EEF94080E7A25E96E000E7B21EA6E81
:10069000EF8017D00F0E7A25E96E000E7B21EA6EEF
:1006A000EF5004080EE10F0E7A25E96E000E7B2153
:1006B000EA6EEF6A0E0E7A25E96E000E7B21EA6E75
:1006C000EF840A0E7A25E96E000E7B21EA6E1FC5C3
:1006D000EFFF20C5ECFF21C5ECFF22C5ECFF090EA2
:1006E0007A25E96E000E7B21EA6EEF507C5D1BE0FF
:1006F000010E7A25016E000E7B21036E090E7A250C
:10070000E96E000E7B21EA6EEFCF7FF503C0EAFFB2
:1007100001C0E9FF7FC5EFFF020E7A25E96E000EEA
:100720007B21EA6EEF800001B7EF06F0060E0501AF
:100730007A25E96E000E7B21EA6E000EEFB0010E05
:10074000010B6EE1060E7A25E96E000E7B21EA6E42
:10075000000EEFB2010E010B010862E1060E7A25D0
:10076000E96E000E7B21EA6EEF920B0E7A25E96EA0
:10077000000E7B21EA6EEF2C25D00B0E7A25E96E58
:10078000000E7B21EA6EEF6A010E7A25E96E000EFB
:100790007B21EA6E010EEF6E020E7A25E96E000EE5
:1007A0007B21EA6EEF80040E7A25E96E000E7B2134
:1007B000EA6EEF6A050E7A25E96E000E7B21EA6E7D
:1007C000EF802DD00B0E7A25E96E000E7B21EA6EAC
:1007D000EF5225E10B0E7A25E96E000E7B21EA6EC1
:1007E000010EEF6E040E7A25E96E000E7B21EA6E93
:1007F000010EEF6E050E7A25E96E000E7B21EA6E82
:10080000EF80010E7A25E96E000E7B21EA6EEF6A19
:10081000020E7A25E96E000E7B21EA6EEF8013D07E
:10082000060E7A25E96E000E7B21EA6E000EEFB00F
:10083000010E010B010807E1060E7A25E96E000E94
:100840007B21EA6EEF820001B7EF06F0060E05018C
:100850007A25E96E000E7B21EA6E000EEFB0010EE4
:10086000010B2DE1070E7A25E96E000E7B21EA6E61
:10087000EF2C25D0070E7A25E96E000E7B21EA6E5B
:10088000EF6A010E7A25E96E000E7B21EA6E010EF9
:10089000EF6E020E7A25E96E000E7B21EA6EEF8084
:1008A000040E7A25E96E000E7B21EA6EEF6A050ED2
:1008B0007A25E96E000E7B21EA6EEF8039D0060EB4
:1008C0007A25E96E000E7B21EA6E000EEFB0010E74
:1008D000010B01082DE1070E7A25E96E000E7B2140
:1008E000EA6EEF5225E1070E7A25E96E000E7B21B4
:1008F000EA6E010EEF6E040E7A25E96E000E7B2182
:10090000EA6E010EEF6E050E7A25E96E000E7B2170
:10091000EA6EEF80010E7A25E96E000E7B21EA6E09
:10092000EF6A020E7A25E96E000E7B21EA6EEF80F7
:100930000001B7EF06F00501776B01013E5105019B
:10094000775DD8B017D2796B77C578F57B6B210EC0
:100950007A6F0001CDDC02C003F00150400F016E40
:10096000010E032201C0E9FF03C0EAFFEF500AE0D5
:10097000030AD8B4AAD0020AD8B4A8D0030AD8B4BB
:100980004CD1F4D10501796B77C578F57B6B210EDD
:100990007A6F0001ADDC0150020F0501786F000E87
:1009A0000220796F010E7825016E000E7921036E09
:1009B00001503E0F016E010E03220150100FE96E2F
:1009C000000E0320EA6EEFCF7AF57AC57BF5010EB3
:1009D0007C6F0F0E7E6F920E7D6F00019ADC7AC5E0
:1009E0007BF50F0E05017D6F800E7C6F0001B2DC80
:1009F00001A024D00501796B77C578F57B6B210EBA
:100A00007A6F000175DC0150020F0501786F000E4E
:100A10000220796F010E7825016E000E7921036E98
:100A200001503E0F016E010E032201500E0FE96EC0
:100A3000000E0320EA6EEF8023D000010501796BE0
:100A400077C578F57B6B210E7A6F000151DC015080
:100A5000020F0501786F000E0220796F010E7825D4
:100A6000016E000E7921036E01503E0F016E010EE2
:100A7000032201500E0FE96E000E0320EA6EEF9084
:100A8000796B77C578F57B6B210E7A6F000130DCCE
:100A90000150020F0501786F000E0220796F010EE0
:100AA0007825016E000E7921036E01503E0F016E14
:100AB000010E032201C078F503C079F503C07BF570
:100AC00001C07AF500015FD452D151D10501796B93
:100AD00077C578F57B6B210E7A6F000109DC015038
:100AE000020F0501786F000E0220796F010E782544
:100AF000016E000E7921036E01503E0F016E010E52
:100B0000032201500C0FE96E000E0320EA6EEFCFB6
:100B10007AF57AC57BF5010E7C6F0F0E7E6F920E13
:100B20007D6F000189EC01F07AC57BF50F0E0501A0
:100B30007D6F800E7C6F00010DDC01A025D00501CA
:100B4000796B77C578F57B6B210E7A6F000178ECB5
:100B500001F00150020F0501786F000E0220796F3D
:100B6000010E7825016E000E7921036E01503E0FB3
:100B7000016E010E03220150060FE96E000E0320E4
:100B8000EA6EEF8024D000010501796B77C578F516
:100B90007B6B210E7A6F000178EC01F00150020F9F
:100BA0000501786F000E0220796F010E7825016E25
:100BB000000E7921036E01503E0F016E010E0322DB
:100BC0000150060FE96E000E0320EA6EEF90796B7C
:100BD00077C578F57B6B210E7A6F000178EC01F018
:100BE0000150020F0501786F000E0220796F010E8F
:100BF0007825016E000E7921036E01503E0F016EC3
:100C0000010E032201C078F503C079F503C07BF51E
:100C100001C07AF500018AD5AAD00501796B77C5A4
:100C200078F57B6B210E7A6F000178EC01F00150B2
:100C3000020F0501786F000E0220796F010E7825F2
:100C4000016E000E7921036E01503E0F016E010E00
:100C500003220150090FE96E000E0320EA6EEFCF68
:100C60007AF57AC57BF5010E7C6F0F0E7E6F920EC2
:100C70007D6F000189EC01F07AC57BF50F0E05014F
:100C80007D6F800E7C6F0001AAEC01F001A025D0E1
:100C90000501796B77C578F57B6B210E7A6F0001C2
:100CA00078EC01F00150020F0501786F000E022070
:100CB000796F010E7825016E000E7921036E0150C7
:100CC0003E0F016E010E03220150060FE96E000E69
:100CD0000320EA6EEF8024D000010501796B77C50F
:100CE00078F57B6B210E7A6F000178EC01F00150F2
:100CF000020F0501786F000E0220796F010E782532
:100D0000016E000E7921036E01503E0F016E010E3F
:100D100003220150060FE96E000E0320EA6EEF90E9
:100D2000796B77C578F57B6B210E7A6F000178ECD3
:100D300001F00150020F0501786F000E0220796F5B
:100D4000010E7825016E000E7921036E01503E0FD1
:100D5000016E010E032201C078F503C079F503C0CE
:100D60007BF501C07AF5000171D501D000D00501F5
:100D7000772BE3D50001CAEF06F0010E05011F270E
:100D8000D8B0202BD8B4212BD8B4222B1FA303D04A
:100D90000001D1D50501F29400018EEF00F0B58B72
:100DA0009E908EEF00F00501282B2851C8080CE119
:100DB000286B010E2426D8B0252AD8B4262AD8B408
:100DC000272A0001B58905019E9200018EEF00F0EF
:100DD00066C478F565C477F5050178C582FF77C5E7
:100DE00083FF0001B5A511D0B595B5A708D0B5977B
:100DF000040E0401626F770E616F07D00001B587A2
:100E0000040E0401626FBB0E616F0401636B050188
:100E1000796B7A6BD8907935006ED8900036005097
:100E20000401612505017D6F000E040162210501A9
:100E30007E6FD8907A357D257B6F000E7E217C6F8A
:100E4000D8907935006ED8900036005004016125A5
:100E500005017D6F000E0401622105017E6FD890AF
:100E60007A357D25016E000E7E21036E01C0E9FFFB
:100E7000EA6EEFCF01F0E92AEF50E906026E02C0F8
:100E80007AF501C079F5D8900134026E7A35036E97
:100E900002500001D3EC00F00900F5CF03F0BE6E64
:100EA00003C0BFFF100E0501796F7A6BD8907935BA
:100EB000006ED890003600500401612505017D6F59
:100EC000000E0401622105017E6FD8907A357D25E0
:100ED0007B6F000E7E217C6FD8907935006ED890A4
:100EE000003600500401612505017D6F000E0401EC
:100EF000622105017E6FD8907A357D25016E000E46
:100F00007E21036E01C0E9FFEA6EEFCF01F0E92A0E
:100F1000EF50E906026E01C064F4CF6ACE6A0001A8
:100F2000B59BF2928EEF00F004016453D8B492D0D6
:100F300063C479F5010E05017A6FD8907935006E9A
:100F4000D890003600500401612505017D6F000E28
:100F50000401622105017E6FD8907A357D257B6F73
:100F6000000E7E217C6FD8907935006ED8900036C7
:100F700000500401612505017D6F000E040162210E
:100F800005017E6FD8907A357D25016E000E7E2199
:100F9000036E01C0E9FFEA6EEFCF01F0E92AEF50DE
:100FA000E906026E02C078F501C077F57851821625
:100FB000775183160401632B640763C479F5050137
:100FC0007A6BD8907935006ED890003600500401C5
:100FD000612505017D6F000E0401622105017E6F10
:100FE000D8907A357D257B6F000E7E217C6FD8905E
:100FF0007935006ED8900036005004016125050156
:101000007D6F000E0401622105017E6FD8907A3554
:101010007D25016E000E7E21036E01C0E9FFEA6EA0
:10102000EFCF01F0E92AEF50E906026E02C07AF52F
:1010300001C079F5D8900134026E7A35036E025002
:101040000001D3EC00F00900F5CF03F0BE6E03C041
:10105000BFFF04019E9400018EEF00F09E9A8EEF78
:1010600000F09E988EEF00F0A1968EEF00F0A19E0A
:101070008EEF00F00501996B986B976B966B94C59A
:101080009BF593C59AF59553D8B493D09BC503F0BF
:101090009AC5E9FF9BC5EAFFEFCF00F0016A026A3B
:1010A000036A03C099F502C098F501C097F500C026
:1010B00096F59A51D8B49B079A079AC5E9FF9BC544
:1010C000EAFFEF509E6B9D6B9C6F006A0050961379
:1010D0009C5197139D5198139E5199139A51D8B4CE
:1010E0009B079A079AC5E9FF9BC5EAFFEF509F6BE4
:1010F0009E6B9D6B9C6F030E9C179D6B9E6B9F6BF5
:10110000006A016A00509613015097139C5198137E
:101110009D5199139AC5E9FF9BC5EAFFEF509F6B5C
:101120009E6B9D6B9C6FE00E9C179D6B9E6B9F6BE7
:10113000006A9C35016E9D35026E9E35036E013648
:1011400002360336013602360336013602360336DE
:10115000013602360336E00E011600509613015098
:10116000971302509813035099139A51D8B49B07C0
:101170009A079AC5E9FF9BC5EAFFEF509D6B9C6FEC
:10118000006A016A9C35026E9D35036E0236033695
:10119000023603360236033602360336E00E0216F6
:1011A000005096130150971302509813035099134F
:1011B00053D0020E9A5F000E9B5B9AC5E9FF9BC558
:1011C000EAFFEF509F6B9E6B9D6B9C6FE00E9C1730
:1011D0009D6B9E6B9F6B9F31996F9E31986F9D3178
:1011E000976F9C31966F9933983397339633993331
:1011F000983397339633993398339733963399339B
:10120000983397339633070E99179A51D8B49B07A2
:101210009A079AC5E9FF9BC5EAFFEF509F6B9E6B4B
:101220009D6B9C6F9C35006E9D35016E9E35026EE8
:101230009F35036E0036013602360336003601361E
:1012400002360336F80E001600509613015097131D
:10125000025098130350991396C500F097C501F0FA
:1012600098C502F099C503F00001000C2850FF0852
:1012700001E1282A28500908D8A044D1050E05010B
:10128000886F7D0E876F60AE17D0F10E6F146F6E92
:101290007C99A4907C9174BE7C81749E60A40BD0D8
:1012A000000E60B0010E070B006ED8900036F10EF4
:1012B0007C1500107C6F20D00F0150AF19D0F10EBB
:1012C0006F140A096F6E05017C89A4927C9174BC2D
:1012D0007C81749C0F015051070B070B006ED89056
:1012E0000036F10E05017C1500107C6F05D00F0152
:1012F000000E016E4CD0050165500F0B7B6F7C9B7F
:1013000065BC7C8B7C9D62B67C8D000E7CBD010E25
:101310008C6F0F0E946F640E936F8CC595F5000162
:10132000A9DE03C07AF502C079F501C078F500C0E6
:1013300077F50F0E05018B6F660E8A6F896B7B51F7
:10134000895D14E28AC5E9FF8BC5EAFFEFCF8EF510
:1013500088C5EAFF87C5E9FF8EC5EFFF872BD8B4A4
:10136000882B8A2BD8B48B2B892BE9D7F10E6F14DD
:101370006F6E7C9FA4BE7C8FA49E7CA904D00F01BD
:10138000509F03D00501609E0F01010E016E050103
:10139000866B865320E18651040DF350036A390FA2
:1013A000E96E010E0320EA6EEFCF00F0ECCF01F002
:1013B000ECCF02F0ECCF03F00050775D0AE1015072
:1013C000785D07E10250795D04E103507A5D01E147
:1013D00023D1862BDED728500E0DF350886B876FF4
:1013E000290E8725E96E000E8821EA6E7AC5EFFF87
:1013F00028500E0DF350886B876F010E8725016E04
:10140000000E8821036E0150290FE96E000E0320A3
:10141000EA6E79C5EFFF28500E0DF350886B876F89
:10142000020E8725016E000E8821036E0150290FE0
:10143000E96E000E0320EA6E78C5EFFF28500E0D0E
:10144000F350886B876F030E8725016E000E88218D
:10145000036E0150290FE96E000E0320EA6E77C576
:10146000EFFF28500E0DF350886B876F040E872511
:10147000016E000E8821036E0150290FE96E000EE7
:101480000320EA6E7BC5EFFF28500E0DF350886BEA
:10149000876F050E8725016E000E8821036E0150AF
:1014A000290FE96E000E0320EA6E7CC5EFFF856B05
:1014B0007B51855D24E228500E0DF350886B876FB9
:1014C000060E8525036A8725016E88510322015087
:1014D000290F016E000E032203C088F5036A8551AF
:1014E0007D0FE96E050E0320EA6EEFCF89F588C502
:1014F000EAFF01C0E9FF89C5EFFF852BD9D7282A6C
:101500008BD00001050E0501886F7D0E876F60AEE0
:1015100017D0F10E6F146F6E7C99A4907C9174BEFD
:101520007C81749E60A40BD0000E60B0010E070B8E
:10153000006ED8900036F10E7C1500107C6F20D024
:101540000F0150AF19D0F10E6F140A096F6E05012B
:101550007C89A4927C9174BC7C81749C0F01505155
:10156000070B070B006ED8900036F10E05017C15B5
:1015700000107C6F05D00F01000E016E4CD00501EC
:1015800065500F0B7B6F7C9B65BC7C8B7C9D62B632
:101590007C8D000E7CBD010E8C6F0F0E946F640E5F
:1015A000936F8CC595F5000165DD03C07AF502C027
:1015B00079F501C078F500C077F50F0E05018B6F46
:1015C000660E8A6F896B7B51895D14E28AC5E9FFDB
:1015D0008BC5EAFFEFCF8EF588C5EAFF87C5E9FF27
:1015E0008EC5EFFF872BD8B4882B8A2BD8B48B2BD2
:1015F000892BE9D7F10E6F146F6E7C9FA4BE7C8F90
:10160000A49E7CA904D00F01509F03D00501609EC9
:101610000F01010E016E05010001000C27DEA490F0
:101620008EEF00F023DEA4928EEF00F098C59FF5B8
:1016300097C59EF505019D5352E09EC5E9FF9FC5E4
:10164000EAFF99C5EFFF9E51D8B49F079E079EC53C
:10165000E9FF9FC5EAFF9AC5EFFF9E51D8B49F07E7
:101660009E079EC5E9FF9FC5EAFF9B51030BEF6EE6
:101670009EC5E9FF9FC5EAFF9BC500F00036003616
:101680000036F80E00160050E00BEF10EF6E9EC50E
:10169000E9FF9FC5EAFFEF500809EF6E9E51D8B4ED
:1016A0009F079E079EC5E9FF9FC5EAFF9BC500F007
:1016B000003A0032070E00160050070BEF6E9EC571
:1016C000E9FF9FC5EAFF9CC500F0003600360036F2
:1016D000F80E00160050F80BEF10EF6E3FD09EC5CD
:1016E000E9FF9FC5EAFFEF6A9E51D8B49F079E07A6
:1016F0009EC5E9FF9FC5EAFFEF6A9E51D8B49F07D8
:101700009E079EC5E9FF9FC5EAFF99C500F0003A14
:101710000036E00E00160050E00BEF6E9E51D8B47C
:101720009F079E079EC5E9FF9FC5EAFF99C500F088
:101730000032003200321F0E001600501F0BEF6EF9
:101740009EC5E9FF9FC5EAFF9AC500F0003A003642
:10175000E00E00160050E00BEF10EF6E0001000CE1
:101760000F0E0501956F660E946F0F0140B708D0FC
:10177000F10E6F1408096F6E0501966B1BD00F01F7
:1017800030B709D0F10E6F1406096F6E010E050116
:10179000966F10D00F0120B709D0F10E6F14040915
:1017A0006F6E020E0501966F05D00F01000E016EDF
:1017B0003DD005019051030B006EFC0E601400102B
:1017C000606E0F0E986F640E976F8CC59CF58BC57D
:1017D0009BF58AC59AF589C599F591C59DF50001D6
:1017E00025DF8FC565FF659C050192B1658C936B04
:1017F0008F51935D14E28DC5E9FF8EC5EAFFEFCFEF
:1018000099F595C5EAFF94C5E9FF99C5EFFF942BBB
:10181000D8B4952B8D2BD8B48E2B932BE9D760861B
:10182000F10E6F146F6E010E016E0F01000122EFB9
:101830000DF0B6510A0801E1B607B651FF08D8B459
:1018400003D1B6510D0DF3500501886B876FB70EAC
:101850008725E96E000E8821EA6EEFCF87F500013B
:10186000B6510D0DF3500501896B886F010E882567
:10187000016E000E8921036E0150B70FE96E000E54
:101880000320EA6EEFCF88F50001B6510D0DF3503D
:1018900005018A6B896F020E8925016E000E8A216F
:1018A000036E0150B70FE96E000E0320EA6EEFCF12
:1018B00089F50001B6510D0DF35005018B6B8A6F50
:1018C000030E8A25016E000E8B21036E0150B70FA7
:1018D000E96E000E0320EA6EEFCF8AF587C57AF530
:1018E00088C579F589C578F58AC577F50001B651BF
:1018F0000D0DF3500501886B876F0C0E8725016E67
:10190000000E8821036E0150B70FE96E000E032010
:10191000EA6EEF387B6F0F0E7B170001B6510D0D8D
:10192000F3500501886B876F0C0E8725016E000E42
:101930008821036E0150B70FE96E000E0320EA6E96
:10194000EF500C0B006E00307C6F7C333F0E7C1729
:101950000001B6510D0DF3500501886B876F0C0E19
:101960008725016E000E8821036E0150B70FE96EC6
:10197000000E0320EA6EEFCF87F5859187B385814E
:101980000001B6510D0DF3500501886B876F0C0EE9
:101990008725016E000E8821036E0150B70FE96E96
:1019A000000E0320EA6EEFCF87F5859387B185831C
:1019B000866B7B51865D28E2036A86517D0F016E3E
:1019C000050E032201C087F503C088F50001B6515A
:1019D0000D0DF35005018A6B896F040E8625036A8D
:1019E0008925016E8A5103220150B70FE96E000E5E
:1019F0000320EA6EEFCF89F588C5EAFF87C5E9FFC6
:101A000089C5EFFF862BD5D7000E85B1010E876FF4
:101A1000000E85B3010E886F7AC58CF579C58BF5FC
:101A200078C58AF577C589F5050E8E6F7D0E8D6FA9
:101A30007BC58FF57CC590F587C591F588C592F576
:101A400000018ED6B60701D000D0000CF2DEA494BF
:101A50008EEF00F0EEDEA4968EEF00F0EADEA498A2
:101A60008EEF00F0A49E8EEF00F0A49A8EEF00F0AF
:101A700073746172740A0D0005012939700B006ED0
:101A8000D89000361F0E6F1400106F6E6ECF00F0EE
:101A9000003A0030070B295DF9E10001000CC00E8F
:101AA00070140409706E3F0E7014706EF80E71148D
:101AB0000209716EC70E71142809716E719C718EC6
:101AC000F80E72140509726E729C6DEF0DF0040E23
:101AD0000501296F0001D0DFE2D7606A9F0E601414
:101AE000606E608460CF50FF739A7398739E739C8E
:101AF0001B6AF2BE1B8EF29E0F0E0501986F1B0E25
:101B0000976F9C6B9B6B9A6B996B9D6B00018EDD45
:101B10001BBEF28E1B6AF2BE1B8EF29E0F0E0501DB
:101B2000986F030E976F9C6B9B6B9A6B996B9D6B79
:101B300000017CDD1BBEF28E1B6AF2BE1B8EF29E84
:101B40000F0E0501986F070E976F9C6B9B6B9A6B3E
:101B5000996B9D6B00016ADD1BBEF28E1B6AF2BEA3
:101B60001B8EF29E0F0E0501986F1F0E976F9C6BD8
:101B70009B6B9A6B996B9D6B000158DD1BBEF28EBF
:101B80001B6AF2BE1B8EF29E0F0E0501986F0B0EA4
:101B9000976F9C6B9B6B9A6B996B9D6B000146DDFD
:101BA0001BBEF28E1B6AF2BE1B8EF29E0F0E05014B
:101BB000986F976F9C6B9B6B9A6B996B9D6B0001F9
:101BC00035DD1BBEF28E1B6AF2BE1B8EF29E0F0E1F
:101BD0000501986F130E976F9C6B9B6B9A6B996BBB
:101BE0009D6B000123DD1BBEF28E1B6AF2BE1B8EB5
:101BF000F29E0F0E0501986F170E976F9C6B9B6BF3
:101C00009A6B996B9D6B000111DD1BBEF28E935098
:101C1000FB0B08090501936E296B00012DDF12EF04
:101C20000EF055D7040E0501296F000125DFC00E07
:101C300070140409706E3F0E7014706EF80E7114FB
:101C40000209716EC70E71142809716E719C719E24
:101C5000F80E72140509726E728C0501296B000171
:101C60000BDF810ED56E950ECD6E600E0609CA6E25
:101C7000F10ECB6E0A0EBD6EF18CC150C00B0F0978
:101C8000C16EC050C00BC06EC09EC2809698C69AEE
:101C9000010EC66E000EC76E070EB46E9550956E9F
:101CA0009650966E0400200E006E002EFED700D0D7
:101CB000B450A19CB56AB16AE0EF34F005013CC5AF
:101CC000E9FF3DC5EAFFEF6A010E3C25016E000EFB
:101CD0003D2101C0E9FFEA6E39C5EFFF010E3C2549
:101CE000016E000E3D21036E0150030FE96E000EE0
:101CF0000320EA6E3AC5EFFF010E3C25016E000E8F
:101D00003D21036E0150060FE96E000E0320EA6EBE
:101D10003BC5EFFF010E3C25016E000E3D21036E19
:101D200001500E0FE96E000E0320EA6EEF82010EE5
:101D30003C25016E000E3D21036E01500F0FE96E30
:101D4000000E0320EA6E010EEF6E3C25016E000EC0
:101D50003D21036E0150090FE96E000E0320EA6E6B
:101D6000EF6A010E3C25016E000E3D21036E01500D
:101D70000E0FE96E000E0320EA6EEF94010E3C2573
:101D8000016E000E3D21036E0150020FE96E000E40
:101D90000320EA6EEF90010E3C25016E000E3D21FE
:101DA000036E0150050FE96E000E0320EA6EEF90FE
:101DB000010E3C25016E000E3D21036E0150080FFF
:101DC000E96E000E0320EA6EEF80010E3C25016EE5
:101DD000000E3D21036E0150010FE96E000E03203D
:101DE000EA6EEF6A010E3C25016E000E3D21036E86
:101DF0000150040FE96E000E0320EA6EEF6A010E37
:101E00003C25016E000E3D21036E0150070FE96E67
:101E1000000E0320EA6E010EEF6E3C25016E000EEF
:101E20003D21036E0150100F016E000E032203C00E
:101E300042F5036A3E511C0FE96E000E0320EA6E64
:101E4000EFCF43F542C5EAFF01C0E9FF43C5EFFF0D
:101E5000010E3C25016E000E3D21036E01500A0F5C
:101E6000E96E000E0320EA6EEE52EE52EC6AED527D
:101E7000EF6AED52EF6AED52EF6A000163EF0FF087
:101E8000010E01013E6F020E0501296FFF0E2A6F40
:101E90002B6F2C6F2D6F2E6F2F6F306F316F326F56
:101EA000336F346F356F366F376F386F010E396FA0
:101EB000020E3A6F030E3B6F010E3D6F400E3C6FFA
:101EC0003E6B0001FBD6E2EF34F00501636B62511B
:101ED000635D19E2036A63516025016E615103225B
:101EE00003C065F55EC5E9FF5FC5EAFFEFCF66F5A4
:101EF00065C5EAFF01C0E9FF66C5EFFF5E2BD8B4F8
:101F00005F2B632BE4D70001000C050157C5E9FFE7
:101F100058C5EAFF010EEF6E5725016E000E5821DD
:101F2000036E01501D0FE96E000E0320EA6EEF9064
:101F3000010E5725016E000E5821036E0150090F46
:101F4000E96E000E0320EA6EEF90010E5725016E38
:101F5000000E5821036E0150130FE96E000E03208E
:101F6000EA6EEF90010E5725016E000E5821036EA8
:101F700001501C0FE96E000E0320EA6E7F0EEF6E1B
:101F8000010E5725016E000E5821036E0150080FF7
:101F9000E96E000E0320EA6EEF6A010E5725016E0E
:101FA000000E5821036E0150120FE96E000E03203F
:101FB000EA6EEF6A010E5725016E000E5821036E7E
:101FC00001501F0FE96E000E0320EA6E59C5EFFFA6
:101FD000010E5725016E000E5821036E0150140F9B
:101FE000016E000E032201C05CF503C05DF552C511
:101FF0005FF551C55EF503C061F501C060F5080EDF
:10200000626F000162DF010E05015725016E000EAF
:102010005821036E01C05CF55D6F54C55FF553C573
:102020005EF5616F01C060F5080E626F00014DDF63
:10203000010E05015725016E000E5821036E015057
:102040000A0F016E000E032201C05CF503C05DF5AE
:1020500056C55FF555C55EF503C061F501C060F575
:10206000080E626F000131DF010E05015725016E78
:10207000000E5821036E01501E0FE96E000E032062
:10208000EA6E010EEF6E000194EF10F0010E0101F7
:102090003F6F0501296F150E2A6F1F0E2B6FFF0E64
:1020A0002C6F2D6F2E6F2F6F306F030E316F330E2D
:1020B000326F3D0E336FFF0E346F356F366F376FF3
:1020C000386F020E396F510E3A6F5B0E3B6FFF0E89
:1020D0003C6F3D6F3E6F3F6F406F040E416F510E7E
:1020E000426F5B0E436FFF0E446F456F466F476F45
:1020F000486F496F4A6F4B6F4C6F4D6F4E6F4F6F0C
:10210000506F050E526F290E516F050E546F390E28
:10211000536F050E566F310E556F020E586F8A0EB3
:10212000576F596B0001F1D6E4EF34F005016B6B8A
:102130006C816D6B0401605105016D5D47E26D516D
:10214000040DF350726B716F2B0E7125016E050E2D
:102150007221036E726F036A6D51670FE96E040E90
:102160000320EA6EEF50036A72C5EAFF01C0E9FF7F
:1021700003C0ECFFED52EF6E6D51040DF350726B26
:10218000716F020E7125016E000E7221036E0150F7
:102190002B0F016E050E032203C072F5D8906D352A
:1021A000036AFF0FE96E040E0320EA6EECCF03F022
:1021B000ED52EFCF73F572C5EAFF01C0E9FF03C02E
:1021C000ECFFED5273C5EFFF6D2BB4D76CA1E3D0DC
:1021D0006C916D6B010E0401605D05016D5DD8B001
:1021E000D9D06D51040DF350726B716F2B0E7125A8
:1021F000E96E050E7221EA6EECCF72F5ED52EFCF6B
:1022000071F5010E6D25040DF350746B736F2B0E79
:102210007325E96E050E7421EA6EECCF03F0ED52E2
:10222000EFCF01F07251035CD8A0B2D004E10150AD
:10223000715DD8B0ADD06C816D51040DF350726BEF
:10224000716F2B0E7125E96E050E7221EA6EECCFCF
:1022500003F0ED52EFCF6EF503C06FF56D51040D35
:10226000F350726B716F2B0E7125016E050E72218A
:10227000036E726F010E6D25040DF350746B736F56
:102280002B0E7325E96E050E7421EA6EECCF03F078
:10229000ED52EFCF73F572C5EAFF01C0E9FF03C04D
:1022A000ECFFED5273C5EFFF010E6D25040DF350E9
:1022B000726B716F2B0E7125E96E050E7221EA6E3D
:1022C0006FC5ECFFED526EC5EFFF6D51040DF3507D
:1022D000726B716F020E7125016E000E7221036E1A
:1022E00001502B0FE96E050E0320EA6EECCF03F0D0
:1022F000ED52EFCF6EF503C06FF56D51040DF35045
:10230000726B716F020E7125016E000E7221036EE9
:1023100001502B0F016E050E032201C071F503C0A1
:1023200072F5010E6D25040DF350746B736F020E80
:102330007325016E000E7421036E01502B0FE96EA0
:10234000050E0320EA6EECCF03F0ED52EFCF73F5EC
:1023500072C5EAFF71C5E9FF03C0ECFFED5273C51A
:10236000EFFF010E6D25040DF350726B716F020EBD
:102370007125016E000E7221036E01502B0FE96E64
:10238000050E0320EA6E6FC5ECFFED526EC5EFFF40
:102390006D2B20D71BD72B5304E12C5302E16B6B21
:1023A000D0D1010E6B6F706B0001B5A709D02CC5A1
:1023B00078F42BC577F42EC57AF42DC579F408D0BE
:1023C0002CC5BCF42BC5BBF42EC5BEF42DC5BDF485
:1023D000010E05016D6F0401605105016D5DD8B0FE
:1023E000B0D16D51040DF350726B716F2B0E7125CE
:1023F000E96E050E7221EA6EECCF72F5ED52EFCF69
:1024000071F5010E6D5D040DF350746B736F2B0E3F
:102410007325E96E050E7421EA6EECCF03F0ED52E0
:10242000EF50715D03E10350725D02E0000E01D0D8
:10243000010E716F6D51040DF350736B726F2B0EA3
:102440007225E96E050E7321EA6EEF5202E1EC523D
:1024500002E0000E01D0010E000A02E0000E01D0E1
:10246000010E7115D8B49DD00001B5A74DD005015E
:102470007051040DF350726B716F020E7125016E75
:10248000000E7221036E0150770F016E040E0322BD
:1024900001C071F503C072F57051040DF350746BF7
:1024A000736F020E7325016E000E7421036E0150CE
:1024B000770FE96E040E0320EA6EECCF74F5ED524F
:1024C000EFCF73F56D51040DF350766B756F020EFF
:1024D0007525016E000E7621036E01502B0FE96EFB
:1024E000050E0320EA6EECCF03F0ED52EF507315AA
:1024F000006E0350741572C5EAFF71C5E9FFEC6EFA
:10250000ED5200C0EFFF4CD005017051040DF350A7
:10251000726B716F020E7125016E000E7221036ED7
:102520000150BB0F016E040E032201C071F503C000
:1025300072F57051040DF350746B736F020E7325B6
:10254000016E000E7421036E0150BB0FE96E040E84
:102550000320EA6EECCF74F5ED52EFCF73F56D51B9
:10256000040DF350766B756F020E7525016E000E2B
:102570007621036E01502B0FE96E050E0320EA6EE3
:10258000ECCF03F0ED52EF507315006E035074154D
:1025900072C5EAFF71C5E9FFEC6EED5200C0EFFFB6
:1025A000CED06D51040DF350726B716F2B0E7125EF
:1025B000E96E050E7221EA6EEF5202E1EC5202E082
:1025C000000E01D0010E000AD8A4B9D0702B000172
:1025D000B5A75BD005017051040DF350726B716F9C
:1025E000770E7125016E040E7221036E726F6D51AC
:1025F000040DF350746B736F2B0E7325E96E050E8B
:102600007421EA6EECCF03F0ED52EFCF73F572C593
:10261000EAFF01C0E9FF03C0ECFFED5273C5EFFF15
:102620007051040DF350726B716F020E7125016EC3
:10263000000E7221036E0150770F016E040E03220B
:1026400001C071F503C072F56D51040DF350746B48
:10265000736F020E7325016E000E7421036E01501C
:102660002B0FE96E050E0320EA6EECCF03F0ED525E
:10267000EFCF73F572C5EAFF71C5E9FF03C0ECFF48
:10268000ED5273C5EFFF5AD0000105017051040DE2
:10269000F350726B716FBB0E7125016E040E7221C7
:1026A000036E726F6D51040DF350746B736F2B0ECC
:1026B0007325E96E050E7421EA6EECCF03F0ED523E
:1026C000EFCF73F572C5EAFF01C0E9FF03C0ECFF6D
:1026D000ED5273C5EFFF7051040DF350726B716FC3
:1026E000020E7125016E000E7221036E0150BB0FA8
:1026F000016E040E032201C071F503C072F56D5125
:10270000040DF350746B736F020E7325016E000E8F
:102710007421036E01502B0FE96E050E0320EA6E43
:10272000ECCF03F0ED52EFCF73F572C5EAFF71C540
:10273000E9FF03C0ECFFED5273C5EFFF6B2B6D2B70
:102740004AD60001B5A705D00401B86B6BC5B7F434
:1027500004D00401FC6B6BC5FBF40001B585000CD3
:102760000401B86BB76BFC6BFB6BFF0E826E836E64
:10277000946A956A0501296B01013F510501295DA4
:10278000D8B094D01B6AF2BE1B8EF29E796B29C51D
:1027900078F57B6B2F0E7A6F000178EC01F01BBE91
:1027A000F28E02C003F001508A0F016E020E032266
:1027B00001C0E9FF03C0EAFFEF50010A01E073D056
:1027C000D89004016035036AFF0F016E040E0322E6
:1027D00001C02AF5050103C02BF51B6AF2BE1B8E52
:1027E000F29E796B29C578F57B6B2F0E7A6F00010D
:1027F00078EC01F01BBEF28E01504C0F05012C6FDE
:10280000010E02202D6F010E2C25016E000E2D21D0
:10281000036E01503E0F016E010E032201501F0F87
:10282000E96E000E0320EA6ED890EF34036A0001CF
:10283000B9EC00F00900F5CF03F005012BC5EAFF64
:102840002AC5E9FF03C0ECFFED52EF6E1B6AF2BE32
:102850001B8EF29E796B29C578F57B6B2F0E7A6FF4
:10286000000178EC01F01BBEF28E01504C0F050107
:102870002A6F010E02202B6F010E2A25016E000E19
:102880002B21036E01503E0F016E010E03220150F9
:10289000200FE96E000E0320EA6E60C4EFFF040112
:1028A000602B000100D00501292B66D7040160537D
:1028B00012E00001B597040E0401626F770E616F9C
:1028C000000134DC040E0401626FBB0E616F000175
:1028D000B5872CDC04010001E6EF34F0939A8A9A64
:1028E000080E016E00D00000018E10D0019E05017F
:1028F0002E330001D8B08A8AD8A08A9A018C06D0DB
:10290000019C012EF4D700D000008A8A160EE96ED1
:10291000E92EFED700D0040001BEE8D701BCF0D7F5
:102920009EEF14F00900F55210E0F6CF2BF5F7CF2B
:102930002CF5F8CF2DF5F5CF2EF5D0D72BC5F6FF1A
:102940002CC5F7FF2DC5F8FFEDD7000C05012A9126
:10295000296B01013F510501295DD8B058EF1EF0E8
:102960001B6AF2BE1B8EF29E796B29C578F57B6BD4
:102970002F0E7A6F000178EC01F01BBEF28E02C0C0
:1029800003F001508A0F016E020E032201C0E9FF1D
:1029900003C0EAFFEF50010A09E0010AD8B4BCD233
:1029A000020AD8B4F4EF18F053EF1EF01B6AF2BE1F
:1029B0001B8EF29E0501796B29C578F57B6B2F0E76
:1029C0007A6F000178EC01F01BBEF28E01504C0FC3
:1029D00005012B6F010E02202C6F010E2B25016EBD
:1029E000000E2C21036E01503E0F016E010E0322DA
:1029F00001501D0FE96E000E0320EA6EEFA0B2D069
:102A00001B6AF2BE1B8EF29E796B29C578F57B6B33
:102A10002F0E7A6F000178EC01F01BBEF28E015090
:102A20004C0F05012B6F010E02202C6F010E2B2580
:102A3000016E000E2C21036E01503E0F016E010E3F
:102A4000032201501E0FE96E000E0320EA6EEF52C2
:102A500061E11B6AF2BE1B8EF29E796B29C578F587
:102A60007B6B2F0E7A6F000178EC01F01BBEF28EAB
:102A700001504C0F05012B6F010E02202C6F010E2F
:102A80002B25016E000E2C21036E01503E0F016EAE
:102A9000010E03220150200FE96E000E0320EA6EA2
:102AA000036AEF50670F016E040E032201C02DF57B
:102AB00003C02EF51B6AF2BE1B8EF29E796B29C5F0
:102AC00078F57B6B2F0E7A6F000178EC01F01BBE5E
:102AD000F28E01504C0F05012F6F010E0220306F56
:102AE000010E2F25016E000E3021036E01503E0FA6
:102AF000016E010E032201501C0FE96E000E03202F
:102B0000EA6EEFCF31F52EC5EAFF2DC5E9FF31C5DD
:102B1000EFFF2A811B6AF2BE1B8EF29E796B29C5DC
:102B200078F57B6B2F0E7A6F000178EC01F01BBEFD
:102B3000F28E01504C0F05012B6F010E02202C6FFD
:102B4000010E2B25016E000E2C21036E01503E0F4D
:102B5000016E010E032201501D0FE96E000E0320CD
:102B6000EA6EEF901B6AF2BE1B8EF29E796B29C54E
:102B700078F57B6B2F0E7A6F000178EC01F01BBEAD
:102B8000F28E01504C0F05012B6F010E02202C6FAD
:102B9000010E2B25016E000E2C21036E01503E0FFD
:102BA000016E010E03220150130FE96E000E032087
:102BB000EA6EEFA0AAD01B6AF2BE1B8EF29E796B62
:102BC00029C578F57B6B2F0E7A6F000178EC01F048
:102BD0001BBEF28E01504C0F05012B6F010E02201F
:102BE0002C6F010E2B25016E000E2C21036E01505F
:102BF0003E0F016E010E03220150120FE96E000E0E
:102C00000320EA6EEF5259E01B6AF2BE1B8EF29E61
:102C1000796B29C578F57B6B2F0E7A6F000178EC04
:102C200001F01BBEF28E01504C0F05012B6F010EFF
:102C300002202C6F010E2B25016E000E2C21036E3D
:102C400001503E0F016E010E032201501E0FE96E6E
:102C5000000E0320EA6E010EEF6E1B6AF2BE1B8EA1
:102C6000F29E796B29C578F57B6B2F0E7A6F000188
:102C700078EC01F01BBEF28E01504C0F05012B6F5A
:102C8000010E02202C6F010E2B25016E000E2C214F
:102C9000036E01503E0F016E010E03220150200F02
:102CA000E96E000E0320EA6E036AEF50670FE96ECB
:102CB000040E0320EA6EEF6A2A811B6AF2BE1B8EA5
:102CC000F29E796B29C578F57B6B2F0E7A6F000128
:102CD00078EC01F01BBEF28E01504C0F05012B6FFA
:102CE000010E02202C6F010E2B25016E000E2C21EF
:102CF000036E01503E0F016E010E03220150130FAF
:102D0000E96E000E0320EA6EEF901B6AF2BE1B8E86
:102D1000F29E796B29C578F57B6B2F0E7A6F0001D7
:102D200078EC01F01BBEF28E01504C0F05012B6FA9
:102D3000010E02202C6F010E2B25016E000E2C219E
:102D4000036E01503E0F016E010E03220150090F68
:102D5000E96E000E0320EA6EEFA0DBD01B6AF2BE24
:102D60001B8EF29E796B29C578F57B6B2F0E7A6FDF
:102D7000000178EC01F01BBEF28E01504C0F0501F2
:102D80002B6F010E02202C6F010E2B25016E000E01
:102D90002C21036E01503E0F016E010E03220150E3
:102DA000080FE96E000E0320EA6EEF52D8B489D006
:102DB0001B6AF2BE1B8EF29E796B29C578F57B6B80
:102DC0002F0E7A6F000178EC01F01BBEF28E0150DD
:102DD0004C0F05012B6F010E02202C6F010E2B25CD
:102DE000016E000E2C21036E01503E0F016E010E8C
:102DF000032201501E0FE96E000E0320EA6EEF6AF7
:102E00001B6AF2BE1B8EF29E796B29C578F57B6B2F
:102E10002F0E7A6F000178EC01F01BBEF28E01508C
:102E20004C0F05012B6F010E02202C6F010E2B257C
:102E3000016E000E2C21036E01503E0F016E010E3B
:102E400003220150200FE96E000E0320EA6E036A90
:102E5000EF50670F016E040E032201C02DF503C071
:102E60002EF51B6AF2BE1B8EF29E796B29C578F592
:102E70007B6B2F0E7A6F000178EC01F01BBEF28E97
:102E800001504C0F05012F6F010E0220306F010E13
:102E90002F25016E000E3021036E01503E0F016E92
:102EA000010E032201501C0FE96E000E0320EA6E92
:102EB000EFCF31F52EC5EAFF2DC5E9FF31C5EFFF94
:102EC0002A811B6AF2BE1B8EF29E796B29C578F5AA
:102ED0007B6B2F0E7A6F000178EC01F01BBEF28E37
:102EE00001504C0F05012B6F010E02202C6F010EBB
:102EF0002B25016E000E2C21036E01503E0F016E3A
:102F0000010E03220150090FE96E000E0320EA6E44
:102F1000EF90000153EF1EF01B6AF2BE1B8EF29E73
:102F20000501796B29C578F57B6B2F0E7A6F00014F
:102F300078EC01F01BBEF28E01504C0F05012B6F97
:102F4000010E02202C6F010E2B25016E000E2C218C
:102F5000036E01503E0F016E010E03220150130F4C
:102F6000E96E000E0320EA6EEFA08CD01B6AF2BE61
:102F70001B8EF29E796B29C578F57B6B2F0E7A6FCD
:102F8000000178EC01F01BBEF28E01504C0F0501E0
:102F90002B6F010E02202C6F010E2B25016E000EEF
:102FA0002C21036E01503E0F016E010E03220150D1
:102FB000120FE96E000E0320EA6EEF523BE01B6A2F
:102FC000F2BE1B8EF29E796B29C578F57B6B2F0EB6
:102FD0007A6F000178EC01F01BBEF28E01504C0FAD
:102FE00005012B6F010E02202C6F010E2B25016EA7
:102FF000000E2C21036E01503E0F016E010E0322C4
:103000000150140FE96E000E0320EA6ED890EF34E1
:10301000036A0001B9EC00F00900F5CF03F0006A83
:103020000006001AFF0E031A005004016513035036
:10303000661305011B6AF2BE1B8EF29E796B29C5D1
:1030400078F57B6B2F0E7A6F000178EC01F01BBED8
:10305000F28E01504C0F05012B6F010E02202C6FD8
:10306000010E2B25016E000E2C21036E01503E0F28
:10307000016E010E03220150130FE96E000E0320B2
:10308000EA6EEF901B6AF2BE1B8EF29E796B29C529
:1030900078F57B6B2F0E7A6F000178EC01F01BBE88
:1030A000F28E01504C0F05012B6F010E02202C6F88
:1030B000010E2B25016E000E2C21036E01503E0FD8
:1030C000016E010E03220150090FE96E000E03206C
:1030D000EA6EEFA086D01B6AF2BE1B8EF29E796B61
:1030E00029C578F57B6B2F0E7A6F000178EC01F023
:1030F0001BBEF28E01504C0F05012B6F010E0220FA
:103100002C6F010E2B25016E000E2C21036E015039
:103110003E0F016E010E03220150080FE96E000EF2
:103120000320EA6EEF5235E01B6AF2BE1B8EF29E60
:10313000796B29C578F57B6B2F0E7A6F000178ECDF
:1031400001F01BBEF28E01504C0F05012B6F010EDA
:1031500002202C6F010E2B25016E000E2C21036E18
:1031600001503E0F016E010E03220150140FE96E53
:10317000000E0320EA6ED890EF34036A0001B9EC28
:1031800000F00900F5CF03F004016517035066173E
:1031900005011B6AF2BE1B8EF29E796B29C578F57C
:1031A0007B6B2F0E7A6F000178EC01F01BBEF28E64
:1031B00001504C0F05012B6F010E02202C6F010EE8
:1031C0002B25016E000E2C21036E01503E0F016E67
:1031D000010E03220150090FE96E000E0320EA6E72
:1031E000EF90000153EF1EF01B6AF2BE1B8EF29EA1
:1031F0000501796B29C578F57B6B2F0E7A6F00017D
:1032000078EC01F01BBEF28E01504C0F05012B6FC4
:10321000010E02202C6F010E2B25016E000E2C21B9
:10322000036E01503E0F016E010E03220150090F83
:10323000E96E000E0320EA6EEFA035D11B6AF2BEE4
:103240001B8EF29E796B29C578F57B6B2F0E7A6FFA
:10325000000178EC01F01BBEF28E01504C0F05010D
:103260002D6F010E02202E6F010E2D25016E000E16
:103270002E21036E01503E0F016E010E03220150FC
:103280002D0FE96E000E0320EA6EEF5004082AE0CD
:103290001B6AF2BE1B8EF29E796B29C578F57B6B9B
:1032A0002F0E7A6F000178EC01F01BBEF28E0150F8
:1032B0004C0F05012F6F010E0220306F010E2F25DC
:1032C000016E000E3021036E01503E0F016E010EA3
:1032D000032201502D0FE96E000E0320EA6EEF521B
:1032E000D8A4E1D0BA0EF66E020EF76E000EF86E9C
:1032F000000192EC14F01B6AF2BE1B8EF29E0501D7
:10330000796B29C578F57B6B2F0E7A6F000178EC0D
:1033100001F01BBEF28E01504C0F05012B6F010E08
:1033200002202C6F010E2B25016E000E2C21036E46
:1033300001503E0F016E010E03220150080FE96E8D
:10334000000E0320EA6EEF52D8B485D01B6AF2BE9D
:103350001B8EF29E796B29C578F57B6B2F0E7A6FE9
:10336000000178EC01F01BBEF28E01504C0F0501FC
:103370002B6F010E02202C6F010E2B25016E000E0B
:103380002C21036E01503E0F016E010E03220150ED
:103390002A0FE96E000E0320EA6EEF6A1B6AF2BE86
:1033A0001B8EF29E796B29C578F57B6B2F0E7A6F99
:1033B000000178EC01F01BBEF28E01504C0F0501AC
:1033C0002B6F010E02202C6F010E2B25016E000EBB
:1033D0002C21036E01503E0F016E010E032201509D
:1033E0002D0FE96E000E0320EA6EEF6A1B6AF2BE33
:1033F0001B8EF29E796B29C578F57B6B2F0E7A6F49
:10340000000178EC01F01BBEF28E01504C0F05015B
:103410002B6F010E02202C6F010E2B25016E000E6A
:103420002C21036E01503E0F016E010E032201504C
:10343000280FE96E000E0320EA6ED890EF34036A7D
:103440000001B9EC00F00900F5CF03F004016517A5
:103450000350661705011B6AF2BE1B8EF29E796B44
:1034600029C578F57B6B2F0E7A6F000178EC01F09F
:103470001BBEF28E01504C0F05012B6F010E022076
:103480002C6F010E2B25016E000E2C21036E0150B6
:103490003E0F016E010E03220150090FE96E000E6E
:1034A0000320EA6EEF901B6AF2BE1B8EF29E796BD0
:1034B00029C578F57B6B2F0E7A6F000178EC01F04F
:1034C0001BBEF28E01504C0F05012B6F010E022026
:1034D0002C6F010E2B25016E000E2C21036E015066
:1034E0003E0F016E010E03220150130FE96E000E14
:1034F0000320EA6EEFA02BD11B6AF2BE1B8EF29E58
:10350000796B29C578F57B6B2F0E7A6F000178EC0B
:1035100001F01BBEF28E01504C0F05012D6F010E04
:1035200002202E6F010E2D25016E000E2E21036E3E
:1035300001503E0F016E010E032201502D0FE96E66
:10354000000E0320EA6EEF50040829E01B6AF2BE69
:103550001B8EF29E796B29C578F57B6B2F0E7A6FE7
:10356000000178EC01F01BBEF28E01504C0F0501FA
:103570002F6F010E0220306F010E2F25016E000EFD
:103580003021036E01503E0F016E010E03220150E7
:103590002D0FE96E000E0320EA6EEF2CD8D01B6AC7
:1035A000F2BE1B8EF29E796B29C578F57B6B2F0ED0
:1035B0007A6F000178EC01F01BBEF28E01504C0FC7
:1035C00005012B6F010E02202C6F010E2B25016EC1
:1035D000000E2C21036E01503E0F016E010E0322DE
:1035E0000150120FE96E000E0320EA6EEF52D8B4BC
:1035F00086D01B6AF2BE1B8EF29E796B29C578F5C8
:103600007B6B2F0E7A6F000178EC01F01BBEF28EFF
:1036100001504C0F05012B6F010E02202C6F010E83
:103620002B25016E000E2C21036E01503E0F016E02
:10363000010E032201502A0FE96E000E0320EA6EEC
:10364000EF6A1B6AF2BE1B8EF29E796B29C578F574
:103650007B6B2F0E7A6F000178EC01F01BBEF28EAF
:1036600001504C0F05012B6F010E02202C6F010E33
:103670002B25016E000E2C21036E01503E0F016EB2
:10368000010E032201502D0FE96E000E0320EA6E99
:10369000010EEF6E1B6AF2BE1B8EF29E796B29C57E
:1036A00078F57B6B2F0E7A6F000178EC01F01BBE72
:1036B000F28E01504C0F05012B6F010E02202C6F72
:1036C000010E2B25016E000E2C21036E01503E0FC2
:1036D000016E010E03220150290FE96E000E032036
:1036E000EA6ED890EF34036A0001B9EC00F00900EB
:1036F000F5CF03F0040165170350661705011B6A37
:10370000F2BE1B8EF29E796B29C578F57B6B2F0E6E
:103710007A6F000178EC01F01BBEF28E01504C0F65
:1037200005012B6F010E02202C6F010E2B25016E5F
:10373000000E2C21036E01503E0F016E010E03227C
:103740000150130FE96E000E0320EA6EEF901B6A22
:10375000F2BE1B8EF29E796B29C578F57B6B2F0E1E
:103760007A6F000178EC01F01BBEF28E01504C0F15
:1037700005012B6F010E02202C6F010E2B25016E0F
:10378000000E2C21036E01503E0F016E010E03222C
:1037900001501D0FE96E000E0320EA6EEFA02DD13F
:1037A0001B6AF2BE1B8EF29E796B29C578F57B6B86
:1037B0002F0E7A6F000178EC01F01BBEF28E0150E3
:1037C0004C0F05012D6F010E02202E6F010E2D25CD
:1037D000016E000E2E21036E01503E0F016E010E90
:1037E000032201502D0FE96E000E0320EA6EEF5008
:1037F00004082BE01B6AF2BE1B8EF29E796B29C572
:1038000078F57B6B2F0E7A6F000178EC01F01BBE10
:10381000F28E01504C0F05012F6F010E0220306F08
:10382000010E2F25016E000E3021036E01503E0F58
:10383000016E010E032201502D0FE96E000E0320D0
:10384000EA6EEF500208D8A4D8D01B6AF2BE1B8ED5
:10385000F29E796B29C578F57B6B2F0E7A6F00018C
:1038600078EC01F01BBEF28E01504C0F05012B6F5E
:10387000010E02202C6F010E2B25016E000E2C2153
:10388000036E01503E0F016E010E032201501C0F0A
:10389000E96E000E0320EA6EEF52D8B486D01B6AA0
:1038A000F2BE1B8EF29E796B29C578F57B6B2F0ECD
:1038B0007A6F000178EC01F01BBEF28E01504C0FC4
:1038C00005012B6F010E02202C6F010E2B25016EBE
:1038D000000E2C21036E01503E0F016E010E0322DB
:1038E00001502A0FE96E000E0320EA6EEF6A1B6A90
:1038F000F2BE1B8EF29E796B29C578F57B6B2F0E7D
:103900007A6F000178EC01F01BBEF28E01504C0F73
:1039100005012B6F010E02202C6F010E2B25016E6D
:10392000000E2C21036E01503E0F016E010E03228A
:1039300001502D0FE96E000E0320EA6E020EEF6EAD
:103940001B6AF2BE1B8EF29E796B29C578F57B6BE4
:103950002F0E7A6F000178EC01F01BBEF28E015041
:103960004C0F05012B6F010E02202C6F010E2B2531
:10397000016E000E2C21036E01503E0F016E010EF0
:1039800003220150280FE96E000E0320EA6ED89042
:10399000EF34036A0001B9EC00F00900F5CF03F041
:1039A000040165170350661705011B6AF2BE1B8EE2
:1039B000F29E796B29C578F57B6B2F0E7A6F00012B
:1039C00078EC01F01BBEF28E01504C0F05012B6FFD
:1039D000010E02202C6F010E2B25016E000E2C21F2
:1039E000036E01503E0F016E010E032201501D0FA8
:1039F000E96E000E0320EA6EEF901B6AF2BE1B8E8A
:103A0000F29E796B29C578F57B6B2F0E7A6F0001DA
:103A100078EC01F01BBEF28E01504C0F05012B6FAC
:103A2000010E02202C6F010E2B25016E000E2C21A1
:103A3000036E01503E0F016E010E03220150270F4D
:103A4000E96E000E0320EA6EEFA02DD11B6AF2BED4
:103A50001B8EF29E796B29C578F57B6B2F0E7A6FE2
:103A6000000178EC01F01BBEF28E01504C0F0501F5
:103A70002D6F010E02202E6F010E2D25016E000EFE
:103A80002E21036E01503E0F016E010E03220150E4
:103A90002D0FE96E000E0320EA6EEF5004082BE0B4
:103AA0001B6AF2BE1B8EF29E796B29C578F57B6B83
:103AB0002F0E7A6F000178EC01F01BBEF28E0150E0
:103AC0004C0F05012F6F010E0220306F010E2F25C4
:103AD000016E000E3021036E01503E0F016E010E8B
:103AE000032201502D0FE96E000E0320EA6EEF5005
:103AF0000308D8A4D8D01B6AF2BE1B8EF29E796B45
:103B000029C578F57B6B2F0E7A6F000178EC01F0F8
:103B10001BBEF28E01504C0F05012B6F010E0220CF
:103B20002C6F010E2B25016E000E2C21036E01500F
:103B30003E0F016E010E03220150260FE96E000EAA
:103B40000320EA6EEF52D8B486D01B6AF2BE1B8EF9
:103B5000F29E796B29C578F57B6B2F0E7A6F000189
:103B600078EC01F01BBEF28E01504C0F05012B6F5B
:103B7000010E02202C6F010E2B25016E000E2C2150
:103B8000036E01503E0F016E010E032201502A0FF9
:103B9000E96E000E0320EA6EEF6A1B6AF2BE1B8E0E
:103BA000F29E796B29C578F57B6B2F0E7A6F000139
:103BB00078EC01F01BBEF28E01504C0F05012B6F0B
:103BC000010E02202C6F010E2B25016E000E2C2100
:103BD000036E01503E0F016E010E032201502D0FA6
:103BE000E96E000E0320EA6E030EEF6E1B6AF2BE52
:103BF0001B8EF29E796B29C578F57B6B2F0E7A6F41
:103C0000000178EC01F01BBEF28E01504C0F050153
:103C10002B6F010E02202C6F010E2B25016E000E62
:103C20002C21036E01503E0F016E010E0322015044
:103C3000290FE96E000E0320EA6ED890EF34036A74
:103C40000001B9EC00F00900F5CF03F0040165179D
:103C50000350661705011B6AF2BE1B8EF29E796B3C
:103C600029C578F57B6B2F0E7A6F000178EC01F097
:103C70001BBEF28E01504C0F05012B6F010E02206E
:103C80002C6F010E2B25016E000E2C21036E0150AE
:103C90003E0F016E010E03220150270FE96E000E48
:103CA0000320EA6EEF90050103D0292BA9EF14F051
:103CB0002AA104D0000196EC10F005010001000CCF
:103CC000A380A382A384A386A388A38EA38A9D84B2
:103CD000F28A9D809D82F288C00EF212EAEF34F0E3
:103CE00005013C6B3C5107080FE3036A3C51392541
:103CF000E96E3A510320EA6E3B51EF5C03E1010E9D
:103D0000016E04D03C2BEED7000E016E0001000CBA
:103D10000501346B01013F510501345DD8B07FEFDF
:103D200023F01B6AF2BE1B8EF29E796B34C578F5C8
:103D30007B6B2F0E7A6F000178EC01F01BBEF28EC8
:103D400002C003F001508A0F016E020E032201C06F
:103D5000E9FF03C0EAFFEF50010A08E0010AD8B406
:103D60009BD1020AD8B4A5D27AEF23F01B6AF2BE27
:103D70001B8EF29E0501796B34C578F57B6B2F0E97
:103D80007A6F000178EC01F01BBEF28E01504C0FEF
:103D90000501356F010E0220366F010E3525016ECB
:103DA000000E3621036E01503E0F016E010E0322FC
:103DB0000150140F016E000E032201C037F503C03D
:103DC00038F503C03AF501C039F532C53BF50001BD
:103DD00087DF015254E01B6AF2BE1B8EF29E050182
:103DE000796B34C578F57B6B2F0E7A6F000178EC18
:103DF00001F01BBEF28E01504C0F0501356F010E14
:103E00000220366F010E3525016E000E3621036E3D
:103E100001503E0F016E010E032201501C0FE96E8E
:103E2000000E0320EA6E33C5EFFF1B6AF2BE1B8E45
:103E3000F29E796B34C578F57B6B2F0E7A6F00019B
:103E400078EC01F01BBEF28E01504C0F0501356F6E
:103E5000010E0220366F010E3525016E000E36214F
:103E6000036E01503E0F016E010E032201501D0F23
:103E7000E96E000E0320EA6EEF800CD100011B6A90
:103E8000F2BE1B8EF29E0501796B34C578F57B6B13
:103E90002F0E7A6F000178EC01F01BBEF28E0150FC
:103EA0004C0F0501356F010E0220366F010E3525CE
:103EB000016E000E3621036E01503E0F016E010EA1
:103EC000032201C037F503C038F503C03AF501C03D
:103ED00039F532C53BF5000103DF015254E01B6A9E
:103EE000F2BE1B8EF29E0501796B34C578F57B6BB3
:103EF0002F0E7A6F000178EC01F01BBEF28E01509C
:103F00004C0F0501356F010E0220366F010E35256D
:103F1000016E000E3621036E01503E0F016E010E40
:103F200003220150080FE96E000E0320EA6E33C52C
:103F3000EFFF1B6AF2BE1B8EF29E796B34C578F5DB
:103F40007B6B2F0E7A6F000178EC01F01BBEF28EB6
:103F500001504C0F0501356F010E0220366F010E26
:103F60003525016E000E3621036E01503E0F016EA5
:103F7000010E03220150090FE96E000E0320EA6EC4
:103F8000EF8088D000011B6AF2BE1B8EF29E0501F5
:103F9000796B34C578F57B6B2F0E7A6F000178EC66
:103FA00001F01BBEF28E01504C0F0501356F010E62
:103FB0000220366F010E3525016E000E3621036E8C
:103FC00001503E0F016E010E032201500A0F016ED7
:103FD000000E032201C037F503C038F503C03AF5DF
:103FE00001C039F532C53BF500017ADE015253E0DC
:103FF0001B6AF2BE1B8EF29E0501796B34C578F503
:104000007B6B2F0E7A6F000178EC01F01BBEF28EF5
:1040100001504C0F0501356F010E0220366F010E65
:104020003525016E000E3621036E01503E0F016EE4
:10403000010E03220150120FE96E000E0320EA6EFA
:1040400033C5EFFF1B6AF2BE1B8EF29E796B34C53F
:1040500078F57B6B2F0E7A6F000178EC01F01BBEB8
:10406000F28E01504C0F0501356F010E0220366FA4
:10407000010E3525016E000E3621036E01503E0FF4
:10408000016E010E03220150130FE96E000E032092
:10409000EA6EEF8000012FD31B6AF2BE1B8EF29EE8
:1040A0000501796B34C578F57B6B2F0E7A6F0001B3
:1040B00078EC01F01BBEF28E01504C0F0501356FFC
:1040C000010E0220366F010E3525016E000E3621DD
:1040D000036E01503E0F016E010E032201C037F541
:1040E00003C038F503C03AF501C039F532C53BF5D8
:1040F0000001F6DD015254E01B6AF2BE1B8EF29EF7
:104100000501796B34C578F57B6B2F0E7A6F000152
:1041100078EC01F01BBEF28E01504C0F0501356F9B
:10412000010E0220366F010E3525016E000E36217C
:10413000036E01503E0F016E010E03220150080F65
:10414000E96E000E0320EA6E33C5EFFF1B6AF2BE74
:104150001B8EF29E796B34C578F57B6B2F0E7A6FD0
:10416000000178EC01F01BBEF28E01504C0F0501EE
:10417000356F010E0220366F010E3525016E000EDF
:104180003621036E01503E0F016E010E03220150D5
:10419000090FE96E000E0320EA6EEF8088D000015F
:1041A0001B6AF2BE1B8EF29E0501796B34C578F551
:1041B0007B6B2F0E7A6F000178EC01F01BBEF28E44
:1041C00001504C0F0501356F010E0220366F010EB4
:1041D0003525016E000E3621036E01503E0F016E33
:1041E000010E032201500A0F016E000E032201C0CE
:1041F00037F503C038F503C03AF501C039F532C5CB
:104200003BF500016DDD015253E01B6AF2BE1B8ECF
:10421000F29E0501796B34C578F57B6B2F0E7A6FB2
:10422000000178EC01F01BBEF28E01504C0F05012D
:10423000356F010E0220366F010E3525016E000E1E
:104240003621036E01503E0F016E010E0322015014
:10425000120FE96E000E0320EA6E33C5EFFF1B6AF2
:10426000F2BE1B8EF29E796B34C578F57B6B2F0EF8
:104270007A6F000178EC01F01BBEF28E01504C0FFA
:104280000501356F010E0220366F010E3525016ED6
:10429000000E3621036E01503E0F016E010E032207
:1042A0000150130FE96E000E0320EA6EEF8000014B
:1042B00022D21B6AF2BE1B8EF29E0501796B34C5B9
:1042C00078F57B6B2F0E7A6F000178EC01F01BBE46
:1042D000F28E01504C0F0501356F010E0220366F32
:1042E000010E3525016E000E3621036E01503E0F82
:1042F000016E010E032201C037F503C038F503C07B
:104300003AF501C039F532C53BF50001E9DC01524F
:1043100054E01B6AF2BE1B8EF29E0501796B34C518
:1043200078F57B6B2F0E7A6F000178EC01F01BBEE5
:10433000F28E01504C0F0501356F010E0220366FD1
:10434000010E3525016E000E3621036E01503E0F21
:10435000016E010E03220150080FE96E000E0320CA
:10436000EA6E33C5EFFF1B6AF2BE1B8EF29E796BBD
:1043700034C578F57B6B2F0E7A6F000178EC01F075
:104380001BBEF28E01504C0F0501356F010E02204D
:10439000366F010E3525016E000E3621036E015079
:1043A0003E0F016E010E03220150090FE96E000E4F
:1043B0000320EA6EEF809CD100011B6AF2BE1B8EC7
:1043C000F29E0501796B34C578F57B6B2F0E7A6F01
:1043D000000178EC01F01BBEF28E01504C0F05017C
:1043E000356F010E0220366F010E3525016E000E6D
:1043F0003621036E01503E0F016E010E0322015063
:104400000A0F016E000E032201C037F503C038F514
:1044100003C03AF501C039F532C53BF5000160DC57
:10442000015254E01B6AF2BE1B8EF29E0501796BAD
:1044300034C578F57B6B2F0E7A6F000178EC01F0B4
:104440001BBEF28E01504C0F0501356F010E02208C
:10445000366F010E3525016E000E3621036E0150B8
:104460003E0F016E010E03220150120FE96E000E85
:104470000320EA6E33C5EFFF1B6AF2BE1B8EF29E6D
:10448000796B34C578F57B6B2F0E7A6F000178EC71
:1044900001F01BBEF28E01504C0F0501356F010E6D
:1044A0000220366F010E3525016E000E3621036E97
:1044B00001503E0F016E010E03220150130FE96EF1
:1044C000000E0320EA6EEF8013D100011B6AF2BEDA
:1044D0001B8EF29E0501796B34C578F57B6B2F0E30
:1044E0007A6F000178EC01F01BBEF28E01504C0F88
:1044F0000501356F010E0220366F010E3525016E64
:10450000000E3621036E01503E0F016E010E032294
:104510000150140F016E000E032201C037F503C0D5
:1045200038F503C03AF501C039F532C53BF5000155
:1045300070EC1EF0015254E01B6AF2BE1B8EF29E1C
:104540000501796B34C578F57B6B2F0E7A6F00010E
:1045500078EC01F01BBEF28E01504C0F0501356F57
:10456000010E0220366F010E3525016E000E362138
:10457000036E01503E0F016E010E032201501C0F0D
:10458000E96E000E0320EA6E33C5EFFF1B6AF2BE30
:104590001B8EF29E796B34C578F57B6B2F0E7A6F8C
:1045A000000178EC01F01BBEF28E01504C0F0501AA
:1045B000356F010E0220366F010E3525016E000E9B
:1045C0003621036E01503E0F016E010E0322015091
:1045D0001D0FE96E000E0320EA6EEF8089D0000106
:1045E0001B6AF2BE1B8EF29E0501796B34C578F50D
:1045F0007B6B2F0E7A6F000178EC01F01BBEF28E00
:1046000001504C0F0501356F010E0220366F010E6F
:104610003525016E000E3621036E01503E0F016EEE
:10462000010E032201501E0F016E000E032201C075
:1046300037F503C038F503C03AF501C039F532C586
:104640003BF5000170EC1EF0015253E01B6AF2BE14
:104650001B8EF29E0501796B34C578F57B6B2F0EAE
:104660007A6F000178EC01F01BBEF28E01504C0F06
:104670000501356F010E0220366F010E3525016EE2
:10468000000E3621036E01503E0F016E010E032213
:104690000150260FE96E000E0320EA6E33C5EFFFCE
:1046A0001B6AF2BE1B8EF29E796B34C578F57B6B6C
:1046B0002F0E7A6F000178EC01F01BBEF28E0150D4
:1046C0004C0F0501356F010E0220366F010E3525A6
:1046D000016E000E3621036E01503E0F016E010E79
:1046E00003220150270FE96E000E0320EA6EEF80CF
:1046F000000101D000D00501342B8AEF1EF0346B8D
:1047000001013E510501345DD8B037D11B6AF2BEBC
:104710001B8EF29E796B34C578F57B6B210E7A6F18
:10472000000178EC01F01BBEF28E02C003F00150D4
:10473000400F016E010E032201C0E9FF03C0EAFF32
:10474000EF50030A01E016D11B6AF2BE1B8EF29EE7
:104750000501796B34C578F57B6B210E7A6F00010A
:1047600078EC01F01BBEF28E0150020F0501356F8F
:10477000000E0220366F010E3525016E000E362127
:10478000036E01503E0F016E010E03220150090F0E
:10479000016E000E032201C037F503C038F503C0D7
:1047A0003AF501C039F532C53BF5000170EC1EF059
:1047B000015255E01B6AF2BE1B8EF29E0501796B19
:1047C00034C578F57B6B210E7A6F000178EC01F02F
:1047D0001BBEF28E0150020F0501356F000E022044
:1047E000366F010E3525016E000E3621036E015025
:1047F0003E0F016E010E032201501D0FE96E000EE7
:104800000320EA6EEC6AED52EF6A1B6AF2BE1B8E61
:10481000F29E796B34C578F57B6B210E7A6F0001BF
:1048200078EC01F01BBEF28E0150020F0501356FCE
:10483000000E0220366F010E3525016E000E362166
:10484000036E01503E0F016E010E032201501F0F37
:10485000E96E000E0320EA6EEF808AD000011B6A29
:10486000F2BE1B8EF29E0501796B34C578F57B6B29
:10487000210E7A6F000178EC01F01BBEF28E015020
:10488000020F0501356F000E0220366F010E35252F
:10489000016E000E3621036E01503E0F016E010EB7
:1048A00003220150130F016E000E032201C037F5E1
:1048B00003C038F503C03AF501C039F532C53BF500
:1048C000000170EC1EF0015254E01B6AF2BE1B8E18
:1048D000F29E0501796B34C578F57B6B210E7A6FFA
:1048E000000178EC01F01BBEF28E0150020F0501B1
:1048F000356F000E0220366F010E3525016E000E59
:104900003621036E01503E0F016E010E032201504D
:104910001D0FE96E000E0320EA6EEC6AED52EF6A9D
:104920001B6AF2BE1B8EF29E796B34C578F57B6BE9
:10493000210E7A6F000178EC01F01BBEF28E01505F
:10494000020F0501356F000E0220366F010E35256E
:10495000016E000E3621036E01503E0F016E010EF6
:10496000032201501F0FE96E000E0320EA6EEF9044
:10497000000100D00501342BC3D60001C6EF24F09E
:1049800030C532F531C533F588EF1EF0000C050156
:10499000296B01013E510501295DD8B068EF2CF06B
:1049A0001B6AF2BE1B8EF29E796B29C578F57B6B74
:1049B000210E7A6F000178EC01F01BBEF28E02C06E
:1049C00003F00150400F016E010E032201C0E9FF08
:1049D00003C0EAFFEF500DE0020AD8B481D2030A07
:1049E000D8B415EF29F0020AD8B4BBEF2AF063EF70
:1049F0002CF01B6AF2BE1B8EF29E0501796B29C555
:104A000078F57B6B210E7A6F000178EC01F01BBE0C
:104A1000F28E0150020F05012A6F000E02202B6F4B
:104A2000010E2A25016E000E2B21036E01503E0F50
:104A3000016E010E03220150020FE96E000E0320E9
:104A4000EA6EEFA0A7D01B6AF2BE1B8EF29E796BB6
:104A500029C578F57B6B210E7A6F000178EC01F0A7
:104A60001BBEF28E0150020F05012A6F000E0220BC
:104A70002B6F010E2A25016E000E2B21036E0150B3
:104A80003E0F016E010E032201C0E9FF03C0EAFFE1
:104A9000EFCF2CF51B6AF2BE1B8EF29E796B29C5F7
:104AA00078F57B6B210E7A6F000178EC01F01BBE6C
:104AB000F28E0150020F05012D6F000E02202E6FA5
:104AC000010E2D25016E000E2E21036E01503E0FAA
:104AD000016E010E03220150010FE96E000E03204A
:104AE000EA6EEFCF2FF52CC530F52FC531F500015B
:104AF00047DF1B6AF2BE1B8EF29E0501796B29C54A
:104B000078F57B6B210E7A6F000178EC01F01BBE0B
:104B1000F28E0150020F05012A6F000E02202B6F4A
:104B2000010E2A25016E000E2B21036E01503E0F4F
:104B3000016E010E03220150020FE96E000E0320E8
:104B4000EA6EEF901B6AF2BE1B8EF29E796B29C54E
:104B500078F57B6B210E7A6F000178EC01F01BBEBB
:104B6000F28E0150020F05012A6F000E02202B6FFA
:104B7000010E2A25016E000E2B21036E01503E0FFF
:104B8000016E010E03220150010FE96E000E032099
:104B9000EA6EEF6A1B6AF2BE1B8EF29E796B29C524
:104BA00078F57B6B210E7A6F000178EC01F01BBE6B
:104BB000F28E0150020F05012A6F000E02202B6FAA
:104BC000010E2A25016E000E2B21036E01503E0FAF
:104BD000016E010E03220150050FE96E000E032045
:104BE000EA6EEFA0A9D01B6AF2BE1B8EF29E796B13
:104BF00029C578F57B6B210E7A6F000178EC01F006
:104C00001BBEF28E0150020F05012A6F000E02201A
:104C10002B6F010E2A25016E000E2B21036E015011
:104C20003E0F016E010E03220150030FE96E000ECC
:104C30000320EA6EEFCF2CF51B6AF2BE1B8EF29EAC
:104C4000796B29C578F57B6B210E7A6F000178ECC2
:104C500001F01BBEF28E0150020F05012D6F000EF8
:104C600002202E6F010E2D25016E000E2E21036EE7
:104C700001503E0F016E010E03220150040FE96E38
:104C8000000E0320EA6EEFCF2FF52CC530F52FC5AF
:104C900031F5000175DE1B6AF2BE1B8EF29E050126
:104CA000796B29C578F57B6B210E7A6F000178EC62
:104CB00001F01BBEF28E0150020F05012A6F000E9B
:104CC00002202B6F010E2A25016E000E2B21036E90
:104CD00001503E0F016E010E03220150050FE96ED7
:104CE000000E0320EA6EEF901B6AF2BE1B8EF29E4E
:104CF000796B29C578F57B6B210E7A6F000178EC12
:104D000001F01BBEF28E0150020F05012A6F000E4A
:104D100002202B6F010E2A25016E000E2B21036E3F
:104D200001503E0F016E010E03220150040FE96E87
:104D3000000E0320EA6EEF6A1B6AF2BE1B8EF29E23
:104D4000796B29C578F57B6B210E7A6F000178ECC1
:104D500001F01BBEF28E0150020F05012A6F000EFA
:104D600002202B6F010E2A25016E000E2B21036EEF
:104D700001503E0F016E010E03220150080FE96E33
:104D8000000E0320EA6EEFA0A9D01B6AF2BE1B8EB4
:104D9000F29E796B29C578F57B6B210E7A6F000145
:104DA00078EC01F01BBEF28E0150020F05012A6F54
:104DB000000E02202B6F010E2A25016E000E2B2102
:104DC000036E01503E0F016E010E03220150060FCB
:104DD000E96E000E0320EA6EEFCF2CF51B6AF2BEDF
:104DE0001B8EF29E796B29C578F57B6B210E7A6F4D
:104DF000000178EC01F01BBEF28E0150020F05019C
:104E00002D6F000E02202E6F010E2D25016E000E5B
:104E10002E21036E01503E0F016E010E0322015040
:104E2000070FE96E000E0320EA6EEFCF2FF52CC5B9
:104E300030F52FC531F50001A3DD1B6AF2BE1B8ED4
:104E4000F29E0501796B29C578F57B6B210E7A6F8F
:104E5000000178EC01F01BBEF28E0150020F05013B
:104E60002A6F000E02202B6F010E2A25016E000E04
:104E70002B21036E01503E0F016E010E03220150E3
:104E8000080FE96E000E0320EA6EEF901B6AF2BE77
:104E90001B8EF29E796B29C578F57B6B210E7A6F9C
:104EA000000178EC01F01BBEF28E0150020F0501EB
:104EB0002A6F000E02202B6F010E2A25016E000EB4
:104EC0002B21036E01503E0F016E010E0322015093
:104ED000070FE96E000E0320EA6EEF6A65EF2CF013
:104EE0001B6AF2BE1B8EF29E0501796B29C578F50F
:104EF0007B6B210E7A6F000178EC01F01BBEF28E05
:104F00000150020F05012A6F000E02202B6F010EC7
:104F10002A25016E000E2B21036E01503E0F016EFB
:104F2000010E03220150020FE96E000E0320EA6E0B
:104F3000EFA0A7D01B6AF2BE1B8EF29E796B29C52B
:104F400078F57B6B210E7A6F000178EC01F01BBEC7
:104F5000F28E0150020F05012A6F000E02202B6F06
:104F6000010E2A25016E000E2B21036E01503E0F0B
:104F7000016E010E032201C0E9FF03C0EAFFEFCF7B
:104F80002CF51B6AF2BE1B8EF29E796B29C578F553
:104F90007B6B210E7A6F000178EC01F01BBEF28E64
:104FA0000150020F05012D6F000E02202E6F010E21
:104FB0002D25016E000E2E21036E01503E0F016E55
:104FC000010E03220150010FE96E000E0320EA6E6C
:104FD000EFCF2FF52CC530F52FC531F50001D0DC12
:104FE0001B6AF2BE1B8EF29E0501796B29C578F50E
:104FF0007B6B210E7A6F000178EC01F01BBEF28E04
:105000000150020F05012A6F000E02202B6F010EC6
:105010002A25016E000E2B21036E01503E0F016EFA
:10502000010E03220150020FE96E000E0320EA6E0A
:10503000EF901B6AF2BE1B8EF29E796B29C578F544
:105040007B6B210E7A6F000178EC01F01BBEF28EB3
:105050000150020F05012A6F000E02202B6F010E76
:105060002A25016E000E2B21036E01503E0F016EAA
:10507000010E03220150010FE96E000E0320EA6EBB
:10508000EF6A1B6AF2BE1B8EF29E796B29C578F51A
:105090007B6B210E7A6F000178EC01F01BBEF28E63
:1050A0000150020F05012A6F000E02202B6F010E26
:1050B0002A25016E000E2B21036E01503E0F016E5A
:1050C000010E03220150050FE96E000E0320EA6E67
:1050D000EFA0AAD01B6AF2BE1B8EF29E796B29C587
:1050E00078F57B6B210E7A6F000178EC01F01BBE26
:1050F000F28E0150020F05012A6F000E02202B6F65
:10510000010E2A25016E000E2B21036E01503E0F69
:10511000016E010E03220150030FE96E000E032001
:10512000EA6EEFCF2CF51B6AF2BE1B8EF29E796BF6
:1051300029C578F57B6B210E7A6F000178EC01F0C0
:105140001BBEF28E0150020F05012D6F000E0220D2
:105150002E6F010E2D25016E000E2E21036E0150C3
:105160003E0F016E010E03220150040FE96E000E86
:105170000320EA6EEFCF2FF52CC530F52FC531F5A2
:105180000001C0EC24F01B6AF2BE1B8EF29E0501EA
:10519000796B29C578F57B6B210E7A6F000178EC6D
:1051A00001F01BBEF28E0150020F05012A6F000EA6
:1051B00002202B6F010E2A25016E000E2B21036E9B
:1051C00001503E0F016E010E03220150050FE96EE2
:1051D000000E0320EA6EEF901B6AF2BE1B8EF29E59
:1051E000796B29C578F57B6B210E7A6F000178EC1D
:1051F00001F01BBEF28E0150020F05012A6F000E56
:1052000002202B6F010E2A25016E000E2B21036E4A
:1052100001503E0F016E010E03220150040FE96E92
:10522000000E0320EA6EEF6A50D31B6AF2BE1B8E9B
:10523000F29E0501796B29C578F57B6B210E7A6F9B
:10524000000178EC01F01BBEF28E0150020F050147
:105250002A6F000E02202B6F010E2A25016E000E10
:105260002B21036E01503E0F016E010E03220150EF
:10527000020FE96E000E0320EA6EEFA0A8D01B6AB1
:10528000F2BE1B8EF29E796B29C578F57B6B210EE1
:105290007A6F000178EC01F01BBEF28E0150020F14
:1052A00005012A6F000E02202B6F010E2A25016EC8
:1052B000000E2B21036E01503E0F016E010E0322E2
:1052C00001C0E9FF03C0EAFFEFCF2CF51B6AF2BE75
:1052D0001B8EF29E796B29C578F57B6B210E7A6F58
:1052E000000178EC01F01BBEF28E0150020F0501A7
:1052F0002D6F000E02202E6F010E2D25016E000E67
:105300002E21036E01503E0F016E010E032201504B
:10531000010FE96E000E0320EA6EEFCF2FF52CC5CA
:1053200030F52FC531F50001C0EC24F01B6AF2BE48
:105330001B8EF29E0501796B29C578F57B6B210EDA
:105340007A6F000178EC01F01BBEF28E0150020F63
:1053500005012A6F000E02202B6F010E2A25016E17
:10536000000E2B21036E01503E0F016E010E032231
:105370000150020FE96E000E0320EA6EEF901B6AE7
:10538000F2BE1B8EF29E796B29C578F57B6B210EE0
:105390007A6F000178EC01F01BBEF28E0150020F13
:1053A00005012A6F000E02202B6F010E2A25016EC7
:1053B000000E2B21036E01503E0F016E010E0322E1
:1053C0000150010FE96E000E0320EA6EEF6A1B6ABE
:1053D000F2BE1B8EF29E796B29C578F57B6B210E90
:1053E0007A6F000178EC01F01BBEF28E0150020FC3
:1053F00005012A6F000E02202B6F010E2A25016E77
:10540000000E2B21036E01503E0F016E010E032290
:105410000150050FE96E000E0320EA6EEFA0AAD03E
:105420001B6AF2BE1B8EF29E796B29C578F57B6BE9
:10543000210E7A6F000178EC01F01BBEF28E015054
:10544000020F05012A6F000E02202B6F010E2A2584
:10545000016E000E2B21036E01503E0F016E010EF6
:1054600003220150030FE96E000E0320EA6EEFCF16
:105470002CF51B6AF2BE1B8EF29E796B29C578F55E
:105480007B6B210E7A6F000178EC01F01BBEF28E6F
:105490000150020F05012D6F000E02202E6F010E2C
:1054A0002D25016E000E2E21036E01503E0F016E60
:1054B000010E03220150040FE96E000E0320EA6E74
:1054C000EFCF2FF52CC530F52FC531F50001C0EC1D
:1054D00024F01B6AF2BE1B8EF29E0501796B29C572
:1054E00078F57B6B210E7A6F000178EC01F01BBE22
:1054F000F28E0150020F05012A6F000E02202B6F61
:10550000010E2A25016E000E2B21036E01503E0F65
:10551000016E010E03220150050FE96E000E0320FB
:10552000EA6EEF901B6AF2BE1B8EF29E796B29C564
:1055300078F57B6B210E7A6F000178EC01F01BBED1
:10554000F28E0150020F05012A6F000E02202B6F10
:10555000010E2A25016E000E2B21036E01503E0F15
:10556000016E010E03220150040FE96E000E0320AC
:10557000EA6EEF6AAAD11B6AF2BE1B8EF29E05018B
:10558000796B29C578F57B6B210E7A6F000178EC79
:1055900001F01BBEF28E0150020F05012A6F000EB2
:1055A00002202B6F010E2A25016E000E2B21036EA7
:1055B00001503E0F016E010E03220150050FE96EEE
:1055C000000E0320EA6EEFA0AAD01B6AF2BE1B8E6B
:1055D000F29E796B29C578F57B6B210E7A6F0001FD
:1055E00078EC01F01BBEF28E0150020F05012A6F0C
:1055F000000E02202B6F010E2A25016E000E2B21BA
:10560000036E01503E0F016E010E03220150030F85
:10561000E96E000E0320EA6EEFCF2CF51B6AF2BE96
:105620001B8EF29E796B29C578F57B6B210E7A6F04
:10563000000178EC01F01BBEF28E0150020F050153
:105640002D6F000E02202E6F010E2D25016E000E13
:105650002E21036E01503E0F016E010E03220150F8
:10566000040FE96E000E0320EA6EEFCF2FF52CC574
:1056700030F52FC531F50001C0EC24F01B6AF2BEF5
:105680001B8EF29E0501796B29C578F57B6B210E87
:105690007A6F000178EC01F01BBEF28E0150020F10
:1056A00005012A6F000E02202B6F010E2A25016EC4
:1056B000000E2B21036E01503E0F016E010E0322DE
:1056C0000150050FE96E000E0320EA6EEF901B6A91
:1056D000F2BE1B8EF29E796B29C578F57B6B210E8D
:1056E0007A6F000178EC01F01BBEF28E0150020FC0
:1056F00005012A6F000E02202B6F010E2A25016E74
:10570000000E2B21036E01503E0F016E010E03228D
:105710000150040FE96E000E0320EA6EEF6A1B6A67
:10572000F2BE1B8EF29E796B29C578F57B6B210E3C
:105730007A6F000178EC01F01BBEF28E0150020F6F
:1057400005012A6F000E02202B6F010E2A25016E23
:10575000000E2B21036E01503E0F016E010E03223D
:105760000150080FE96E000E0320EA6EEFA0AAD0E8
:105770001B6AF2BE1B8EF29E796B29C578F57B6B96
:10578000210E7A6F000178EC01F01BBEF28E015001
:10579000020F05012A6F000E02202B6F010E2A2531
:1057A000016E000E2B21036E01503E0F016E010EA3
:1057B00003220150060FE96E000E0320EA6EEFCFC0
:1057C0002CF51B6AF2BE1B8EF29E796B29C578F50B
:1057D0007B6B210E7A6F000178EC01F01BBEF28E1C
:1057E0000150020F05012D6F000E02202E6F010ED9
:1057F0002D25016E000E2E21036E01503E0F016E0D
:10580000010E03220150070FE96E000E0320EA6E1D
:10581000EFCF2FF52CC530F52FC531F50001C0ECC9
:1058200024F01B6AF2BE1B8EF29E0501796B29C51E
:1058300078F57B6B210E7A6F000178EC01F01BBECE
:10584000F28E0150020F05012A6F000E02202B6F0D
:10585000010E2A25016E000E2B21036E01503E0F12
:10586000016E010E03220150080FE96E000E0320A5
:10587000EA6EEF901B6AF2BE1B8EF29E796B29C511
:1058800078F57B6B210E7A6F000178EC01F01BBE7E
:10589000F28E0150020F05012A6F000E02202B6FBD
:1058A000010E2A25016E000E2B21036E01503E0FC2
:1058B000016E010E03220150070FE96E000E032056
:1058C000EA6EEF6A02D0050100D0292BC9EF24F05F
:1058D0000001F8EF34F00501296B01013F5105018A
:1058E000295DD8B075EF30F01B6AF2BE1B8EF29EB8
:1058F000796B29C578F57B6B2F0E7A6F000178ECF8
:1059000001F01BBEF28E02C003F001508A0F016E3F
:10591000020E032201C0E9FF03C0EAFFEF50020AB2
:1059200001E0DFD31B6AF2BE1B8EF29E0501796B8C
:1059300029C578F57B6B2F0E7A6F000178EC01F0AA
:105940001BBEF28E01504C0F05012A6F010E022082
:105950002B6F010E2A25016E000E2B21036E0150C4
:105960003E0F016E010E032201502D0FE96E000E55
:105970000320EA6EEF500408D8B4B1D31B6AF2BE1C
:105980001B8EF29E796B29C578F57B6B2F0E7A6F93
:10599000000178EC01F01BBEF28E01504C0F0501A6
:1059A0002A6F010E02202B6F010E2A25016E000EB8
:1059B0002B21036E01503E0F016E010E0322015098
:1059C0002A0FE96E000E0320EA6EEF2A1B6AF2BE70
:1059D0001B8EF29E796B29C578F57B6B2F0E7A6F43
:1059E000000178EC01F01BBEF28E01504C0F050156
:1059F0002A6F010E02202B6F010E2A25016E000E68
:105A00002B21036E01503E0F016E010E0322015047
:105A10002D0FE96E000E0320EA6EEF52D8A4B8D025
:105A20001B6AF2BE1B8EF29E796B29C578F57B6BE3
:105A30002F0E7A6F000178EC01F01BBEF28E015040
:105A40004C0F05012A6F010E02202B6F010E2A2533
:105A5000016E000E2B21036E01503E0F016E010EF0
:105A6000032201502A0FE96E000E0320EA6EEFCFE9
:105A70002CF51B6AF2BE1B8EF29E796B29C578F558
:105A80007B6B2F0E7A6F000178EC01F01BBEF28E5B
:105A900001504C0F05012D6F010E02202E6F010EDB
:105AA0002D25016E000E2E21036E01503E0F016E5A
:105AB000010E032201502C0FE96E000E0320EA6E46
:105AC000EF502C5D65E064E31B6AF2BE1B8EF29E14
:105AD000796B29C578F57B6B2F0E7A6F000178EC16
